:1000000000560020212501007124010081240100F7
:1000100099240100B1240100C9240100000000005E
:10002000000000000000000000000000E1240100CA
:10003000F12401000000000001250100112501004C
:100040005924010000000000000000008D5E000047
:10005000B55D00002D5E0000000000000000000003
:10006000E10601007142000051420000D55E00002F
:10007000000000000000000000000000F55E00002D
:100080002DE9F843054688464FF0A0441C4EDFF8A2
:1000900078901C4F237E002BFCD1A37E2BB94FF010
:1000A00001022274A37E002BFBD072B6735DF3B9FC
:1000B00000F02EF8C0B90122D9F8103043F0040343
:1000C000C9F8103087F83220BFF34F8F00BF30BF20
:1000D00087F83200D9F8103023F00403C9F8103043
:1000E000BFF34F8F62B6D5E700BF30BFFAE70023FA
:1000F0007355B8F1000F00D0C04762B6BDE8F88371
:10010000A41400200000105000ED00E000000000EA
:100110005FF800F029060100FFFFFFFFFFFFFFFF70
:10012000FFFFFFFFFFFFFFFFFFFFFFFFFFFFFFFFDF
:10013000FFFFFFFFFFFFFFFFFFFFFFFFFFFFFFFFCF
:10014000FFFFFFFFFFFFFFFFFFFFFFFFFFFFFFFFBF
:10015000FFFFFFFFFFFFFFFFFFFFFFFFFFFFFFFFAF
:10016000FFFFFFFFFFFFFFFFFFFFFFFFFFFFFFFF9F
:10017000FFFFFFFFFFFFFFFFFFFFFFFFFFFFFFFF8F
:10018000FFFFFFFFFFFFFFFFFFFFFFFFFFFFFFFF7F
:10019000FFFFFFFFFFFFFFFFFFFFFFFFFFFFFFFF6F
:1001A000FFFFFFFFFFFFFFFFFFFFFFFFFFFFFFFF5F
:1001B000FFFFFFFFFFFFFFFFFFFFFFFFFFFFFFFF4F
:1001C000FFFFFFFFFFFFFFFFFFFFFFFFFFFFFFFF3F
:1001D000FFFFFFFFFFFFFFFFFFFFFFFFFFFFFFFF2F
:1001E000FFFFFFFFFFFFFFFFFFFFFFFFFFFFFFFF1F
:1001F000FFFFFFFFFFFFFFFFFFFFFFFFFFFFFFFF0F
:10020000FFFFFFFFFFFFFFFFFFFFFFFFFFFFFFFFFE
:10021000FFFFFFFFFFFFFFFFFFFFFFFFFFFFFFFFEE
:10022000FFFFFFFFFFFFFFFFFFFFFFFFFFFFFFFFDE
:10023000FFFFFFFFFFFFFFFFFFFFFFFFFFFFFFFFCE
:10024000FFFFFFFFFFFFFFFFFFFFFFFFFFFFFFFFBE
:10025000FFFFFFFFFFFFFFFFFFFFFFFFFFFFFFFFAE
:10026000FFFFFFFFFFFFFFFFFFFFFFFFFFFFFFFF9E
:10027000FFFFFFFFFFFFFFFFFFFFFFFFFFFFFFFF8E
:10028000704700BF034613F8012B002AFBD1181A50
:10029000013870470048704754B301002020704770
:1002A0000620704708B512F059F808BD08B512F0DD
:1002B000CFF843690148984708BD00BF5CB301000F
:1002C00010B50C4611461A46012807D010B1022875
:1002D0000BD010BDE0B200F039F8FAE7BDF80830F5
:1002E000C9B2E0B200F06EF8F3E7E0B200F00CF94A
:1002F000EFE700BF044B00229A80DA805A819A818E
:10030000B4221A81704700BF00200020014B1878EA
:10031000704700BF0020002010B40446034B0FCBF1
:1003200084E80F00204610BC704700BF0420002066
:1003300082B0054B9B8A0020DAB262F307001B0AE9
:1003400063F30F2002B070470020002010B5044670
:100350001A4B1B7813F0030F02D010F00C0F15D1BD
:1003600014F0030F1AD113F0080F02D014F0040F89
:100370001CD113F0040F13D014F0080F10D00F4B42
:1003800000229A80DA80B4221A8109E011F0E6FF97
:1003900002690A4B1A61FFF7ADFF01E0FFF7AAFF00
:1003A000064B1C70064800F043F910BD034B0022B9
:1003B0009A80DA80B4221A81F2E700BF0020002080
:1003C00064B3010010B5044600F04CFA042C00D0D0
:1003D00010BD4A4800F07AF9494B1A78042A37D000
:1003E000082A4AD0464B5B89B3F5616F05D3444B6D
:1003F00000215981998901319981414B99894EF6A2
:100400006023994251D03E4BD9884EF660239942E1
:100410004FD03B4B99884EF6602399424DD012F055
:10042000080FD5D000F027FA03689847036898476B
:10043000002846D1324B1B7813F0080FC8D02F4844
:1004400000F07CF9002848D02D4BB4221A81BFE778
:100450002B49CB8801339BB2CB802A49A1FB0301F6
:100460000909C1EB0111A3EB41039BB2002BB9D1E8
:1004700023494B8901334B81B4E721490B89013B67
:100480000B818B8801339BB28B801E49A1FB03013A
:100490004909C1EB0111A3EB81039BB2002BA1D150
:1004A00017494B8901334B819CE7154B00219981FA
:1004B000A9E7134B0021D980ABE7114B00219980AC
:1004C000ADE700F0D8F90368984700F066F8012816
:1004D000B0D10B4BB4221A81ACE7094B1B7813F057
:1004E000080F3FF475AF064B1B89002B7FF470AFEC
:1004F00011F0AEFF036898476AE700BF64B30100DC
:10050000002000208988888808B5032808D8DFE8FB
:1005100000F008020C0FFFF7EDFE074800F088F826
:1005200008BD054800F0A8F8FAE7044B1975F7E78D
:10053000024B5975F4E700BF64B3010000200020AE
:10054000134672B1128882420DD89A8882420CD327
:10055000DA888A420BD3588888428CBF0020012059
:10056000704700207047002070470020704700202F
:10057000704708B5002300F042FD08BD08B500F043
:100580003EFD08BD08B5002100F069FDC0B208BD00
:1005900008B500F064FDC0B208BD08B500F09AFCD3
:1005A00008BD08B500F0AEFC08BD08B500F0C2FCFF
:1005B00008BD08B500F0D6FC08BD08B500F0EAFC9F
:1005C00008BD08B500F0FEFC08BD08B500F06AFCE7
:1005D00008BD08B500F068FD08BD000070B506460E
:1005E000124B1B689BB100242346104D55F8232065
:1005F00032B155F82330984743683046984730B9B0
:100600000134E4B2234655F82420002AEED111F03B
:100610001FFF8368012203210220984711F018FF71
:100620008368012203210420984770BD1C1000201C
:10063000F8B507460F4B1B68BBB1002425460D4E8D
:1006400056F8253053B156F82530984703682BB13A
:1006500056F8253098470368384698470134E4B285
:10066000254656F82430002BEAD13846FFF7B6FF6E
:10067000F8BD00BF1C100020F8B50746124B1B68E0
:10068000F3B100242546104E56F825308BB156F8AC
:100690002530984743683846984750B156F825307A
:1006A0009847C3682BB156F825309847C368384639
:1006B00098470134E4B2254656F82430002BE3D1A4
:1006C0003846FFF78BFFF8BD1C1000202DE9F041E4
:1006D0000746194B1B6863B300242546164E05E0F8
:1006E0000134E4B2254656F8243013B356F82530C9
:1006F000002BF5D056F82530984743683846984780
:100700000028EDD056F82530984790F81480BB6843
:10071000984718EA000FE3D056F8253098478368C9
:10072000002BDDD056F82530984783683846984727
:10073000D6E7BDE8F08100BF1C1000202DE9F04194
:1007400007461C4B1B68002B32D000242646194D4F
:1007500005E00134E4B2264655F824302BB355F8B1
:100760002630002BF5D055F8263098474368384698
:1007700098470028EDD055F82630984790F8148017
:10078000BB68984718EA000FE3D055F82630984721
:100790000369002BDDD055F82630984703693846A9
:1007A00098470028D5D0012000E00020BDE8F08166
:1007B0000020FBE71C10002008B543689847012083
:1007C00008BD704710B586B00446036898470368B3
:1007D000984702461A4903A800F0A2FE9DF815307A
:1007E00013F0020F11D0BDF80C30A3F5C9739BB202
:1007F000B3F58A7F09D8BDF80E30B92B05D99DF81D
:100800001430043BDBB2382B01D906B010BD0023F5
:10081000019302934FF00203012262F387138DF8D4
:10082000043011F015FE436801A8984763689847A3
:1008300090F8603043F0020380F86030E5E700BFD5
:100840001820002008B54FF4B473542252210248F6
:1008500000F051FE08BD00BF18200020004870477E
:1008600078B3010008B5022800D008BD194610462B
:1008700000F0EAFEF9E70148704700BF90B30100BD
:10088000F8B507460E464B68984704460E4DAB88B0
:1008900003EB83025200F432A0F8F220F43003EBB1
:1008A00083030A4A52F82720314600EB4300904761
:1008B000AB8801339BB2AB8094F8F1209A4201D807
:1008C0000022AA80F8BD00BF3420002094B30100AC
:1008D0007047704730B585B0044643689847462353
:1008E00080F8F1300A2380F8F0301B4B1B7813F0AE
:1008F000030F09D0A368984710F0080F21D1A3680F
:10090000984710F0040F1CD1134B1B7813F00C0FF9
:1009100009D0A368984710F0020F17D1A368984731
:1009200010F0010F12D1A36898470B4D2870E368AF
:1009300068469847BDF808306B800023EB8005B00F
:1009400030BD21460220FFF79BFFDDE72146032053
:10095000FFF796FFE7E700BF342000200120704733
:10096000704730B589B004468368984710F0080F87
:1009700004D1A368984710F0040F2AD02368984741
:10098000036898470546FFF708FE20B1214600207E
:10099000FFF776FF04E02846FFF703FE0028F5D1B5
:1009A00063689847B0F86030ABB9134B5D88013588
:1009B000E36804A89847BDF818309D4217D0E36853
:1009C000684698470C4BBDF808205A80DA880132F7
:1009D000DA8009B030BD21460120FFF751FF63687E
:1009E00098470023A0F86030034AD380DDE7214612
:1009F0000420FFF745FFE2E73420002030B58DB03A
:100A000004460D4611F024FDC3680A220021204649
:100A100098472378042262F302032370EB68684648
:100A200098472388BDF8062062F30F132380EB68F4
:100A300004A89847BDF81E306380EB6808A8984763
:100A40000B9BA3800DB030BD30B591B004460D4670
:100A500011F0FEFCC3680A22002120469847237843
:100A6000032262F3020323706B689847238802888D
:100A700062F30B132380104BDB881B09627863F34E
:100A800007126270EB6868469847BDF802306380D1
:100A9000EB6804A89847BDF81030A380EB6808A85D
:100AA0009847BDF82E30E380EB680CA898470F9B61
:100AB000238111B030BD00BF3420002030B58DB08F
:100AC00004460D4611F0C4FCC3680A2200212046EA
:100AD00098472378022262F302032370EB6868468A
:100AE00098472388BDF8062062F30F132380EB6834
:100AF00004A89847BDF81E306380EB6808A89847A3
:100B00000B9BA3800DB030BDF0B589B004460D46F7
:100B10000B689847036898470746EB68684698470C
:100B20003846FFF756FD064611F092FCC3680A22CC
:100B30000021204698472378012262F302032370A4
:100B4000EB6804A898472388BDF8162062F30F13BA
:100B500023806B68984790F8603013F0020F2CD117
:100B60006B68984790F8603013F0040F27D16B68DA
:100B7000984790F8603013F0080F22D16B689847BF
:100B800090F8603003F01003002B14BF06220022FF
:100B9000A37862F30303A370F6B2FB68304698476C
:100BA000638860F30F1363803B6930469847A388DE
:100BB00060F30F13A38009B0F0BD0122E8E704221F
:100BC000E6E70522E4E72DE9F04788B004460D4644
:100BD0000B689847036898470646EB6803A8984750
:100BE000BDF810803046FFF7ECFC074611F030FCF2
:100BF000C3680A2200212046984723786FF3020336
:100C00002370F36938469847012814BF002001205B
:100C1000237860F3C30323702388BDF8122062F3A6
:100C20000F1323804FEA1812A37862F30303A37013
:100C3000237968F303032371F36838469847638880
:100C400060F30F136380336938469847A38860F3D5
:100C50000F13A3802B699847ADF81C00A379C0B28D
:100C600060F30103A371B36938469847A37960F331
:100C70008303A371F3683846984733693846984729
:100C80002B689847036898478146FFF7A2FC804687
:100C90006B689847C388ADF804306B689847038940
:100CA000ADF806306B6898474388BDF804201344BC
:100CB000ADF808306B6898478388BDF80620134468
:100CC000ADF80A305FFA88F8D9F80C3040469847FA
:100CD0008246D9F810304046984701AA014650464E
:100CE000FFF72EFC00283ED14FF4C973ADF8043055
:100CF00040F2F273ADF8063040F2A623ADF80830AA
:100D000040F6AC03ADF80A30D9F80C3040469847AD
:100D10008246D9F810304046984701AA014650460D
:100D2000FFF70EFC003018BF0120A37960F34513D4
:100D3000A3716B68984790F86320237A62F30203EB
:100D400023726B68984790F86220238962F38813B6
:100D50002381F36938469847E38860F38F13E38073
:100D600008B0BDE8F0870120DFE70148704700BF09
:100D7000B0B3010038B543689847C58804894188F5
:100D8000294482882244034B1D805C809980DA804C
:100D900038BD00BF3C20002070B584B00446036815
:100DA0009847036898470246224902A800F0A0FA33
:100DB0009DF80830012B01D004B070BDBDF80A6069
:100DC000BDF80C501C4A29463046FFF7B9FB78BBEA
:100DD00063689847037813F0200FEDD001210023BA
:100DE00001934FF00203012262F3850362F387133C
:100DF0008DF800308DF8011033118DF802302B1171
:100E00008DF8033005F00F0545EA06158DF80450FE
:100E100011F01EFB43686846984700F0ABFA636820
:100E2000984790F8603043F0040380F86030C3E7DF
:100E30000021D4E7442000203C20002008B543686E
:100E40009847037813F0240F14BF012100210248B2
:100E500000F07BFA012008BD4420002030B583B0AB
:100E600005460D4C46230193642300931E23122252
:100E7000022104F1080000F02BFA6B689847C5883E
:100E8000018942882A4483880B4425806180A2809E
:100E9000E38003B030BD00BF3C2000200048704715
:100EA000C8B3010070B506460368984780B10024B6
:100EB000E5B233689847ABB2834207D2B36828469D
:100EC000984701340028F3D0012002E0002000E020
:100ED000002070BD70B506460368984780B10024B5
:100EE000E5B233689847ABB2834207D2F36928462C
:100EF000984701340128F3D1012002E0002000E0EE
:100F0000002070BD70B506460368984780B1002484
:100F1000E5B233689847ABB2834207D2F3692846FB
:100F2000984701340328F3D1012002E0002000E0BB
:100F3000002070BD70B506460368984778B100255B
:100F4000ECB233689847A3B2834206D2F3692046D5
:100F5000984701350128F3D102E0FF2400E0002486
:100F6000204670BD70B506460368984778B10025E5
:100F7000ECB233689847A3B2834206D2F3692046A5
:100F8000984701350328F3D102E0FF2400E0002454
:100F9000204670BD70B506460368984778B10025B5
:100FA000ECB233689847A3B2834206D2F369204675
:100FB000984701350228F3D102E0FF2400E0002425
:100FC000204670BD70B5054603689847A0B100265D
:100FD000F4B22B689847A3B283420BD2EB69204648
:100FE0009847012809D0EB69204698470136032825
:100FF000EED102E0FF2400E00024204670BD2DE980
:10100000F84F82468946154698460026374607E03F
:101010007B1CDBB20AF807404B451ED01F46013649
:10102000F4B22B689847A3B2834216D2EB692046EC
:1010300098470028F3D0EB682046984783462B69F1
:1010400020469847B8F1000FE2D042460146584684
:10105000FFF776FA0028DBD1E1E7BDE8F88F2DE94C
:10106000F843074688460026354602E00135EDB2D2
:101070000136F4B23B689847A3B2834211D2FB68B1
:101080002046984781463B6920469847B8F1000FB3
:10109000ECD0424601464846FFF752FA0028E5D117
:1010A000E6E768B2BDE8F88310B5044603689847E0
:1010B00030B123689847B0FA80F04009404210BD33
:1010C0004FF0FF30FBE70000002303704370838282
:1010D00043820382C3704FF6FF72C2800281837025
:1010E000704770B504460E46154663B1CB6810468E
:1010F0009847E0803369284698472081F36928465D
:101100009847A07270BD4FF6FF73C3800381002320
:101110008372F7E710B50446028A43899A4202D9DE
:101120000123C3730373A27B054B53F8223020467F
:101130009847E38B0133E383003018BF012010BDD3
:101140002C100020437823B10078003018BF012014
:10115000704701207047B0F90230B0F906209B1AA1
:10116000002BB8BF5B428B420CDCB0F90430B0F905
:101170000800181A0028B8BF40428142B4BF0020BE
:101180000120704700207047B0F91C2003889A4264
:1011900007DCB0F91E3040888342CCBF002001201C
:1011A00070470020704710B5044601891030FFF7E2
:1011B000D2FF034628B12046FFF7E6FF031C18BF05
:1011C0000123184610BD38B50446857E012D05D98A
:1011D000AB1EDBB2012B08D9002038BD01230373FD
:1011E0000020A0730323E373F7E7FFF7DCFF08B9E0
:1011F00001232373032D04D0A38B0133A383002089
:10120000EBE70023A373627BA3799A4201D000200D
:10121000E3E7207B40B9054B5B7B012B4FF00003DC
:10122000637318BF0120D8E70020D6E72C100020F8
:1012300038B50446837E012B01D0002038BDFFF76E
:10124000B2FF18B90223E3730123237304F10C05E1
:101250002846FFF777FF60B90123A3830022228489
:10126000637B01336373A37B0133A373054B5A7311
:10127000E3E72846FFF728FFE38A6382238BA382F4
:10128000EAE700BF2C10002010B5837E012B07D1A8
:101290000024847344730D4B1B689847204610BD8F
:1012A000002BFCD1038C01331BB203844288934290
:1012B00007DB00230384037B2BB983734373012073
:1012C000EDE70020EBE70020E9E700BF2C1000204D
:1012D00008B5028043809B1A83808171BDF8083075
:1012E0000381BDF80C3043810C30FFF7EDFE08BDE3
:1012F000F0B585B004460F461546002301930293CE
:10130000ADF80C301046FFF73DF90646012806D926
:10131000002323706380A380204605B0F0BD2A46D9
:101320000A2101A8FFF725F933469DF80420294634
:1013300007F11000FFF7D5FE3846FFF7EBFE7A8A7B
:10134000BB8A20706280A380E6E749B908498279A8
:10135000012303FA02F20B7B23EA02030B737047AB
:10136000034A817901238B40117B0B431373704730
:101370002C100020014B01225A7370472C100020C2
:1013800070B504460E46CB6900209847012801D06D
:10139000012070BD002525806580A580E580258120
:1013A0006581A581E58125746574237E03F0F803CA
:1013B00065F3C3032376F36828469847A081336911
:1013C00028469847E081237C01332374E0E7F8B591
:1013D00004460E46CB680020984707463369002034
:1013E00098470546F3690020984703283FD0A38912
:1013F000FB1A1BB22380B4F902209A42B8BF1A46E6
:1014000016466280B4F904709F42A8BF1F46A780A9
:10141000E089281A00B2E080B4F908208242B8BFFF
:1014200002462281B4F90A108142A8BF01466181B7
:10143000B4F9125001EB050C604552DA491B8842A1
:101440004FDD521B904203DC227E42F002022276E4
:10145000EA1993424ADA7F1BBB4247DD721B934273
:10146000DEBF237E43F0080323760120F8BD00236E
:101470002374B4F90020E38A9A4222DB217E01F032
:101480000801002914BF0020102059428A4206DCBE
:10149000227E12F0040F04BF40F00800C0B2B4F97D
:1014A000062093420FDC237E13F0020F0BD140F095
:1014B0000400C0B29142D9DB237E13F0010F08D0A3
:1014C000D4E70020E1E7914207DB237E13F0010F10
:1014D00003D140F00200C0B2C8E7002808BF0120D5
:1014E000C4E7217E41F001012176AAE7227E42F085
:1014F00004022276B2E741828282C3820023038003
:1015000043808380C380038143818381C3810374CB
:101510004374027E02F0F80263F3C302027670475E
:101520002DE9F04182B006460D461446294B93E85A
:10153000030002AB03E90300D3680020984780460C
:10154000236900209847074623689847E3690020ED
:10155000984730B323689847012822D16369002057
:101560009847AB8A83421CD3A36800209847C0B930
:101570002B7C02AA02EB830353F8083C2146284641
:101580009847A989EA896B7C5C1C6C7431807280F5
:10159000A6F80480F78033727072304602B0BDE85E
:1015A000F08100232B806B80AB80EB802B816B81E3
:1015B000AB81EB812B746B742A7E02F0F80263F32B
:1015C000C3022A7633807380B380F38033720123A1
:1015D0007372E2E7E0B30100014B1888704700BF67
:1015E000682000200A207047024B5B6803EB001064
:1015F000807B704768200020024B5B680001185C0C
:10160000704700BF68200020024B5B6803EB0010AE
:101610004088704768200020024B5B6803EB001095
:101620008088704768200020024B5B6803EB001045
:101630000089704768200020024B5B6803EB0010B4
:101640004078704768200020014B1980586070472F
:101650006820002000487047E8B3010010B5044638
:1016600012F09AFD04F1440104F1140014F02EFA72
:1016700004F1740011F03AFD04F5927011F0DAFBF8
:1016800004F5947014F018F904F59E7012F0AAF89D
:1016900004F5B67014F070FB04F5D27014F012FC6F
:1016A00004F5DA7012F072FD04F22D2000F0D6FB82
:1016B00004F5DD7012F0AAF894F8BA310BB912F003
:1016C000ABF804F5DE7011F0F3FF04F5047014F0CC
:1016D00059F804F5067012F04BFD0022014B1A6018
:1016E00010BD00BF3C10002038B9064A1368013312
:1016F0008B4205DD10600120704700231846014A27
:10170000136070473C10002008B511F003FC14F082
:1017100041F814F0E3FB12F07FF811F0D1FFBDE8BF
:10172000084000F093BB00BF0022014B1A607047D5
:1017300040100020024A136801331360704700BF55
:1017400040100020014B1868704700BF4010002077
:101750002DE9F04F013883B0002801916CDD01289C
:1017600072D04FF000094FF0010C09EB000303EBBE
:10177000D3735B1032F9131032F910404500A142C7
:1017800004DD22F813400C4622F8101032F919102B
:101790004FEA490BA14202EB0B0A04DD22F8194083
:1017A000515332F9191032F913408C4205DD22F8F9
:1017B000131022F80B4032F9134006460BF10201D8
:1017C000555E02EB4C0E22F81350545232F90B5076
:1017D0003EF9028F0CF1010CA845F9DB711E02EBFA
:1017E000410301E00E4601391F4633F90249AC427C
:1017F000F8DC8C4507DCAEF80040A7F800800E4608
:10180000BAF90050E4E7019B22F80B408B423D807F
:1018100018DBE14616DD48450EDD09F1010C844573
:10182000A3D102EB49094000B9F90030115E8B42A7
:10183000C4BFA9F800101352019B32F9130003B082
:10184000BDE8F08FB01EE6E791460220ECE700BF4E
:101850002DE9F04F013800EBD07383B05B10002806
:1018600001936CDD012872D04FF000094FF0010C9C
:1018700009EB000303EBD3735B1031F9132031F94B
:1018800010404500A24204DD21F81340144621F81F
:10189000102031F919204FEA490BA24201EB0B0A43
:1018A00004DD21F819404A5331F9192031F9134068
:1018B000944205DD21F8132021F80B4031F9134043
:1018C00006460BF102028D5E01EB4C0E21F813501F
:1018D0008C5231F90B503EF9028F0CF1010CA845E6
:1018E000F9DB721E01EB420301E01646013A1F4686
:1018F00033F90249AC42F8DC944507DCAEF800400D
:10190000A7F800801646BAF90050E4E7019B21F8D9
:101910000B4093423D8018DBE14616DD48450EDD65
:1019200009F1010C8445A3D101EB49094000B9F943
:1019300000300A5E9342C4BFA9F800200B52019BFD
:1019400031F9130003B0BDE8F08FB01EE6E7894619
:101950000220ECE7831A042B10B413DDDC1EB1F96E
:101960000430002A0B804B8031F9143008DD400030
:10197000A0EB42020A44014421F8023D8A42FBD115
:1019800010BC70475C1E032C08BF9C1EE7E700BF1D
:10199000F0B40446049E0846DDE90551A642DDF890
:1019A0001CC019DD04F10044AF1E013C07EB4607E3
:1019B00005EB44058E1C06E09C42B8BF1C46BD42A8
:1019C00026F8024F08D035F9024F9442F4DD144650
:1019D000BD4226F8024FF6D1F0BC6246FFF7BABF0F
:1019E000F0B400280F46DDE90561DDF81CC014DB0A
:1019F000013006EB40048D1C06E09842B8BF184643
:101A0000B44225F8020F08D034F9020D9042F4DDFB
:101A10001046B44225F8020FF6D13846F0BC6246B3
:101A2000FFF798BF2DE9F043B1F9009002284FEA83
:101A30004918DDE90767C2E90088DDE909CE21DD43
:101A40008C1E5B0176017F01043204EB4000023101
:101A500003E0A84631F9029C0432B1F90050B1F913
:101A6000024006FB05F503FB0454156802310CFB2C
:101A7000054407FB094408FB0E4481424FEAA424B5
:101A80005460E6D1BDE8F0832DE9F041884684B08A
:101A90004C00083404AFBD6B24F00704ADEB040D1B
:101AA000BE690395FD6904AC0195009602947D6BB7
:101AB000FFF76EFF3B6B21460293FB6A0395019390
:101AC000BB6A40460093D7E90823FFF7ABFFBD464A
:101AD000BDE8F0812DE9F041884684B04C0008341F
:101AE00004AFBD6B24F00704ADEB040DBE69039594
:101AF000FD6904AC0195009602947D6BFFF770FFC1
:101B00003B6B21460293FB6A03950193BB6A4046F7
:101B10000093D7E90823FFF785FFBD46BDE8F081B4
:101B20002DE9F04F8FB00AAF7D6D9A461B1A023334
:101B300000F103088B465919FB6B18EB05080446A6
:101B40001646FB6000F0AA804FEA8809002934D1CC
:101B500009F10A0929F00709C7F808D0ADEB090D0A
:101B600008953E6D0DF128090796FE6C1346069602
:101B7000BE6C5A4605967E6C414604963E6C0396B2
:101B8000BE6BCDF80890CDE900A6FFF7A3FF002CAF
:101B90000DDBFE680235013409EB850906EB4404D0
:101BA00059F8043B5B1124F8023DA642F8D1D7F85E
:101BB00008D01437BD46BDE8F08F8B000A3323F000
:101BC0000703C7F804D0ADEB030D08953A6D0AABD7
:101BD0000792FA6C09F10A090692BA6C29F0070912
:101BE00005927A6C04923A6C0392BA6BCDE900A22A
:101BF000BB605A4602933346FFF746FFADEB090D33
:101C00000895396D0DF128090791F96C3346069155
:101C1000B96C5A460591796C20460491396C039150
:101C2000B96BCDF80890CDE900A14146FFF752FF0E
:101C3000631C9A4511DDFE68BA68E91CB31E02EB0D
:101C4000810103EB4A0A06EB440251F8043B5B11A5
:101C500022F8023F5245F8D1FE60002C0DDDFE68EF
:101C6000E91C09EB810106EB440251F8043B5B11CE
:101C700022F8023D9642F8D1FE60BB68023559F861
:101C8000252053F825301344FA689B1122F81430AC
:101C9000D7F804D01437BD46BDE8F08F8B000A3367
:101CA00023F00703E946ADEB030D08953E6D0DF1FA
:101CB00028080796FE6C13460696BE6C5A46059693
:101CC0007E6C04963E6C0396BE6BCDF80880CDE921
:101CD00000A6FFF7D9FE544512DAFA6804F1004471
:101CE000013C0335931E02EB440608EB850803EB29
:101CF0004A0A58F8043B5B1126F8023FB245F8D176
:101D0000CD461437BD46BDE8F08F00BF2DE9F04742
:101D100088B099464FEA430808F1080424F0070404
:101D200008AFADEB040DD7E90D563C6BCDE9065677
:101D3000BD6AFE6A059403953C6A7D6A049608AE06
:101D4000CDE901650094FD6BFFF7EAFEB9F1000FE4
:101D500010DD023CA044A6F1020A34F9023F3AF930
:101D6000022F9B1AAB42CCBF5B1B03EAE3734445D3
:101D70002380F2D1BD46BDE8F08700BF1E232DE9C8
:101D8000F041264E86B00D468046009324493346E6
:101D90006420144600220CF095FE00274FF01F0C23
:101DA000012204211F482B46CDF814C00091039056
:101DB000114664200496CDE901770CF03BFE4FF00C
:101DC000240C0120184AA5EB080149090090039250
:101DD0000496CDE901774346CDF814C02022642053
:101DE0000CF028FE294651F8043BA342FBD02B27D8
:101DF00000220124C5F11F030C481944CDE901223A
:101E00000390049649092B460597009420226420EC
:101E10000CF010FE06B0BDE8F08100BF586D010067
:101E2000646D0100786D0100846D01009C6D0100FE
:101E30000B68934209D070B50D46144606462246FB
:101E400029463046FFF79AFFF9E770470022024B18
:101E5000C3E900221A817047C01000200278014BAC
:101E60001A707047BC100020314B1B78002B5AD0E1
:101E70002DE9F04F16462F4A87B089468046002448
:101E80002D4F1368DFF8B4B0DFF8B4A0013E14E0C2
:101E90003D5D38F91410022D2BF8101005F1010EDC
:101EA00039F914109CBF5FFA8EF53D55032D2AF8C1
:101EB000101017D001340A2C0CD04FEA440C0CEB54
:101EC0000401C81816F8011F0029E1D13955013461
:101ED0000A2CF2D10133022BC8BF0023136007B0D4
:101EE000BDE8F08F0CEB04035B000BEB030108680B
:101EF000534402901868B1F804C09B88049002A96A
:101F000028460192ADF81430ADF80CC0FFF7A0FCE4
:101F100004A928F814002846FFF79AFC019A29F82A
:101F200014001368C6E7044AC2E9003313817047FE
:101F3000BC100020CC100020C01000204410002055
:101F40008010002092F83230002B43D1F0B50028E9
:101F50008BB00E460546144610DD936A42189A422D
:101F600010DB00231A4684F8313094F82430934271
:101F70009CBF012384F830300BB0F0BDF1D1D36A9F
:101F80008B42EEDD2B2294F83130134F013384F86D
:101F9000313012493B460092642000220CF092FD41
:101FA0004FF0310C0020012104220D4B049794F8CE
:101FB0003170CDE90110009203930322CDF814C0D3
:101FC00007AB6420CDE9086507970CF033FD94F862
:101FD0003120CAE7704700BFB06D0100C46D010039
:101FE000EC6D010070B19A4215DC0F4A1368C72BE3
:101FF00001DC013313600D4B187808B181F001004A
:1020000019707047084B1A68C72AF4DD1860074B2F
:102010000120197070470022034B1A60034B187897
:102020000028EDD0EAE700BFD8100020DC10002027
:10203000002832DDF0B400260439B20002F18042FB
:1020400092F8807292F88152FFB292F8824267F35E
:102050000703EDB292F8832265F30F23E4B264F331
:102060001743D2B2013662F31F6317B1013F67F322
:1020700007031E2D9CBF013565F30F2314B1013CEE
:1020800064F317430D2A9CBF013262F31F63B04211
:1020900041F8043FD1D1F0BC704770472DE9F04FB3
:1020A000C24CADF20C4D20AF0B932378CDE9091251
:1020B000DDF848443C22002138460C9314F061FDC1
:1020C00078220021A8A814F05CFDA8A92046FFF7FB
:1020D000AFFF20210F22DDF840348AAE0593DDF8F2
:1020E0004434CDE902210493A8AB00934EA93B46AA
:1020F000DDF848046CAA019610F050FD231C18BFAF
:102100000123DDF848140E93002940F39A833B46DF
:10211000002007EB410133F9022B02B101308B4261
:10212000F9D11090012340F2E31200240093DFF86C
:1021300094B29F4B059203932022DDF844340F2183
:102140006C20CDE90144CDF810B00CF073FC2022D6
:102150000F23DDF84014CDE902320591DDF8441477
:10216000DDF848040491A8A9009101963B466CAAA9
:102170004EA912F053FADDF84804A04208DD3B46B0
:1021800007EB400133F9022B02B101348B42F9D144
:102190000F9420250F24DDF840346CAA0593DDF858
:1021A00044344EA90493A8AB009301963B46CDE975
:1021B000024512F073FBDDF840344EA90593DDF8BB
:1021C0004434DDF848040493A8AB0093CDE90245FC
:1021D00001963B466CAA12F0B9F9DDF848140029C3
:1021E00040F332833B46002007EB410133F9022BD9
:1021F00002B101308B42F9D11190002440F2172234
:1022000001236B490592039100932022DDF84434A9
:102210000F216C20CDF810B0CDE901440CF00AFC80
:1022200021467822C6A814F0ACFC21467822E4A806
:1022300014F0A7FC20220F235E49E4AD0968DDF805
:1022400048044978CDE903320791C6A90091DDF829
:1022500040143B460691DDF8441401950591A8A968
:1022600002916CAA4EA913F057FCDDF848340DF129
:10227000BC08A34210DDC2460DF54679E4AD55F821
:10228000041B59F8040B14F063FADDF848340134E8
:10229000A3422AF8020BF2DC0F212024DDF84004CF
:1022A000DDF87424B2F924200690DDF84404CDE969
:1022B00003140590A8A8CDE90080079218466CAADF
:1022C0003B464EA9029612F075FC3B466CAA4EA9FD
:1022D000DDF8480410F044FFDDF848146CAB4EAA5A
:1022E0000020009710F0ACFD0120DDF848140097A5
:1022F000E4ABC6AA10F0A4FDDDF8480400280CDD0C
:102300004246662408EB4001B2F9003004FB03F3B7
:102310009B1222F8023B8A42F6D10026A8AB029318
:10232000DDF838346CAACDE900834EA93B4613F0A2
:10233000D7FADDF848343EACB34226605ADDDFF808
:1023400084904FF418724B4600921B490022702073
:102350000CF0B8FB012540F26122042317490592D5
:10236000CDE902612A462946009370202346CDF824
:1023700010B001950CF05EFB4FF0020A40F26220B3
:1023800023680F4A2946CDE9026205902A4608EBE8
:10239000430370200195CDF810B0CDF800A00CF0EB
:1023A00049FB40F2632023680EE000BFAE15002019
:1023B000A4850100D80C0020FC6D0100146E010002
:1023C000186E0100B06D01008E4A0590CDE90262E1
:1023D00007EB43032A46CDE900A5CDF810B0294606
:1023E00070200CF027FB2368DDF848242B4493422F
:1023F0002360A6DB012240F2652100250420824BE8
:10240000CDE904B1CDE901251146009003936D207B
:102410000DF589630CF00EFBDDF890340B9E0693EE
:10242000DDF834346CAA0593DDF83034DDF8480467
:1024300004930A9B03960293099B4EA9CDE900835E
:102440003B4614F055F8DDF84824AA422BDDDDF8B0
:102450003034B71EA3F10208DDF8343440F271299C
:10246000AA465E1E01E0AA421DDD38F9023F37F997
:10247000021F636016F8013F2560A1600135002B43
:10248000F1D001210423614ACDE90031CDE902A256
:10249000CDE904B90322234641200CF0CBFADDF844
:1024A0004824AA42E1DC0A9E099DDDF83424314625
:1024B000284614F097F8824612F032FFDDF83424F3
:1024C00031462846FFF7D0FC0C9B022B00F07881A8
:1024D0004F4B1F78002F40F07381AB1E0D93DDF83A
:1024E0003484B31EDFF830910C9316AD15AECDF8E1
:1024F00048A00D9B0C9933F9022F59F827000D9332
:1025000031F9023F09280C9114922A60336023604C
:102510004FEA870ACDF84C8098F8001040F37E818E
:1025200014AB00223846009611F0D6F859F80A107C
:102530002268149BC1F10A0C02FB0CFE03FB01F0A4
:1025400032682B6802FB01E203FB0C03314808F1FF
:10255000010880FB02CE80FB030CDB17C3EBAC0C45
:102560000D9B18F8010CD217A3F800C00C9BC2EB0E
:10257000AE021A80002800F04681129B022B40F325
:102580004281092902DC013149F80A10002F00F0CC
:1025900043810226099BDDF848A003EB06080A9B4D
:1025A0009F19DDF8343403F1010938F9020F37F9C6
:1025B00002CF19F8011F2B46009400222860C4F8AE
:1025C00000C0304611F088F801362A6823680A2EC8
:1025D000A8F800203B80E8D1BAF1000F40F3D28088
:1025E000002628220021284614F0CBFADDF84824E2
:1025F0002660B24257DDCDF830A03346DDF834A472
:10260000A94610E0246E0100306E01003C6E01000E
:102610004115002067666666E010002023680133DC
:10262000934223603BDA1AF80330002BF6D040F2D5
:10263000D723012700254FF00408CDE904B3844BCC
:102640003A46CDE90253394623466D200197CDF82D
:1026500000800CF0EFF94FF436702368CDE9015596
:102660007C4D0590A8A800EB8303424639466D20B7
:102670000097CDF810B003950CF0DCF92368A8A9F9
:1026800051F82310DDF83C04DDF8482440F823100D
:102690000133934249F8261023603E44C3DB4D4684
:1026A000DDF830A0F6B24FF4387200274FF0010881
:1026B0009DF83C00684BCDE904B29DF840209DF8A0
:1026C00044C0CDE90177414603938DF8542015AB02
:1026D00004228DF85500CDF800806D208DF856C08D
:1026E0008DF857A00CF0A6F940F2E1205B4ACDE945
:1026F0000177DDF874344146059003926D209A22EB
:10270000CDF80080CDF810B00CF094F940F2E32140
:102710000222534BCDE90187CDE904B10092039326
:102720002022DDF840340F216D200CF083F94FF4A6
:1027300039724C4BCDE9017703930592DDF84434AF
:1027400020220F216D20CDF80080CDF810B00CF0C4
:1027500071F939463E220DF1FA0014F012FA82277F
:1027600042F20F0E4FF0200CDDF840343246009359
:1027700021462B460320A4F800E084F802C06771CC
:1027800012F042FFDDE90A52099CDDF83434294693
:1027900000932046DDF8303410F0FCFBDDF83434D3
:1027A0002A4621460A2010F081FB2046DDF8342419
:1027B000294613F00FF80E980DF20C4DBDE8F08F7E
:1027C0000026099B16ADA3F102080A9B9F1EDDF8A7
:1027D000343403F1FF3938F9020F37F902CF19F811
:1027E000011F2B46009400222860C4F800C0304628
:1027F00010F072FF01362A6823680A2EA8F800201C
:102800003B80E8D1E8E6129B002B7FF4BFAE49F88D
:102810000A30002F7FF4BDAE01276AE623462A4620
:10282000384611F003F898F8001000287FF478AECD
:10283000024600942B46384610F04EFF98F80010E0
:102840006EE6002310936DE400231193D5E400BFDE
:102850004C6E0100506E01006C6E0100706E010044
:1028600070790100A485010080222DE9F047C0B0F5
:102870000DEB02040021064668464B9F4A9D14F06A
:1028800080F920468022002114F07BF94FF0000EE1
:10289000DDF820C1023F0CF10F08394600230CE09F
:1028A0005DF823009CF800905044B9F11F0F4DF8DB
:1028B00023004BD00133202B12D031F9022F12F11B
:1028C0000A0F02F1050AA2F10509E9DB0A2AF1DD86
:1028D00054F823204A4444F823200133202BECD120
:1028E0000CF1010CC44507F14007D6D14FF00008A8
:1028F0004FF000406FF00044DFF898901FABADF14F
:1029000004050DF1FC0C53F8042F55F8041F571E55
:10291000622F06D811F1140F03DACE45A8BF08F1D3
:1029200001088C42A8BF0C469042B8BF10469C4597
:10293000E9D1B8F1020F02DD14F5FA7F0ADC0023B9
:102940001846124A136040B0BDE8F087002DC8BF9A
:102950009644AFE7B6F92430EF2BF0DCB6F9263019
:102960009533ECDBB0F5C87FE9DD084A4C99136874
:102970008B4203DA013313600120E4E701230021D5
:10298000034C184623701160DDE700BFD010002013
:102990004115002031F8FFFF10B4B0F92440C3689E
:1029A000132C00DC8BB30024B1F90C00132803DCDA
:1029B000B1F90E00133023DA0021B2F90C0013280C
:1029C00011DCB2F90E0013300DDB12685AB954B1A4
:1029D00049B1134A1368132B0EDD0023114913600C
:1029E0000B7010BC704742F210729342F1DC00226F
:1029F0000B4B10BC1A6070470133136010BC70475A
:102A00000968B1FA81F14909D7E7B0F926401334D2
:102A100004DB4468B4FA84F46409C5E71C46C3E7E0
:102A2000D41000204115002000281DDD2DE9F041C3
:102A30000027DDF818C04FEA410802EB000E00291C
:102A40000CDD6446581E461810F8015F0DB115786C
:102A500005B92780B04204F10204F5D10132724574
:102A6000C444ECD1BDE8F081704700BF2DE9F04FC0
:102A7000C7B2C0F3072883B0474501900C992BDCFF
:102A80009DF806A052000AF100499DF807B009F12F
:102A9000FF390AFB023301EB490901EB4B0C0D999D
:102AA00008F1010801EB470EDA4518D849461C46E3
:102AB0000C4D34F9170031F9026F8542B8BF054655
:102AC0008642B8BF08808C451444F2D12DB201373C
:102AD00047452EF8025BE7D103B0BDE8F08F014D0A
:102AE000F5E700BF0080FFFF2DE9F04F06468DB0EF
:102AF0004FEA410A184608AF88461446002152465C
:102B000075003B60D7F83C9014F03BF82A46B86B50
:102B1000002114F036F8002E63DDBE6B0AF10803C5
:102B2000721923F0070B4FEAA803023C7A60BB60DE
:102B3000C7F80CD0ADEB0B0D08ABA51C1846294609
:102B4000524614F013F8B96802464046FEF700FEFC
:102B5000B8F1000F014648DD00202246034632F955
:102B600002CF8C4508BF184601339845F7D105229E
:102B7000ADEB0B0D152340F23E6C4FF0290E079282
:102B80006FF42472009508ADCDE901530692CDE9AA
:102B900003E3A1F11E02CDF814C03C314346FEF719
:102BA000BFFF3A68023D0AEB040134F9023F35F9F0
:102BB000020F1B1AA3EB0903002B238006DD1088EC
:102BC0009BB2184410803088034433808C4202F159
:102BD0000202EAD17B6802369E42D7F80CD00C463E
:102BE000A6D11437BD46BDE8F08F6FF424724FF0C4
:102BF000050E152340F23E6C2920ADEB0B0DCDE9FF
:102C0000062E08AA0390019204930293A1F11E02DA
:102C100000953C31CDF814C043460020FEF780FFFC
:102C200004EB0A01D6E700BF2DE9F04F87B08A0018
:102C300000AF3A61083222F00702ADEB020DFB60F3
:102C40006B464D0000297B613D6040F3C980AC1E9E
:102C50007C606C467A6CFE6C023A02EB05087D687B
:102C6000A6F1020B023B65199E46DC464FF4004A72
:102C700047F6FF790026144624F8026F444525F8EC
:102C800002AF2CF8026F2EF8029FF5D100283DDD2F
:102C90004FF0000AFA683B6CA2F1040B3A69043B5E
:102CA00003EB0209BB607A687B691344FB6000296F
:102CB0001DDDD7E9025CDE46FB6C9C1E7B699E1E17
:102CC00055F8048F5EF8043F3CF9022FC3EBA813BC
:102CD0009A42B8BFACF8003036F9022F9A4234F865
:102CE000022FC8BF338013444D452380E8D10AF139
:102CF000010A3B6950459B44D9D100296CDDFB6C2E
:102D00007A6CA3F1020B7B69023A023B9E46BC6CD3
:102D10007D68A61E3C6806EB04087C6904EB050C84
:102D20003CF8024F3EF8025F641B26F8024F3BF965
:102D3000024FB04594FBF0F4ABF80040F0D11446DC
:102D400078697D68461933F9020F34F9025F00286B
:102D5000B8BF4042854200DA20809E42F3D17C68B1
:102D60007B69234418463B68144613441E4630F9D9
:102D7000023F34F9025F002BB8BF5B429D42B8BFEF
:102D80002380A642F3D16FF000443B6DA446581E49
:102D90000144034604E0AC42A8BF2C4699420AD045
:102DA00013F8016F32F9025FF607F4D4AC45A8BFFF
:102DB000AC469942F4D17A6C10F8015F118815F095
:102DC000010FA1EB04050ABFA1EB0C0115801180D6
:102DD000984202F10202EFD11C37BD46BDE8F08FE8
:102DE0000028F9DD3B68023B7B6051E72DE9F04F9D
:102DF0009FB08A0008AF7A61083222F00702ADEB7B
:102E0000020DB8614E0008A800297963B860FE6120
:102E100019DD4FF4004E47F6FF7C0025B11ED7F8B0
:102E200084200144D7F88C00023A96190DF11E0453
:102E3000023822F8025FB24221F802EF20F8025F66
:102E400024F802CFF5D1B969786B4A0000FB02F291
:102E5000083222F00702ADEB020D08AA00297A60C1
:102E600040F3E3807A6400223A6300EBD07222F0F0
:102E70000102043B0A32D7F88010BB6322F007033B
:102E80003B617B690439CB18F9603B653B69C7F846
:102E90002CD0ADEB030D08AAADEB030D08ABBB6462
:102EA0007B6BFA64002B40F33981D7F89020002324
:102EB000013A144647F6FF797A629046D7F88C209B
:102EC0009A46951E7A6CC7E90F33CB46FE68D7F851
:102ED00038E0A2F1020C3C620BE0FC6C4A4524F89D
:102EE000130002DA01468146FB633A6D01339642D4
:102EF00021D056F8040F5EF8042F35F8021FC2EBFC
:102F0000A0121144298018F8014F10B2E4072CF8E0
:102F1000020F4946C7F854B0DFD4BC6C5A4524F8B8
:102F20001A0003DA83467865C7F840A03A6D0AF1C3
:102F3000010A9642DDD1C7F828A015254FF0000BF5
:102F400005266FF4247840F23E694FF0290AFA6CA6
:102F50003C6A0092F86B6431CDE9066B0395CDE9CC
:102F6000015A4FF00042CDE90498FEF7CFFECDE9BB
:102F700002A5CDE9066BCDE904980195BE6C4FF032
:102F800000420096796DBB6A6431386CFEF7BEFE74
:102F9000796B7B6AFD6C0B44594618467B6C14F8C0
:102FA000012F0233D2074BBF35F81B2036F8112012
:102FB0000BF1010B0131844223F8022CEFD17A6C22
:102FC000F9693B6B0A447A647969BA6B01330A4444
:102FD000BA63BA693B639A42D7F82CD07FF456AFF4
:102FE000D7E90C897A68FB69A2F1020CBA6800265D
:102FF0009E4692469D1E1544B9F1000F11DD2946EB
:103000006046AAF1020230F9023F31F9024F9C42B8
:10301000B8BF0B8032F9024F9C42C8BF1380AA424E
:10302000F1D101364645F444E6D17B6B002B71DDCE
:10303000BB68D7F888109C1E2646FA69881ED7F808
:103040008C10A2F1020CD7F81880023903EB0C05A2
:1030500000EB020E35F8023F36F8022F9B1A20F8DB
:10306000023F31F9023F704593FBF8F30B80F1D139
:10307000D7F88430991E0A46BB6803EB0C0534F977
:10308000023F32F9020F002BB8BF5B42984200DAD0
:103090001380A542F3D1BB68084663449C46FB6994
:1030A0000B441A463CF9023F30F9024F002BB8BFDF
:1030B0005B429C42B8BF03809042F3D16FF0004462
:1030C000D7F890302646581E7B6B03449C46034637
:1030D00004E09442A8BF14469C450AD013F8015F4F
:1030E00031F9022FED07F4D49642A8BF16469C454D
:1030F000F4D1D7F8842010F8015F118815F0010F82
:10310000A1EB04050ABF891B15801180834202F1DF
:103110000202F0D15C37BD46BDE8F08F00241525D2
:1031200005266FF4247840F23E694FF0290AFB6CC3
:103130002046009307942346CDE90586CDE903593F
:10314000CDE9015A4FF0004248F26301FEF7DEFD7F
:10315000CDE90664CDE90498CDE902A50195BB6CE3
:10316000204600934FF00042234648F26301FEF7E9
:10317000CDFD24E710B4041E4FF000000ADD023933
:1031800001EB440431F9023F9342C4BF9B1AC018BB
:10319000A142F7D110BC7047002824DDF0B400250F
:1031A0008E1EAC464FF0FF3700E01D4636F9024F49
:1031B0006B1C944203DD6445C4BFA4462F4698426D
:1031C000F3D17B1C11D07B0031F917001FB1CA1855
:1031D00032F9022C1044AF4203DA1944B1F902303B
:1031E0001844F0BC7047002070470020F0BC7047C6
:1031F00070B40024061E1C6020460EDD023901EB6F
:10320000460631F9024F944202DD1D6801351D600A
:10321000A042B8BF2046B142F3D170BC704700BF96
:10322000F0B500258BB00228CDE90632DDE9107437
:10323000CDE9085518DDAE46AC462E460B1F03EB14
:10324000400031F9023FDA1B002AC4BF4FF0010CE5
:10325000B6181B1B44BF01259E448142F1D1BCF12D
:10326000000F4FD1002D4AD10124002604256822E9
:10327000254F264B059221462246CDE9033764208F
:1032800008ABCDE9014600950BF0D4FB6920204B3B
:103290002246214605900393642007AB0497CDE9AD
:1032A000014600950BF0C6FB6A201A4B22462146C8
:1032B00005900393642009AB0497CDE9014600957E
:1032C0000BF0B8FB6B20144B224605900393049738
:1032D00006ABCDE901460095214664200BF0AAFB20
:1032E000DDE907329A4207DC0998069CA042ACBF90
:1032F000002001200BB0F0BD20460BB0F0BDCDF892
:1033000024E0B1E70896ADE730710100407101009B
:103310004871010058710100607101002DE9F04F02
:10332000064689B000AFB86088461546B86C720092
:103330000021BC6D99463B6113F023FC002206EB93
:10334000D67323F001030A3323F00703ADEB030D1B
:10335000C7F818D09642ADEB030DC7F814D0226021
:103360006260A260E260226140F3C5803046FE6C7C
:103370009346721E164647F6FF7E7A6092462A1FD3
:1033800002EB8000F860B86CCC467146A8F10408E6
:10339000A0F102093E60C7F81CB0BC650FE07345A0
:1033A000A8BF7346BC690CF1010C24F81B00A8BF30
:1033B00018468646F8680BF1010B904233D0386905
:1033C00052F8043F20B19CF8000000FB0333DB11EE
:1033D00058F8040F3E6DC3EBA01347F6FF7083420D
:1033E000A8BF034646480D468342B8BF034618B2FD
:1033F00029F8020F1AF8014F3457002CCFD18B4215
:10340000A8BF0B46FD697C690CF1010C24F815007E
:10341000A8BF18460146F8691D460130F861F868F2
:1034200073469042CBD1D7E916429342A8BF1346C8
:1034300095421BB2A8BF154652429342B8BF1346ED
:103440002DB29542FB612B46B8BF13464FF0000CDE
:103450003B61D7E901310B449A467B6D3E68BA6CFB
:10346000E146D3E9008E6FF000454FF000402AE0BE
:10347000BB69F96933F8193009F101095B1A1BB20C
:103480001380434509DD2389216801332381B2F983
:103490000030A3EB080B594421609E4509DD638988
:1034A000616801336381B2F90030A3EB0E0B59441C
:1034B00061609842B8BF18469D42A8BF1D46B245FC
:1034C00002F102020FD016F8013F396DCB56002BE6
:1034D000CED17B69396933F81C300CF1010C5B1AD1
:1034E0001BB21380CDE72DB202B22437A281E58151
:1034F000BD46BDE8F08F4FF0FF354FF00040F4E7D8
:103500000080FFFF2DE9F04786B08246DDE9129882
:1035100016461C460D46149F0AF070FF1423159A98
:103520000397CDE90423D0F801300F9815333246C4
:103530002946CDE9010300940E9B5046FFF7EEFEAD
:1035400000254FF02D0C012102271848184E234664
:10355000CDE9030652466920CDF814C0CDE9011526
:1035600000970BF067FAAA4528460FDDA31E03EB70
:103570004A0A33F9021FA1EB0902002AC8BFAD189D
:10358000B1EB080148BF40185345F2D1109BAB4244
:1035900007DB119B8342D4BF0020012006B0BDE8A9
:1035A000F087012006B0BDE8F08700BF7079010008
:1035B00030710100002820DDF0B48E1E06EB4006BD
:1035C000B14218D0571C38460B46B1F9004033F9C8
:1035D000025FAC4207DD0D801C8092F9004090F93B
:1035E000005015700470B34200F10100EDD10231BA
:1035F000B1423A46E6D1F0BC704770472DE9F04F32
:103600008046450005F1080485B000EBD07A24F02F
:10361000070407302AF0010A00AF20F00700ADEBE5
:10362000040D08F1090424F00704EB46ADEB000D8E
:103630000AF10A0020F007006E46ADEB040D6C465F
:10364000ADEB000DE946C7E902210AF1020A08F1D3
:1036500002021F2120467B6013F093FA524648462F
:10366000002113F08EFAB8F1000F7B6807DD3246B7
:1036700006EB0800911B02F8011B8242FAD14FF0C1
:10368000FF3A2A46F96858467B6013F06FFA5946AC
:1036900032464046FFF78EFF023D08F1FF3E7B6851
:1036A00006EB0E01AB44013EB14218D03BF9025982
:1036B00011F901299D4202F1010C10DBA05C2244AA
:1036C0001F28927860D01E2860D81E2A96BF4FF01F
:1036D000FF3204F80C0004F80C20B142E6D1B8F136
:1036E000020F04F1010113DD0B46FF20A64402E0A6
:1036F000013373450CD05A781F2AF9D11A781E2A43
:10370000F6D89A7801331E2A98BF18707345F2D103
:10371000B8F1000F2EDDFB6804EB0806F96004E049
:103720000134A64203F1020323D06278FF2AF7D1C5
:10373000257894F802C039F8150039F81CE0834662
:10374000704528BFF346B3F90020B96B0A4493458E
:10375000E6DA704538BF7046013465458CBF29F8FC
:103760001C0029F81500A6420AF1FF3A03F10203F2
:10377000DBD1F9684246B86813F0F8F90AF10100A4
:103780001437BD46BDE8F08F1F2A06D01E2A88BF19
:103790006FF0690204F80C2086E70AF1010A04F8C8
:1037A0000CA029F81A507FE710B4DDE90134019428
:1037B00010BCFFF723BF00BF38B500240A4A0B48EE
:1037C0000B4B0C4D2146146004704FF420720A48D4
:1037D0002C601C6013F0D5F92146BDE838404FF449
:1037E0009672064813F0CDB9F4100020F0100020B6
:1037F000E8100020EC100020F810002078130020C2
:103800002DE9F04FADB006AFF962011EC7E9022302
:10381000D7F8E880796340F39783BB4BBB4A1C68B9
:10382000BB61D7F8C0304900023B02EB84127961DA
:10383000023A581833F9021F834222F8021FF9D1C5
:10384000FB6A002B16DD0023B14AC4EB0414D7F841
:10385000C41002EB4402FC6A023A023931F9020F49
:1038600001339C4222F8020FF8DC00207B6B83427C
:1038700040F374834FF0000B47F6FF755846DE4661
:103880005E46D7F8E030A14CD3F800C0DFF8849250
:10389000D7F8C0A0C7F828B0C7F830B02246002338
:1038A00004F5207B32F9401B93450B44FAD189FB88
:1038B0000312DB17C3EBA2031BB2002BC8BF9E444D
:1038C0009E42B8BF1E469D42A8BF1D469C452AF891
:1038D00010300DDAB8F80820D8F800300132A8F816
:1038E00008203AF91020A2EB0C021344C8F800306B
:1038F000022840F340837B6B0130834204F10204D1
:10390000CCD1D7F830B05B46BBF1000F40F0E38379
:1039100032B27A622AB23A629EFBF0F23A61002237
:10392000F96AC7E910329142BA6440F31E839646A1
:103930006FF001049446F14647F6FF76D7F8E4307D
:10394000C7F8E880D3F800A0D7F8C4500B19704826
:10395000D7F8EC807A60FA613A63BB6202460023D2
:1039600000F5967B32F91E1B93450B44FAD1694A48
:1039700082FB0312DB17C3EBA2031BB2002BC8BFF1
:1039800099449C45B8BF9C469E42A8BF1E469A4596
:103990002B800DDAB8F80830D8F800200133A8F8E9
:1039A0000830B5F90030A3EB0A010A44C8F800203A
:1039B0000B2C23EAE37340F2F9829E4401233B631C
:1039C000BB6A0134A34205F1020500F10200C5D132
:1039D0003B6BD7F8E880002B40F08C837B68002B92
:1039E00040F07683FB6A0FFA8CFC99FBF3FB7B6C4F
:1039F00036B2FB617D69398C2B46083323F007030F
:103A0000ADEB030DA8F80E106946BB8CFA6AA8F856
:103A10000C30C2F39C03A1EBC3030DF1180A9D46C1
:103A20000020D7F8EC30C7E91300A3F80CC0DE8102
:103A300006AB7B62131FBB627B6BC7E91500834239
:103A4000C7E9170033DD40F24458844681460646F4
:103A50000446D7F8C030C7F820A0991E0D44AE46E2
:103A6000AAF10205D7F810A0386331F9022FA2EBB2
:103A70000A0323EAE3731BB2973A9E4292B225F8F7
:103A8000023F03DA1E464FF001093C6342459CBFEA
:103A9000012084448E4504F10104E6D1D7F820A02A
:103AA000B9F1000F40F01F83002840F01983FB6A32
:103AB000042B1EDD002502222E462C46D7F8C4100A
:103AC000A3F1020C7B6A8818991E30F9023FA3EB20
:103AD0000B0323EAE3731BB2A34221F8023F02DD8A
:103AE0001C461546012601326245EED1002E40F0FB
:103AF000FE827B6B002B18DDBAF90030002B14DD41
:103B000052460023786B0BE0F4100020F8100020E0
:103B1000781300206766666632F9021F002903DD0C
:103B200001338342F8D17B6BFB64FB6901241946A6
:103B3000BB6A00254FF0040891FBF3FC40F23942C8
:103B4000A64EA74B0592CDE90336CDE901452246A5
:103B50002146CDF8008007F14003C7F864C0492032
:103B60000AF068FF40F23A409E4B224621460590FB
:103B70000393492007F164030496CDE90145CDF88C
:103B800000800AF057FF4FF0020940F23C4CCDE9AB
:103B90000145954804967A6B53462146CDF814C0EA
:103BA0000390CDF8009049200AF044FF40F23D4CCC
:103BB000CDE901458D480496CDF80090D7E909324A
:103BC0002146CDF814C0039049200AF033FF40F29B
:103BD0003F40874B2246214605900393492007F139
:103BE00044030496CDE90145CDF800800AF022FF98
:103BF0004FF488607F4B224621460590039349206D
:103C000007F148030496CDE90145CDF800800AF09C
:103C100011FF40F24240784B224621460590039323
:103C2000492007F14C030496CDE90145CDF8008009
:103C30000AF000FF40F24340704B224621460590B7
:103C40000393492007F150030496CDE90145CDF8CF
:103C500000800AF0EFFE40F24540694B22462146C3
:103C600005900393492007F154030496CDE90145DB
:103C7000CDF800800AF0DEFE40F24640614B22465D
:103C8000214605900393492007F15C030496CDE992
:103C90000145CDF800800AF0CDFE4FF489605A4B03
:103CA0002246214605900393492007F158030496C4
:103CB000CDE90145CDF800800AF0BCFE40F2494054
:103CC000524B2246214605900393492007F1600399
:103CD0000496CDE90145CDF800800AF0ABFE4FF027
:103CE000030E4B4A4B4BDFF848C107F17001B7F99F
:103CF0004400C7E91E2387F83E50C7E92055C7E9AD
:103D00002255C7E92455C7E91CEC12F077FDD7E925
:103D10001132A342B8BF2346920192FBF3F323EA88
:103D2000E373984287F83F50C7E91A0304DAFB6D42
:103D3000032BC8BF87F83F4001244FF0000804253B
:103D40004FF48E62344BCDE9046221462246009541
:103D50000393492007F16C03CDE901480AF06AFE9C
:103D600040F271402D4B0095224621460590039369
:103D7000492007F16803CDE9014804960AF05AFE8C
:103D800040F27240264B274D224605900393CDE921
:103D9000018807F13F0300940496214649200AF068
:103DA00049FE2A783B6C002A44D1502B03DD7B6E00
:103DB0001E2B00F3AA804FF49462084B00921A491C
:103DC000002264200AF07EFE97F83E30002B40F07F
:103DD000B0800022154B1A6047E000BF307101002F
:103DE000886E0100946E0100A46E0100B86E01009F
:103DF000CC6E0100DC6E0100EC6E0100FC6E010077
:103E0000106F0100286F0100446F01005C6F01001A
:103E1000E8034000D0074000786F0100886F010080
:103E2000986F0100F01000208C700100EC10002051
:103E3000F4013200462B03DD7B6E1E2B00F3A580C0
:103E40004FF49762AD4B0092AD49002264200AF016
:103E500039FE002387F83E30AA4A13680133282B25
:103E6000136002DD00232B70136001244FF0000863
:103E70004FF004094FF49962A34BCDE90462214647
:103E800022460393CDE90148CDF800909F4B49208D
:103E90000AF0D0FD40F2C9409D4B224621460590D4
:103EA0000393CDE90148CDF800900496954B492045
:103EB0000AF0C0FD40F2CB40964B224621460590C9
:103EC0000393CDE9018807F13E030094049649204D
:103ED0000AF0B0FD40F2CC408F4B22460590039390
:103EE000CDE901880094049621468C4B49200AF0C4
:103EF000A1FDBA69287813689C3723440A2B08BFB0
:103F000043461360BD46BDE8F08F4FF48F6384498C
:103F100000936420794B0AF0D5FD3B6D87F83E4055
:103F2000132B02DCFB68002B46D097F83F30002BA8
:103F300059D1764A136801330A2B136095DD0121AC
:103F400000232970136090E7FB6A002B64DD7A6B15
:103F5000744B5200BB617A611C6874E447F6FF72CF
:103F600003463861C7E90820D9E4934647F6FF764F
:103F7000FA6194463EE501223AF910303A63BA6A92
:103F8000002BA8BFD218BA62B5E44FF496625B4B1F
:103F900000926549424664200AF094FD97F83F205C
:103FA00087F83E4062BB574B1A605EE701227A6099
:103FB000FA691A44FA6103E5FB6D052B3EDC7B6C64
:103FC000B3F57A7F66DBFB6C052BB2DC40F28442F2
:103FD0004A4B00925549002264200AF073FD0023E9
:103FE00087F83E30F5E640F29C42444B009250493F
:103FF000002264200AF066FD002387F83E30E8E6E0
:1040000040F2B4423D4B00924A49424664200AF0D5
:1040100059FD87F83E801FE7002347F6FF763B6196
:10402000C7E91033BB647B629B46FB619C463D4BFA
:104030003E62BB617B6B5B007B61DBE497F83F30EA
:10404000DBB9BB6CB3F57A7F06DDFB6C052B03DCBB
:104050007B6DB3F5FA7F2EDBBB68002B3FF469AFB5
:1040600040F29542254B00923349002264200AF029
:1040700029FD002387F83E30ABE640F28B420092E8
:10408000FC681E4B22462B4964200AF01BFD87F872
:104090003E409EE64FF490620092FC68174B224629
:1040A000264964200AF00EFDFB6C87F83E40052B84
:1040B0003FF78FAE8AE740F29242104B00922049C0
:1040C000002264200AF0FEFC002387F83E3080E6E0
:1040D000FB697B6486E40323BA6A92FBF3F317E47B
:1040E000C7F850C0E3E43B6B7E65FB65DCE4BC6570
:1040F0003D66FEE4C7F848E070E400BF307101009F
:104100008C700100E8100020E4700100EC10002029
:10411000F87001000C71010020710100F010002006
:10412000A46F0100F4100020C0700100EC6F0100CA
:10413000607001000870010048700100C86F010044
:10414000287001000048704700000020014B036008
:104150002020704780710100014B03600F207047E1
:10416000A0710100014B03600F20704770710100C6
:1041700030B44FF0804300220E211F2020250F2451
:1041800083F8082183F80A2183F8090183F80B11C9
:104190001A739A735873D9731D725C72DA7793F835
:1041A000211041F0010183F8211093F8211062F3EE
:1041B000410183F8211030BC704700BF10B44FF0AC
:1041C000804485B00DF1100C0CE90F00BDF80030F3
:1041D0002382BDF802306382BDF90430A382BDF9A9
:1041E0000630E382BDF808302383BDF80A306383CC
:1041F000BDF80C30A38305B010BC70474FF080436E
:10420000988370474FF08043988B70474FF08043FE
:1042100083F82000704700BF0123002110B50A4A2F
:104220000A4C2377917210B94FF08042D3704FF04F
:1042300080430122987000211A700A2000F0BEF914
:104240000022024B1A7710BDA41400200000105069
:1042500001234FF08040102110B4034A034CA37295
:10426000436010BC1160704714000020A4140020AB
:1042700001234FF08040102110B4044A044C6372B3
:10428000C0F8043110BC1160704700BF140000205A
:10429000A4140020E0220021014812F072BC00BFEB
:1042A000800100402DE9F04105461F4B1F4886B0B4
:1042B0006A1E13F8011B834202F8011FF9D1012481
:1042C0002B464FF0A90C002702262868184AC11770
:1042D00082FB00E2DFF8648002441648C1EB222230
:1042E00043F8242B2146CDF814C02246CDE903081B
:1042F000CDE90147009662200AF09CFB4FF0AA0C22
:104300000D48CDF810800390CDE90147009605F1E6
:10431000260322462146CDF814C062200AF08AFB0B
:1043200006B0BDE8F08100BF280000405400004006
:1043300089888888B4710100C8710100B0710100DA
:1043400070B5E022064600210B4812F01AFC00244A
:1043500001234FF08042094D09492B770A208C72C6
:1043600093702146137000F029F92C773046BDE890
:104370007040FFF797BF00BF800100400000105061
:10438000A414002010B50446FFF78CFF2E234FF035
:10439000804004F14E0203F1600150F82110013B0E
:1043A0001F2B22F8021DF6D14FF0804004F1960237
:1043B00003F1600150F82110013B22F8021D591C45
:1043C000F6D110BD4FF0804270B5037909B201FB00
:1043D00003F1948B8B11A342B8BF2346012500241F
:1043E000022106889BB24380A2F80C61A2F80E312C
:1043F000074E084B357709205C7282F8035182F82A
:1044000002112146A2F8005100F0D8F8347770BDAF
:1044100000001050A41400204FF0804393F81401C2
:10442000704700BF4FF0804393F81701704700BFFB
:104430000023094A82F832305064916472B6012335
:1044400082F8403000BFB2F852309BB2002BFAD055
:1044500062B6B2F850007047000010502DE9F047E6
:1044600050221020202130244FF0400A4FF06009E4
:104470004FF001084FF4807E4FF4007C4FF48067CA
:104480004FF400660825104B83F8040383F80813E3
:1044900083F8004383F8034383F805A383F80923D3
:1044A00083F80A2383F80B2383F80F93C3F8008063
:1044B00018601960C3F800E0C3F800C01F601E60F8
:1044C0001D60BDE8F08700BF00E100E04FF400424E
:1044D000014B1A60704700BF00E100E0002201219B
:1044E000034BA3F86E20A3F86A20A3F86810704766
:1044F0000000105030B5134DA1B02B7803B3124C0F
:10450000124B22689A421BD080226846002112F08A
:1045100038FB002223468034186820A9043301EBBD
:104520008201A34241F8800C02F10102F4D1074B51
:104530006A4680210448009300F07AFC00232B7027
:1045400021B030BDDC14002000FC0100DEADDEAD8A
:1045500010B5174C84B094E80300029002A88DF8BF
:104560000C1000F07DF800F085F8FFF777FF62B6D9
:1045700000F00AFAA36804A840F80C3D00F0FEF928
:1045800000F046FA00F06EF900F0AEFA094B1A6935
:1045900022F004021A61BFF34F8F0721064A82F806
:1045A00024105A6942F010025A6104B010BD00BFD5
:1045B000DC71010000ED00E0000010502DE9F04733
:1045C000044682B00F464FF0AC0A124DDFF8489017
:1045D000DFF8488005E000BF30BF62B60CF024F879
:1045E00070B900BF72B62B5D03F0FF06002BF2D04E
:1045F00000232B5507B1B84762B602B0BDE8F0877B
:10460000CDF800A032464B46414664200AF05AFAE3
:10461000E7E700BFA4140020E8710100EC7101007D
:1046200000200A4B0A4913F8012B10448B42C0B2F8
:10463000F9D1064B1A78AA2A01D000207047DB7BFB
:10464000181AB0FA80F04009704700BF800040009F
:104650008F0040004FF0A04301225A74704700BF02
:104660000246034B0068127918601A71704700BF48
:10467000B414002070B5FFF7D3FF01220021334BA3
:10468000D9705A72DA7200285CD0314AD278D2B22C
:104690001A72002201242F492C4B8D789A725A737A
:1046A0001D734D780E781E751D77CD78097983F8C6
:1046B000215083F820105A749A741C749A7018B39D
:1046C000234A51781A78C9B2D2B28A4208D08A42B3
:1046D000B4BF013202F1FF32D0B28A421870F6D173
:1046E0001B4B1A491A794B78D2B2DBB29A420AD0E4
:1046F0009A4203F1010096BF03F1FF33C3B2DBB26C
:104700009A424B70F4D170BD1A78D2B2B02A08D058
:10471000AF2AD4BF013202F1FF32D1B2B02A1970F0
:10472000F6D10A4A5378DBB2082BECD0072B03F101
:1047300001018ABF03F1FF33CBB2DBB2082B537008
:10474000F4D1E0E7E0221A72A3E700BF00001050A6
:1047500080004000B414002007490B78DBB283428C
:1047600008D09842CCBF013303F1FF33DAB2834261
:104770000A70F6D1704700BF00001050014B187846
:10478000704700BF00001050084A5378DBB28342E4
:104790000AD0984203F1010196BF03F1FF33CBB277
:1047A000DBB283425370F4D1704700BF0000105059
:1047B000014B5878704700BF0000105010B50446F8
:1047C000FFF748FF4FF0A04320686168A26807C365
:1047D00010BD00BF38B54FF0A044E37DDBB2042B21
:1047E00028D0082B19D0022B09D00123184A1370A6
:1047F00000BF4FF0A042137300BF537338BD154D77
:104800001549607910F0E6FB6179286810F02AFC00
:1048100062792B6813442B60E7E7104BD0E905124F
:1048200059609A60236A5BBA0A4A1846136010F00E
:104830009BFBDAE7074D0A49207910F0A9FB2179A3
:10484000286810F0E3FB22792B6813442B60CCE737
:10485000A4140020BC14002020000050381C0020AC
:1048600024000050274B0022D3F8801021F00101D2
:10487000C3F88010196C41F001011964196841F006
:1048800001011960D3F8801021F00201C3F88010F3
:10489000196C21F002011964196841F002011960D4
:1048A000D3F8801021F01001C3F88010196C41F08A
:1048B00010011964196841F010011960D3F88010D3
:1048C00021F02001C3F88010196C21F02001196437
:1048D000196841F020011960D3F8801021F04001DF
:1048E000C3F88010196C21F040011964196841F077
:1048F00040011960C3F80821C3F80421C3F800215E
:10490000704700BF00000250034BD3F8C03018427C
:104910000CBF012000207047000002504FF04053B0
:10492000012283F8242083F8812070474FF0405300
:10493000002283F8242083F881207047142001226C
:10494000002130B50A4D89B02D780A4C05900A48EF
:1049500008AB03F8015DCDE90111CDE90304009234
:10496000114664200AF066F89DF81F0009B030BDBA
:10497000B700400000720100087201000268014B9C
:104980001A607047C014002038B5FFF749FE0F23A6
:10499000F0B94FF040524FF00104D9B2013B072B60
:1049A00082F82B1082F8284082F82800F5D10423E1
:1049B00082F82F304FF040530121002283F8281055
:1049C00083F828204FF47A70BDE8384000F022BB0D
:1049D0004FF04051012500240C4806E081F82B20BF
:1049E000013B81F8285081F82840027A0E2A8EBFB8
:1049F0000F22027AD2B29342DAB2EFDA4FF040528B
:104A0000024B5B7ADBB282F82F30D3E780004000A4
:104A1000F8B5FFF705FE4FF0405401250026074684
:104A200084F825604FF47A7084F8205084F8275079
:104A300000F0F0FA84F8256084F8245007BB0623C0
:104A40001C4D84F82730EB7884F826302B7884F8D6
:104A500042304FF0405401230022697840F24C402C
:104A600084F8461084F8442084F8453084F84130B6
:104A700084F8403000F0CEFAAB7884F84430F8BDCA
:104A8000FFF75CFF0C4B9B7A88B94FF04052DBB2CA
:104A9000084D84F82730E978074B82F82610DB7A36
:104AA00029780B440B3BDBB282F84230D1E7053B5F
:104AB000EBE700BFC01400208000400020B9064A88
:104AC000064B10601860704703490548034B054AC0
:104AD00008601A60704700BFC8140020C41400208A
:104AE0001D4900002D4900004FF040530620F0B44E
:104AF00001220A26FF24002583F8D60093F8D71058
:104B00004FF00F0C60F3030183F8D710042183F8F2
:104B1000D860052783F8402183F8D0400324072676
:104B200083F87F5093F88C00104383F88C0093F83F
:104B30008C0040F0020083F88C0093F8910061F340
:104B4000030083F8910083F8901083F88D1083F8A8
:104B5000A02093F8A10065F3010083F8A10083F879
:104B600094C093F88800104383F8880093F8890074
:104B7000104383F8890083F8F12083F8874083F895
:104B80008E4083F8D22083F8D52083F8AB7083F869
:104B9000AD5083F8AC4083F8AE1083F8AF1093F8B3
:104BA0008B1041F0700183F88B1083F8936083F8C9
:104BB000B020F0BC704700BF00220D480D4B0E49DD
:104BC00010B403600B6800EB82047F3323F07F0393
:104BD00041F8043B52B154F8043C51F8084C022A05
:104BE000234440F8223001D110BC70470132E9E77C
:104BF00074200020000240000400002032232DE930
:104C0000F04F514E8BB00093002233464F49642041
:104C100009F058FF002504273323DFF844814C4A6C
:104C2000CDE9046303924346032201216420CDE9C8
:104C30000155009709F0FEFE4FF0640B3423454CFC
:104C4000454A0593039223460322012158460496C0
:104C5000CDE90155009709F0EDFE01223C23A06843
:104C6000D8F808C03D498444ACF50074A4B20BFBED
:104C700004F4A1FB0414DFF8EC80DFF8ECE011464B
:104C8000A40A58460593049607ABCDE90155009751
:104C9000CDF80C80CDE908E4CDF81CC0144609F02D
:104CA000C9FE3D23DFF8C4905846059322462146AD
:104CB00008AB0496029500970194CDF80C9009F08A
:104CC000B9FE3E23DFF8A8A022460593049609AB5F
:104CD000CDE90145009758462146CDF80CA009F0D2
:104CE000A9FEDDE907239A422BD927464FF08C0B0A
:104CF00000240425012207AB1146CDE9046BCDE960
:104D00000248CDE90054642009F094FE01228D236D
:104D100011460593029408AB0095CDE903960197DF
:104D2000642009F087FE8E230122059302940095EA
:104D3000CDE903A60197114609AB642009F07AFE7C
:104D4000D6E70BB0BDE8F08F0C72010028720100AD
:104D50005C7201000400002070720100ABAAAAAAD4
:104D6000742000208472010000084000907201004D
:104D70009C720100034B044AD3E9001310681944E4
:104D8000FFF756BB040000207420002041F23423BA
:104D900010B50D4C226812889A4201D0002010BD37
:104DA000FFF7E8FFA3681B888342F7D123685B887D
:104DB000012BF3D10DF092FC23685B68181AB0FA4E
:104DC00080F0400910BD00BF74200020164B30B4A5
:104DD0001D7BEDB272B60022072491421C7383F84A
:104DE00031200EDD4A1E22F07F0200F180030124F3
:104DF0001A4400E0803340F480109A420460184660
:104E0000F8D10121084B094A83F831101D73D2F8FB
:104E10000001000405D54FF40040A3F86C10C2F85F
:104E2000800162B630BC70470000105000E100E025
:104E3000F0B5A1B006460F461546FFF7C7FF6B4613
:104E40001946C3F1C04000F580200C5C20AA01F88F
:104E5000014B9142F9D11B4A92F80CC05FFA8CFCCD
:104E600072B607240021147382F831103A1EB8BFBD
:104E700003329210002A09DD294605EB8205761AD5
:104E80008A1951F8044BA9421460F9D101240D4A42
:104E90000D4982F8314082F80CC0D1F800512D0440
:104EA00009D462B61A1813F8011B117020AA934294
:104EB000F8D121B0F0BD4FF40045A2F86C40C1F824
:104EC0008051EEE70000105000E100E0034610B40E
:104ED0000448054C0A4650F8230054F8231010BC2F
:104EE000FFF7A6BF74200020040000200022052147
:104EF000034B04481A6058609A601960704700BFFD
:104F000010E000E0FFFF0F000022044B98681A60D9
:104F1000C0F57F2000F6FF70704700BF10E000E092
:104F2000054A0649937CD27801335B00934000FB2D
:104F300003F091FBF0F070470000105000B4C4047F
:104F4000054A937AD27ADBB20AB101339840034B17
:104F500093FBF0F0704700BF0000105040420F007C
:104F6000054A937AD27ADBB22AB10122134402FABB
:104F700003F390FBF3F0704700001050054A00EB7C
:104F80008000937CD27801335B009340000190FB5A
:104F9000F3F0704700001050034B044A5B7C03F0B1
:104FA000010352F82330184700001050BC72010072
:104FB000034B044A5B7C03F0010352F8233018478B
:104FC00000001050B472010070B5012200241D21B0
:104FD000042688B008AB43F8040D0B4D0B48CDE90F
:104FE00001240591CDE9030511460096642009F0DE
:104FF00021FD074B07985C7100F046F8214605201B
:10500000FFF7DCFA08B070BDC4720100CC72010079
:10501000A414002008B5FFF7BFFFBDE80840FFF764
:10502000D3BF00BF08B5FFF7C3FFBDE8084000F0DD
:1050300013B800BF08B5FFF7AFFFBDE8084000F0A8
:1050400023B800BF002000F043B800BF012000F0EB
:105050003FB800BF00F030B8012830B44FF0000274
:105060004FF0020438BF01200121054B054D1A7095
:105070002A719C709860DA605A70197030BC704761
:1050800000000850A414002001284FF000024FF047
:10509000010138BF012010B4054B064C1A70627133
:1050A00099709860DA605A70197010BC704700BF30
:1050B00000000950A4140020012000220249034BE3
:1050C00008711A70704700BFA41400200000085037
:1050D00010B40B4A0B4983B0CDE9001202AB03EBCD
:1050E000800353F8082C9378DBB2012B04D1002104
:1050F000054C04302354117003B010BC704700BF3E
:105100000000095000000850A4140020024A136C4B
:1051100023F001031364704700000250024A136C2D
:1051200043F001031364704700000250024B186CF7
:10513000C04300F0010070470000025070B4DCF87A
:105140000C400028D4F809304FF000021E680DDD35
:10515000DCF80830DB681D18013D013B13F8011F26
:10516000715C9D420A44F9D192FBF0F2DCF8041024
:105170004B88A3B108891B1A1B02121A93FBF2F287
:10518000B2F5DC7FA8BF4FF4DC720A62D4F80D30B0
:1051900070BC198902FB01F212125A8170474FF458
:1051A00080720A62F2E700BF002822DDF0B5DCF869
:1051B0000460002496F80EE00CE0DCF800703F5D1F
:1051C00007FB033305FB03F35B1242F82430013481
:1051D000A0420DD051F8043B356ABEF1000FECD16E
:1051E00003FB05F39B1042F824300134A042F1D1B7
:1051F000F0BD704770B4DCF80C400028D4F80930DA
:105200004FF000021E680DDDDCF80830DB681D1869
:10521000013D013B13F8011F715C9D420A44F9D125
:1052200092FBF0F2DCF80410CB88A3B188881B1A3B
:105230001B02121A93FBF2F2B2F5DC7FA8BF4FF407
:10524000DC720A62D4F80D3070BC198902FB01F2DD
:1052500012125A8170474FF480720A62F2E700BF5F
:10526000002822DDF0B5DCF80460002496F80EE09A
:105270000CE0DCF800703F5D07FB033305FB03F334
:105280005B1242F824300134A0420DD051F8043BA7
:10529000356ABEF1000FECD103FB05F39B1042F819
:1052A00024300134A042F1D1F0BD704770B4DCF875
:1052B0000C400028D4F809304FF000021E680DDDC4
:1052C000DCF80830DB681D18013D013B13F8011FB5
:1052D000715C9D420A44F9D192FBF0F2DCF80410B3
:1052E0004B89A3B188891B1A1B02121A93FBF2F295
:1052F000B2F5DC7FA8BF4FF4DC720A62D4F80D303F
:1053000070BC198902FB01F212125A8170474FF4E6
:1053100080720A62F2E700BF002822DDF0B5DCF8F7
:105320000460002496F80EE00CE0DCF800703F5DAD
:1053300007FB033305FB03F35B1242F8243001340F
:10534000A0420DD051F8043B356ABEF1000FECD1FC
:1053500003FB05F39B1042F824300134A042F1D145
:10536000F0BD704770B4DCF80C400028D4F8093068
:105370004FF000021E680DDDDCF80830DB681D18F8
:10538000013D013B13F8011F715C9D420A44F9D1B4
:1053900092FBF0F2DCF804104B88A3B108891B1AC9
:1053A0001B02121A93FBF2F2B2F5DC7FA8BF4FF496
:1053B000DC720A62D4F80D3070BC198902FB01F26C
:1053C00012125A8170474FF480720A62F2E700BFEE
:1053D000002822DDF0B5DCF80460002496F80EE029
:1053E0000CE0DCF800703F5D07FB033305FB03F3C3
:1053F0005B1242F824300134A0420DD051F8043B36
:10540000356ABEF1000FECD103FB05F39B1042F8A7
:1054100024300134A042F1D1F0BD704770B4DCF803
:105420000C400028D4F809304FF000021E680DDD52
:10543000DCF80830DB681D18013D013B13F8011F43
:10544000715C9D420A44F9D192FBF0F2DCF8041041
:10545000CB88A3B188881B1A1B02121A93FBF2F2A5
:10546000B2F5DC7FA8BF4FF4DC720A62D4F80D30CD
:1054700070BC198902FB01F212125A8170474FF475
:1054800080720A62F2E700BF002822DDF0B5DCF886
:105490000460002496F80EE00CE0DCF800703F5D3C
:1054A00007FB033305FB03F35B1242F8243001349E
:1054B000A0420DD051F8043B356ABEF1000FECD18B
:1054C00003FB05F39B1042F824300134A042F1D1D4
:1054D000F0BD7047F0B40024DCF8083001F5F06549
:1054E000D3F8093001F50067DE68043E56F8041F62
:1054F000A5F5F06252F8803BCB1AAA421C44F9D1C0
:10550000151DAF42F2D1DCF804104A887AB194FB41
:10551000F0F3F0BC8888121A12021B1A92FBF3F304
:10552000B3F5DC7FA8BF4FF4DC730B6270474FF418
:105530008073F0BC0B627047F0B4DCF80450AC7BB5
:105540007CB900280BDD51F8046B2B6A013403FB96
:1055500006F3A0424FEAA30342F8043BF3D1F0BCA8
:1055600070470028FBDDDCF80060013E304416F88F
:10557000017F51F8044B2B6A07FB044403FB04F33F
:10558000B0424FEA632342F8043BF0D1F0BC7047CD
:10559000704700BF00280BDD10B4002451F8043B15
:1055A00001349B01A04242F8043BF7D110BC704784
:1055B000704700BF30B58DB02022002104A811F043
:1055C000E0FA1E4D1E491F4C1F48CDE90054CDE99D
:1055D00002011E4A1E4B069293F881208DF81C2072
:1055E00093F881308DF81D300DF04EF88DF81E00C7
:1055F0000DF050F88DF81F000DF052F88DF82000D6
:105600000DF054F88DF821000DF056F88DF82200B9
:105610000DF058F809900DF05BF80A900DF05EF867
:10562000ADF82C0068460FF0BDFB0DF057F810F0F8
:105630003DF80FF08DFB0DB030BD00BF0D510000E7
:10564000155000001D5100002D5100006E0016780D
:105650000000105070B5002301223F214826082584
:10566000022484B001A8CDE9013303938DF80760CB
:105670008DF808508DF809208DF80F208DF80A401C
:105680008DF80D10FFF79AF804B070BDD0F80D201A
:10569000138901FB03F1091251817047002809DDCC
:1056A000043A02EB8000043952F8043F824241F888
:1056B000043FF9D1704700BF2DE9F042204E92B06F
:1056C000204D0DAC05AF99460691089296E80F0063
:1056D00084E80F0018ABC4E90275204611A91193A4
:1056E000FAF7CEFD96E80F00174E09AD85E80F00DA
:1056F000C5E9027621462846FAF7C2FD089B069ABC
:1057000044F0010445F00105D3F801001269189E28
:10571000CDE903450D490790059202910196D3F812
:1057200009308022DB690021184611F02AFA202274
:10573000034601A948460CF0D7FF12B0BDE8F0823D
:10574000D07201003D510000A9510000351C01003C
:105750002DE9F042204E92B0204D0DAC05AF994698
:105760000691089296E80F0084E80F0018ABC4E990
:105770000275204611A91193FAF782FD96E80F00F1
:10578000174E09AD85E80F00C5E902762146284687
:10579000FAF776FD089B069A44F0010445F00105EE
:1057A000D3F801001269189ECDE903450D49079011
:1057B000059202910196D3F809303C22DB69002161
:1057C000184611F0DEF90F22034601A948460CF0F5
:1057D0008BFF12B0BDE8F082D0720100F5510000DD
:1057E00061520000991C01002DE9F042994692B0E7
:1057F0001C4E1D4D0DAC05AF0691089296E80F00AA
:1058000084E80F0018ABC4E90275204611A9119372
:10581000FAF736FD96E80F00144E09AD85E80F0043
:10582000C5E9027621462846FAF72AFD089B069A22
:1058300044F0010445F00105D3F801001269189EF7
:10584000CDE903450A490790059202910196D3F8E4
:10585000093048469B68002201A90CF045FF12B0B0
:10586000BDE8F082D0720100AD5200001953000073
:10587000C92001002DE9F042204E92B0204D0DAC20
:1058800005AF99460691089296E80F0084E80F004C
:1058900018ABC4E90275204611A91193FAF7F0FC80
:1058A00096E80F00174E09AD85E80F00C5E90276AE
:1058B00021462846FAF7E4FC089B069A44F00104C6
:1058C00045F00105D3F801001269189ECDE90345A2
:1058D0000D490790059202910196D3F80930802274
:1058E000DB690021184611F04CF92022034601A97A
:1058F00048460CF0F9FE12B0BDE8F082D07201000B
:1059000065530000D15300004D1C01002DE9F04209
:10591000204E92B0204D0DAC05AF994606910892ED
:1059200096E80F0084E80F0018ABC4E90275204622
:1059300011A91193FAF7A4FC96E80F00174E09ADD0
:1059400085E80F00C5E9027621462846FAF798FC5B
:10595000089B069A44F0010445F00105D3F80100C4
:105960001269189ECDE903450D49079005920291F1
:105970000196D3F809303C22DB690021184611F06A
:1059800000F90F22034601A948460CF0ADFE12B003
:10599000BDE8F082D07201001D540000895400005F
:1059A000F51C0100D0F80D301A68D38801FB03F113
:1059B00009121181704700BF0269054B0548013A81
:1059C00012F8011F013303F8011C8342F8D170471C
:1059D00000008360E00183602DE9F043894691B0C7
:1059E0001F4E204D0BAC04AF9846CDE9050296E85A
:1059F0000F0084E80F0018ABC4E9027520460FA918
:105A00000F93FAF73DFC96E80F00174E07AD85E8B7
:105A10000F00C5E9027621462846FAF731FCD9F88D
:105A200009304FF4F0621B690021184611F0A9F803
:105A3000059A0E4E12690E4F0346049244F001047B
:105A400045F0010540464FF4F0726946CDE9024544
:105A5000CDE900670CF048FE11B0BDE8F08300BF4F
:105A6000D0720100D554000039550000D90501005D
:105A700075FF0000F0B50F46D0F8093085B0DC683E
:105A80000AF0AAFD0AF06CFA20468022002111F0EB
:105A900078F8084A0849094E094D009201912346B9
:105AA000384620226946CDE902650CF01DFE05B09E
:105AB000F0BD00BFD905010061FF00009155000055
:105AC000955500002DE9F04100264FF00108284FC0
:105AD00082B0FFF76FFDFFF7BDFDFEF733FB0AF065
