:1000000000900000000800006CB00000000000003C
:1000100000000000000000000000000000000000E0
:100020000235DB009600960701F400023518023E07
:10003000BB0000020826D2AF320000020816D2AF81
:10004000320000022859D2AF32000002081E208A76
:1000500003020E34900184E06003020E349001EE3E
:10006000E07002A3E06003020E349001ECE0700245
:10007000A3E06003020E34900171E07002A3E0601F
:1000800003020E349000F1E064206003020E34900D
:10009000013FE0FF6003020E34EF704B900117E068
:1000A000FBA3E0FAA3E0F91214FDFFAEF090010506
:1000B000E0FBA3E0FAA3E0F91214FDD39FE5F09E64
:1000C0004003020E347E007F0C7D007B017A0179B3
:1000D00040121740E490017DF0A3F09001F4F0A3EA
:1000E000F09001F2F0A3F0E4F5B2900181E0FFA3FB
:1000F000E0900211CFF0A3EFF0C20B300403020D29
:10010000FF758D20438D20758D8043A808D2AF7573
:100110008B02758EC820042E9000F1E064207026BA
:10012000200923E5DB5404701D758A84200913E53A
:10013000DB5404700DF58675870300000075860199
:100140008006D20B8002D20B758B01758A1053A8E2
:10015000F7D39001EDE094909001ECE09401400E13
:10016000A3E02470F09001ECE034FEF08007E4900E
:1001700001ECF0A3F0D39001F9E094909001F8E045
:100180009401400EA3E02470F09001F8E034FEF0FA
:100190008007E49001F8F0A3F0E4900215F0A3F0DA
:1001A0001222B2900167EEF0A3EFF090016BEEF037
:1001B000A3EFF0C3900212E09FFF900211E09EFEB9
:1001C000123EE3900213EEF0A3EFF0D39414EE94FA
:1001D00000502E900216E004F07006900215E00424
:1001E000F0D3900216E09405900215E094004002CE
:1001F000D20BD3900214E0940F900213E0940050BD
:100200009FC3900214E09414900213E09400400302
:10021000020DE2300B03020DE290015BE0FEA3E071
:10022000FF90016BE0FCA3E0FD9FEC9E4053ED9F2F
:10023000FFEC9EFE7C007D051217139001AA12169A
:10024000D6E47FB87E88FDFC9001AAE0F8A3E0F92F
:10025000A3E0FAA3E0FBD31216B29001AA400A125F
:1002600016E20000EA60020ACAE0FCA3E0FDA3E097
:10027000FEA3E024A8FFEE3461FEE43DFDE43C80F3
:100280006290016BE0FEA3E0FFC390015CE09FFF82
:1002900090015BE09EFE7C007D051217139001AA81
:1002A0001216D6E47FA87E61FDFC9001AAE0F8A3B7
:1002B000E0F9A3E0FAA3E0FBD31216B29001AA4042
:1002C000091216E2000000008020E0F8A3E0F9A384
:1002D000E0FAA3E0FBC374A89BFF74619AFEE49963
:1002E000FDE498FC9001AA1216D69001AAA3A3E0FF
:1002F000FFA3E09001A8CFF0A3EFF0900211E0FE81
:10030000A3E0FF7C007D09121713ECF8EDF9EEFA7B
:10031000EFFB90016BE0FEA3E0FFE4FCFDEB2FFFA1
:10032000EA3EFEED39FDEC38FCE47B0AFAF9F812FE
:10033000160A900211EEF0A3EFF090013FE0600387
:10034000020BF7900108E0FBA3E0FAA3E0F9121416
:10035000FDFFAEF07C007D03121713ECF8EDF9EE13
:10036000FAEFFB9001A8E0FEA3E0FFE4FCFDEB2F19
:10037000FFEA3EFEED39FDEC38FCE47B04FAF9F8C7
:1003800012160A900100EEF0A3EFF0900108E0FBD6
:10039000A3E0FAA3E0F91214FDFFAEF07C007D03A8
:1003A000121713ECF8EDF9EEFAEFFB900100E0FE06
:1003B000A3E0FFE4FCFDEB2FFFEA3EFEED39FDEC90
:1003C00038FCE47B04FAF9F812160A900108E0FB05
:1003D000A3E0FAA3E0F9EE8FF0121560900100E0BF
:1003E000F9A3E0FFA3E0FBA3E0FAA3E0C98FF012BA
:1003F0001560900105E0FBA3E0FAA3E0F9E4F5F055
:1004000012156090010EE0FBA3E0FAA3E0F9E4F519
:10041000F0121560020DE2900100E0FEA3E0FF7C07
:10042000007D03121713ECF8EDF9EEFAEFFB9001E3
:10043000A8E0FEA3E0FFE4FCFDEB2FFFEA3EFEEDAB
:1004400039FDEC38FCE47B04FAF9F812160A900145
:1004500000EEF0A3EFF0A3E0FBA3E0FAA3E0F9EED7
:100460008FF0121560900108E0FBA3E0FAA3E0F919
:100470001214FDFFD39001A9E09F9001A8E095F030
:100480005003020DFF1214FDFFAEF0900102E0FBDD
:10049000A3E0FAA3E0F91214FDC39FFFE5F09EFE6E
:1004A000C3EF9517EE95165003020DFF900105E07E
:1004B000FBA3E0FAA3E0F91214FDFFAEF07C007D8F
:1004C00002121713ECC0E0EDC0E0EEC0E0EFC0E0B8
:1004D000900108E0FBA3E0FAA3E0F91214FDFFAEDF
:1004E000F0900102E0FBA3E0FAA3E0F91214FDC3CF
:1004F0009FFFE5F09EFEE4FCFDD0E0FBD0E0FAD0EB
:10050000E0F9D0E0F8EB2FFFEA3EFEED39FDEC38E4
:10051000FCE47B03FAF9F812160A900105E0FBA34C
:10052000E0FAA3E0F9EE8FF0121560900105E0FB10
:10053000A3E0FAA3E0F91214FDD39430E5F094752A
:100540004008747575F030121560900184E07003F6
:10055000020DE2900188E0FEA3E0FFD39400EE9448
:10056000005003020DE2900105E0FBA3E0FAA3E0D6
:10057000F91214FDC39FFFE5F09EFE123EE39001C9
:10058000AEEEF0A3EFF0900105E0FBA3E0FAA3E0EC
:10059000F91214FDFFC3900189E09F900188E09556
:1005A000F050209001AFE0940A9001AEE09400403A
:1005B00012900108E0FBA3E0FAA3E0F9E475F0056E
:1005C000121528900105E0FBA3E0FAA3E0F912144C
:1005D000FDFFD3900189E09F900188E095F04022D3
:1005E000D39001AFE0940A9001AEE09400401390E4
:1005F0000108E0FBA3E0FAA3E0F974FF75F0FB1239
:100600001528200B1AC3900214E09414900213E0F2
:100610009400500B9000F1E0642070030208DB901E
:100620000183E004F090018C1216E200000000E467
:10063000900190F0A3F0A3F0A3F09001D31216E282
:10064000000000009001E11216E200000000123EDE
:10065000BB123D01229001AAEFF0A3ECF0A3EDF054
:10066000EFC454F0240BF582E43402F583E0FEA3DA
:10067000E0C39DFFEE9CFE123EE3D3EF9428EE64B0
:10068000809480406C9001AAE0FBC454F02401F5F2
:1006900082E43402F5831216E200000000EBC45439
:1006A000F02405F582E43402F583E4F0A3F0900130
:1006B000AAE0FFC454F02409F582E43402F583E48F
:1006C000F0A3F0EFC454F0240EF582E43402F58375
:1006D000E4F09001ABE0FEA3E0FF9001AAE0C45477
:1006E000F0240BF582E43402F583EEF0A3EFF08002
:1006F0006C9001AAE0C454F02407F582E43402F5BA
:1007000083E0FEA3E0FFD39400EE9400404F9001FD
:10071000ABE0FCA3E0FDD3EF9DEE9C40149001AA5A
:10072000E0C454F0240EF582E43402F583E0440181
:10073000F09001AAE0FFC454F02407F582E43402EB
:10074000F583E0FAA3E0C39DEA9C5011EFC454F096
:10075000240EF582E43402F583E04402F09001AA0D
:10076000E0C454F02401F582E43402F583C083C070
:1007700082E0F8A3E0F9A3E0FAA3E0FB9001ABE08C
:10078000FEA3E0FFE4FCFDEB2FFFEA3EFEED39FDAA
:10079000EC38FCD082D0831216D69001AAE0FFC4B8
:1007A00054F02405F582E43402F583E475F0011277
:1007B00014E7EF75F007A42408F582E43408F58304
:1007C000E493FE740193FF9001AAE0FDC454F02469
:1007D00009F582E43402F583E0FAA3E0C39FEA9EC0
:1007E0005003021280EDC454F02405F582E4340273
:1007F000F583E0FEA3E0FBEEFAE4F9F89001AAE04D
:10080000C454F02401F582E43402F583E0FCA3E053
:10081000FDA3E0FEA3E0FF12160A9001AD1216D66A
:100820009001ADA3A3E0FEA3E0FF9001AAE0C454B1
:10083000F02407F582E43402F583E0FCA3E0C39FD3
:10084000FFEC9EFE123EE39001B1EEF0A3EFF090BC
:1008500001AAE0FD75F007A42403F582E43408F54D
:1008600083C37401939FE4939E4031EDC454F024FC
:1008700007F582E43402F583E0FEA3E04E601D90AC
:1008800001AAE0FBC454F0240FF582E43402F5839E
:10089000E0FEA3E0C394B8EE940B50479001AAE0A9
:1008A000FFC454F02407F582E43402F583E0FCA38E
:1008B000E04C7011EFC454F0240FF582E43402F5DB
:1008C00083E4F0A3F09001ADA3A3E0FEA3E0FF90CA
:1008D00001AAE0C454F02407F582E43402F583EE63
:1008E0000211A3EB60030211A99001B3F09001B1D2
:1008F000E0FEA3E0FFD39450EE94004006A37408FA
:10090000F0803B9001AAE0C454F0240EF582E43458
:1009100002F583E064036026D3EF943CEE9400403C
:10092000089001B37404F08015D39001B2E09428CC
:100930009001B1E0940040069001B37402F0900180
:10094000AAE0C454F02407F582E43402F583E0FE03
:10095000A3E0FFE4FCFD9001ADE0F8A3E0F9A3E023
:10096000FAA3E0FBD31216B2401E9001B3E0FF9051
:1009700001AAE0C454F02407F582E43402F583E4CC
:100980008FF01214E7021214D39001B2E094509049
:1009900001B1E0940050030212149001AAE0C45483
:1009A000F02407F582E43402F583C083C082E0FEC0
:1009B000A3E0FF9001B3E0FDC3EF9DFFEE9400D0F4
:1009C00082D083F0A3EFF0806B9001AAE0C454F0D2
:1009D0002407F582E43402F583E0FEA3E0FF4E70C5
:1009E000169001ADE0F8A3E0F9A3E0FAA3E0FFEA76
:1009F000FEE9FDE8FC80287C007D071217139001BA
:100A0000ADE0F8A3E0F9A3E0FAA3E02FFFEA3EFE91
:100A1000E93DFDE83CFCE47B08FAF9F812160A907F
:100A200001AAE0C454F02407F582E43402F583EE11
:100A3000F0A3EFF09001AAE0FBC454F02401F5828A
:100A4000E43402F5831216E200000000EBC454F017
:100A50002405F582E43402F583E4F0A3F09001AAC2
:100A6000E0FFC454F02409F582E43402F583E4F095
:100A7000A3F0EFC454F0240EF582E43402F583E4CD
:100A8000F09001ADA3A3E0FEA3E0FF9001AAE0C4B3
:100A900054F0240BF582E43402F583EEF0A3EFF07A
:100AA0009001AAE0C454F02407F582E43402F583EF
:100AB000E0FEA3E0FFD39400EE9400500302134B3A
:100AC0009001ACE09FFF9001ABE09EFE123EE390F0
:100AD00001AAE075F007A42405F582E43408F58343
:100AE000D37401939FE4939E402E9001AAE0FFC42B
:100AF00054F02407F582E43402F583E0FDA3E0908E
:100B000001ABCDF0A3EDF0EFC454F0240DF582E479
:100B10003402F583E4F080539001AAE0FF75F007FA
:100B2000A42407F582E43408F583E493FEEFC4546B
:100B3000F0240DF582E43402F583E0C39E502C903E
:100B400001AAE0C454F02407F582E43402F583E0FE
:100B5000FDA3E09001ABCDF0A3EDF0EFC454F02481
:100B60000DF582E43402F583E004F09001ABE0FE81
:100B7000A3E0FF22E709F608DFFA8046E709F2085A
:100B8000DFFA803E88828C83E709F0A3DFFA8032A7
:100B9000E309F608DFFA8078E309F208DFFA8070EB
:100BA00088828C83E309F0A3DFFA806489828A83D8
:100BB000E0A3F608DFFA805889828A83E0A3F2086E
:100BC000DFFA804C80D280FA80C680D4806980F2BF
:100BD0008033801080A680EA809A80A880DA80E244
:100BE00080CA803389828A83ECFAE493A3C8C582E1
:100BF000C8CCC583CCF0A3C8C582C8CCC583CCDF24
:100C0000E9DEE7800D89828A83E493A3F608DFF9A1
:100C1000ECFAA9F0EDFB2289828A83ECFAE0A3C802
:100C2000C582C8CCC583CCF0A3C8C582C8CCC58357
:100C3000CCDFEADEE880DB89828A83E493A3F208D2
:100C4000DFF980CC88F0EF60010E4E60C388F0EDD4
:100C50002402B4040050B9F582EB2402B40400501D
:100C6000AF23234582239013A473EF8DF0A4A8F043
:100C7000CF8CF0A428CE8DF0A42EFE22BC000BBE9B
:100C80000029EF8DF084FFADF022E4CCF875F00878
:100C9000EF2FFFEE33FEEC33FCEE9DEC984005FCAD
:100CA000EE9DFE0FD5F0E9E4CEFD22EDF8F5F0EE75
:100CB0008420D21CFEADF075F008EF2FFFED33FD60
:100CC0004007985006D5F0F222C398FD0FD5F0EA00
:100CD00022C2D5EC30E709B2D5E4C39DFDE49CFC0B
:100CE000EE30E715B2D5E4C39FFFE49EFE12145C1C
:100CF000C3E49DFDE49CFC800312145C30D507C363
:100D0000E49FFFE49EFE22C5F0F8A3E028F0C5F0C2
:100D1000F8E582158270021583E038F022BB010AE3
:100D200089828A83E0F5F0A3E022500687F009E784
:100D30001922BBFE07E3F5F009E3192289828A83B1
:100D4000E493F5F074019322BB010789828A830240
:100D500014E7500B09C5F027F7C5F01937F722BB88
:100D6000FE0D09F8E325F0F3C5F019E338F322F896
:100D700089828A8374019325F0C5F0F8E4933822C0
:100D8000BB010A89828A83F0E5F0A3F0225006F7BE
:100D900009A7F01922BBFE06F3E5F009F31922E8D2
:100DA0008FF0A4CC8BF0A42CFCE98EF0A42CFC8A50
:100DB000F0EDA42CFCEA8EF0A4CDA8F08BF0A42DCD
:100DC000CC3825F0FDE98FF0A42CCD35F0FCEB8E6E
:100DD000F0A4FEA9F0EB8FF0A4CFC5F02ECD39FE24
:100DE000E43CFCEAA42DCE35F0FDE43CFC2275F099
:100DF00008758200EF2FFFEE33FECD33CDCC33CC20
:100E0000C58233C5829BED9AEC99E58298400CF53A
:100E100082EE9BFEED9AFDEC99FC0FD5F0D6E4CE68
:100E2000FBE4CDFAE4CCF9A88222B800C1B900599C
:100E3000BA002DEC8BF084CFCECDFCE5F0CBF97869
:100E400018EF2FFFEE33FEED33FDEC33FCEB33FBFD
:100E500010D703994004EB99FB0FD8E5E4F9FA2287
:100E60007818EF2FFFEE33FEED33FDEC33FCC93382
:100E7000C910D7059BE99A4007EC9BFCE99AF90F4A
:100E8000D8E0E4C9FAE4CCFB2275F010EF2FFFEEB6
:100E900033FEED33FDCC33CCC833C810D7079BEC01
:100EA0009AE899400AED9BFDEC9AFCE899F80FD579
:100EB000F0DAE4CDFBE4CCFAE4C8F922EB9FF5F0DC
:100EC000EA9E42F0E99D42F0EC6480C86480984557
:100ED000F022EB9FF5F0EA9E42F0E99D42F0E89C9B
:100EE00045F022E8600FECC313FCED13FDEE13FE9A
:100EF000EF13FFD8F122ECF0A3EDF0A3EEF0A3EF97
:100F0000F022A8828583F0D083D0821216F91216BF
:100F1000F91216F91216F9E473E493A3C583C5F028
:100F2000C583C8C582C8F0A3C583C5F0C583C8C53D
:100F300082C822EC8EF0A4CCC5F0CCCDF8EFA4CEC4
:100F4000C5F02DFDE43CFCE8A42EC8C5F03DFDE451
:100F50003CFCEFA4FFE5F028FEE43DFDE43CFC2270
:100F6000EF4E6012EF60010EEDBB010B89828A83A8
:100F7000F0A3DFFCDEFA2289F05007F709DFFCA9B5
:100F8000F022BBFEFCF309DFFCA9F022D39001EDB7
:100F9000E094009001ECE094004003021B4A9001B1
:100FA00008E0FBA3E0FAA3E0F91214FDFFAEF09015
:100FB0000102E0FBA3E0FAA3E0F91214FDFDACF09E
:100FC000D39FEC9E4054900108E0FBA3E0FAA3E01D
:100FD000F91214FDFFC3ED9FFFEC95F0FED3EF94E3
:100FE00030EE9475400C9001A87475F0A37430F045
:100FF00080211214FDFFAEF0900102E0FBA3E0FAA5
:10100000A3E0F91214FDC39FFFE5F09E9001A8F044
:10101000A3EFF0E49001A2021889900102E0FBA383
:10102000E0FAA3E0F91214FDFFAEF0900108E0FB36
:10103000A3E0FAA3E0F91214FDFDACF0C39FFFECAE
:101040009EFED3EF9410EE9427400C9001A87427D5
:10105000F0A37410F0801D900102E0FBA3E0FAA35E
:10106000E0F91214FDFFC3ED9FFEEC95F09001A88E
:10107000F0A3CEF09001A8E0FFA3E09001A2CFF092
:10108000A3EFF0300018D3E0942C9001A2E094017B
:1010900040139001A47427F0A37410F08007E4902B
:1010A00001A4F0A3F0E49001A8F0A3F090013FE0C8
:1010B000605B9001A8E0FEA3E0FFD39400EE6480A3
:1010C00094804014D3EF9509EE9508400B9001F2FF
:1010D000E4F0A37464F08027D39001F3E0940090CF
:1010E00001F2E094004018900105E0FBA3E0FAA3B0
:1010F000E0F91214FDFF9001A8E5F0F0A3EFF0D2A3
:10110000089001F8740FF0A374A0F0800F9001F61E
:101110007403F0A374E8F0E4FF123C80D39001A9BB
:10112000E094009001A8E0648094805003021AF5D6
:10113000E0F9A3E0FF900105E0FBA3E0FAA3E0C91A
:101140008FF01215609001A8E0FEA3E0FFEE33954A
:10115000E0FDFCE47BB87A88F9F8C312169C500ACB
:101160009001A87488F0A374B8F0D39001F5E094CE
:10117000009001F4E0940050089000F1E0642070C9
:10118000229001A8E0FEA3E0FFC39496EE64809451
:10119000805010EF9400EE6480948040447C007D89
:1011A0000A803330003B90013FE070169001A8E0C8
:1011B000FEA3E0FFC39517EE951650257C027DBC7B
:1011C00080149001A8E0FEA3E0FFC39509EE950806
:1011D000500F7C027DBC1214B19001A8EEF0A3EF79
:1011E000F090013FE07003021A6B9001F6E070028C
:1011F000A3E070199001A8E0FEA3E0FDEEFCE4FF7F
:10120000120E359001A8EEF0A3EFF0803E9001A8F9
:10121000E0FEA3E0FFC3900136E09FFF900135E0C0
:101220009EFE123EE3D3EF9428EE64809480401B30
:10123000D39001F7E094C89001F6E09400400CA32D
:10124000E0249CF09001F6E034FFF0900135E0FEE0
:10125000A3E0FF7C007D07121713ECF8EDF9EEFA1E
:10126000EFFB9001A8E0FEA3E0FFEE3395E0FDFC6C
:10127000EB2FFFEA3EFEE93DFDE83CFCE47B08FA8B
:10128000F9F812160A900135EE800B9001A8E0FFE4
:10129000A3E0900135CFF0A3EFF0900135E0FEA37D
:1012A000E0FFD39405EE9400400EEF9410EE94000E
:1012B00050069001A8EE8016900131E0FEA3E0FFF9
:1012C000900136E02FFF900135E03E9001A8F0A399
:1012D000EFF0D39001A9E094309001A8E0648094ED
:1012E000F540077475F0A37430F0E5DB5404707AB0
:1012F0009001A8E0F9A3E0FF90010EE0FBA3E0FA63
:10130000A3E0C98FF01215609001A9E024A8FF9016
:1013100001A8E08042E5DB5404704F900105E0FB3A
:10132000A3E0FAA3E0F9E4F5F0121560900131E0D2
:10133000F9A3E0FF90010EE0FBA3E0FAA3E0C98F60
:10134000F012156090010EE0FBA3E0FAA3E0F912A1
:1013500014FD24A8FFE5F03461F990010BE0FBA334
:10136000E0FAA3E0C98FF0121560229001BDECF005
:10137000A3EDF09001BCEFF075F00EA424D7F58238
:10138000E43401F583E0704E9001BCE075F00EA4EA
:1013900024D3F582E43401F583E0FCA3E0FDA3E06F
:1013A000FEA3E0FFE4FBFAF9F8C31216B26027903F
:1013B00001BCE075F00EA424CFF582E43401F5837E
:1013C000E0FCA3E0FDA3E0FEA3E0FFE4F8C31216F7
:1013D000B26003021CC79001BFA3A3E0FEA3E0FF1D
:1013E000C39001BEE09FFF9001BDE09EFE123EE370
:1013F0009001BCE0FD75F00EA424D8F582E4340120
:10140000F583EEF0A3EFF0ED75F00EA424D7F5828E
:10141000E43401F583E06041ED75F005A424F2F5B4
:1014200082E4343EF583E493FE740193FFED75F09E
:101430000EA424D8F582E43401F583E0FCA3E0D3C4
:101440009FEC9E40149001BCE075F00EA424D7F5EB
:1014500082E43401F5837405F09001BFE0FCA3E061
:10146000FDA3E0FEA3E0FF9001BCE0FB75F00EA43D
:1014700024D3F582E43401F5831216D6EB75F00E11
:10148000A424DBF582E43401F583E0FEA3E0FFE46D
:10149000FCFD9001BFE0F8A3E0F9A3E0FAA3E0FBB4
:1014A00012157F9001BCE0FB75F00EA424CFF582ED
:1014B000E43401F5831216D6EB75F00EA424D7F5AB
:1014C00082E43401F583E0D3940074809480401169
:1014D000EB75F00EA424D7F582E43401F583E01413
:1014E000F09001BF021F0F9001BCE0FB75F00EA44D
:1014F00024D3F582E43401F583E0FCA3E0FDA3E00E
:10150000FEA3E0FF9001C31216D6EB75F00EA424E3
:10151000CFF582E43401F583E0FCA3E0FDA3E0FE17
:10152000A3E0FF9001C71216D69001C7E0FCA3E02C
:10153000FDA3E0FEA3E0FF9001BCE075F00EA42443
:10154000DAF582E43401F583E0F9F81216C3EFFB13
:10155000EEFAEDF9ECF89001C7E0FCA3E0FDA3E0A2
:10156000FEA3E0C39BFFEE9AFEED99FDEC98FCA371
:101570001216D69001C3E0FCA3E0FDA3E0FEA3E0B9
:10158000FF9001BFE0F8A3E0F9A3E0FAA3E02FFF8A
:10159000EA3EFEE93DFDE83CFC9001CBE0F8A3E02B
:1015A000F9A3E0FAA3E02FFFEA3EFEE93DFDE83CA7
:1015B000FC9001C71216D69001BFE0FCA3E0FDA38A
:1015C000E0FEA3E0FF9001BCE0FB75F00EA424D385
:1015D000F582E43401F5831216D69001C7E0FCA32E
:1015E000E0FDA3E0FEA3E0FFEB75F00EA424CFF531
:1015F00082E43401F5831216D69001C7E0FCA3E023
:10160000FDA3E0FEA3E0FFECC0E0EDC0E0EEC0E033
:10161000EFC0E09001BCE075F00EA424DBF582E49D
:101620003401F583E0FEA3E0FBEEFAE4F9F8D0E044
:10163000FFD0E0FED0E0FDD0E0FC12160A9001C71A
:101640001216D69001BFA3A3E0FEA3E0FBEEFA9032
:1016500001C7A3A3E0FEA3E0C39BFFEE9AFE123EE8
:10166000E39001BCE0FD75F00EA424D8F582E434CB
:1016700001F583EEF0A3EFF0ED75F005A424F0F58D
:1016800082E4343EF583E493FE740193FFED75F03C
:101690000EA424D8F582E43401F583E0FCA3E0D362
:1016A0009FEC9E5003021F0C9001BFE0FCA3E0FDE5
:1016B000A3E0FEA3E0FF9001BCE0FB75F00EA424C4
:1016C000D3F582E43401F5831216D6EB75F00EA43F
:1016D00024DBF582E43401F583E0FEA3E0FFE4FCC3
:1016E000FD9001BFE0F8A3E0F9A3E0FAA3E0FB124C
:1016F000157F9001BCE0FB75F00EA424CFF582E4C9
:101700003401F5831216D6EB75F00EA424D7F582BA
:10171000E43401F5837405F09001BFE0FCA3E0FD23
:10172000A3E0FEA3E0FF9001C71216D69001C7A365
:10173000A3E0FEA3E0FF22D39001EDE0940090012E
:10174000ECE0940040030222B112336090018CE07F
:10175000F8A3E0F9A3E0FAA3E0FBE8C0E0E9C0E009
:10176000EAC0E0EBC0E090011DE0FBA3E0FAA3E0DB
:10177000F91214FDFFE4FCFDD0E0FBD0E0FAD0E06C
:10178000F9D0E0F8EB2FFFEA35F0FEED39FDEC384B
:10179000FC90018C1216D6900191E004F070069036
:1017A0000190E004F0C3900193E09464900192E012
:1017B000940050030222B190018CE0FCA3E0FDA351
:1017C000E0FEA3E0FFECC0E0EDC0E0EEC0E0EFC063
:1017D000E0A3E0FEA3E0FBEEFAE4F9F8D0E0FFD0EE
:1017E000E0FED0E0FDD0E0FC12160A90018C12164B
:1017F000D690018CA3A3E0FFA3E090018ACFF0A3D1
:10180000EFF0A31216E200000000E4900190F0A3B4
:10181000F0A3F0A3F09001ECE07002A3E0600302FB
:1018200022B1900194E07002A3E060030222B19023
:10183000013FE070030220DB900186E0FEA3E0FFA1
:101840004E703490018AE0FDA3E0900186CDF0A3B4
:10185000EDF0900105E0FBA3E0FAA3E0F91214FD1E
:10186000FD900188E5F0F0A3EDF09001967403F08F
:10187000A374E8F00220F490018AE0FCA3E0FDC329
:10188000EF9DFFEE9CFE123EE390019CE0FBA3E087
:10189000FAA3E0F9EE8FF0121560900184E0703742
:1018A00090019CE0FBA3E0FAA3E0F91214FDC394BD
:1018B00006E5F09400501A900105E0FBA3E0FAA3BE
:1018C000E0F91214FDFF900188E5F0F0A3EFF0803D
:1018D000069001847401F090018AE0FEA3E0FFD33A
:1018E000900187E09F900186E09E4007E49001858B
:1018F000F080219001857401F08019E4900186F058
:10190000A3F0A3F0A3F0900184F0900198F0A3F06D
:10191000A3F0A3F0900184E070030222B19001884B
:10192000E0FEA3E0FFD39400EE940050030222B146
:10193000900105E0FBA3E0FAA3E0F91214FDC39FB8
:10194000FFE5F09EFE123EE39001A8EEF0A3EFF05B
:10195000A3E4F0A374C8F0900105E0FBA3E0FAA3B0
:10196000E0F91214FDD39494E5F09411400A90012B
:10197000AA7403F0A37420F09001A8E0FFA3E09004
:1019800001A0CFF0A3EFF0900105E0FBA3E0FAA3E4
:10199000E0F91214FDFFAEF0900188E0FCA3E0FD39
:1019A000D39FEC9E400FD39001A9E094649001A8CE
:1019B000E094005015C3ED9FEC9E50489001A9E0C3
:1019C00094C89001A8E09400403AE4900184F0901B
:1019D0000186F0A3F0900105E0FBA3E0FAA3E0F993
:1019E0001214FDFFC3900189E09F900188E095F0FB
:1019F0009001945007E4F0A374C8F0227401F0A39E
:101A0000742CF022900105E0FBA3E0FAA3E0F912A8
:101A100014FDFFD3900189E09F900188E095F0507C
:101A200003022283D39001A9E0941E9001A8E094C0
:101A3000004070900185E0704190019CE0FBA3E0C4
:101A4000FAA3E0F91214FDD39420E5F094034002C8
:101A5000804EC390019BE0942C90019AE094015039
:101A600042900105E0FBA3E0FAA3E0F91214FDC3E4
:101A70009490E5F09401402B8026C390019BE09464
:101A80002C90019AE09401501A900105E0FBA3E02C
:101A9000FAA3E0F91214FDC39490E5F09401400319
:101AA000123B55900105E0FBA3E0FAA3E0F9121404
:101AB000FDFFC3900189E09F900188E095F05011EF
:101AC0009001A9E0941E9001A8E094004003123B0D
:101AD000A2227F01123AAE123D74758A50902E20D8
:101AE0007419F0902E20E030E2F9903F02E49375F3
:101AF000F002A42400F582E5F0342EF583E0FFA384
:101B0000E09001B6CFF0A3EFF0902E20E4F0758ABC
:101B1000107F01123DA6900161E0FEA3E0FF4E7030
:101B20000E9001B6E0FCA3E0FDECFEEDFF801E7C14
:101B3000007D0312144A9001B7E02FFF9001B6E038
:101B40003EFE7802EFCEC313CE13D8F9FF900161A9
:101B5000EEF0A3EFF090015DE07002A3E0700F9053
:101B60000161E0FFA3E090015DCFF0A3EFF09001F1
:101B7000B81216E200002710E4FF123AAEE490011A
:101B8000B3F09001B3E0C3940974809480400302E1
:101B9000249FE4FF123D74758A50902E207419F032
:101BA000902E20E030E2F9903F01E49375F002A41A
:101BB0002400F582E5F0342EF583E0FFA3E09001E8
:101BC000B4CFF0A3EFF0902E20E4F0758A10FF124E
:101BD0003DA69001B4E0FEA3E0FF90016DEEF0A3FE
:101BE000EFF090015DE0FCA3E0FDEF2DFFEE3CFE89
:101BF000900161E0FCA3E0FDC3EF9DFFEE9C90012E
:101C0000B4F0A3EFF090015FE0FEA3E0FF4E700E92
:101C10009001B4E0FCA3E0FDECFEEDFF801E780235
:101C2000EFC333CE33CED8F9FF9001B5E02FFF904C
:101C300001B4E03EFE7C007D0512145C90015FEE75
:101C4000F0A3EFF0900163E07002A3E0700F900149
:101C50005FE0FFA3E0900163CFF0A3EFF090015F9E
:101C6000E0FEA3E0FFE4FCFD9001BF1216D6900158
:101C700063E0FCA3E0FDE4FF121B4B900163EEF078
:101C8000A3EFF09001B8E0F8A3E0F9A3E0FAA3E035
:101C9000FB900163E0FEA3E02400FFEE34F8FE3386
:101CA00095E0FDFCEB2FFFEA3EFEE93DFDE83CFC44
:101CB0009001B81216D69001B3E004F002236290AE
:101CC0002E23E4F07F507EC3FDFC9001B8E0F8A322
:101CD000E0F9A3E0FAA3E0FBD312169C400A9001BE
:101CE000B81216E20000C3509001B8E0FCA3E0FD7A
:101CF000A3E0FEA3E0FFEC33500A9001B81216E215
:101D000000000000900169E0FAA3E0FB4A700C902B
:101D100001B8A3A3E0FEA3E0FF80347E007F02EBC6
:101D2000FDEAFC121713ECF8EDF9EEFAEFFB900167
:101D3000B8E0FCA3E0FDA3E0FEA3E02BFFEA3EFE3B
:101D4000E93DFDE83CFCE47B03FAF9F812160A9041
:101D50000169EEF0A3EFF090015BE07002A3E07088
:101D60000F900169E0FFA3E090015BCFF0A3EFF0DB
:101D7000900127E0F8A3E0F9A3E0FAA3E0FB9001CB
:101D800063E0FEA3E0FFE4FCFDEB2FFFEA3EFEED87
:101D900039FDEC38FC9001271216D690012CE00496
:101DA000F0700690012BE004F090012BE0FEA3E020
:101DB000FFD3940AEE94004031EFFBEEFAE4F9F819
:101DC000900127E0FCA3E0FDA3E0FEA3E0FF1216D4
:101DD0000A900125EEF0A3EFF0E490012BF0A3F0C0
:101DE0009001271216E20000000090012DE0700221
:101DF000A3E07040900125E0FEA3E0FFC3900164E2
:101E0000E09FFF900163E09EFE123EE3900123EE0F
:101E1000F0A3EFF0D39406EE9400401890012D74D7
:101E200003F0A374E8F0900130E004F07006900134
:101E30002FE004F0900169E0FEA3E0FF229001A8EA
:101E40007402F0A374BCF0D39001A7E09400900159
:101E5000A6E094004021900102E0FBA3E0FAA3E099
:101E6000F91214FDFF900108E0FBA3E0FAA3E0F9EA
:101E7000E5F08FF01215609001ECE07002A3E060D5
:101E80000B9001A8E4F0A37464F0800B90001AE0BA
:101E9000641170037420F090013FE0600F7E007FBA
:101EA0000C7D007B017A017940021740900140E0EF
:101EB000F8A3E0F9A3E0FAA3E0FBE8C0E0E9C0E0A2
:101EC000EAC0E0EBC0E0900102E0FBA3E0FAA3E08F
:101ED000F91214FDFFE4FCFDD0E0FBD0E0FAD0E005
:101EE000F9D0E0F8EB2FFFEA35F0FEED39FDEC38E4
:101EF000FC9001401216D6900145E004F070069067
:101F00000144E004F09001A8E0FEA3E0FFC39001CB
:101F10004BE09F90014AE09E5003022858900140F8
:101F2000E0FCA3E0FDA3E0FEA3E0FFECC0E0EDC019
:101F3000E0EEC0E0EFC0E0A3E0FEA3E0FBEEFAE4D9
:101F4000F9F8D0E0FFD0E0FED0E0FDD0E0FC1216C2
:101F50000A9001401216D6900108E0FBA3E0FAA314
:101F6000E0F91214FD241EFFE435F0FEE4FCFD90C0
:101F70000140E0F8A3E0F9A3E0FAA3E0FBD31216D6
:101F8000B2500302281E9001ECE07002A3E060034F
:101F900002281E30080302281E900108E0FBA3E07F
:101FA000FAA3E0F91214FDFB900140A3A3E0FEA305
:101FB000E0C39BFFEE95F09001AAF0A3EFF0900133
:101FC00047E004F07006900146E004F0D39001472A
:101FD000E09401900146E0940040229001AAE0FEC6
:101FE000A3E0FF900149E09F900148E09E500E90D1
:101FF0000147E024FFF0900146E034FFF09001AA91
:10200000E0FFA3E0900148CFF0A3EFF0D3900147A9
:10201000E09405900146E094004046900140A3A35F
:10202000E0F9A3E0FF900108E0FBA3E0FAA3E0C918
:102030008FF0121560E4900146F0A3F08023900128
:1020400040A3A3E0F9A3E0FF900108E0FBA3E0FABE
:10205000A3E0C98FF0121560E4900146F0A3F0C22E
:10206000089001401216E200000000E4900144F0E4
:10207000A3F090014AF0A3F022C0E0C083C082C068
:10208000D0D2AFD39001EDE094009001ECE0940049
:10209000400CA3E024FFF09001ECE034FFF0D3907B
:1020A00001F1E094009001F0E09400400EA3E024E0
:1020B000FFF09001F0E034FFF08002D28AD390016B
:1020C000EFE094009001EEE09400400CA3E024FFC8
:1020D000F09001EEE034FFF0C390014BE094BC902F
:1020E000014AE09402500CA3E004F0700690014A0B
:1020F000E004F0D39001F3E094009001F2E094004A
:10210000400CA3E024FFF09001F2E034FFF0D39004
:1021100001F5E094009001F4E09400400CA3E02469
:10212000FFF09001F4E034FFF0D39001FBE0940065
:102130009001FAE09400400CA3E024FFF09001FA33
:10214000E034FFF0D39001F7E094009001F6E094C2
:1021500000400CA3E024FFF09001F6E034FFF0D340
:102160009001F9E094009001F8E09400400CA3E0A5
:1021700024FFF09001F8E034FFF0D39001A5E09443
:10218000009001A4E09400400CA3E024FFF0900133
:10219000A4E034FFF0D39001FDE094009001FCE056
:1021A0009400400CA3E024FFF09001FCE034FFF029
:1021B000C3900193E09464900192E09400500CA3CA
:1021C000E004F07006900192E004F0D3900195E0F5
:1021D0009400900194E09400400CA3E024FFF09060
:1021E0000194E034FFF0D3900197E09401900196C0
:1021F000E09400400CA3E024FFF0900196E034FF4F
:10220000F0D3900172E09401900171E09400400CD1
:10221000A3E024FFF0900171E034FFF0D39001A718
:10222000E094009001A6E09400400CA3E024FFF0AD
:102230009001A6E034FFF0C3900210E094B8900241
:102240000FE0940B500CA3E004F0700690020FE036
:1022500004F0C390020AE094F4900209E094015063
:102260000CA3E004F07006900209E004F0D39001A2
:102270002EE0940090012DE09400400CA3E024FF98
:10228000F090012DE034FFF0D0D0D082D083D0E0A8
:1022900032D39001EDE09F9001ECE09E400AA3E074
:1022A0009FF09001ECE09EF0D39001F1E09F90014F
:1022B000F0E09E400CA3E09FF09001F0E09EF080E3
:1022C00002D28AD39001EFE09F9001EEE09E400A97
:1022D000A3E09FF09001EEE09EF0C390014BE094EC
:1022E000BC90014AE09402500AA3E02FF090014A0A
:1022F000E03EF0D39001F3E09F9001F2E09E400AAF
:10230000A3E09FF09001F2E09EF0D39001F5E09FF2
:102310009001F4E09E400AA3E09FF09001F4E09E5B
:10232000F0D39001FBE09F9001FAE09E400AA3E009
:102330009FF09001FAE09EF0D39001F7E09F9001AA
:10234000F6E09E400AA3E09FF09001F6E09EF0D3F5
:102350009001F9E09F9001F8E09E400AA3E09FF011
:102360009001F8E09EF0D39001A5E09F9001A4E0D9
:102370009E400AA3E09FF09001A4E09EF0D390015C
:10238000FDE09F9001FCE09E400AA3E09FF09001D9
:10239000FCE09EF0C3900193E09464900192E0947D
:1023A00000500AA3E02FF0900192E03EF0D390019C
:1023B00095E09F900194E09E400AA3E09FF0900179
:1023C00094E09EF0EF2401FDE43EFCD3900197E001
:1023D0009D900196E09C400AA3E09FF0900196E05A
:1023E0009EF0EF2401FDE43EFCD3900172E09D904D
:1023F0000171E09C400AA3E09FF0900171E09EF023
:10240000D39001A7E09F9001A6E09E400AA3E09F21
:10241000F09001A6E09EF0C3900210E094B8900204
:102420000FE0940B500AA3E02FF090020FE03EF073
:10243000C390020AE094F4900209E09401500AA3C8
:10244000E02FF0900209E03EF0D390012EE09F9043
:10245000012DE09E400AA3E09FF090012DE09EF048
:10246000227E007FFF7D007B017A007900121740F9
:102470007E007FA87D007B017A0179001217407EE3
:10248000007F147D007B017A0179EB121740902DBB
:10249000E0E493900001F09000047411F0A3742222
:1024A000F0A37433F0902DE2E493900012F0902D9D
:1024B000E3E493900014F09000FB7401F090003678
:1024C0007410F09000F1F0900024F0A37420F090CC
:1024D00001027401F0A37400F0A37440F0900108AD
:1024E0007401F0A37400F0A37444F090010574012A
:1024F000F0A37400F0A37442F090010B7401F0A3F8
:102500007400F0A3742EF0A37401F0A37400F0A380
:10251000742AF0A37401F0A37400F0A37428F0905F
:1025200001207401F0A37400F0A37490F090011DD9
:102530007401F0A37400F0A37422F090019C740164
:10254000F0A37400F0A37480F090013C7401F0A338
:102550007400F0A37418F09001397401F0A37400B2
:10256000F0A3741BF09001147401F0A37400F0A3A5
:102570007432F0A37401F0A37400F0A37426F0A3E6
:102580007401F0A37400F0A37434F0900114E0FB24
:10259000A3E0FAA3E0F9E475F0C812156090011702
:1025A000E0FBA3E0FAA3E0F9E475F0641215609093
:1025B000011AE0FBA3E0FAA3E0F9E475F096121526
:1025C000607516007517C87508007509969001ECBE
:1025D0007407F0A374D0F0E49001EBF0227E007F4A
:1025E000047D007B017A01795F1217407E007F0431
:1025F0007D007B017A017963021740000000000032
:102600000803AB9074AA7583F5758255A57455754A
:1026100083FA7582AAA574A57583F5758255A522DE
:1026200002010AB00BB60CFF090208FF0DF70E03FA
:102630001307141010800192120710070F040404EE
:10264000010211150E12140E03024090017DE0FEEE
:10265000A3E0FFC39404EE9400502F900100E0FC2F
:10266000A3E0FDEF25E0FFEE33FE74752FF58274D5
:10267000013EF583ECF0A3EDF090017EE004F070F4
:102680000690017DE004F0022F329001B57401F054
:102690009001B5E0FFC3940474809480502AEF2524
:1026A000E02475F582E43401F583E0FCA3E0FDEF5E
:1026B00025E02473F582E43401F583ECF0A3EDF01A
:1026C0009001B5E004F080C890013FE060028073A3
:1026D000900102E0FBA3E0FAA3E0F91214FDFF90E1
:1026E0000100E0FCA3E0FDC3EF9DFFE5F09CFE12BE
:1026F0003EE3C3EF9428EE64809480504690010836
:10270000E0FBA3E0FAA3E0F91214FDFFC39001017E
:10271000E09FFF900100E095F0FE123EE3C3EF94CE
:1027200014EE6480948050059001088003900102AB
:10273000E0FBA3E0FAA3E0F91214FDFF90017BE5B2
:10274000F0800B900100E0FFA3E090017BCFF0A3AD
:10275000EFF09001B11216E200000000E49001B524
:10276000F09001B5E0FFD390017EE09F90017DE005
:102770009400403D9001B1E0F8A3E0F9A3E0FAA392
:10278000E0FBA3E025E02475F582E43401F583E065
:10279000FEA3E0FFE4FCFDEB2FFFEA3EFEED39FD7A
:1027A000EC38FC9001B11216D69001B5E004F0802F
:1027B000B09001B1E0FCA3E0FDA3E0FEA3E0FFECDC
:1027C000C0E0EDC0E0EEC0E0EFC0E090017DE0FED3
:1027D000A3E0FBEEFAE4F9F8D0E0FFD0E0FED0E0B1
:1027E000FDD0E0FC12160A9001B11216D69001B18C
:1027F000A3A3E0FEA3E0FF229001ABEFF0902E2216
:10280000E0FF9001AFE4F0A3EFF0758A50902E2224
:102810007401F09001ABE075F002A42410F582E59C
:10282000F0342EF5837402F0A3E4F09001ACF09044
:1028300001ACE0FFC3940C748094804003023142E9
:10284000EFF87E01E4088006CEA2E713CE13D8F895
:10285000FF9001ADEEF0A3EFF04E70079001ADF0E8
:10286000A304F0902E207419F0902E20E030E2F9AD
:102870009001ABE0FF75F002A42400F582E5F0348E
:102880002EF583E0FCA3E0D394FFEC940740597548
:10289000F002EFA42410F582E5F0342EF583E0FE7B
:1028A000A3E0FF9001ADE0FCA3E0FDEF2DFFEE3CC7
:1028B000FEC3EF94FFEE94039001ABE075F002507D
:1028C00013A42410F582E5F0342EF583EC8DF0127C
:1028D00014E7807EA42410F582E5F0342EF583748D
:1028E00003F0A374FFF0806A9001ABE0FF75F00283
:1028F000A42410F582E5F0342EF583E0FCA3E0FD7E
:102900009001ADE0FAA3E0FBD3ED9BEC9A402D756E
:10291000F002EFA42410F582E5F0342EF583C08395
:10292000C082C3A3E09BFF0582D582021583158276
:10293000E09AD082D083F0A3EFF080169001ABE054
:1029400075F002A42410F582E5F0342EF583E4F04E
:10295000A3F0902E20E4F0F58D9001ACE004F0029D
:10296000300F9001AFA3E0902E22F0758A1022E480
:10297000F526F525F524F523F526F525F524F5238B
:10298000F522C3E5229405748094805027E5222522
:10299000E0240AF8E6FE08E6FFE4FCFDE5262FF554
:1029A00026E5253EF525ED3524F524EC3523F523E4
:1029B000052280CEE47B05FAF9F8AF26AE25AD24DA
:1029C000AC2312160A900181EEF0A3EFF0E4752615
:1029D000A8752561F524F523F522C3E52294057435
:1029E0008094805073E52225E0240AF8E6FE08E68C
:1029F000FF900181E0FCA3E0FDC3EF9DFFEE9CFE94
:102A0000123EE3D3EF940AEE64809480401290016A
:102A100081E0FEA3E0FF90015BE0FCA3E0FD8015F8
:102A2000E52225E0240AF8E6FE08E6FF90015BE0D7
:102A3000FCA3E0FDC3EF9DFFEE9CFE3395E0FDFCA3
:102A4000E5262FF526E5253EF525E5243DF524E58B
:102A5000233CF52305228082E47F607EEAFDFCAB07
:102A600026AA25A924A823D31216B2400BE4752662
:102A7000607525EAF524F523AE25AF2622123978B4
:102A8000122DBDE490017DF0A3F0900169F0A3F058
:102A9000900167F0A3F090016BF0A3F07F0512376F
:102AA0007A900100E0F9A3E0FFA3E0FBA3E0FAA322
:102AB000E0C98FF0121560900100E0F9A3E0FF90EB
:102AC0000108E0FBA3E0FAA3E0C98FF012156090C3
:102AD0000105E0FBA3E0FAA3E0F9E4F5F0121560CC
:102AE00090010BE0FBA3E0FAA3E0F9746175F0A894
:102AF000121560900111E0FBA3E0FAA3E0F9746104
:102B000075F0A812156090010EE0FBA3E0FAA3E0B7
:102B1000F9E4F5F0121560E4900137F0A3F09001AC
:102B20003FF0FE7F18FD7B017A0179841217407E09
:102B3000007F0C7D007B017A017940121740E49000
:102B400001FAF0A3F09001F8F0A3F09000367410B1
:102B5000F0E490004BF09001EE7403F0A37420F0C9
:102B60009001FEE0700FC39001EDE094F49001EC51
:102B7000E09401500A9001EC7401F0A374F4F02287
:102B8000758D20438D20538D7FE4F5B275B6FF75AA
:102B9000B7FF75B2A243B20153A8FB538B7F758B6D
:102BA00010438B08E58B20E7030080F8538B7F757B
:102BB0008B11438B08E58B20E7030080F890021A05
:102BC000E5B5F0A3E5B4F0758B01E4F5B2123EBBB8
:102BD000E4F58D90011DE0FBA3E0FAA3E0F91214E7
:102BE000FD45F0701E900217E0FBA3E0FAA3E0F9A8
:102BF0001214FDFF90011DE0FBA3E0FAA3E0F9E54C
:102C0000F0806490011DE0FBA3E0FAA3E0F9121448
:102C1000FDFFAEF07C007D03121713ECC0E0EDC0A9
:102C2000E0EEC0E0EFC0E0900217E0FBA3E0FAA303
:102C3000E0F91214FDFFE4FCFDD0E0FBD0E0FAD097
:102C4000E0F9D0E0F8EB2FFFEA35F0FEED39FDECCE
:102C500038FCE47B04FAF9F812160A90011DE0FB37
:102C6000A3E0FAA3E0F9EE8FF012156022D39001F1
:102C7000EDE094009001ECE0940040030235173041
:102C800000209001A4E07002A3E0600875161F7593
:102C90001740800675161775177075081375098823
:102CA000800C7516007517C8750800750996900197
:102CB00005E0FBA3E0FAA3E0F91214FDFFAEF0C3B8
:102CC0009517EE9516500F90013FE0601AC3EF95EF
:102CD00009EE950840119001F4E07002A3E0702E17
:102CE00090013F04F080279000F1E064209001F40F
:102CF0007005F0A3F08006E4F0A374C8F0E490013E
:102D00003FF09001F2F0A3F09000367410F09001C3
:102D10003FE0FF601D900024E064109000367005D5
:102D20007410F080037420F09001EE7403F0A3742B
:102D300020F090004BEFF022C0E0C083C082C0D0F2
:102D400075D018D2AFE5DB30E424D209C206E5DB4A
:102D500030E116123ED7F583E0F5DFEF64077067C8
:102D6000D28A900007F00235CCC2050235CFE5DBF0
:102D700030E52C9000F0E064AA7017758A10F5DA3F
:102D8000C2AFF5B2F5A8F5A9F58B758E01758DC0AA
:102D900080FED204300604C2068054C2098050C2AC
:102DA00006E5DB30E123E5DB30E044123ED7F58376
:102DB000E0F5DFEF24F9600824EE700BD20A8007FB
:102DC000D28A900007E4F0802320050A7827A6DF46
:102DD000D205D2068019123ED7F583E5DFF0EF6405
:102DE0002470099001EE04F0A374F4F078270675BE
:102DF000DBFFD0D0D082D083D0E032787FE4F6D829
:102E0000FD7581270236250200000237FDE493A3F9
:102E1000F8E493A34003F68001F208DFF48029E48C
:102E200093A3F85407240CC8C333C4540F4420C8D8
:102E3000834004F456800146F6DFE4800B0102046F
:102E40000810204080903E03E47E019360BCA3FF05
:102E5000543F30E509541FFEE493A360010ECF54A4
:102E6000C025E060A840B8E493A3FAE493A3F8E493
:102E700093A3C8C582C8CAC583CAF0A3C8C582C8FF
:102E8000CAC583CADFE9DEE780BE900139E0FBA353
:102E9000E0FAA3E0F91214FD641045F07003123B50
:102EA00007900001E064AA7003123A4D900013E00D
:102EB000FF7E0064107002D203EF64204E7002C2E5
:102EC0000312387D20070890001AE06410700E90FD
:102ED000001A7411F0C2079001EB7401F09000FB2E
:102EE000E06006E4F09001EBF0900171E07004A363
:102EF000E064017010900171F0A3F09001A6F0A3BE
:102F0000F09001EBF030040CC2049001EE7401F07B
:102F1000A374F4F02290014C7420F0A37408F01212
:102F20003CC17E007F047D007B017A01795B121732
:102F3000407F01123E7BE4FF123E7B902E12E0FEAA
:102F4000A3E0C39405EE9400400F902E12E0FEA380
:102F5000E0D394F0EE9403400BE490014CF0A3F026
:102F6000FF123E7B902E23E4F090001D7410F09031
:102F70002E12E0FEA3E0FF7C007D0A12144A9001AD
:102F80004DE02FFF90014CE03EF990013CE0FBA3A7
:102F9000E0FAA3E0C98FF00215609001B1EFF0E410
:102FA000A3F09001B1E0FFA3E0C39F502E1222B224
:102FB000123E5590016BEEF0A3EFF08E14F515C89C
:102FC000740AC87400FCE4FDFB7A00790CFE7F0AE9
:102FD0001214249001B2E004F080C712314F900126
:102FE00000EEF0A3EFF0900169E0FEA3E0FFC390D4
:102FF0000134E09FFF900133E09EFE123EE37C002F
:103000007D051214B1900131ECF0A3EDF09001694F
:10301000E0FFA3E0900133CFF0A3EFF02253A87FAD
:10302000123E2F122C41123E9F12080E43A880E43C
:10303000F58D9000F17420F012366A9001EBE014E7
:10304000601814601A14602D14603F240470E0129C
:1030500036F59001EB7401F080D512325D802312B9
:103060003DD51238FC900025E0641070C29001EB51
:103070007404F080BA12082E9001EE7403F0A37469
:1030800020F09001EB7402F080A5123C38900025EE
:10309000E06410609A9001EB7401F080929001FF5F
:1030A000E014602114604324027060300313900127
:1030B000FF7401F0D202D2009001FC04F0A3745816
:1030C000F0C20180469001FCE07002A3E07002C2F1
:1030D000022003379001FF7402F0D201C202C20045
:1030E0009001FCF0A37458F080219001FCE0700284
:1030F000A3E070179001FF200303F0800C7401F02F
:103100009001FC04F0A37458F0C2012001033002C6
:103110000A900025E064106002D20722308A78907D
:1031200001ECE07002A3E0706E900171E07002A308
:10313000E07064F5B2758D20438D20758D9043A8A5
:1031400008D2AF758B4090012DE0FEA3E0FF4E60EA
:1031500005758E148003758E4020042F20092CE500
:10316000DB54047026758A84200920E5DB54047042
:103170001AF586758703000000758601EF4E60041E
:103180007F2880027F787E00122A71758B01758AF4
:103190001053A8F7123EBB227E007F1C7D007B01EE
:1031A0007A0179CF121740E4FDEDC3940274809444
:1031B000805057ED75F005A424EFF582E4343EF518
:1031C00083E493FFED75F00EA424DAF582E4340174
:1031D000F583EFF0ED75F00EA424DAF582E4340106
:1031E000F583E004F87E007401088005C333CE3314
:1031F000CED8F9FFED75F00EA424DBF582E434019E
:10320000F583EEF0A3EFF00D809F22300A5E2000E0
:103210005BC20A902E12E0FFA3E09001A8CFF0A3BA
:10322000EFF0E4FF123E7B902E12E0FEA3E0FF7C65
:10323000007D0A12144A90014DE02FFF90014CE0EE
:103240003EFE90013CE0FBA3E0FAA3E0F9EE8FF034
:103250001215609001A8E0FFA3E0902E12CFF0A31A
:10326000EFF09001EE7403F0A37420F0229001A817
:103270007408F0A3E4F0A3743FF0A374DFF0E4FD5E
:10328000FCF9758A10538AEF009001A8E0FEA3E0D4
:103290002DF582EE3CF583E493FF69F90DBD000145
:1032A0000CBC37E5BDDFE29001AAE0FEA3E0F582A9
:1032B0008E83E493FFE96F70089000017408F0803A
:1032C00005E4900001F0758A10538AEF0022E4FEB5
:1032D000EEC39407748094805039EE75F003A424F3
:1032E00017F582E4342EF583E5822FF582E43583E9
:1032F000F583E493FDEE75F003A42416F582E4341F
:103300002EF583E4932420F582E4342EF583EDF04A
:103310000E80BDEF701090014CE07002A3E07006CB
:10332000902E217412F022E49001A8F0A3F0758A87
:1033300010538AEF00122DE475EA81E4F5F6F5F4F6
:1033400075F308F5F275EB0700E5EC30E7FBAFF33A
:10335000EFFEADF2EDFF900139E0FBA3E0FAA3E050
:10336000F9EE8FF0121560E4F5EC75EB30758A100C
:10337000538AEF0022900108E0FBA3E0FAA3E0F9F2
:1033800074FF75F0FB12152890019BE02405F09066
:10339000019AE03400F0900198E0FEA3E0FFC394AE
:1033A000E8EE9403501BEF9405EE9400400CE024EB
:1033B000FBF0900198E034FFF022E4900198F0A334
:1033C000F022900108E0FBA3E0FAA3E0F9E475F035
:1033D00005121528900199E02405F0900198E03439
:1033E00000F090019AE0FEA3E0FFC3942CEE94015C
:1033F000501BEF9405EE9400400CE024FBF090018C
:103400009AE034FFF022E490019AF0A3F0229000B9
:1034100036E0FF9000FFE06F603D900036E0FD90E9
:1034200000FFF0900007E0900200F0540FF0ED7EF6
:103430000064207005E04420800CEF64104E700B97
:10344000900200E04410F0900007F0C28A9001F072
:103450007403F0A374E8F022900025E06410703F3C
:10346000F5B2758D20438D20538D7F53A8F7F58BD2
:10347000E5DB54047013200910F58AF5867587037F
:10348000000000758601758A10758B019001FE742D
:1034900001F09001EE7403F0A37420F0123EBB2201
:1034A0009001AAEFF07E007F10EEC0E0EFC0E07D5B
:1034B00000E075F010A42401F9740235F0FA7B01E4
:1034C000D0E0FFD0E0FE1217409001AAE0C454F013
:1034D000240FF582E43402F583740BF0A374B8F082
:1034E00022E4FFEFC3940B74809480502BEF25E00F
:1034F0002401F582E4342EF583E493FEEF25E024E5
:1035000000F582E4342EF583E4932420F582E4343C
:103510002EF583EEF00F80CB902F56E0902E2BF0FF
:10352000229001B07401F09001B0E0C39405748062
:10353000948050217F0112377A122E2B900102E0E5
:10354000FBA3E0FAA3E0F9EE8FF01215609001B052
:10355000E004F080D2E49001F4F0A3F02290015C4A
:10356000E0246CFF90015BE034EEFEC390016AE062
:103570009F900169E09E5014900171E07002A3E0F9
:10358000701190017104F0A374F4F022E4900171C1
:10359000F0A3F022EF903F0193903EF993FE540F79
:1035A000FDF87401088002C333D8FCFDEE54F060CE
:1035B00008EDF4529152938009ED42ABEDF452893B
:1035C00052965389FD22EF903F0193903EF993FE6E
:1035D000540FFDF87401088002C333D8FCFDEE548B
:1035E000F06008ED4291ED42888006ED4289ED429F
:1035F00080438902227F0112377A122E2B9001021A
:10360000E0FBA3E0FAA3E0F9EE8FF0121560121FC1
:103610001712176C12344D12261D123BEE123D3D4F
:103620000239EBC109C10A410200004101FF00C19A
:1036300003C101C100C102C105012700C104C106C7
:10364000C108C1074100FF1043021701021A0075AB
:103650008A10538AEFE4F586758F04F5ABF5AC4319
:10366000AC0C7580FF7588FF7589FF759104F59521
:10367000F592D28A22900169E0FEA3E0FF900167F3
:10368000EEF0A3EFF0E4FCFD9001BF1216D690011E
:103690006BE0FCA3E0FD7F01021B4B9001AAEFF061
:1036A000123D749001AAE0FF123AAE9001AAE09098
:1036B0003F0193FF122FD89001AAE0FF023DA6E43C
:1036C000F5DA75DA4043DA2075D74075D64075DAF9
:1036D0005843A80275B80475F80422E5B254016095
:1036E00006E5A85410700F75B29275B6F9E4F5B7F7
:1036F00043B20143A810227827E6FF2400F582E4B4
:10370000340022EE30E707C3E49FFFE49EFE22046C
:10371000001E0014050028001E02030410111500ED
:103720000101060000000000000000000000000091
:103730000000000000000000000000000000000089
:103740000000000000000000000000000000000079
:103750000000000000000000000000000000000069
:103760000000000000000000000000000000000059
:103770000000000000000000000000000000000049
:103780000000000000000000000000000000000039
:103790000000000000000000000000000000000029
:1037A0000000000000000000000000000000000019
:1037B0000000000000000000000000000000000009
:1037C00000000000000000000000000000000000F9
:1037D00000000000000000000000000000000000E9
:1037E00000000000000000000000000000000000D9
:1037F000000000000000000000000000000000D3F6
:1038000000000000000000000000000000000000B8
:1038100000000000000000000000000000000000A8
:00000001FF
