:1007E000006E0000001000005B90000000000000A0
:1007F00000000000000000000000000000000000F9
:100800000228F412157522D2AF3200022108D2AFAD
:1008100032000002307202318F000002080700002F
:10082000000000021CA9000000000002080EE709F9
:10083000F608DFFA8046E709F208DFFA803E888290
:100840008C83E709F0A3DFFA8032E309F608DFFAC8
:100850008078E309F208DFFA807088828C83E309EC
:10086000F0A3DFFA806489828A83E0A3F608DFFAC6
:10087000805889828A83E0A3F208DFFA804C80D214
:1008800080FA80C680D4806980F28033801080A690
:1008900080EA809A80A880DA80E280CA80338982E8
:1008A0008A83ECFAE493A3C8C582C8CCC583CCF094
:1008B000A3C8C582C8CCC583CCDFE9DEE7800D893B
:1008C000828A83E493A3F608DFF9ECFAA9F0EDFB42
:1008D0002289828A83ECFAE0A3C8C582C8CCC5838A
:1008E000CCF0A3C8C582C8CCC583CCDFEADEE880E3
:1008F000DB89828A83E493A3F208DFF980CC88F055
:10090000EF60010E4E60C388F0ED2402B404005085
:10091000B9F582EB2402B4040050AF2323458223AF
:1009200090087E73EF8DF0A4A8F0CF8CF0A428CEB1
:100930008DF0A42EFE22C2D5EC30E709B2D5E4C377
:100940009DFDE49CFCEE30E715B2D5E4C39FFFE4C7
:100950009EFE120BB5C3E49DFDE49CFC8003120BCC
:10096000B530D507C3E49FFFE49EFE22C5F0F8A38F
:10097000E028F0C5F0F8E582158270021583E038B2
:10098000F022BB010A89828A83E0F5F0A3E02250BD
:100990000687F009E71922BBFE07E3F5F009E31922
:1009A0002289828A83E493F5F074019322BB0107C4
:1009B00089828A8302096C500B09C5F027F7C5F0BC
:1009C0001937F722BBFE0D09F8E325F0F3C5F0193E
:1009D000E338F322F889828A8374019325F0C5F005
:1009E000F8E4933822BB010A89828A83F0E5F0A3F8
:1009F000F0225006F709A7F01922BBFE06F3E5F036
:100A000009F3192275F008758200EF2FFFEE33FE0F
:100A1000CD33CDCC33CCC58233C5829BED9AEC99D6
:100A2000E58298400CF582EE9BFEED9AFDEC99FC78
:100A30000FD5F0D6E4CEFBE4CDFAE4CCF9A88222BF
:100A4000B800C1B90059BA002DEC8BF084CFCECDDF
:100A5000FCE5F0CBF97818EF2FFFEE33FEED33FD18
:100A6000EC33FCEB33FB10D703994004EB99FB0FFD
:100A7000D8E5E4F9FA227818EF2FFFEE33FEED33D4
:100A8000FDEC33FCC933C910D7059BE99A4007EC4C
:100A90009BFCE99AF90FD8E0E4C9FAE4CCFB227593
:100AA000F010EF2FFFEE33FEED33FDCC33CCC83327
:100AB000C810D7079BEC9AE899400AED9BFDEC9A89
:100AC000FCE899F80FD5F0DAE4CDFBE4CCFAE4C801
:100AD000F922EB9FF5F0EA9E42F0E99D42F0EC64CA
:100AE00080C864809845F022EB9FF5F0EA9E42F0C2
:100AF000E99D42F0E89C45F022E8600FECC313FC4E
:100B0000ED13FDEE13FEEF13FFD8F122E8600FEFB7
:100B1000C333FFEE33FEED33FDEC33FCD8F122ECB2
:100B2000F0A3EDF0A3EEF0A3EFF022A8828583F00E
:100B3000D083D082120B42120B42120B42120B4294
:100B4000E473E493A3C583C5F0C583C8C582C8F028
:100B5000A3C583C5F0C583C8C582C822EC8EF0A4A6
:100B6000CCC5F0CCCDF8EFA4CEC5F02DFDE43CFC17
:100B7000E8A42EC8C5F03DFDE43CFCEFA4FFE5F081
:100B800028FEE43DFDE43CFC22EF4E6012EF6001E4
:100B90000EEDBB010B89828A83F0A3DFFCDEFA2213
:100BA00089F05007F709DFFCA9F022BBFEFCF3092E
:100BB000DFFCA9F022BC000BBE0029EF8DF084FF02
:100BC000ADF022E4CCF875F008EF2FFFEE33FEEC29
:100BD00033FCEE9DEC984005FCEE9DFE0FD5F0E950
:100BE000E4CEFD22EDF8F5F0EE8420D21CFEADF04F
:100BF00075F008EF2FFFED33FD4007985006D5F054
:100C0000F222C398FD0FD5F0EA221212F3FDACF0E8
:100C1000D39FEC9E40329001B81213071215A5D352
:100C2000EF9430EE9475400C9002E77475F0A37465
:100C300030F0800D1212FE1214989002E7F0A3EF2C
:100C4000F0E490023B020CB1121304FFAEF09001ED
:100C5000B8121307FDACF0C39FFFEC9EFED3EF94D8
:100C600010EE942740089002E712151A8012121312
:100C700004FFC3ED9FFEEC95F09002E7F0A3CEF0E9
:100C80009002E7E0FFA3E090023BCFF0A3EFF0304B
:100C90000014D3E0942C90023BE09401400F9002AA
:100CA0003D12151A8007E490023DF0A3F0E4900293
:100CB000E7F0A3F09001D3E0604D12137AD39400D3
:100CC000EE6480948040179001A612159EEF9DEE71
:100CD0009C400B90017DE4F0A37464F0801BD390E2
:100CE000017EE0940090017DE09400400C9001B5FD
:100CF0001213079002E7121475D20A900183740F41
:100D0000F0A374A0F080119001817403F0A374E843
:100D1000F07A00794A12135CD39002E8E0940090D4
:100D200002E7E0648094805003020F4CE0F9A3E0F6
:100D3000FF9001B512131F12139C12137A1215B9EA
:100D4000E47BB87A88F9F8C3120AD2500A9002E715
:100D50007488F0A374B8F0D3900180E094009001FF
:100D60007FE09400500790001BE0B4201D12137A1E
:100D7000C39496EE648094805010EF9400EE6480EB
:100D80009480403C7C007D0A802B3000339001D35E
:100D9000E07012900244121375C39DEE9C50217CAA
:100DA000027DBC80109001A6121375C39DEE9C506D
:100DB0000F7C027DBC1209369002E7EEF0A3EFF043
:100DC0009001D3E07003020F26900181E07002A32E
:100DD000E06003020F2612137A1215B9E54D2FF5C4
:100DE0004DE54C3EF54CE54B3DF54BE54A3CF54AAF
:100DF000054FE54F7002054EC3E55394D0E552947C
:100E0000075003020EC8AE4EAF4FCBEFCB1213CE3E
:100E1000AF4DAE4CAD4BAC4A120A409002E9EEF039
:100E2000A3EFF0C3E5519FFFE5509EFE1231F6900F
:100E300002EBEEF0A3EFF0D39464EE94005006E5DD
:100E4000514550700D9002E9E0F550A3E0F55102D4
:100E50000EB7D39002EAE095519002E9E095504038
:100E6000281214BF400474148018D3EF943CEE94FD
:100E7000004004740A800BD3EF9428EE94004037AE
:100E800074052551F551E4802A1214BF400774EC13
:100E90001215C0801ED3EF943CEE9400400774F608
:100EA0001215C0800ED3EF9428EE9400400974FB15
:100EB0001215C03550F550E4F54DF54CF54BF54A9B
:100EC000F54EF54FF552F553D3E5519400E55094A6
:100ED000004028120F76900208EEF0A3EFF0C31244
:100EE0000F761215AF500812154FE4F554800CE53B
:100EF00054C39407500512154F0554E5DB20E23F1B
:100F00009001BE121307FFAEF07C007D0F1214504B
:100F100012137A1215B9EB7B101213A29001BE12B4
:100F2000131FF9EE8014E5DB20E2149002E7E0F9EC
:100F3000A3E0FF9001BE12131FC98FF01209E590C4
:100F400001BE12130724A8FFE5F0801D9001B51221
:100F5000131F12146E9001BE12131F12146E900212
:100F6000E8E024A8FF9002E7E03461F99001BB12A9
:100F7000131F12139C229002E8E09551FF9002E7A4
:100F8000E09550FE1231F622208A030212F29001FF
:100F900079E07002A3E060030212F2900177E07042
:100FA00002A3E060030212F2900210E07002A3E0DC
:100FB00060030212F212149F60030212F29001D336
:100FC000E070309001C7121307FFAEF09001B51228
:100FD0001307D39FE5F09E40030212F2121437E488
:100FE00090021CF0A3F012155B90017D12157CF5A8
:100FF000708003757000757110E4F5B2122FD790F0
:101000000220E0F555A3E0F556C208758D20438D0A
:1010100020758D8043A808D2AF758B02758EC820CD
:10102000052412149F701F200B1CE5DB20E21775AE
:101030008AC4200B0DE5DB20E20875870300000061
:101040008006D2088002D208758B11758A5053A889
:10105000F7D3900178E09490900177E09401400EEE
:10106000A3E02470F0900177E034FEF08007E49074
:101070000177F0A3F0D3900184E09490900183E095
:101080009401400EA3E02470F0900183E034FEF060
:101090008007E4900183F0A3F0122FD71214A61258
:1010A00027C10BEBB406F89001AAE0F572A3E0F5B6
:1010B000739001AEE0F522A3E0F523E5732527FF49
:1010C000E5723526FEC3EF9523F525EE9522F5242E
:1010D000E5272488FFE5263413FED3E5259FE52484
:1010E0009E40048E248F25902E23E4F043890A121B
:1010F00013955380F5438902900206E524F0A3E599
:1011000025F0C3E5569525FFE5559524FE1231F6E9
:101110008E578F581215D040030212B6AE24AF2559
:101120007C007D10120B5C1215DAAF6FAE6EAD6DE8
:10113000AC6C9002E512136AFBD3120AE89002E548
:101140004017121406956FFFEE956EFEED956DFD3E
:10115000EC956CFC1215DA8007120B2B00000000D6
:10116000E47F607EEAFDFC9002E512136AFBD31275
:101170000AE8400A9002E5120B2B0000EA60121305
:1011800004FFAEF07C007D09120B5C9002E51213A7
:101190006A7B0A1213A21215DA9001D3E07036AE00
:1011A00055AF56FC7D09121450E4FCFDEB2525FFDC
:1011B000EA3524121340E47B0A1213AE8E558F5683
:1011C0009002E512131512139C12146012131F12D1
:1011D000139C0212B612146012131F12139C90017A
:1011E000B8121307FFAEF09002E5121367FBD3129B
:1011F0000AE850030212C61212F3121498FE1215D6
:101200002240030212C69001B5121307FFAEF07C14
:10121000007D02120B5CC8ECC8EDC0E0EEC0E0EF50
:10122000C0E01212F3121498FEE4FCFDD0E0FBD0F3
:10123000E0FAD0E0F912133BE47B031213AE900105
:10124000B512131F12147D9001B5121307D39430F9
:10125000E5F094754008747575F0301209E5900258
:1012600023E06052121428404D9001B5121307126A
:101270001498FE1231F69002E9EEF0A3EFF090011F
:10128000B512130712138395F050101214F5400B8A
:1012900012131CF9E475F0071209AD9001B5121391
:1012A00007FFD312138595F0400CD31214F54006B6
:1012B00012131C1215C720080D1215D05008121455
:1012C0009F700302100B900222E004121348E49076
:1012D00002021213D9F090022B120B2B0000000017
:1012E0001213D574C8F09001D47401F090017B12F0
:1012F0001449229001B8E0FBA3E0FAA3E0F9120937
:1013000082FFAEF09001B2E0FBA3E0FAA3E0F902A5
:1013100009829001D5A3A3E0F9A3E0FF9001B8E012
:10132000FBA3E0FAA3E022C8ECC8C9EDC9CAEECA23
:10133000CBEFCBE0FEA3E0FFE4FCFDEB2FFFEA3EAA
:10134000FEED39FDEC38FC22F07E007F077D007B4E
:10135000007A007959120B897A0079607E007F0B40
:101360007D007B00020B89E4FCFDE0F8A3E0F9A31B
:10137000E0FAA3E022E0FCA3E0FD9002E7E0FEA398
:10138000E0FF22FFC3900228E09F900227E0224363
:10139000AB0A5389F55395F55396F522C98FF002A0
:1013A00009E52FFFEA3EFEE93DFDE83CFCE4FAF9E1
:1013B000F8020A40A3F0A37401F0A322E50825E097
:1013C0002428F8E6FE08E622A3E0FEA3E0FBCAEE2E
:1013D000CAE4F9F82290022FE4F0A3F0A3F0A322CC
:1013E000F09001797402F0A37458F022CBEFCBCACD
:1013F000EECAE0FEA3E0FFEB2FFFEA3EFEE433FD82
:10140000E433FC780122E0FCA3E0FDA3E0FEA3E0CE
:1014100022902E12E0FEA3E0FF7C007D0A12092438
:10142000EF245CFFEE341222900227E0FEA3E0FFDF
:10143000D39400EE9400227F087A0179D57E007D56
:10144000007B01020B89900244E4F0A374C8F022EF
:10145000120B5CC8ECC8C9EDC9CAEECACBEFCB22EF
:101460009002E5A3A3E0F9A3E0FF9001B222F9E422
:10147000F5F00209E5FFE5F0F0A3EFF022F9EE8FB9
:10148000F00209E5E0FCA3E0FDC3EF9DFF22E4F5D7
:101490000CF50BF50AF50922C39FFFE5F09E22909B
:1014A000001BE0642022E49001AAF0A3F09001AEBA
:1014B000F0A3F0FB22D3EF9428EE64809480229076
:1014C00002EBE0FEA3E0FFD39450EE940022902EB6
:1014D00024F0902E277418F0902E2322AB0CAA0B28
:1014E000A90AA809D3020AE89002E8E0940A900247
:1014F000E7E09400229002EAE0940A9002E9E09486
:10150000002225E02414F582E43402F583229001C0
:10151000B0E0FFA3E090021ACF227427F0A374106A
:10152000F022D3900245E09F900244E09E22E03CEE
:10153000F0902E20E4F00FEF22900206E566F0A373
:10154000E567F02225E02428F8A60D08A60E2290D3
:1015500002E7E550F0A3E551F022E490017FF0A30B
:10156000F0229001A6E4F0A37496F022F97461755C
:10157000F0A80209E590003A7410F022F0A3F09070
:101580000187F0A3F022902E207409F022E0FEA340
:10159000E0780222E0FEA3E0FF7C007D0322E0FC75
:1015A000A3E0FDD322FFC3ED9FFFEC95F0FE22C325
:1015B000EF9464EE6480948022EE3395E0FDFC228B
:1015C0002551F55174FF22F974FF75F0F90209AD48
:1015D000C3E5589571E5579570229002E5020B1FFF
:1015E0001214A61227C10BEBB406F8E527240CFF52
:1015F000E52634FEFEC39001ABE09F9001AAE09E79
:101600005015900210E07002A3E0701290021004D6
:10161000F0A374F4F08007E4900210F0A3F09002BD
:101620000212142B402D9001AE1213EC120AF99005
:1016300001AEEEF0A3EFF0900204121594120B5CD1
:101640009001AA1213277802120AF99001AAEEF06B
:10165000A3EFF09001ABE02527FF9001AAE035262B
:10166000FE9001AE121484EE9CFE9002EDF0A3EF0A
:10167000F0E5272488FBE5263413FAD3EF9BEE9A96
:1016800040089002EDEAF0A3EBF09002EDE0FFA33A
:10169000E0900200CFF0A3EFF0A3ECF0A3EDF09008
:1016A00001AAE0FFA3E0900204CFF0A3EFF0D390F3
:1016B000020DE0940090020CE09400406B9001D386
:1016C000E0600F9001B5121307C394A0E5F0940FEA
:1016D0005009E490020AF0A3F0804DD390020BE091
:1016E000940090020AE09400402A90020CE0FEA3CD
:1016F000E0FF12186E12145990020A121594120982
:1017000024EB2FFFEA3EFEEF7802CEC313CE13D8B0
:10171000F9FF800C90020CE0FEA3E0FFC312186EEC
:1017200090020AEEF0A3EFF0D390020BE0940A903F
:10173000020AE0940090020E40097428F0A3744657
:10174000F080077407F0A3740FF0900200E0FFA38D
:10175000E090020CCFF0A3EFF09002EDE0FEA3E0EA
:10176000FF1224DA900206EEF0A3EFF090001BE0E7
:10177000B42003121358900206E0FEA3E0FFE4FC3D
:10178000FDE5632FF563E5623EF562ED3561F561D8
:10179000EC3560F5600565E56570020564C3E569D3
:1017A00094E8E5689403402AAE64AF65CBEFCB12B2
:1017B00013CEAF63AE62AD61AC60120A408E668F2D
:1017C00067E4F563F562F561F560F564F565F56864
:1017D000F569D3E5679400E56694004074900207CC
:1017E000E09567FF900206E09566FE9002EFF0A399
:1017F000EFF090020EE0FDFBC3E49BFBE49400FAE3
:10180000D3EF9BEA6480F8EE648098401BEDFF9074
:1018100002F0E09F7480F89002EFE0648098500836
:10182000121539E4F56A80299002EFE0FEA3E0FF8B
:101830001231F690020FE0FDD3EF9D7480F86E98A0
:101840004003756A03E56AC3940350051215390510
:101850006A900206E0F548A3E0F54978287C007D0F
:10186000007B007A00792A7E007F200208FE900229
:1018700001E09FFF900200E09EFE1231F6229002EE
:101880002B12136AFB90025012133390022B120B8F
:101890001F900230E004F0700690022FE004F090F8
:1018A0000231E07002A3E06003021ABE90022B1224
:1018B0001406FFEEC0E0EFC0E01213C8D0E0FFD086
:1018C000E0FE120A4090022B120B1F90022BA3A3E2
:1018D000E0FFA3E0900229CFF0A3EFF0A3120B2BBF
:1018E000000000001213D574C8F0900177E0700278
:1018F000A3E06003021ABE900233E07002A3E0602E
:1019000003021ABE9001D3E070030219BA900225B7
:10191000E0FEA3E0FF4E7022900229E0FDA3E090DC
:101920000225CDF0A3EDF09001B5121307FD900252
:1019300027E5F0F0A3EDF00219C6900229121484F5
:10194000EE9CFE1231F690023512131F12147D9098
:101950000223E07026900235121307C3940FE5F0BE
:101960009400500F9001B5121307FF900227121434
:101970007680239002237401F0801B9002351213AD
:1019800007C39402E5F09400500CE4900225121372
:10199000D9F0900223F0900229E0FEA3E0FFD3905B
:1019A0000226E09F900225E09E4007E4900224F08A
:1019B00080149002247401F0800CE490022512132C
:1019C000D9F0900223F0900223E07003021ABE12B5
:1019D00014285003021ABE9001B51213071214986E
:1019E000FE1231F69002E7EEF0A3EFF0A3E4F0A3CD
:1019F0007464F09001B5121307D39494E5F0941138
:101A0000400A9002E97403F0A37420F09002E7E02A
:101A1000FFA3E0900239CFF0A3EFF09001B51213CD
:101A200007FFAEF0D31213859E40129002E9121503
:101A30009E9002E8E09D9002E7E09C501A12138409
:101A40009E50439002E9E0FEA3E0FF9002E8E09F91
:101A50009002E7E09E402FE4900223F0900225F0F0
:101A6000A3F09001B512130712138395F09002337F
:101A700074015007F0A3742CF08005F0A37490F06B
:101A8000E4900224F0229001B5121307FFD3121341
:101A90008595F0400CD31214E8400612131C121561
:101AA000C79001B512130712138395F0501012144A
:101AB000E8400B12131CF9E475F0071209AD2290EF
:101AC000021CE0FEA3E0FFC39404EE9400502F90AC
:101AD00001B0E0FCA3E0FDEF25E0FFEE33FE74145F
:101AE0002FF58274023EF583ECF0A3EDF090021D19
:101AF000E004F0700690021CE004F0021C3D90022D
:101B0000EF7401F09002EFE0FF121502E0FCA3E099
:101B1000FDEF25E02412F582E43402F583ECF0A316
:101B2000EDF09002EFE004F0E0B404D89001D3E0CF
:101B30007003021BE99001B8121307FFAEF0900189
:101B4000B012159E9FEC9E5003021C36ED9FFFECD9
:101B50009EFED3EF94F4EE94015003021C36A312C0
:101B600013071215A59002F0F0A3EFF01231F61250
:101B700015AF505DE49002F2F0A3F09002F0E0FEA9
:101B8000A3E0FF1231F61214B54025D39002F1E024
:101B900094009002F0E0648094809002F24008E4A7
:101BA000F0A37405F0801074FFF0A374FBF08007BD
:101BB000E49002F2F0A3F0121304FF9002F3E02F7E
:101BC000FE9002F2E035F090021AF0A3CEF0021C73
:101BD0003D12150EF0A3EFF0900240E004F0700605
:101BE00090023FE004F0021C3D121304FF9001B08C
:101BF000121484E5F09CFE1231F6C31214B650366E
:101C00009001B8121307FFC39001B1E09FFF90014C
:101C1000B0E095F0FE1231F6C3EF9414EE648094B8
:101C20008050059001B880039001B2121307FF9015
:101C3000021AE5F0800312150EF0A3EFF09002EB0C
:101C4000120B2B00000000E49002EFF09002EFE096
:101C5000FFD390021DE09F90021CE09400401D9075
:101C600002EB12136AFBA3E0121502121333900267
:101C7000EB120B1F9002EFE004F080D09002EB1209
:101C80001406FFEEC0E0EFC0E090021C1213C9D0B2
:101C9000E0FFD0E0FE120A409002EB120B1F900210
:101CA000EBA3A3E0FEA3E0FF22C0E0C083C082C09C
:101CB000D0D2AF90018CE004F0E5772401F577E411
:101CC0003576F576E43575F575E43574F574D390AD
:101CD0000178E09400900177E09400400CA3E024A8
:101CE000FFF0900177E034FFF0D390017AE09400A8
:101CF000900179E09400400CA3E024FFF09001797A
:101D0000E034FFF0D390017CE0940090017BE094FC
:101D100000400CA3E024FFF090017BE034FFF0D3FF
:101D200090017EE0940090017DE09400400CA3E0DF
:101D300024FFF090017DE034FFF0D3900180E09427
:101D40000090017FE09400400CA3E024FFF090019C
:101D50007FE034FFF0D390018AE09400900189E0A5
:101D60009400400CA3E024FFF0900189E034FFF0E0
:101D7000D3900188E09400900187E09400400CA388
:101D8000E024FFF0900187E034FFF0D3900182E07F
:101D90009400900181E09400400CA3E024FFF090B7
:101DA0000181E034FFF0C3E56994E8E568940350ED
:101DB000080569E56970020568C3E55394D0E552EA
:101DC000940750080553E55370020552D390023230
:101DD000E09400900231E09400400CA3E024FFF076
:101DE000900231E034FFF0D3900234E0940090028E
:101DF00033E09400400CA3E024FFF0900233E03481
:101E0000FFF0D3900211E09401900210E0940040A2
:101E10000CA3E024FFF0900210E034FFF0D3900117
:101E200084E09400900183E09400400CA3E024FF40
:101E3000F0900183E034FFF0D390023EE0940090F4
:101E4000023DE09400400CA3E024FFF090023DE04E
:101E500034FFF0D3900104E09401900103E094007A
:101E6000400CA3E024FFF0900103E034FFF0D0D059
:101E7000D082D083D0E0327E007FFF7D007B017A6C
:101E8000007904120B899002F77400F0A37404F037
:101E900090012A7401F0A37400F0A374B8F09001CB
:101EA000307401F0A37400F074AC122EB57400F01D
:101EB000A37494F090012D7401F0A37400F0A37446
:101EC000C6F09001367401F0A37400F074D2122EA3
:101ED000B57400F0A3741F122EB67401F0A374023F
:101EE000F0902DE0E493FF9002F7E0FCA3E0FDF515
:101EF000828C83A3EFF0900002E0FFED2404122E09
:101F00009B900001E0FFED2405122E9B900003E062
:101F1000FFED2406122E9B902DE2E493FFED241298
:101F2000122E9B902DE3E493FFED2414122E9B9030
:101F3000013F7401F0A37400F0A3743CF0E4FF755A
:101F4000F002EFA42401F582E5F0342EF583E4934A
:101F5000FE74542FF582E43400F583EEF0EF25E0B3
:101F60002423F582E4342EF583E493FE122EBDEE95
:101F7000F0122EBDE0FEEF25E02422F582E4342E9F
:101F8000F583E4932420F582E4342EF583EEF00FFC
:101F9000EFB411AB902F56E0900058F0902F56E020
:101FA00090006AF09000FF7401F09000FEF0900045
:101FB0003A7410F090001BF0900028F0A37420F009
:101FC0009001777407F0A374D0F02212148EF513E9
:101FD000F51485280F852910852811852912F50803
:101FE0001213BCFFD3E5129FE5119E40078E118F9F
:101FF00012850814C3E5109FE50F9E50078E0F8FC2
:10200000108508130508E508B410D5E4F50DF50EA4
:10201000F508E51465086034E5136508602EE50EE3
:10202000450D7010E50825E02428F8E6F50D08E6D2
:10203000F50E80181213BC250EFFE50D3EFEEF24B1
:1020400001FFE43EC313F50DEF13F50E0508E50897
:10205000B410BF900220E50DF0A3E50EF0E514C327
:10206000940D5005E514121544E513C3940D500565
:10207000E51312154412148EF5081213BCFFC3E5C4
:102080000E9FFFE50D9EFE1231F61214B5400FE4CF
:10209000FCFDE50C250EF50CE50B350D800F12133C
:1020A000BCFFE4FCFDE50C2FF50CE50B3EF50BED5C
:1020B000350AF50AEC3509F5090508E508C3941059
:1020C00040B8AF6FAE6EAD6DAC6C1214DC401AE56B
:1020D0000C956FF50CE50B956EF50BE50A956DF516
:1020E0000AE509956CF509800312148EE47F607E81
:1020F000EAFDFC1214DC400BE4750C60750BEAF58C
:102100000AF509AE0BAF0C22C0E0C083C082C0D07C
:1021100075D018122DD2D2AFE5DB30E419D20BC244
:1021200007E5DB30E10280309002F6E5DFF0900257
:10213000F9E4F0022208E5DB30E511D205300704AE
:10214000C2078002C20B122DD9022208C207E5DBAA
:1021500030E140E5DB30E0109002FAE0FF04F012DD
:102160002DBCE0F5DF0222089002FAE0FFB4081966
:10217000208A16D28A9001A47401F09002F7E0FC44
:10218000A3E02407122DC2E4F0EF641A707AD2069D
:102190000222089002F9E0700EA3E5DFF09002F948
:1021A0007401F0D20780619002FAE0902F3893FF1B
:1021B000B4FF089002F6E5DFF08047EF640F702966
:1021C0009002FAE0FFA3E0FCA3E0FD122DC1E05471
:1021D0000FF09002FAE0FF04F0ED122DC1E0FFE5F0
:1021E000DF54F0FEEF4EF0801F9002FAE0FF122D58
:1021F000BCE5DFF0EFB4240A9001797401F0A37418
:10220000F4F09002FAE004F075DBFFD0D0D082D079
:1022100083D0E0329001D3E060061214370222FC32
:102220009001D512136AFBE9C0E0EAC0E0EBC0E020
:10223000121304FFE4FCFDD0E0FBD0E0FAD0E0F99B
:10224000EB2FFFEA35F01213409001D5120B1F90CF
:1022500001DAE004F070069001D9E004F090017B0F
:10226000E07002A3E060030223069001D512140679
:10227000FFEEC0E0EFC0E01213C8D0E0FFD0E0FEF8
:10228000120A409001D5120B1F9001B812130724B7
:1022900032FFE435F0FE9001D5121367FBD3120A2A
:1022A000E84039900177E07002A3E0702F200A2CFB
:1022B0009001DCE004F070069001DBE004F0D390C4
:1022C00001DCE094059001DBE09400401E12131243
:1022D00012139CE49001DBF0A3F0800F1213121292
:1022E000139CE49001DBF0A3F0C20A9001D5120B1D
:1022F0002B00000000E49001D9F0A3F090017B7462
:1023000002F0A374BCF022900266E0FEA3E0FFC3DB
:1023100090024FE09FFF90024EE09EFE1231F6D3F6
:10232000EF940AEE648094804020900246120B2BBA
:1023300000000000E490024AF0A3F0900266E0FF83
:10234000A3E090024ECFF0A3EFF0900246122BB81C
:10235000900266122B72900246120B1F90024BE005
:1023600004F0700690024AE004F090024AE0FEA3F6
:10237000E0FFD3940AEE94004031CBEFCBCAEECA13
:10238000E4F9F8900246122BAC120A4090024CEE8F
:10239000F0A3EFF0A3EEF0A3EFF0900246120B2BA8
:1023A00000000000E490024AF0A3F0D390024DE058
:1023B000940090024CE094004030900250E0FEA364
:1023C000E0FF7C007D03120B5CC8ECC8C9EDC9CAF4
:1023D000EECACBEFCB90024C122B72E47B04FAF9DD
:1023E000F8120A40900250EE800B900266E0FFA3C4
:1023F000E0900250CFF0A3EFF0229002EBEFF0124A
:102400002E8C7402F0A3E4F0902E2204F0A3E0449A
:1024100001F0E49002ECF0A3F09002ECE0FEA3E007
:10242000FFC3940AEE940040030224D7EF9408EE11
:10243000940040067E007F0180199002ECA3E00426
:10244000FFE47E02C8EFC8088006CEA2E713CE13D1
:10245000D8F8FF9002EEEEF0A3EFF0902E20740972
:10246000F0902E20E030E2F99002EBE0FF75F002F0
:10247000A42400122E92E0FCA3E0FD902E20E4F0B4
:10248000D3ED94FEEC940740179002EEE0FCA3E03D
:10249000FD75F002EF122E8FEC8DF012096C802684
:1024A0009002EBE0122E8CC083C082E0FEA3E0FF1E
:1024B0009002EEE0FCA3E0FDC3EF9DFFEE9CD08216
:1024C000D083F0A3EFF09002EDE004F070069002EC
:1024D000ECE004F00224197F00229002F1EEF0A358
:1024E000EFF0E4FFFEFDFCAB5EAA5DA95CA85BC358
:1024F000120AE89002F17010E0FEA3E0FFE48F5EA4
:102500008E5DF55CF55B802FE0FEA3E0FFEF255EBE
:10251000FFEE355DFEE4355CFDE4355BFCEF240148
:10252000FFE43EFEE43DFDE43CFC7801120AF98F35
:102530005E8E5D8D5C8C5B055FE55FD3940A401118
:10254000855D59855E5AE4F55EF55DF55CF55BF5F4
:102550005FD3E55A9400E559940040429002F2E0BE
:10256000955AFF9002F1E09559FE1231F6C3EF94AF
:102570000AEE64809480AE59AF5A50117C007D03FE
:10258000120B5C9002F1121327780280069002F180
:102590001213EC120AF99002F1EEF0A3EFF09002A0
:1025A000F1E0FEA3E0FF227F917A0179B012143DA1
:1025B0009001B27401F0A37400F074441213B47467
:1025C00000F074461213B47400F0A374481213B5EB
:1025D0007400F0A374321213B57400F0A3742E12B9
:1025E00013B57400F0A3742CF09001CD7401F0A326
:1025F0007400F0A37426F09002357401F0A3740007
:10260000F0A37484F09001D07401F0A37400F0A3DF
:10261000741CF09001C47401F0A37400F0A374362C
:102620001213B57400F0A3742A1213B57400F0A34A
:102630007438F01214469001C412131FF9E475F0B7
:10264000C81209E59001C712131FF9E475F064126E
:1026500009E51215629001CA12131FF9E475F0968C
:102660000209E59002E7EEF0A3EF1213489002E7AB
:10267000E07002A3E06003122983E490021CF0A33F
:10268000F07F1012300B1213E1A37402F0A374BC9C
:10269000F09001B0E0F9A3E0FFA312131F12139C06
:1026A0009001B512131F12146E9001BB12131F126A
:1026B000156C9001BE12131F12146E9001C11213FB
:1026C0001F12156C121575E49001D3F09001D5120C
:1026D0000B2B000000009001D91213D8F09001B02C
:1026E00012131712139CE49001D4F0900189121573
:1026F0007C900183F0A3F0FE7F12FD7B017A0279CA
:1027000023120B899001CD12130790022912147520
:1027100090023112144922D3900178E09400900184
:1027200077E0940040030227C030002590023DE08E
:102730007002A3E0900244600512151A8007741B12
:10274000F0A37458F09001A67417F0A37470F08091
:10275000061214461215629001B5121307FFAEF06F
:1027600012152240139001D3E0601ED39001A7E020
:102770009F9001A6E09E501190017FE07002A3E0BF
:1027800070279001D304F0802090001BE0B4200556
:1027900012155A800690017F121449E49001D3F07B
:1027A00090017DF0A3F01215759001D3E0601190B7
:1027B0000028E090003AB410047410F0227420F065
:1027C0002212138FE49001ACF0A3F0900242F0A328
:1027D000F0FF1231BE121586902E20E030E2F99003
:1027E0002E02E0FCA3E0FD9001ADE02DF09001ACE5
:1027F00012152EB403DCE4FF1231CD121586902E93
:1028000020E030E2F9902E0EE0FCA3E0FD900243C0
:10281000E02DF090024212152EB403DC9001AC12B0
:10282000158DCEC313CE13D8F9FF9001ABE02FF076
:102830009001AAE03EF090024212158DCEC313CE55
:1028400013D8F9FF9001AFE02FF09001AEE03EF019
:10285000902E23E4F0902E20F043890A1213955312
:1028600080F522C10B41019C0041019D004101A363
:1028700000410199004101A10042010303E8410127
:10288000A400C101C1034101A20041019800C1029D
:10289000C100C1044102F9004102FA004202F40001
:1028A00000C105C107C1064102F6104101A5004162
:1028B00001A910C10AC10941024100022600000419
:1028C0006C00000000016B004101A81041025300A0
:1028D000047400000000410252004102D60042028E
:1028E0006600004402D70000000042025000004190
:1028F00002DB0000787FE4F6D8FD75817702293E7F
:10290000020000022FA3E493A3F8E493A34003F68C
:102910008001F208DFF48029E493A3F85407240C23
:10292000C8C333C4540F4420C8834004F456800104
:1029300046F6DFE4800B0102040810204080902856
:1029400063E47E019360BCA3FF543F30E509541F4C
:10295000FEE493A360010ECF54C025E060A840B808
:10296000E493A3FAE493A3F8E493A3C8C582C8CA86
:10297000C583CAF0A3C8C582C8CAC583CADFE9DE59
:10298000E780BE7F01123127902E12E0FEA3E024E3
:10299000E0FFEE34FC9002E9F0A3EFF012138F1287
:1029A0002FD71231BE902E227401F0121586902E70
:1029B00020E030E2F9902E0212158DCEC313CE1313
:1029C000D8F9FF7C007D121209248E268F277D10F6
:1029D000120B5CEF24E0F56FEE34B1F56EED34FFD1
:1029E000F56DEC34FFF56C902E20E4F043890A126B
:1029F00013955380F5902E23F09001A9E0900021CB
:102A0000F0121411F99001D012131FC98FF00209AE
:102A1000E5900198E014601B1460432402705D90FF
:102A200001A2E0B4010A900198122A7DD204D200DA
:102A3000C202227F02122F00EF60077F02123202D1
:102A4000C2049001A2E070349001987402F0D202A6
:102A5000C204C2007F031232027F030230FC7F03F4
:102A6000122F00EF60167F031232029001A2E09055
:102A700001987003F08003122A7DC202227401F0D3
:102A80007F021232027F021230FC22758A10E4F5B6
:102A9000B275B6FF75B7FF75B2A243B2011231E944
:102AA0009002DB7401F0E5A830E2030080F89002A8
:102AB00052E0FFE4FCFDFE122BA2122BAC780812B0
:102AC0000B0C122BA2122BB89002D6E0FFEB4FFF9B
:102AD000EAFEE9FDE8FCA3122BA5A3A3E0FFA3E017
:102AE000900266CFF0A3EFF0758A50538AEF538BB4
:102AF000EF53A8FBE4F5B212318F022307900103D4
:102B0000E07004A3E0640170119001A4E07004D2AD
:102B10008A04F0E4900103F0A3F090003AE0FC9006
:102B200001A8E06C603D90003AE0FE9001A8F090B2
:102B3000000BE09001A1F0540FF0EEB42005E0444A
:102B400020800AECB4100B9001A1E04410F090003A
:102B50000BF0C28AE49001A4F09001037403F0A387
:102B600074E8F022CBEFCB74DC2BF582E43402F571
:102B70008322E0FEA3E0FFE4FCFDEB2FFFEA3EFE34
:102B8000ED39FDEC38FC22FEEB25E02454F582E41F
:102B90003402F58322EB25E02461F582E43431F53B
:102BA00083229002D7120B1F9002D722E0FCA3E0F1
:102BB000FDA3E0FEA3E0FF22E0F8A3E0F9A3E0FA22
:102BC000A3E0FB22200906200203300409E4FFFEF3
:102BD000122663C20922900187E07002A3E060051B
:102BE00012149F7037200003122EC87F0112300B81
:102BF000121ABF9002E5EEF0A3EFF07B017A0279A2
:102C0000E5122D739002E512146512131F12139C26
:102C1000120C0A12271712187E122214122AFD22F1
:102C20009002E57408F0A3E4F0A3743FF0A374DF0E
:102C3000F0E4FDFCF9122DD2009002E5E0FEA3E0E5
:102C40002DF582EE3CF583E493FF69F90DBD00019B
:102C50000CBC37E5BDDFE29002E7122DC9E49369B1
:102C60009002F77009122DC9A37410F08006122D7E
:102C7000C9A3E4F0122DD90022122EADF5828E8365
:102C8000A3E0B4AA03122C20122EADFF122EA4E052
:102C9000B41008EF122EA4E4F0D209122EADFF24D6
:102CA0001B122EA6E0700DEF241C122EA6E0B4100D
:102CB00003122D28122EAD2413122EA6E0FFB410FD
:102CC000069001A27401F0EFB42005E49001A2F097
:102CD00022900176E024FE60131460231460272400
:102CE0000370449001767402F01208037F017E00A5
:102CF0001226639001767403F0E4900199F022901B
:102D000001767404F022122A11122E44122A119014
:102D10000210E07004A3E06401700C900210F0A3B4
:102D2000F09001767402F022122DD200122DE4E40C
:102D3000F5F275F30875EEFF75EF3F75EA81F5F66C
:102D400075EB0700E5EC30E7FBE4F5EC9002F7E00B
:102D5000FEA3E0FF241BF582E43EF583E5F3F0EFEC
:102D6000241CF582E43EF583E5F2F075EB30122D7C
:102D7000D900229002E7EBF0A3EAF0A3E9F090017A
:102D800079E07002A3E070339001D4E0602DE4900C
:102D900001D41213E09002EA7401F07F0112300BAB
:102DA000121ABF9002E712131F12147D9002EAE07C
:102DB00004F0E0C3941040E312155A22A3E0FCA3F0
:102DC000E02FF582E43CF58322E0FEA3E0F5828E5D
:102DD0008322758A10538AEF22758A50538AEF2214
:102DE0001001AB6E74AA7583F5758255A57455757F
:102DF00083FA7582AAA574A57583F5758255A522F7
:102E00000191020107180AB00BB60CFF090008FF78
:102E10000D770E060F0404011112120A1307141085
:102E200010100111020607100A100B800CFF090296
:102E300008FF0DF40E040F04040111101204130313
:102E40001420102012149F7029900241E070031288
:102E500013E19002417401F0900029E0B4200812BF
:102E60002BC4120F8880031230A490018B7401F0E0
:102E70008017E4900241F0900029E0B42003122B67
:102E8000C490018BE06002E4F002318F75F002A47F
:102E90002410F582E5F0342EF58322F582E43CF52A
:102EA00083EFF022241AF582E43EF583229002F7A4
:102EB000E0FEA3E022A3F0A37401F0A32274662F26
:102EC000F582E43400F58322300634C206902E12D7
:102ED000E0FFA3E09002E7CFF0A3EFF0E4FF1231B0
:102EE00027121411FE9001D012131F12147D9002AC
:102EF000E7E0FFA3E0902E12CFF0A3EF1213E02241
:102F0000122B64E0602FE577FFE576122B87E0FC5B
:102F1000A3E0FDD39FEC9E501CC3EF9DFFEE9CFEF3
:102F2000122B95C37401939FE4939E4008122B6764
:102F3000E4F07F01227F002200000000FFFFFFFF7E
:102F40000000FFFFFFFFFFFFFFFFFF00FF0000008B
:102F5000FFFF000000FFFFFFFFFFFFFF000000007A
:102F6000FFFFFFFFFFFFFFFFFFFF00000000758A6C
:102F700050538AEFE4F58F9000027411F090000135
:102F80007422F09000037433F0E4F5AB75AC0F7568
:102F900089FF75913FF595F592D28A9001A404F0CE
:102FA000D20C2253A87F122F6E1231DC1230D112B4
:102FB00031A943A880122A8B9000FFE0600B90019A
:102FC000767401F0E49000FFF0123173122C791244
:102FD0002CD1122A8B80E1902E23E4F0FF74542F21
:102FE000F582E43400F583E0FE75F002EFA42400DE
:102FF000F582E5F0342EF583E4932420F582E43461
:103000002EF583EEF00FEFB411D3229002EBEFF028
:10301000122FD7E49002ECF09002EBE0FFA3E0C3A4
:103020009F500B1215E09002ECE004F080EA902E25
:1030300020E4F0121FCB9001B0EEF0A3EFF022E4F9
:10304000FEE4FFEF75F003A42468F582E43402F592
:1030500083E5822EF582E43583F583E4F00FEFB447
:103060000AE10EEEB403DA7F099002DCE4F0A3DF9C
:10307000FC22C0E0C083C0829002DBE0600DE4F07F
:10308000538B7F758B11438B088012538B7F53A812
:10309000FBE5B5900252F0E5B49002D6F0D082D0B4
:1030A00083D0E032E4F5B2F5BA758D20438D20531C
:1030B0008D7F53AAF7F58BE5DB20E211200B0EE4A0
:1030C000F58A758703000000758A50D209758B1147
:1030D000229002F7E0FFA3E09002FBCFF0A3EFF015
:1030E000E4F5DA75DA4043DA2075D74075DA5875B9
:1030F000D90143A80275B80475F80422122B64E0C4
:1031000060037F0122122B677401F0122B95E49368
:10311000FE740193FFEF2577FFEE3576122B87EED5
:10312000F0A3EFF07F0022CDEFCD12138F122FD737
:10313000ED60081231CD7F071223FA1231BE7F01F4
:103140001223FA43890A1213955380F52201F400E1
:1031500028002801F4009603E801F403E817700042
:103160006403E8003202580258012C01F403E827F6
:103170001000C8E4FF3005169002F7E0FCA3E0F56C
:10318000828C83E0FE54F0FFEE540FF0C20522E57E
:10319000B230E005E5A820E40F75B28E75B6F9E40B
:1031A000F5B743B20143A810227E007F0A7D007B61
:1031B000017A027946120B8912081602303F902ECE
:1031C000217491F074011214CE7402F022902E2119
:1031D0007411F074211214CE7480F022121E771232
:1031E00025A79001767401F022538B7F758B1043D5
:1031F0008B0843A80422EE30E707C3E49FFFE49E58
:10320000FE2274DC2F122B6AE4F022000000000082
:1032100000000000000000000000000000000000AE
:10322000000000000000000000000000000000009E
:10323000000000000000000000000000000000008E
:10324000000000000000000000000000000000007E
:103FD000000000000000000000000000000000D60B
:103FE00000000000000000000000000000000000D1
:103FF00000000000000000000000000000000000C1
:00000001FF
