:1007E00000940000000600004746000000000000E2
:1007F00000000000000000000000000000000000F9
:10080000023565009600960701F4000233CE04001D
:100810001E0014023EB2023E63000002081ED2AF68
:1008200032000002289CD2AF320000020826208A43
:1008300003020E2A900180E06003020E2A9001D18B
:10084000E07002A3E06003020E2A9001CFE0700284
:10085000A3E06003020E2A90016DE07002A3E06045
:1008600003020E2A9000F1E064206003020E2A9039
:10087000013FE0FF6003020E2AEF704B900117E08A
:10088000FBA3E0FAA3E0F91214F3FFAEF090010528
:10089000E0FBA3E0FAA3E0F91214F3D39FE5F09E86
:1008A0004003020E2A7E007F0C7D007B017A0179D5
:1008B00040121736E4900179F0A3F09001D7F0A32D
:1008C000F09001D5F0A3F0E4F5B290017DE0FFA334
:1008D000E0900202CFF0A3EFF0C20B300403020D50
:1008E000FF758D20438D20758D8043A808D2AF758C
:1008F0008B02758EC820042E9000F1E064207026D3
:10090000200923E5DB5404701D758A84200913E552
:10091000DB5404700DF586758703000000758601B1
:100920008006D20B8002D20B758B01758A1053A8FA
:10093000F7D39001D0E094909001CFE09401400E65
:10094000A3E02470F09001CFE034FEF08007E49043
:1009500001CFF0A3F0D39001DCE094909001DBE0B4
:100960009401400EA3E02470F09001DBE034FEF02F
:100970008007E49001DBF0A3F0E4900206F0A3F01E
:100980001222F5900163EEF0A3EFF0900167EEF014
:10099000A3EFF0C3900203E09FFF900202E09EFEEF
:1009A000123E9C900204EEF0A3EFF0D39414EE9468
:1009B00000502E900207E004F07006900206E0045A
:1009C000F0D3900207E09405900206E09400400204
:1009D000D20BD3900205E0940F900204E0940050F3
:1009E0009FC3900205E09414900204E09400400339
:1009F000020DE2300B03020DE2900157E0FEA3E08E
:100A0000FF900167E0FCA3E0FD9FEC9E4053ED9F4B
:100A1000FFEC9EFE7C007D031217099001A91216BF
:100A2000CCE47FB87E88FDFC9001A9E0F8A3E0F952
:100A3000A3E0FAA3E0FBD31216A89001A9400A1282
:100A400016D80000EA60020ACAE0FCA3E0FDA3E0B9
:100A5000FEA3E024A8FFEE3461FEE43DFDE43C800B
:100A600062900167E0FEA3E0FFC3900158E09FFFA2
:100A7000900157E09EFE7C007D031217099001A9AA
:100A80001216CCE47FA87E61FDFC9001A9E0F8A3DA
:100A9000E0F9A3E0FAA3E0FBD31216A89001A94065
:100AA000091216D8000000008020E0F8A3E0F9A3A6
:100AB000E0FAA3E0FBC374A89BFF74619AFEE4997B
:100AC000FDE498FC9001A91216CC9001A9A3A3E023
:100AD000FFA3E09001A7CFF0A3EFF0900202E0FEA9
:100AE000A3E0FF7C007D09121709ECF8EDF9EEFA9E
:100AF000EFFB900167E0FEA3E0FFE4FCFDEB2FFFBE
:100B0000EA3EFEED39FDEC38FCE47B0AFAF9F81216
:100B10001600900202EEF0A3EFF090013FE06003B8
:100B2000020BF7900108E0FBA3E0FAA3E0F912142E
:100B3000F3FFAEF07C007D03121709ECF8EDF9EE3F
:100B4000FAEFFB9001A7E0FEA3E0FFE4FCFDEB2F32
:100B5000FFEA3EFEED39FDEC38FCE47B04FAF9F8DF
:100B6000121600900100EEF0A3EFF0900108E0FBF8
:100B7000A3E0FAA3E0F91214F3FFAEF07C007D03CA
:100B8000121709ECF8EDF9EEFAEFFB900100E0FE28
:100B9000A3E0FFE4FCFDEB2FFFEA3EFEED39FDECA8
:100BA00038FCE47B04FAF9F8121600900108E0FB27
:100BB000A3E0FAA3E0F9EE8FF0121556900100E0E1
:100BC000F9A3E0FFA3E0FBA3E0FAA3E0C98FF012D2
:100BD0001556900105E0FBA3E0FAA3E0F9E4F5F077
:100BE00012155690010EE0FBA3E0FAA3E0F9E4F53C
:100BF000F0121556020DE2900100E0FEA3E0FF7C2A
:100C0000007D03121709ECF8EDF9EEFAEFFB900105
:100C1000A7E0FEA3E0FFE4FCFDEB2FFFEA3EFEEDC4
:100C200039FDEC38FCE47B04FAF9F8121600900167
:100C300000EEF0A3EFF0A3E0FBA3E0FAA3E0F9EEEF
:100C40008FF0121556900108E0FBA3E0FAA3E0F93B
:100C50001214F3FFD39001A8E09F9001A7E095F054
:100C60005003020DFF1214F3FFAEF0900102E0FBFF
:100C7000A3E0FAA3E0F91214F3C39FFFE5F09EFE90
:100C8000C3EF9513EE95125003020DFF900105E09E
:100C9000FBA3E0FAA3E0F91214F3FFAEF07C007DB1
:100CA00002121709ECC0E0EDC0E0EEC0E0EFC0E0DA
:100CB000900108E0FBA3E0FAA3E0F91214F3FFAE01
:100CC000F0900102E0FBA3E0FAA3E0F91214F3C3F1
:100CD0009FFFE5F09EFEE4FCFDD0E0FBD0E0FAD003
:100CE000E0F9D0E0F8EB2FFFEA3EFEED39FDEC38FD
:100CF000FCE47B03FAF9F8121600900105E0FBA36F
:100D0000E0FAA3E0F9EE8FF0121556900105E0FB32
:100D1000A3E0FAA3E0F91214F3D39430E5F094754C
:100D20004008747575F030121556900180E070031C
:100D3000020DE2900184E0FEA3E0FFD39400EE9464
:100D4000005003020DE2900105E0FBA3E0FAA3E0EE
:100D5000F91214F3C39FFFE5F09EFE123E9C900132
:100D6000ADEEF0A3EFF0900105E0FBA3E0FAA3E005
:100D7000F91214F3FFC3900185E09F900184E09580
:100D8000F050209001AEE0940A9001ADE094004054
:100D900012900108E0FBA3E0FAA3E0F9E475F00487
:100DA00012151E900105E0FBA3E0FAA3E0F912146E
:100DB000F3FFD3900185E09F900184E095F04022FD
:100DC000D39001AEE0940A9001ADE09400401390FE
:100DD0000108E0FBA3E0FAA3E0F974FF75F0FC1250
:100DE000151E200B1AC3900205E09414900204E033
:100DF0009400500B9000F1E0642070030208DB9037
:100E0000017FE004F09001881216D800000000E491
:100E100090018CF0A3F0A3F0A3F09001F81216D883
:100E200000000000123E63123CB1229001A9EFF0D5
:100E3000A3ECF0A3EDF0EFC454F024EEF582E4341B
:100E400001F583E0FEA3E0C39DFFEE9CFE123E9CF5
:100E5000D3EF9428EE64809480406C9001A9E0FB6D
:100E6000C454F024E4F582E43401F5831216D8006A
:100E7000000000EBC454F024E8F582E43401F5836B
:100E8000E4F0A3F09001A9E0FFC454F024ECF58253
:100E9000E43401F583E4F0A3F0EFC454F024F1F559
:100EA00082E43401F583E4F09001AAE0FEA3E0FFC0
:100EB0009001A9E0C454F024EEF582E43401F583F6
:100EC000EEF0A3EFF0806C9001A9E0C454F024EAA6
:100ED000F582E43401F583E0FEA3E0FFD39400EE55
:100EE0009400404F9001AAE0FCA3E0FDD3EF9DEEFB
:100EF0009C40149001A9E0C454F024F1F582E4343C
:100F000001F583E04401F09001A9E0FFC454F0240E
:100F1000EAF582E43401F583E0FAA3E0C39DEA9C9C
:100F20005011EFC454F024F1F582E43401F583E06C
:100F30004402F09001A9E0C454F024E4F582E434C2
:100F400001F583C083C082E0F8A3E0F9A3E0FAA32F
:100F5000E0FB9001AAE0FEA3E0FFE4FCFDEB2FFF25
:100F6000EA3EFEED39FDEC38FCD082D0831216CC7F
:100F70009001A9E0FFC454F024E8F582E43401F5BF
:100F800083E475F0011214DDEF75F007A42408F571
:100F900082E43408F583E493FE740193FF9001A981
:100FA000E0FDC454F024ECF582E43401F583E0FA6A
:100FB000A3E0C39FEA9E5003021276EDC454F024CE
:100FC000E8F582E43401F583E0FEA3E0FBEEFAE409
:100FD000F9F89001A9E0C454F024E4F582E4340166
:100FE000F583E0FCA3E0FDA3E0FEA3E0FF12160002
:100FF0009001AC1216CC9001ACA3A3E0FEA3E0FFDD
:101000009001A9E0C454F024EAF582E43401F583A8
:10101000E0FCA3E0C39FFFEC9EFE123E9C9001B05B
:10102000EEF0A3EFF09001A9E0FD75F007A4240312
:10103000F582E43408F583C37401939FE4939E40E2
:1010400031EDC454F024EAF582E43401F583E0FE86
:10105000A3E04E601D9001A9E0FBC454F024F2F51A
:1010600082E43401F583E0FEA3E0C394B8EE940B70
:1010700050479001A9E0FFC454F024EAF582E4341B
:1010800001F583E0FCA3E04C7011EFC454F024F2AE
:10109000F582E43401F583E4F0A3F09001ACA3A35E
:1010A000E0FEA3E0FF9001A9E0C454F024EAF58239
:1010B000E43401F583EE021199EB600302119F9075
:1010C00001B2F09001B0E0FEA3E0FFD39450EE94A3
:1010D000004006A37408F0803B9001A9E0C454F0DE
:1010E00024F1F582E43401F583E064036026D3EF54
:1010F000943CEE940040089001B27404F08015D343
:101100009001B1E094289001B0E094004006900175
:10111000B27402F09001A9E0C454F024EAF582E42C
:101120003401F583E0FEA3E0FFE4FCFD9001ACE0B8
:10113000F8A3E0F9A3E0FAA3E0FBD31216A8401E3F
:101140009001B2E0FF9001A9E0C454F024EAF582D6
:10115000E43401F583E48FF01214DD02120AD39017
:1011600001B1E094509001B0E09400500302120AE3
:101170009001A9E0C454F024EAF582E43401F58337
:10118000C083C082E0FEA3E0FF9001B2E0FDC3EFA8
:101190009DFFEE9400D082D083F0A3EFF0806B909F
:1011A00001A9E0C454F024EAF582E43401F583E0B7
:1011B000FEA3E0FF4E70169001ACE0F8A3E0F9A3A7
:1011C000E0FAA3E0FFEAFEE9FDE8FC80287C007D70
:1011D000071217099001ACE0F8A3E0F9A3E0FAA325
:1011E000E02FFFEA3EFEE93DFDE83CFCE47B08FA27
:1011F000F9F81216009001A9E0C454F024EAF5822F
:10120000E43401F583EEF0A3EFF09001A9E0FBC414
:1012100054F024E4F582E43401F5831216D800007A
:101220000000EBC454F024E8F582E43401F583E4D3
:10123000F0A3F09001A9E0FFC454F024ECF582E49F
:101240003401F583E4F0A3F0EFC454F024F1F58207
:10125000E43401F583E4F09001ACA3A3E0FEA3E045
:10126000FF9001A9E0C454F024EEF582E43401F5C6
:1012700083EEF0A3EFF09001A9E0C454F024EAF566
:1012800082E43401F583E0FEA3E0FFD39400EE9402
:101290000050030213419001ABE09FFF9001AAE0D0
:1012A0009EFE123E9C9001A9E075F007A42405F56E
:1012B00082E43408F583D37401939FE4939E402E17
:1012C0009001A9E0FFC454F024EAF582E43401F56A
:1012D00083E0FDA3E09001AACDF0A3EDF0EFC454AC
:1012E000F024F0F582E43401F583E4F080539001BA
:1012F000A9E0FF75F007A42407F582E43408F5831C
:10130000E493FEEFC454F024F0F582E43401F58355
:10131000E0C39E502C9001A9E0C454F024EAF58269
:10132000E43401F583E0FDA3E09001AACDF0A3ED44
:10133000F0EFC454F024F0F582E43401F583E004C6
:10134000F09001AAE0FEA3E0FF22E709F608DFFA29
:101350008046E709F208DFFA803E88828C83E7093D
:10136000F0A3DFFA8032E309F608DFFA8078E309B8
:10137000F208DFFA807088828C83E309F0A3DFFA39
:10138000806489828A83E0A3F608DFFA8058898224
:101390008A83E0A3F208DFFA804C80D280FA80C60C
:1013A00080D4806980F28033801080A680EA809AA1
:1013B00080A880DA80E280CA803389828A83ECFA4E
:1013C000E493A3C8C582C8CCC583CCF0A3C8C582AA
:1013D000C8CCC583CCDFE9DEE7800D89828A83E44F
:1013E00093A3F608DFF9ECFAA9F0EDFB2289828AD3
:1013F00083ECFAE0A3C8C582C8CCC583CCF0A3C8EF
:10140000C582C8CCC583CCDFEADEE880DB89828A6E
:1014100083E493A3F208DFF980CC88F0EF60010E3B
:101420004E60C388F0ED2402B4040050B9F582EB9D
:101430002402B4040050AF232345822390139A73EF
:10144000EF8DF0A4A8F0CF8CF0A428CE8DF0A42EC0
:10145000FE22BC000BBE0029EF8DF084FFADF02210
:10146000E4CCF875F008EF2FFFEE33FEEC33FCEE22
:101470009DEC984005FCEE9DFE0FD5F0E9E4CEFD15
:1014800022EDF8F5F0EE8420D21CFEADF075F008E8
:10149000EF2FFFED33FD4007985006D5F0F222C341
:1014A00098FD0FD5F0EA22C2D5EC30E709B2D5E4B9
:1014B000C39DFDE49CFCEE30E715B2D5E4C39FFF6D
:1014C000E49EFE121452C3E49DFDE49CFC800312D2
:1014D000145230D507C3E49FFFE49EFE22C5F0F806
:1014E000A3E028F0C5F0F8E582158270021583E0CC
:1014F00038F022BB010A89828A83E0F5F0A3E0225A
:10150000500687F009E71922BBFE07E3F5F009E36F
:10151000192289828A83E493F5F074019322BB0136
:101520000789828A830214DD500B09C5F027F7C5AD
:10153000F01937F722BBFE0D09F8E325F0F3C5F0EB
:1015400019E338F322F889828A8374019325F0C560
:10155000F0F8E4933822BB010A89828A83F0E5F02F
:10156000A3F0225006F709A7F01922BBFE06F3E507
:10157000F009F31922E88FF0A4CC8BF0A42CFCE93D
:101580008EF0A42CFC8AF0EDA42CFCEA8EF0A4CD05
:10159000A8F08BF0A42DCC3825F0FDE98FF0A42C19
:1015A000CD35F0FCEB8EF0A4FEA9F0EB8FF0A4CFCC
:1015B000C5F02ECD39FEE43CFCEAA42DCE35F0FD7D
:1015C000E43CFC2275F008758200EF2FFFEE33FE3D
:1015D000CD33CDCC33CCC58233C5829BED9AEC990B
:1015E000E58298400CF582EE9BFEED9AFDEC99FCAD
:1015F0000FD5F0D6E4CEFBE4CDFAE4CCF9A88222F4
:10160000B800C1B90059BA002DEC8BF084CFCECD13
:10161000FCE5F0CBF97818EF2FFFEE33FEED33FD4C
:10162000EC33FCEB33FB10D703994004EB99FB0F31
:10163000D8E5E4F9FA227818EF2FFFEE33FEED3308
:10164000FDEC33FCC933C910D7059BE99A4007EC80
:101650009BFCE99AF90FD8E0E4C9FAE4CCFB2275C7
:10166000F010EF2FFFEE33FEED33FDCC33CCC8335B
:10167000C810D7079BEC9AE899400AED9BFDEC9ABD
:10168000FCE899F80FD5F0DAE4CDFBE4CCFAE4C835
:10169000F922EB9FF5F0EA9E42F0E99D42F0EC64FE
:1016A00080C864809845F022EB9FF5F0EA9E42F0F6
:1016B000E99D42F0E89C45F022E8600FECC313FC82
:1016C000ED13FDEE13FEEF13FFD8F122ECF0A3EDC6
:1016D000F0A3EEF0A3EFF022A8828583F0D083D0B0
:1016E000821216EF1216EF1216EF1216EFE473E4E1
:1016F00093A3C583C5F0C583C8C582C8F0A3C583BD
:10170000C5F0C583C8C582C822EC8EF0A4CCC5F054
:10171000CCCDF8EFA4CEC5F02DFDE43CFCE8A42E22
:10172000C8C5F03DFDE43CFCEFA4FFE5F028FEE475
:101730003DFDE43CFC22EF4E6012EF60010EEDBB7C
:10174000010B89828A83F0A3DFFCDEFA2289F05044
:1017500007F709DFFCA9F022BBFEFCF309DFFCA9B7
:10176000F022D39001D0E094009001CFE0940040AB
:1017700003021B49123902900188E0F8A3E0F9A3A3
:10178000E0FAA3E0FBE8C0E0E9C0E0EAC0E0EBC0BB
:10179000E090011DE0FBA3E0FAA3E0F91214F3FFCF
:1017A000E4FCFDD0E0FBD0E0FAD0E0F9D0E0F8EBCB
:1017B0002FFFEA35F0FEED39FDEC38FC9001881280
:1017C00016CC90018DE004F0700690018CE004F0DE
:1017D000C390018FE0946490018EE0940050030266
:1017E0001B49900188E0FCA3E0FDA3E0FEA3E0FF1D
:1017F000ECC0E0EDC0E0EEC0E0EFC0E0A3E0FEA38F
:10180000E0FBEEFAE4F9F8D0E0FFD0E0FED0E0FD36
:10181000D0E0FC1216009001881216CC900188A32B
:10182000A3E0FFA3E0900186CFF0A3EFF0A3121690
:10183000D800000000E490018CF0A3F0A3F0A3F026
:101840009001CFE07002A3E06003021B4990019079
:10185000E07002A3E06003021B4990013FE07003C7
:101860000219AA900182E07002A3E070389001860C
:10187000E0FFA3E0900182CFF0A3EFF0900105E03C
:10188000FBA3E0FAA3E0F91214F3FF900184E5F062
:10189000F0A3EFF09001927403F0A374E8F0E490E9
:1018A00001980219BE900180E07068900199E07083
:1018B00002A3E07018900105E0FBA3E0FAA3E0F9B1
:1018C0001214F3FF900199E5F0F0A3EFF0900105F9
:1018D000E0FBA3E0FAA3E0F91214F3FFC390019A2E
:1018E000E09FFF900199E095F0FE123E9CC3EF94BB
:1018F00046EE648094805012900198E0C394057481
:10190000809480500EE004F08009E4900198F0A3E8
:10191000F0A3F0900186E0FEA3E0FFC3900183E016
:101920009FFF900182E09EFE123E9C90019BE0FB97
:10193000A3E0FAA3E0F9EE8FF0121556900180E0D3
:10194000704490019BE0FBA3E0FAA3E0F91214F3CA
:10195000C3940AE5F09400501A900105E0FBA3E05F
:10196000FAA3E0F91214F3FF900184E5F0F0A3EF7D
:10197000F08013900198E0C3940574809480400631
:101980009001807401F0900186E0FEA3E0FFD39007
:101990000183E09F900182E09E4007E4900181F086
:1019A00080219001817401F08019E4900182F0A3FC
:1019B000F0A3F0A3F0900180F0900194F0A3F0A3C5
:1019C000F0A3F0900180E07003021B49900184E0D5
:1019D000FEA3E0FFD39400EE94005003021B499055
:1019E0000105E0FBA3E0FAA3E0F91214F3C39FFFA3
:1019F000E5F09EFE123E9C9001A7EEF0A3EFF09062
:101A00000105E0FBA3E0FAA3E0F91214F3FFAEF046
:101A1000900184E0FCA3E0FDD39FEC9E400FD390A7
:101A200001A8E094829001A7E094005015C3ED9FB7
:101A3000EC9E50489001A8E094FA9001A7E0940031
:101A4000403AE4900180F0900182F0A3F09001050B
:101A5000E0FBA3E0FAA3E0F91214F3FFC3900185C1
:101A6000E09F900184E095F09001905007E4F0A38E
:101A700074C8F0227401F0A3742CF022900105E0E8
:101A8000FBA3E0FAA3E0F91214F3FFD3900185E081
:101A90009F900184E095F05003021B1BD39001A896
:101AA000E0941E9001A7E094004070900181E070E6
:101AB0004190019BE0FBA3E0FAA3E0F91214F3D3F9
:101AC0009420E5F094034002804EC3900197E09487
:101AD0002C900196E094015042900105E0FBA3E0B8
:101AE000FAA3E0F91214F3C39490E5F09401402BAB
:101AF0008026C3900197E0942C900196E0940150C9
:101B00001A900105E0FBA3E0FAA3E0F91214F3C375
:101B10009490E5F094014003123B05900105E0FB31
:101B2000A3E0FAA3E0F91214F3FFC3900185E09F4C
:101B3000900184E095F050119001A8E0941E90016E
:101B4000A7E094004003123B5222D39001D0E094CE
:101B5000009001CFE094004003021F28900108E0AC
:101B6000FBA3E0FAA3E0F91214F3FFAEF090010238
:101B7000E0FBA3E0FAA3E0F91214F3FDACF0D39F6D
:101B8000EC9E4054900108E0FBA3E0FAA3E0F912B8
:101B900014F3FFC3ED9FFFEC95F0FED3EF9430EE0E
:101BA0009475400C9001A77475F0A37430F08021F7
:101BB0001214F3FFAEF0900102E0FBA3E0FAA3E001
:101BC000F91214F3C39FFFE5F09E9001A7F0A3EF75
:101BD000F0E49001A1021C67900102E0FBA3E0FA8F
:101BE000A3E0F91214F3FFAEF0900108E0FBA3E0CC
:101BF000FAA3E0F91214F3FDACF0C39FFFEC9EFED4
:101C0000D3EF9410EE9427400C9001A77427F0A313
:101C10007410F0801D900102E0FBA3E0FAA3E0F94C
:101C20001214F3FFC3ED9FFEEC95F09001A7F0A313
:101C3000CEF09001A7E0FFA3E09001A1CFF0A3EFC9
:101C4000F0300018D3E0942C9001A1E094014013EF
:101C50009001A37427F0A37410F08007E49001A30F
:101C6000F0A3F0E49001A7F0A3F090013FE0605BE7
:101C70009001A7E0FEA3E0FFD39400EE648094807F
:101C80004014D3EF9509EE9508400B9001D5E4F090
:101C9000A37464F08027D39001D6E094009001D51E
:101CA000E094004018900105E0FBA3E0FAA3E0F9FE
:101CB0001214F3FF9001A7E5F0F0A3EFF0D2089023
:101CC00001DB740FF0A374A0F0800F9001D97403AE
:101CD000F0A374E8F0E4FF123C30D39001A8E09444
:101CE000009001A7E0648094805003021ED3E0F9C5
:101CF000A3E0FF900105E0FBA3E0FAA3E0C98FF0A9
:101D00001215569001A7E0FEA3E0FFEE3395E0FD2B
:101D1000FCE47BB87A88F9F8C3121692500A900155
:101D2000A77488F0A374B8F0D39001D8E094009021
:101D300001D7E0940050089000F1E06420702290F8
:101D400001A7E0FEA3E0FFC39496EE648094805068
:101D500010EF9400EE6480948040447C007D0A8003
:101D60003330003B90013FE070169001A7E0FEA3E6
:101D7000E0FFC39513EE951250257C027DBC8014C4
:101D80009001A7E0FEA3E0FFC39509EE9508500F70
:101D90007C027DBC1214A79001A7EEF0A3EFF09097
:101DA000013FE07003021E499001D9E07002A3E0F8
:101DB00070199001A7E0FEA3E0FDEEFCE4FF120E17
:101DC0002B9001A7EEF0A3EFF0803E9001A7E0FE7C
:101DD000A3E0FFC3900136E09FFF900135E09EFE37
:101DE000123E9CD3EF9428EE64809480401BD390E5
:101DF00001DAE094C89001D9E09400400CA3E024FB
:101E00009CF09001D9E034FFF0900135E0FEA3E0B2
:101E1000FF7C007D07121709ECF8EDF9EEFAEFFBF5
:101E20009001A7E0FEA3E0FFEE3395E0FDFCEB2F71
:101E3000FFEA3EFEE93DFDE83CFCE47B08FAF9F8E8
:101E4000121600900135EE800B9001A7E0FFA3E091
:101E5000900135CFF0A3EFF0900135E0FEA3E0FF55
:101E6000D39405EE9400400EEF9410EE94005006CB
:101E70009001A7EE8016900131E0FEA3E0FF9001F3
:101E800036E02FFF900135E03E9001A7F0A3EFF080
:101E9000D39001A8E094309001A7E0648094F540CD
:101EA000077475F0A37430F0E5DB5404707A900188
:101EB000A7E0F9A3E0FF90010EE0FBA3E0FAA3E0A6
:101EC000C98FF01215569001A8E024A8FF9001A731
:101ED000E08042E5DB5404704F900105E0FBA3E095
:101EE000FAA3E0F9E4F5F0121556900131E0F9A3F8
:101EF000E0FF90010EE0FBA3E0FAA3E0C98FF0122F
:101F0000155690010EE0FBA3E0FAA3E0F91214F3DA
:101F100024A8FFE5F03461F990010BE0FBA3E0FA9F
:101F2000A3E0C98FF0121556229001BCECF0A3ED8E
:101F3000F09001BBEFF075F00EA424FCF582E434C0
:101F400001F583E0704E9001BBE075F00EA424F81B
:101F5000F582E43401F583E0FCA3E0FDA3E0FEA3F9
:101F6000E0FFE4FBFAF9F8C31216A860279001BB62
:101F7000E075F00EA424F4F582E43401F583E0FC6E
:101F8000A3E0FDA3E0FEA3E0FFE4F8C31216A860FF
:101F9000030220A59001BEA3A3E0FEA3E0FFC3902F
:101FA00001BDE09FFF9001BCE09EFE123E9C9001AF
:101FB000BBE0FD75F00EA424FDF582E43401F58349
:101FC000EEF0A3EFF0ED75F00EA424FCF582E434FE
:101FD00001F583E06041ED75F005A42411F582E47C
:101FE0003408F583E493FE740193FFED75F00EA4BD
:101FF00024FDF582E43401F583E0FCA3E0D39FECFB
:102000009E40149001BBE075F00EA424FCF582E420
:102010003401F5837405F09001BEE0FCA3E0FDA35C
:10202000E0FEA3E0FF9001BBE0FB75F00EA424F8F6
:10203000F582E43401F5831216CCEB75F00EA4247E
:1020400000F582E43402F583E0FEA3E0FFE4FCFD4A
:102050009001BEE0F8A3E0F9A3E0FAA3E0FB1215BB
:10206000759001BBE0FB75F00EA424F4F582E43416
:1020700001F5831216CCEB75F00EA424FCF582E476
:102080003401F583E0D39400748094804011EB75A3
:10209000F00EA424FCF582E43401F583E014F09002
:1020A00001BE0222ED9001BBE0FB75F00EA424F806
:1020B000F582E43401F583E0FCA3E0FDA3E0FEA398
:1020C000E0FF9001C21216CCEB75F00EA424F4F5DB
:1020D00082E43401F583E0FCA3E0FDA3E0FEA3E08D
:1020E000FF9001C61216CC9001C6E0FCA3E0FDA350
:1020F000E0FEA3E0FF9001BBE075F00EA424FFF525
:1021000082E43401F583E0F9F81216B9EFFBEEFA38
:10211000EDF9ECF89001C6E0FCA3E0FDA3E0FEA31E
:10212000E0C39BFFEE9AFEED99FDEC98FCA312161E
:10213000CC9001C2E0FCA3E0FDA3E0FEA3E0FF9091
:1021400001BEE0F8A3E0F9A3E0FAA3E02FFFEA3E26
:10215000FEE93DFDE83CFC9001CAE0F8A3E0F9A3EC
:10216000E0FAA3E02FFFEA3EFEE93DFDE83CFC90EB
:1021700001C61216CC9001BEE0FCA3E0FDA3E0FE78
:10218000A3E0FF9001BBE0FB75F00EA424F8F582FC
:10219000E43401F5831216CC9001C6E0FCA3E0FD07
:1021A000A3E0FEA3E0FFEB75F00EA424F4F582E4B7
:1021B0003401F5831216CC9001C6E0FCA3E0FDA328
:1021C000E0FEA3E0FFECC0E0EDC0E0EEC0E0EFC059
:1021D000E09001BBE075F00EA42400F582E4340227
:1021E000F583E0FEA3E0FBEEFAE4F9F8D0E0FFD0DF
:1021F000E0FED0E0FDD0E0FC1216009001C6121601
:10220000CC9001BEA3A3E0FEA3E0FBEEFA9001C6D2
:10221000A3A3E0FEA3E0C39BFFEE9AFE123E9C90B8
:1022200001BBE0FD75F00EA424FDF582E43401F558
:1022300083EEF0A3EFF0ED75F005A4240FF582E432
:102240003408F583E493FE740193FFED75F00EA45A
:1022500024FDF582E43401F583E0FCA3E0D39FEC98
:102260009E50030222EA9001BEE0FCA3E0FDA3E041
:10227000FEA3E0FF9001BBE0FB75F00EA424F8F58F
:1022800082E43401F5831216CCEB75F00EA4240021
:10229000F582E43402F583E0FEA3E0FFE4FCFD9068
:1022A00001BEE0F8A3E0F9A3E0FAA3E0FB12157584
:1022B0009001BBE0FB75F00EA424F4F582E4340138
:1022C000F5831216CCEB75F00EA424FCF582E434F1
:1022D00001F5837405F09001BEE0FCA3E0FDA3E0EE
:1022E000FEA3E0FF9001C61216CC9001C6A3A3E0A6
:1022F000FEA3E0FF227F01123AAC123D24758A5002
:10230000902E207419F0902E20E030E2F9903EB12A
:10231000E49375F002A42400F582E5F0342EF583F1
:10232000E0FFA3E09001B5CFF0A3EFF0902E20E402
:10233000F0758A107F01123D5690015DE0FEA3E02A
:10234000FF4E700E9001B5E0FCA3E0FDECFEEDFF4A
:10235000801E7C007D031214409001B6E02FFF9098
:1023600001B5E03EFE7802EFCEC313CE13D8F9FFDD
:1023700090015DEEF0A3EFF0900159E07002A3E050
:10238000700F90015DE0FFA3E0900159CFF0A3EF43
:10239000F09001B71216D800002710E4FF123AACF3
:1023A000E49001B2F09001B2E0C394047480948090
:1023B00040030224E2E4FF123D24758A50902E204F
:1023C0007419F0902E20E030E2F9903EB0E493755D
:1023D000F002A42400F582E5F0342EF583E0FFA39B
:1023E000E09001B3CFF0A3EFF0902E20E4F0758AD7
:1023F00010FF123D569001B3E0FEA3E0FF9001698B
:10240000EEF0A3EFF0900159E0FCA3E0FDEF2DFF0B
:10241000EE3CFE90015DE0FCA3E0FDC3EF9DFFEE0E
:102420009C9001B3F0A3EFF090015BE0FEA3E0FF0E
:102430004E700E9001B3E0FCA3E0FDECFEEDFF80DA
:102440001E7802EFC333CE33CED8F9FF9001B4E04B
:102450002FFF9001B3E03EFE7C007D0512145290E8
:10246000015BEEF0A3EFF090015FE07002A3E0707B
:102470000F90015BE0FFA3E090015FCFF0A3EFF0CE
:1024800090015BE0FEA3E0FFE4FCFD9001BE1216AC
:10249000CC90015FE0FCA3E0FDE4FF121F29900156
:1024A0005FEEF0A3EFF09001B7E0F8A3E0F9A3E04E
:1024B000FAA3E0FB90015FE0FEA3E02400FFEE340E
:1024C000F0FE3395E0FDFCEB2FFFEA3EFEE93DFD1B
:1024D000E83CFC9001B71216CC9001B2E004F00287
:1024E00023A5902E23E4F07F507EC3FDFC9001B71E
:1024F000E0F8A3E0F9A3E0FAA3E0FBD312169240C0
:102500000A9001B71216D80000C3509001B7E0FC42
:10251000A3E0FDA3E0FEA3E0FFEC33500A9001B777
:102520001216D800000000900165E0FAA3E0FB4A13
:10253000700C9001B7A3A3E0FEA3E0FF80347E00FF
:102540007F02EBFDEAFC121709ECF8EDF9EEFAEF69
:10255000FB9001B7E0FCA3E0FDA3E0FEA3E02BFFAE
:10256000EA3EFEE93DFDE83CFCE47B03FAF9F812A3
:102570001600900165EEF0A3EFF0900157E07002B5
:10258000A3E0700F900165E0FFA3E0900157CFF04A
:10259000A3EFF0900127E0F8A3E0F9A3E0FAA3E0AD
:1025A000FB90015FE0FEA3E0FFE4FCFDEB2FFFEA00
:1025B0003EFEED39FDEC38FC9001271216CC90015F
:1025C0002CE004F0700690012BE004F090012BE069
:1025D000FEA3E0FFD3940AEE94004031EFFBEEFA45
:1025E000E4F9F8900127E0FCA3E0FDA3E0FEA3E0FE
:1025F000FF121600900125EEF0A3EFF0E490012BFE
:10260000F0A3F09001271216D80000000090012DD1
:10261000E07002A3E07040900125E0FEA3E0FFC35C
:10262000900160E09FFF90015FE09EFE123E9C9053
:102630000123EEF0A3EFF0D39406EE94004018903F
:10264000012D7403F0A374E8F0900130E004F07001
:102650000690012FE004F0900165E0FEA3E0FF2268
:102660009001A77402F0A374BCF0D39001A6E0948B
:10267000009001A5E094004021900102E0FBA3E05E
:10268000FAA3E0F91214F3FF900108E0FBA3E0FACB
:10269000A3E0F9E5F08FF01215569001CFE070023B
:1026A000A3E0600B9001A7E4F0A37464F0800B90AA
:1026B000001AE0641170037420F090013FE0600F95
:1026C0007E007F0C7D007B017A01794002173690F5
:1026D0000140E0F8A3E0F9A3E0FAA3E0FBE8C0E0E2
:1026E000E9C0E0EAC0E0EBC0E0900102E0FBA3E05B
:1026F000FAA3E0F91214F3FFE4FCFDD0E0FBD0E014
:10270000FAD0E0F9D0E0F8EB2FFFEA35F0FEED3932
:10271000FDEC38FC9001401216CC900145E004F02D
:102720007006900144E004F09001A7E0FEA3E0FFF2
:10273000C390014BE09F90014AE09E500302289B0A
:10274000900140E0FCA3E0FDA3E0FEA3E0FFECC0AD
:10275000E0EDC0E0EEC0E0EFC0E0A3E0FEA3E0FBF0
:10276000EEFAE4F9F8D0E0FFD0E0FED0E0FDD0E0F2
:10277000FC1216009001401216CC900108E0FBA359
:10278000E0FAA3E0F91214F3241EFFE435F0FEE4AE
:10279000FCFD900140E0F8A3E0F9A3E0FAA3E0FB20
:1027A000D31216A850030228619001CFE07002A353
:1027B000E06003022861300803022861900108E00C
:1027C000FBA3E0FAA3E0F91214F3FB900140A3A3EA
:1027D000E0FEA3E0C39BFFEE95F09001A9F0A3EF0C
:1027E000F0900147E004F07006900146E004F0D359
:1027F000900147E09401900146E09400402290014E
:10280000A9E0FEA3E0FF900149E09F900148E09E0F
:10281000500E900147E024FFF0900146E034FFF0B5
:102820009001A9E0FFA3E0900148CFF0A3EFF0D31F
:10283000900147E09405900146E0940040469001E5
:1028400040A3A3E0F9A3E0FF900108E0FBA3E0FAB6
:10285000A3E0C98FF0121556E4900146F0A3F08072
:1028600023900140A3A3E0F9A3E0FF900108E0FB5F
:10287000A3E0FAA3E0C98FF0121556E4900146F0E8
:10288000A3F0C2089001401216D800000000E490A6
:102890000144F0A3F090014AF0A3F022C0E0C0830D
:1028A000C082C0D0D2AFD39001D0E094009001CFCD
:1028B000E09400400CA3E024FFF09001CFE034FF4F
:1028C000F0D39001D4E094009001D3E09400400E46
:1028D000A3E024FFF09001D3E034FFF08002D28A1D
:1028E000D39001D2E094009001D1E09400400CA379
:1028F000E024FFF09001D1E034FFF0C390014BE001
:1029000094BC90014AE09402500CA3E004F07006DD
:1029100090014AE004F0D39001D6E094009001D5F4
:10292000E09400400CA3E024FFF09001D5E034FFD8
:10293000F0D39001D8E094009001D7E09400400CCF
:10294000A3E024FFF09001D7E034FFF0D39001DE44
:10295000E094009001DDE09400400CA3E024FFF03F
:102960009001DDE034FFF0D39001DAE094009001B3
:10297000D9E09400400CA3E024FFF09001D9E034AA
:10298000FFF0D39001DCE094009001DBE094004084
:102990000CA3E024FFF09001DBE034FFF0D39001C2
:1029A000A4E094009001A3E09400400CA3E024FF75
:1029B000F09001A3E034FFF0D39001E0E0940090A8
:1029C00001DFE09400400CA3E024FFF09001DFE081
:1029D00034FFF0C390018FE0946490018EE0940086
:1029E000500CA3E004F0700690018EE004F0D39048
:1029F0000191E09400900190E09400400CA3E02449
:102A0000FFF0900190E034FFF0D3900193E0940147
:102A1000900192E09400400CA3E024FFF09001921A
:102A2000E034FFF0D390016EE0940190016DE094EA
:102A300000400CA3E024FFF090016DE034FFF0D3E0
:102A40009001A6E094009001A5E09400400CA3E062
:102A500024FFF09001A5E034FFF0C39001F3E0946F
:102A6000B89001F2E0940B500CA3E004F0700690D3
:102A700001F2E004F0C39001EDE094F49001ECE089
:102A80009401500CA3E004F070069001ECE004F017
:102A9000D390012EE0940090012DE09400400CA30F
:102AA000E024FFF090012DE034FFF0D0D0D082D0B0
:102AB00083D0E032D39001D0E09F9001CFE09E40E0
:102AC0000AA3E09FF09001CFE09EF0D39001D4E004
:102AD0009F9001D3E09E400CA3E09FF09001D3E0D3
:102AE0009EF08002D28AD39001D2E09F9001D1E083
:102AF0009E400AA3E09FF09001D1E09EF0C39001B8
:102B00004BE094BC90014AE09402500AA3E02FF0FD
:102B100090014AE03EF0D39001D6E09F9001D5E0CD
:102B20009E400AA3E09FF09001D5E09EF0D3900173
:102B3000D8E09F9001D7E09E400AA3E09FF090016B
:102B4000D7E09EF0D39001DEE09F9001DDE09E4053
:102B50000AA3E09FF09001DDE09EF0D39001DAE05F
:102B60009F9001D9E09E400AA3E09FF09001D9E038
:102B70009EF0D39001DCE09F9001DBE09E400AA331
:102B8000E09FF09001DBE09EF0D39001A4E09F90E5
:102B900001A3E09E400AA3E09FF09001A3E09EF015
:102BA000D39001E0E09F9001DFE09E400AA3E09F08
:102BB000F09001DFE09EF0C390018FE094649001FB
:102BC0008EE09400500AA3E02FF090018EE03EF0DA
:102BD000D3900191E09F900190E09E400AA3E09F76
:102BE000F0900190E09EF0EF2401FDE43EFCD390D4
:102BF0000193E09D900192E09C400AA3E09FF09039
:102C00000192E09EF0EF2401FDE43EFCD390016EC2
:102C1000E09D90016DE09C400AA3E09FF090016D63
:102C2000E09EF0D39001A6E09F9001A5E09E400AAF
:102C3000A3E09FF09001A5E09EF0C39001F3E09423
:102C4000B89001F2E0940B500AA3E02FF09001F24B
:102C5000E03EF0C39001EDE094F49001ECE09401CB
:102C6000500AA3E02FF09001ECE03EF0D390012E4B
:102C7000E09F90012DE09E400AA3E09FF090012D7F
:102C8000E09EF022E4F518F517F516F515F518F5A0
:102C900017F516F515F514C3E514940374809480A4
:102CA0005027E51425E0240AF8E6FE08E6FFE4FCD8
:102CB000FDE5182FF518E5173EF517ED3516F51655
:102CC000EC3515F515051480CEE47B03FAF9F8AF61
:102CD00018AE17AD16AC1512160090017DEEF0A3DC
:102CE000EFF0E47518A8751761F516F515F514C31E
:102CF000E5149403748094805073E51425E0240A4D
:102D0000F8E6FE08E6FF90017DE0FCA3E0FDC3EFDE
:102D10009DFFEE9CFE123E9CD3EF940AEE648094DD
:102D200080401290017DE0FEA3E0FF900157E0FC9F
:102D3000A3E0FD8015E51425E0240AF8E6FE08E688
:102D4000FF900157E0FCA3E0FDC3EF9DFFEE9CFE6A
:102D50003395E0FDFCE5182FF518E5173EF517E56E
:102D6000163DF516E5153CF51505148082E47F60E7
:102D70007EEAFDFCAB18AA17A916A815D31216A84F
:102D8000400BE47518607517EAF516F515AE17AF28
:102D90001822E49001A7F0A3F0758A10538AEF007F
:102DA000122DE475EA81E4F5F6F5F475F308F5F211
:102DB00075EB0700E5EC30E7FBAFF3EFFEADF2EDAE
:102DC000FF900139E0FBA3E0FAA3E0F9EE8FF012E7
:102DD0001556E4F5EC75EB30758A10538AEF002236
:102DE0000601AB9474AA7583F5758255A574557563
:102DF00083FA7582AAA574A57583F5758255A522F7
:102E000002020AB00BB60CFF090208FF0DF70E050F
:102E10001307141010800192120713020F04040408
:102E20000101111C10121210030240900179E0FE02
:102E3000A3E0FFC39404EE9400502F900100E0FC47
:102E4000A3E0FDEF25E0FFEE33FE74712FF58274F1
:102E5000013EF583ECF0A3EDF090017AE004F07010
:102E600006900179E004F0022F329001B47401F071
:102E70009001B4E0FFC3940474809480502AEF253D
:102E8000E02471F582E43401F583E0FCA3E0FDEF7A
:102E900025E0246FF582E43401F583ECF0A3EDF036
:102EA0009001B4E004F080C890013FE060028073BC
:102EB000900102E0FBA3E0FAA3E0F91214F3FF9003
:102EC0000100E0FCA3E0FDC3EF9DFFE5F09CFE12D6
:102ED0003E9CC3EF9428EE64809480504690010895
:102EE000E0FBA3E0FAA3E0F91214F3FFC3900101A1
:102EF000E09FFF900100E095F0FE123E9CC3EF942E
:102F000014EE6480948050059001088003900102C3
:102F1000E0FBA3E0FAA3E0F91214F3FF900177E5D8
:102F2000F0800B900100E0FFA3E0900177CFF0A3C9
:102F3000EFF09001B01216D800000000E49001B448
:102F4000F09001B4E0FFD390017AE09F900179E026
:102F50009400403D9001B0E0F8A3E0F9A3E0FAA3AB
:102F6000E0FBA3E025E02471F582E43401F583E081
:102F7000FEA3E0FFE4FCFDEB2FFFEA3EFEED39FD92
:102F8000EC38FC9001B01216CC9001B4E004F08053
:102F9000B09001B0E0FCA3E0FDA3E0FEA3E0FFECF5
:102FA000C0E0EDC0E0EEC0E0EFC0E0900179E0FEEF
:102FB000A3E0FBEEFAE4F9F8D0E0FFD0E0FED0E0C9
:102FC000FDD0E0FC1216009001B01216CC9001B0BA
:102FD000A3A3E0FEA3E0FF227E007FFF7D007B0134
:102FE0007A0079001217367E007FA77D007B017A78
:102FF0000179001217367E007F147D007B017A0173
:1030000079CE121736902DE0E493900001F09000F5
:10301000047411F0A37422F0A37433F0902DE2E451
:1030200093900012F0902DE3E493900014F0900040
:10303000FB7401F09000367410F09000F1F09000F5
:1030400024F0A37420F09001027401F0A37400F046
:10305000A37440F09001087401F0A37400F0A3740D
:1030600044F09001057401F0A37400F0A37442F0E1
:1030700090010B7401F0A37400F0A3742EF0A374FC
:1030800001F0A37400F0A3742AF0A37401F0A374F8
:1030900000F0A37428F09001207401F0A37400F0F4
:1030A000A37490F090011D7401F0A37400F0A37458
:1030B00022F090019B7401F0A37400F0A37480F0DF
:1030C00090013C7401F0A37400F0A37418F0900117
:1030D000397401F0A37400F0A3741BF09001147410
:1030E00001F0A37400F0A37432F0A37401F0A37490
:1030F00000F0A37426F0A37401F0A37400F0A3748D
:1031000034F0900114E0FBA3E0FAA3E0F9E475F0D9
:10311000C8121556900117E0FBA3E0FAA3E0F9E40A
:1031200075F06412155690011AE0FBA3E0FAA3E0D3
:10313000F9E475F0961215567512007513C87508E6
:10314000007509969001CF7407F0A374D0F0E49055
:1031500001CEF0229001AAEFF0902E22E0FF900124
:10316000AEE4F0A3EFF0758A50902E227401F09037
:1031700001AAE075F002A42410F582E5F0342EF5E2
:10318000837402F0A3E4F09001ABF09001ABE0FF98
:10319000C3940C7480948040030232BEEFF87E0129
:1031A000E4088006CEA2E713CE13D8F8FF9001AC56
:1031B000EEF0A3EFF04E70079001ACF0A304F09096
:1031C0002E207419F0902E20E030E2F99001AAE050
:1031D000FF75F002A42400F582E5F0342EF583E0BB
:1031E000FCA3E0D394FFEC9407405975F002EFA4E0
:1031F0002410F582E5F0342EF583E0FEA3E0FF9085
:1032000001ACE0FCA3E0FDEF2DFFEE3CFEC3EF942C
:10321000FFEE94039001AAE075F0025013A424106D
:10322000F582E5F0342EF583EC8DF01214DD807E0E
:10323000A42410F582E5F0342EF5837403F0A37412
:10324000FFF0806A9001AAE0FF75F002A42410F557
:1032500082E5F0342EF583E0FCA3E0FD9001ACE0C4
:10326000FAA3E0FBD3ED9BEC9A402D75F002EFA49E
:103270002410F582E5F0342EF583C083C082C3A309
:10328000E09BFF0582D5820215831582E09AD082E9
:10329000D083F0A3EFF080169001AAE075F002A4AD
:1032A0002410F582E5F0342EF583E4F0A3F0902E9F
:1032B00020E4F0F58D9001ABE004F002318B900139
:1032C000AEA3E0902E22F0758A1022123976123EBB
:1032D00029E4900179F0A3F0900165F0A3F090014A
:1032E00063F0A3F0900167F0A3F07F03123704901E
:1032F0000100E0F9A3E0FFA3E0FBA3E0FAA3E0C92B
:103300008FF0121556900100E0F9A3E0FF9001083C
:10331000E0FBA3E0FAA3E0C98FF012155690010577
:10332000E0FBA3E0FAA3E0F9E4F5F01215569001F2
:103330000BE0FBA3E0FAA3E0F9746175F0A81215A5
:1033400056900111E0FBA3E0FAA3E0F9746175F077
:10335000A812155690010EE0FBA3E0FAA3E0F9E4F1
:10336000F5F0121556E4900137F0A3F090013FF00C
:10337000FE7F1BFD7B017A0179801217367E007F6C
:103380000C7D007B017A017940121736E49001DD53
:10339000F0A3F09001DBF0A3F09000367410F0E49D
:1033A00090004BF09001D17403F0A37420F09001D1
:1033B000E1E0700FC39001D0E094F49001CFE0946D
:1033C00001500A9001CF7401F0A374F4F022C0E020
:1033D000C083C082C0D0E8C0E0EFC0E0D2AFE5DB80
:1033E00030E424D209C206E5DB30E116123E90F546
:1033F00083E0F5DFEF64077067D28A900007F00280
:103400003485C205023488E5DB30E52C9000F0E01D
:1034100064AA7017758A10F5DAC2AFF5B2F5A8F58F
:10342000A9F58B758E01758DC080FED2043006041F
:10343000C2068054C2098050C206E5DB30E123E5B4
:10344000DB30E044123E90F583E0F5DFEF24F960D5
:103450000824EE700BD20A8007D28A900007E4F0AD
:10346000802320050A7819A6DFD205D2068019121A
:103470003E90F583E5DFF0EF642470099001D104FC
:10348000F0A374F4F078190675DBFFD0E0FFD0E00C
:10349000F8D0D0D082D083D0E032D39001D0E09465
:1034A000009001CFE094004003023564300020908A
:1034B00001A3E07002A3E0600875121F751340803D
:1034C0000675121B751358750817750970800C75F1
:1034D00012007513C8750800750996900105E0FB88
:1034E000A3E0FAA3E0F91214F3FFAEF0C39513EED4
:1034F0009512500F90013FE0601AC3EF9509EE95C9
:103500000840119001D7E07002A3E0702E90013FB7
:1035100004F080279000F1E064209001D77005F05E
:10352000A3F08006E4F0A374C8F0E490013FF090AB
:1035300001D5F0A3F09000367410F090013FE0FF49
:10354000601D900024E0641090003670057410F047
:1035500080037420F09001D17403F0A37420F090E4
:10356000004BEFF022787FE4F6D8FD75812102351B
:10357000AF020000023787E493A3F8E493A340036B
:10358000F68001F208DFF48029E493A3F8540724BD
:103590000CC8C333C4540F4420C8834004F456807D
:1035A0000146F6DFE4800B01020408102040809001
:1035B0003DB3E47E019360BCA3FF543F30E5095462
:1035C0001FFEE493A360010ECF54C025E060A84025
:1035D000B8E493A3FAE493A3F8E493A3C8C582C81C
:1035E000CAC583CAF0A3C8C582C8CAC583CADFE9F1
:1035F000DEE780BE900139E0FBA3E0FAA3E0F91218
:1036000014F3641045F07003122D92900001E064F1
:10361000AA7003123A4B900013E0FF7E0064107012
:1036200002D203EF64204E7002C203123807200753
:103630000890001AE06410700E90001A7411F0C225
:10364000079001CE7401F09000FBE06006E4F0907A
:1036500001CEF090016DE07004A3E0640170109061
:10366000016DF0A3F09001A5F0A3F09001CEF03031
:10367000040CC2049001D17401F0A374F4F0229000
:10368000014C741AF0A37490F0123C717E007F0418
:103690007D007B017A0179571217367F01123E05B2
:1036A000E4FF123E05902E12E0FEA3E0C39405EE67
:1036B0009400400F902E12E0FEA3E0D394F0EE941D
:1036C00003400BE490014CF0A3F0FF123E05902E56
:1036D00023E4F090001D7410F0902E12E0FEA3E0A1
:1036E000FF7C007D0A12144090014DE02FFF9001F5
:1036F0004CE03EF990013CE0FBA3E0FAA3E0C98F67
:10370000F00215569001B0EFF0E4A3F09001B0E0A4
:10371000FFA3E0C39F502E1222F5123E7F90016757
:10372000EEF0A3EFF08E10F511C8740AC87400FC17
:10373000E4FDFB7A00790CFE7F0612141A9001B1A9
:10374000E004F080C7122C84900100EEF0A3EFF0AB
:10375000900165E0FEA3E0FFC3900134E09FFF907D
:103760000133E09EFE123E9C7C007D051214A79062
:103770000131ECF0A3EDF0900165E0FFA3E09001D2
:1037800033CFF0A3EFF02253A87F123DDF122FD8E2
:10379000123E4712081643A880E4F58D9000F1749C
:1037A00020F01235F49001CEE014601814601A1461
:1037B000602D14603F240470E012367F9001CE74B7
:1037C00001F080D51232CB8023123D8512388690CD
:1037D0000025E0641070C29001CE7404F080BA122B
:1037E000082E9001D17403F0A37420F09001CE74E0
:1037F00002F080A5123BE8900025E06410609A90EA
:1038000001CE7401F080929001E2E0146021146016
:1038100043240270603003139001E27401F0D2027D
:10382000D2009001DF04F0A37458F0C201804690EA
:1038300001DFE07002A3E07002C2022003379001B2
:10384000E27402F0D201C202C2009001DFF0A37460
:1038500058F080219001DFE07002A3E07017900122
:10386000E2200303F0800C7401F09001DF04F0A368
:103870007458F0C20120010330020A900025E06470
:10388000106002D20722308A789001CFE07002A344
:10389000E0706E90016DE07002A3E07064F5B275A7
:1038A0008D20438D20758D9043A808D2AF758B4035
:1038B00090012DE0FEA3E0FF4E6005758E1480039D
:1038C000758E4020042F20092CE5DB5404702675EA
:1038D0008A84200920E5DB5404701AF58675870375
:1038E000000000758601EF4E60047F2880027F781B
:1038F0007E00122AB4758B01758A1053A8F7123E08
:103900006322758D20438D20538D7FE4F5B275B60B
:10391000FF75B7FF75B2A243B20153A8FB538B7F6B
:10392000758B10438B08E58B20E7030080F8538BE1
:103930007F758B11438B08E58B20E7030080F8909F
:10394000020BE5B5F0A3E5B4F0758B01E4F5B21216
:103950003E63E4F58D900208E0FBA3E0FAA3E0F9F2
:103960001214F3FF90011DE0FBA3E0FAA3E0F9E5D8
:10397000F08FF00215567E007F0E7D007B017A01EC
:1039800079F4121736E4FDEDC394017480948050ED
:1039900057ED75F005A4240EF582E43408F583E4B0
:1039A00093FFED75F00EA424FFF582E43401F58356
:1039B000EFF0ED75F00EA424FFF582E43401F583F9
:1039C000E004F87E007401088005C333CE33CED8FE
:1039D000F9FFED75F00EA42400F582E43402F583BE
:1039E000EEF0A3EFF00D809F22300A5E20005BC254
:1039F0000A902E12E0FFA3E09001A7CFF0A3EFF012
:103A0000E4FF123E05902E12E0FEA3E0FF7C007D55
:103A10000A12144090014DE02FFF90014CE03EFE51
:103A200090013CE0FBA3E0FAA3E0F9EE8FF0121561
:103A3000569001A7E0FFA3E0902E12CFF0A3EFF085
:103A40009001D17403F0A37420F0229001A77408B0
:103A5000F0A3E4F0A3743FF0A374DFF0E4FDFCF9FD
:103A6000758A10538AEF009001A7E0FEA3E02DF5C0
:103A700082EE3CF583E493FF69F90DBD00010CBCB7
:103A800037E5BDDFE29001A9E0FEA3E0F5828E8379
:103A9000E493FFE96F70089000017406F08005E47C
:103AA000900001F0758A10538AEF0022E4FEEEC305
:103AB0009407748094805039EE75F003A42417F5B0
:103AC00082E4342EF583E5822FF582E43583F58395
:103AD000E493FDEE75F003A42416F582E4342EF58C
:103AE00083E4932420F582E4342EF583EDF00E80F8
:103AF000BDEF701090014CE07002A3E07006902EB4
:103B0000217412F022900108E0FBA3E0FAA3E0F98F
:103B100074FF75F0FC12151E900197E02404F090DC
:103B20000196E03400F0900194E0FEA3E0FFC3941E
:103B3000DCEE9405501BEF9404EE9400400CE0245E
:103B4000FCF0900194E034FFF022E4900194F0A3A3
:103B5000F022900108E0FBA3E0FAA3E0F9E475F09D
:103B60000412151E900195E02404F0900194E034B5
:103B700000F0900196E0FEA3E0FFC3942CEE9401C8
:103B8000501BEF9404EE9400400CE024FCF09001F4
:103B900096E034FFF022E4900196F0A3F02290002A
:103BA00036E0FF9000FFE06F603D900036E0FD9052
:103BB00000FFF0900007E09001E3F0540FF0ED7E7D
:103BC0000064207005E04420800CEF64104E700B00
:103BD0009001E3E04410F0900007F0C28A9001D316
:103BE0007403F0A374E8F022900025E06410703FA5
:103BF000F5B2758D20438D20538D7F53A8F7F58B3B
:103C0000E5DB54047013200910F58AF586758703E7
:103C1000000000758601758A10758B019001E174B2
:103C200001F09001D17403F0A37420F0123E6322DE
:103C30009001A9EFF07E007F10EEC0E0EFC0E07DC4
:103C400000E075F010A424E4F9740135F0FA7B016A
:103C5000D0E0FFD0E0FE1217369001A9E0C454F086
:103C600024F2F582E43401F583740BF0A374B8F008
:103C700022E4FFEFC3940B74809480502BEF25E077
:103C80002401F582E4342EF583E493FEEF25E0244D
:103C900000F582E4342EF583E4932420F582E434A5
:103CA0002EF583EEF00F80CB902F56E0902E2BF068
:103CB000229001AF7401F09001AFE0C394037480CF
:103CC000948050217F01123704122E2B900102E0C4
:103CD000FBA3E0FAA3E0F9EE8FF01215569001AFC6
:103CE000E004F080D2E49001D7F0A3F022900158D4
:103CF000E02430FF900157E034F8FEC3900166E005
:103D00009F900165E09E501490016DE07002A3E069
:103D1000701190016D04F0A374F4F022E490016D31
:103D2000F0A3F022EF903EB093903EA893FE540F84
:103D3000FDF87401088002C333D8FCFDEE54F06036
:103D400008EDF4529152938009ED42ABEDF45289A3
:103D500052965389FD22EF903EB093903EA893FE79
:103D6000540FFDF87401088002C333D8FCFDEE54F3
:103D7000F06008ED4291ED42888006ED4289ED4207
:103D800080438902227F01123704122E2B900102F8
:103D9000E0FBA3E0FAA3E0F9EE8FF012155612173C
:103DA00062121B4A12349A122660123B9E123CED9C
:103DB0000239E9C109C10A4101E3004101E200C140
:103DC00003C101C100C102C105011900C104C1063E
:103DD000C108C1074100FF1043020801020B007532
:103DE0008A10538AEFE4F586758F04F5ABF5AC4382
:103DF000AC0C7580FF7588FF7589FF759104F5958A
:103E0000F592D28A229001A9EFF0123D249001A9E7
:103E1000E0FF123AAC9001A9E0903EB093FF12315E
:103E2000549001A9E0FF023D567E007F047D007B97
:103E3000017A01795B1217367E007F047D007B01D9
:103E40007A01795F021736E4F5DA75DA4043DA2051
:103E500075D74075D64075DA5843A80275B8047511
:103E6000F80422E5B254016006E5A85410700F75FD
:103E7000B29275B6F9E4F5B743B20143A8102290A7
:103E80000165E0FEA3E0FF900163EEF0A3EFF022F6
:103E90007819E6FF2400F582E4340022EE30E707CB
:103EA000C3E49FFFE49EFE220203041011150001EB
:103EB0000106D2AF32000000000000000000000048
:103EC00000000000000000000000000000000000F2
:103ED00000000000000000000000000000000000E2
:103EE00000000000000000000000000000000000D2
:103EF00000000000000000000000000000000000C2
:103F000000000000000000000000000000000000B1
:103F100000000000000000000000000000000000A1
:103F20000000000000000000000000000000000091
:103F30000000000000000000000000000000000081
:103F40000000000000000000000000000000000071
:103F50000000000000000000000000000000000061
:103F60000000000000000000000000000000000051
:103F70000000000000000000000000000000000041
:103F80000000000000000000000000000000000031
:103F90000000000000000000000000000000000021
:103FA0000000000000000000000000000000000011
:103FB0000000000000000000000000000000000001
:103FC00000000000000000000000000000000000F1
:103FD0000000000000000000000000000000009D44
:103FE00000000000000000000000000000000000D1
:103FF00000000000000000000000000000000000C1
:00000001FF
