:10000000011001003A00000022300000FF00000053
:10001000021711E4900292F0A3F02202287953BA59
:100020000F43BA3075BBFF1218B5900024E0F5B449
:10003000EF700AF5B375B27575B130800690002186
:1000400012190B12191753AAFB22FF0226727814F9
:10005000E2FE08E2FFD394F8EE942A5009C3EF942D
:1000600028EE9423500312291622FF021D99BB018A
:100070000689828A83E0225002E722BBFE02E32245
:1000800089828A83E49322BB010989828A83F8E00A
:1000900028F022500327F722BBFE05F8E328F322BD
:1000A0008A838982F8E4932822BB010689828A83A5
:1000B000F0225002F722BBFE01F322EF8DF0A4A83C
:1000C000F0CF8CF0A428CE8DF0A42EFE22C5F0F83F
:1000D000A3E028F0C5F0F8E582158270021583E0F0
:1000E00038F022BB0110E58229F582E5833AF583D9
:1000F000E0F5F0A3E0225009E92582F886F008E651
:1001000022BBFE0AE92582F8E2F5F008E222E58347
:100110002AF583E993F5F0A3E99322F8BB0111E5F1
:100120008229F582E5833AF583E8F0E5F0A3F02231
:100130005009E92582C8F608A6F022BBFE09E92588
:1001400082C8F2E5F008F222EF2BFFEE3AFEED391D
:10015000FDEC38FC22C3EF9BFFEE9AFEED99FDEC1F
:1001600098FC22E88FF0A4CC8BF0A42CFCE98EF054
:10017000A42CFC8AF0EDA42CFCEA8EF0A4CDA8F00F
:100180008BF0A42DCC3825F0FDE98FF0A42CCD35D3
:10019000F0FCEB8EF0A4FEA9F0EB8FF0A4CFC5F03D
:1001A0002ECD39FEE43CFCEAA42DCE35F0FDE43C36
:1001B000FC2275F008758200EF2FFFEE33FECD3381
:1001C000CDCC33CCC58233C5829BED9AEC99E582C8
:1001D00098400CF582EE9BFEED9AFDEC99FC0FD554
:1001E000F0D6E4CEFBE4CDFAE4CCF9A88222B80044
:1001F000C1B90059BA002DEC8BF084CFCECDFCE50F
:10020000F0CBF97818EF2FFFEE33FEED33FDEC3332
:10021000FCEB33FB10D703994004EB99FB0FD8E5B7
:10022000E4F9FA227818EF2FFFEE33FEED33FDEC00
:1002300033FCC933C910D7059BE99A4007EC9BFCF6
:10024000E99AF90FD8E0E4C9FAE4CCFB2275F01082
:10025000EF2FFFEE33FEED33FDCC33CCC833C810A7
:10026000D7079BEC9AE899400AED9BFDEC9AFCE8D5
:1002700099F80FD5F0DAE4CDFBE4CCFAE4C8F92222
:10028000EB9FF5F0EA9E42F0E99D42F0EC6480C8F5
:1002900064809845F022EB9FF5F0EA9E42F0E99DDC
:1002A00042F0E89C45F022E8600FECC313FCED132C
:1002B000FDEE13FEEF13FFD8F122E8600FEFC3331A
:1002C000FFEE33FEED33FDEC33FCD8F122BB010D24
:1002D000E58229F582E5833AF58302032B5007E98D
:1002E0002582F802044DBBFE07E92582F802033798
:1002F000E58229F582E5833AF583020459BB0107BB
:1003000089828A830203B15005E9F8020486BBFEA4
:1003100005E9F80203BD22BB010DE58229F582E55E
:10032000833AF5830203B15007E92582F802048677
:10033000BBFE07E92582F80203BD22E0FCA3E0FD35
:10034000A3E0FEA3E0FF22E2FC08E2FD08E2FE08D3
:10035000E2FF22E0F8A3E0F9A3E0FAA3E0FB22E247
:10036000FB08E2F908E2FA08E2CBF822BB010789B0
:10037000828A830203435005E9F8020469BBFE0543
:10038000E9F802034F89828A830204767401FF33FD
:1003900095E0FEFDFCA3A3A3E0CF2FF0E58215823C
:1003A00070021583E0CE3EF0E5821582700215835F
:1003B000E0CD3DF0E582158270021583E0CC3CF083
:1003C00022ECF0A3EDF0A3EEF0A3EFF022ECF208A4
:1003D000EDF208EEF208EFF222A8828583F0D083D6
:1003E000D0821203E01203E01203E01203E0E47390
:1003F000E493A3C583C5F0C583C8C582C8F0A3C56F
:1004000083C5F0C583C8C582C822D083D082E49357
:10041000F208740193F208740293F208740393F2E1
:10042000740473A42582F582E5F03583F58322FAFE
:10043000E6FB0808E6F925F0F618E6CA3AF622E0E7
:10044000FBA3E0FAA3E0F922EBF0A3EAF0A3E9F0C2
:1004500022E493FB740193FA740293F922E6FC08F8
:10046000E6FD08E6FE08E6FF22E493FC740193FD36
:10047000740293FE740393FF22E6FB08E6F908E694
:10048000FA08E6CBF822E493F8740193F974029326
:10049000FA740393FB22ECF608EDF608EEF608EF8B
:1004A000F622900260EFF01211671211EA9000BE7E
:1004B00012106CFD122F70D3EF94C8EE9400400818
:1004C0009002617401F08014D3EF9464EE94009074
:1004D000026140057402F080037403F0900260E052
:1004E00075F004A424CEF9740035F0FA7B011210E3
:1004F00045900261E0900272F012277F900260E066
:10050000121167EEF0A3EFF0ED75F004A4243FF9AB
:10051000740135F0FA7B019002601210459002726E
:100520007406F012277F900260E090012F12116B89
:10053000EEF0A3EFF09002631203C900000000E4A4
:10054000900261F090026312032BC004C005C00644
:10055000C007900260E0FD75F0149000DE120413F5
:10056000C083C082900261E0D082D08312116B12EE
:1005700011EA9000C612106CFD122F70AB07AA068C
:10058000E4F9F8D007D006D005D004120138900263
:10059000631203B1900261E004F0E0C3940A40A446
:1005A00090026312032B900260E09001611211E14E
:1005B000900222E07002A3E0704190012EE075F0FD
:1005C0000A84E5F0F0E4FF75F002EF9000C6121027
:1005D0006CFD75F014EF9000DE120413C083C0822E
:1005E00090012EE0D082D08312116BECF0A3EDF0DD
:1005F0000FEFB404D290012EE004F0301F03020686
:10060000D33007030206D390021CE07002A3E0601F
:10061000030206D3900211E07002A3E06003020619
:10062000D37816E2FE08E2FFC39494EE94115018BA
:10063000902FFB740193249CFDE49334FFFCD3EFD3
:100640009DEE9C40030206D3900260E064036003C9
:100650000206D39002671203C9FFFFFFFFE4900276
:1006600062F0900261F0900261E0FFC39404502DAB
:1006700075F004EF9001611210D9900267120343E4
:10068000D3120286400F900261E0A3F01210D390C3
:1006900002671203B1900261E004F080C990019EEC
:1006A000E01210D3E47B1E1211BE5037900262E0BC
:1006B00090019EF0A3E090013712104990019A1228
:1006C00010F4C006C00790019EE075F0029001375B
:1006D00012041312114AD007D00612014590019A54
:1006E0001203B190019A12032B90019EE09000BE7C
:1006F0001210692FFFEC3E90015FF0A3EFF0900124
:100700009EE0A3F0900260E0FF75F00290012F12CE
:10071000106CFDEF9001371211F4ECF0A3EDF07ABC
:100720000179891210DF740CF090015F1211907A38
:10073000017971122A667B017A0179717D0C122090
:1007400097AF41AE40AD3FAC3E90018A0203B1E4A9
:10075000900278F0EF70030208E5122E6F90019678
:100760001203C900000000E4900279F090027E12AA
:1007700003C900000000900279E0FF1229EE121870
:10078000DD90027A1203B1E4900277F090027A12BF
:10079000032B900279E075F00C900079120413C0DD
:1007A00083C082900277E0D082D08375F004120477
:1007B000131203B11218EFE0B403D1785C90027AFF
:1007C0001218CC90027A1203B1900279E0FF9000E7
:1007D000BE1218379000C612183690012F12183624
:1007E00075F002EF90013712183A75F004EF90009F
:1007F000CE1204131203C9009C4000900279E0FB62
:1008000075F00490013F1204131203C9009C4000CC
:1008100012187875F004EB90014F1204131203B113
:10082000E4900277F0900277E0FFC3940A501590AD
:100830000279E075F0149000DE12041312183612DB
:1008400018EF80E190027E120343121878120138EB
:1008500090027E1203B1900279E004F0C394045038
:100860000302076690015F12183D900278E075F070
:100870000290017112183A90019612034390015FA1
:10088000E0FEA3E0FFE4FCFD1201389001961203A4
:10089000B1900278E004F0C3940C500302075712A1
:1008A00018F990018A1218F690018E1218F678063F
:1008B0001202AA9001921203B1E490019EF0A3F0FB
:1008C000A3F090019A1203C900000000E49002779F
:1008D000F0900277E0FFC39405500F75F002EF909F
:1008E00001A312183A1218EF80E79001AE12183DDA
:1008F000E49002AFF090018A12187B90006A120314
:10090000B19000701203C900000000E4900076F07E
:10091000A3F078147427F2087410F278127427F296
:10092000087410F2E47816F208F29001F3F0A3F0E4
:100930009001A112183DE49001B0F0A3F0A31218A9
:100940003DA31203C90009C4009001B812183DA3C9
:100950001203C90009C4009001BE740AF09001CED0
:1009600012183D9001EF1203C9000000009001CC65
:1009700012183D9001D01203C900000000E490025B
:1009800077F0900277E0FB75F0049001D412041325
:100990001203C90000000075F002EB9001BF1218AD
:1009A0003A1218EFE0B406DAE4900224F0A3F0A3C0
:1009B000F0A3F090023EF0A3F0A3F0A3F09001EDBD
:1009C000F0A3F0229001F5E09001FAF012235550C7
:1009D000051223634007E49001F5F080081229AE68
:1009E0009001F5EFF01223994003020BE09001F51E
:1009F000E0FF122A9FEF700D122355500812236357
:100A00005003020BE09001F6E07058900247F0901E
:100A10000243F0A3F0900063F0A3F090023EF0A335
:100A2000F0C21EC2121223BD12003E7F01122CE240
:100A3000D3900206E09400900205E09400401E303E
:100A4000140DEF7803CEC313CE13D8F9FF800EEE4A
:100A5000C4F854F0C868FEEFC4540F48FF1215E5FF
:100A6000020B57900063E07002A3E07013900063E4
:100A70001223737F17122CE290023EEEF0A3EFF0E8
:100A800090023EE07004A3E064017030900063E0E7
:100A9000FEA3E0FF2496FDE43EFC7808E2FA08E2BB
:100AA000FBD39DEA9C4004D21E8011EF246AFFEE26
:100AB00034FFFEC3EB9FEA9E5002D212301E3F125B
:100AC0002345D39DEE9C5003020B57120BE14003CC
:100AD000020B577F14122CE2EF7802CEC313CE1311
:100AE000D8F91223A77F15122CE27C007D03120097
:100AF000AB900236EEF0A3EFF0C21E020B5730129D
:100B000024122345D39DEE9C405D120BE150587F8B
:100B100014122CE2EF7802CEC313CE13D8F91223AD
:100B2000A7C212804230163F122345D39DEE9C404F
:100B300036122F701223B1502E12234C7816E2FC7D
:100B400008E2FD122F70AA06AB0712234C7C007D31
:100B5000031200ABEF7802CEC313CE13D8F9C39BB8
:100B6000EE9A5003122916900234E07004A3E06458
:100B70000170031229169001F6E0FFA3E06F603EBA
:100B80001229627F19122CE2900245EEF0A3EFF0D9
:100B90009001F8E030E421D312236350051223566C
:100BA0004009E490020BF0A3F0800D7F07122CE2C5
:100BB00090020BEEF0A3EFF09001F6E0A3F09001AD
:100BC000F6E0602C900245E07004A3E06401702020
:100BD0007816E2FE08E29002431223AAC394DCEEE8
:100BE000940550079002477401F022E4900247F008
:100BF00022122F70AC06AD079001F3E0C313FEA3E1
:100C0000E013C39DEE9C22900257EEF0A3EFF0A3F9
:100C1000ECF0ED1210FA4012900259E0FFA3E090C0
:100C2000025DCFF0A3EFF0020DD590005CE09002E2
:100C30005B120DDE9002611210AB120DDE90025FAE
:100C4000EEF0A3EFF09001CBE090025B1210651282
:100C50000E1D9002651210AB121065120E1D90024F
:100C600063EEF0A3EFF09001ECE090025B121082D3
:100C700090026F1203B11210B012108290026B1228
:100C800003B190025912104FC006C0079001CC1258
:100C9000114AD007D0061201459002671203B12015
:100CA000002CD37817E2949418E29411502090010C
:100CB000F6E0601A90023BE0940090023AE0940063
:100CC000500C300209900247E07003020DAC900214
:100CD0001CE07002A3E06003020DAC900211E07012
:100CE00002A3E06003020DACD3900237E0940090C1
:100CF0000236E094004002800330000890022A741B
:100D000008F0802430160990022A7402F0E480185A
:100D10009001EDE090022AB4010A7403F090025CA5
:100D200014F080087401F0E490025CF075F0AA12EF
:100D300010C04003020D7F90022AE0FD75F096126C
:100D400010C45006ED121155406990025CE0240871
:100D5000FFE433FEC3900262E09F900261E09E4098
:100D6000141210EB9001D01203B17F0E122CE290FE
:100D7000021E020D9CD390021FE0940090021EE020
:100D800094004003020DA375F0961210C0400B12A0
:100D900011FA90026B120DFB801290022AE01211E0
:100DA0005540191211FA90026F120DFBEEF0A3EFED
:100DB000F080091210EB9001D01203B19002591289
:100DC000104F9001D012034312014512259B90024F
:100DD0005DEEF0A3EFF0A3E0FEA3E0FFA3E0FCA331
:100DE000E0FD121F2290025DE0FEA3E0FF22F0254D
:100DF000E02450F582E43400F583E0FCA3E0FD90AC
:100E00000257E0FEA3E0FF122F70221203431201EB
:100E1000459001D01203B17F0D122CE290021CEE1E
:100E2000F0A3EFF07F18122CE290024022FD900216
:100E300059E0FEA3E0FF122F70229001FBE475F051
:100E4000011200BDD3900200E094009001FFE094F5
:100E5000004003122E4BD3900202E0940090020156
:100E6000E094004003122E4BD390023BE09400909C
:100E7000023AE094004003122E4BD3900204E09417
:100E800000900203E094004003122E4BD390020A1C
:100E9000E09400900209E09400400F122E4B900263
:100EA00009E07002A3E07002D210D3900208E0942F
:100EB00000900207E094004003122E4BD3900206EC
:100EC000E09400900205E094004003122E4B900144
:100ED000F5E030E011E490020BF0A3F0A3F0A3F0F2
:100EE000A3F0A3F08042D390020CE0940090020B98
:100EF000E09400401A122E4B90020BE07002A3E027
:100F0000700D7F0B122CE290020FEEF0A3EFF0D3E6
:100F1000900210E0940090020FE09400400A9002CA
:100F20000DE475F0011200BDD3900214E09400901E
:100F30000213E094004003122E4BD390021DE09464
:100F40000090021CE094004003122E4BD390021F2D
:100F5000E0940090021EE094004003122E4BD390C8
:100F60000221E09400900220E094004003122E4BF6
:100F7000D3900223E09400900222E09400400512F6
:100F80002E4B800D7F10122CE2900222EEF0A3EF88
:100F9000F0D3900225E09400900224E094004003F6
:100FA000122E4BD3900227E09400900226E094008A
:100FB0004003122E4BD3900229E09400900228E0C7
:100FC00094004003122E4BD3900237E0940090021D
:100FD00036E094004003122E4BD3900235E094008B
:100FE000900234E094004003122E4BD3900239E07B
:100FF0009400900238E094004003122E4BD39002EC
:101000003FE0940090023EE094004003122E4BD348
:10101000900241E09400900240E094004003122EC0
:101020004BD3900212E09400900211E09400400330
:10103000122E4BD3900246E09400900245E09400BB
:101040004003122E4B2274FF900259FEFDFC120346
:1010500043D3020270E09000BE75F002120413E068
:10106000FEA3E0FFE4FCFD22E47FE87E03FDFC122A
:101070000343020153F09001BF75F002120413E024
:10108000FCA3E02290005CE0245DF582E43400F5EE
:101090008322F075F0049001D412041312034390DC
:1010A00001D012032B020145900256E075F00CA40A
:1010B0002479F9740035F0FA7B0122EEF0A3EFF009
:1010C00090025BE02403F0E075F00684AFF0EF22BD
:1010D00090022AE0A4FFC3900264E09F900263E0C4
:1010E00095F02290016175F00412041302032B7B2A
:1010F0000190026E120438900271229001D0120306
:101100002B900267120343020138A3F0D39002022E
:10111000E09400900201E094002290027A1203B160
:1011200090027212034390027A12032B0201DE90A6
:10113000026E12042F02005EFFE4FCFDFE12034F5C
:10114000120153780702029724FFFFEE34FFFE33AB
:1011500095E0FDFC12035C020153E0FEA3E0FBAA54
:1011600006E4F9F82275F0C8A4FFC3900266E09F78
:10117000900265E095F022FD9000C675F002020431
:101180001312042F740102007775F004A4F5828510
:10119000F083229002601204389002637403F022FC
:1011A000E0FFA3E0900272CFF0A3EFF022120297CB
:1011B0008F278E268D258C24221202978F278E262C
:1011C0008D258C2422785CE6FFE4FCFDFE22FAF9F2
:1011D000F8C3020286E0FF74017E00A8070822120D
:1011E00003B190027602032B1203379002640203CC
:1011F000B175F0041204130203B1E0FEA3E0FF7521
:10120000F002ED2275F0020204139001D002032BCC
:101210007B017A0179B4E4FCFD9002657405F0125B
:10122000272A9001B2EEF0EF1210FA4002803390BC
:1012300001A112104FC006C0079001B212114AD08E
:1012400007D0061201459002591203B1E47FFA1249
:101250001038400690025D0212AFE47FB4121038DD
:10126000400990025D7405F00212B2E47F6412102E
:10127000384002802274FF7FF1FEFDFC900259127B
:101280000343C3120270400890025D740AF080327A
:101290007F9C121036400890025D7408F080237F16
:1012A0004C121036400890025D7406F0801474FFF2
:1012B0007F0612103890025D40057404F0800374BC
:1012C00002F090025DE09001BEF09001A112104F7B
:1012D00090025DE0900265F07B017A0179BA1227F5
:1012E0002A900257EEF0A3EFF0900220E07002A3E4
:1012F000E060030213677F0F122CE2EEC313FEEFD0
:1013000013FF900220EEF0A3EFF07B017A00795CEE
:101310001210E17406F07808E2FF08E2A3CFF0A310
:10132000EFF07A007950122A667B017A0179CB12AC
:1013300010E17406F09002571211907A0179BF12F1
:101340002A667B017A0179EC9002611204389002DE
:10135000647406F01211FA9002651203B17A0179F1
:10136000D4122B0F7816E2FF08E29001F3CFF0A31E
:10137000EFF0121074E4F0900257E0FEA3E0FF22B9
:10138000E4900257F07B017A00793D1211837800D6
:101390001211D87A007931122AD87B017A0079317A
:1013A0001214917B321211BE50069002577401F054
:1013B0009002AFE0900256F0E4900258F0121098BC
:1013C000C002C0017A0079A9121183780A1211D8DB
:1013D000D001D002122AD81210981214917BF47AFC
:1013E000011211BF50069002587401F03000459070
:1013F0000257E07004A3E0603BD21A7B017A0079C7
:101400003112145F785B1211B790025912105F7895
:101410000712029778041203BD12109812145F127B
:1014200011B590025912105F7807120297780E12C8
:1014300003BD8038C21A785BE67800121128780460
:101440001203BD7804120337EC4D4E4F70037F0238
:1014500022785CE6780A121128780E1203BD780E05
:10146000120337EC4D4E4F70037F02227F04227D22
:1014700003121B24C3E5419539FFE5409538FEE58D
:101480003F9537FDE53E9536FCC3EF953DFFEE9564
:101490003CFEED953BFDEC953AFC9002591203B1F0
:1014A000227D03121B24C3E539953DFFE538953CA9
:1014B000FEE537953BFDE536953AFCE42290026067
:1014C0001203B11210FC405B90026012032B9000DB
:1014D0003E1203B1E47F50FEFDFC90003E12105F0F
:1014E000780A1202979000421203B1E4900269F068
:1014F000900269E0FFC39404502975F00CEF90004E
:1015000081120413120343C0001211B5D00012114E
:1015100030900269E09000AA1211E1900269E004A3
:10152000F080CD900268E09000AA1210D6E47B0A09
:10153000FAF9F8120153780A1202979000BA1203CE
:10154000B190004212034390003E121092C004C0BA
:1015500005C006C0079000421203439002601210BB
:10156000929002721203B19002761203C900010038
:1015700000D007D006D005D00412214C90004612AE
:1015800003B19000BA120343900264121092C00497
:10159000C005C006C0079002721203C90001000016
:1015A00090004612032B9002761203B1D007D006AA
:1015B000D005D00412214C90026A1203B19000BAF7
:1015C00012032BAB07AA0690026A12032BEF2BFB28
:1015D000EE3AFA900268E0F975F00490014F1210AB
:1015E000D9C3EB9FFFEA9EFEE99000BE1211F4EE14
:1015F000F0A3EFF022900256EEF0A3EFF0E4A3F098
:10160000D390020CE0940090020BE094004006128C
:1016100023700216DC1223555005122363402F90CD
:1016200001B0E0FEA3E0FF9001A1E0FCA3E0FDD348
:101630009FEC9E40089001B0ECF0A3EDF09001B05B
:10164000E0FFA3E07814CFF208EFF20216E2900078
:1016500070120343C0007812E2FE08E2FFE4FCFDD2
:10166000D0001201389000701203B1900076E4753A
:10167000F0011200BD900256E0FEA3E0FFC390000F
:1016800077E09F900076E09E5031780890004A12F3
:10169000237F122F70D3EF9414EE9400501DA215E7
:1016A000301401B3401590020FE0FEA3E0FFD39089
:1016B000020EE09F90020DE09E4037900076E0FE23
:1016C000A3E0FFFBAA06E4F9F890007012032B12C6
:1016D00001DE122399400E7815E22FFF18E23EC377
:1016E00013FEEF13FF7814EEF208EFF29002587435
:1016F00001F0900258E06028E4900076F0A3F090AA
:1017000000701203C900000000E49001B0F0A3F0E3
:10171000122370E4900216F0A3F090020D12233D04
:1017200022439F04E453C6DFE5C600B5C6F37583C4
:101730000075820775FD0DE4E5FEF4FF7583007505
:10174000820675FD0DE4E5FEB50704F59E80037580
:101750009E0078100000D8FC53C6E043C60843C67C
:101760008075960775970975830075820475FD0D60
:10177000E5FD0404F58F75830075820375FD0DE4A6
:10178000E5FEF4FF75830075820275FD0DE4E5FE4C
:10179000B50704F595800375958375BE0E5392FECB
:1017A0009001007F007E02E4F0A3DFFCDEFA780007
:1017B0007F00E4F208DFFC78FFE4F6D8FD7581C510
:1017C0000217F10200000221F6E493A3F8E493A3C8
:1017D0004003F68001F208DFF48029E493A3F85473
:1017E00007240CC8C333C4540F4420C8834004F4F6
:1017F00056800146F6DFE4800B0102040810204009
:1018000080902F5AE47E019360BCA3FF543F30E5E3
:1018100009541FFEE493A360010ECF54C025E0607D
:10182000A840B8E493A3FAE493A3F8E493A3C8C54B
:1018300082C8CAC583CAF0A3C8C582C8CAC583CA3C
:10184000DFE9DEE780BEEF75F0021204137427F0C3
:10185000A37410F0221201539002561203B19002A9
:101860003012034390025612032B1201DE78081245
:1018700002979002561203B17F0FE4FEFDFC900226
:1018800056120343D302028690027A12032BEF24EE
:10189000F0FFEE34D8FEED34FFFDEC34FFFC229077
:1018A000001BE0902FF2932290025612032BC3EFFD
:1018B000940FFFEE9400FEED9400FDEC9400FC907C
:1018C00002560203B175A96075AC0375ADC075AE63
:1018D000C022E5BAF053BA0F43BA1022E6FFE4FC87
:1018E000FDFE1203431201537807020297122D3CAA
:1018F00090001BE0FF022610900069E042F4229065
:101900000277E004F0221203B190019602032B90BB
:101910000069E0FFF452F4EF428022E0F5B3A3E067
:10192000F5B2A3E0F5B12290001AE0902FF293F502
:10193000AB2275BF0F43B92053B9FD2290025B1251
:10194000032B9002572290025B12032B9002572226
:1019500030111512300C745AF07F0A122CE29002EA
:1019600007EEF0A3EFF0C211A2149215300202802C
:1019700020D3900202E09400900201E09400501104
:10198000900208E09400900207E0940050032010B9
:101990000A12300C745AF0C214800812300C74030E
:1019A000F0D214301418900242E0B401047F018098
:1019B00007900242E07004FF122CB0122E90A21584
:1019C000301401B350289001F6E06012D21678125C
:1019D000E2FF08E290022BCFF0A3EFF080107F022D
:1019E000122CE2900205EEF0A3EFF012291620145B
:1019F000173015147F03122CE2EEC313FEEF13FF12
:101A000090023AEEF0A3EFF07812E2FE08E2FF90C7
:101A1000022BE0FCA3E0FDD39FEC9E4012ED9FFF64
:101A2000EC9EFED3EF94DCEE940540031229169051
:101A300001F6E0700F301603122916C216E4900268
:101A40002BF0A3F022E4900278F0EF607B122E6F6F
:101A50009000291203C900000000122D3C900029BB
:101A60001226081201389000291203B1900278E082
:101A700004F0C3940C40E3E0FFFBE4FAF9F89000B3
:101A80002912032B1201DE9002791203B1785B90C8
:101A900002791218CC78041203BDE4900277F0901A
:101AA0000277E0FBC39403501F90027912032BEBE3
:101AB00025E025E02431F582E43400F5831203B1FA
:101AC000900277E004F080D77804120337EF24D037
:101AD000FFEE348A1218859000251203B190004A57
:101AE0007475F0A37430F0A31203C9001D4C00E418
:101AF000900277F0900277E0FFC394065027EF251D
:101B0000E02450F582E43400F5837475F0A374305A
:101B1000F0745D2FF582E43400F583E4F0900277F1
:101B2000E004F080CFE490005CF078087475F2086F
:101B30007430F22290025D120438900260EDF0E4FD
:101B4000F528F527F526F52574FFF52CF52BF52A54
:101B5000F529E4F530F52FF52EF52DF524900260EA
:101B6000E0FFE524C39F507090025D12042F75F0D2
:101B700004E524A4F58285F0831202BD8F348E33F0
:101B80008D328C31AF28AE27AD26AC25D3122E6412
:101B9000400C853428853327853226853125AF2CA6
:101BA000AE2BAD2AAC29C3122E64500C85342C8583
:101BB000332B85322A853129E5302534FFE52F3551
:101BC00033FEE52E3532FDE52D35318F308E2F8DEC
:101BD0002EF52D0524021B4D8528398527388526AD
:101BE00037852536852C3D852B3C852A3B85293A32
:101BF000853041852F40852E3F852D3E900260AF78
:101C000030AE2FAD2EAC2D122E52227B077A0790CC
:101C100002571203C900000000122E6FEB601A7405
:101C2000017E00A803088005C333CE33CED8F9FF68
:101C3000ADACEF5D70031B80E3EA601A74017E00B7
:101C4000A802088005C333CE33CED8F9FFADAEEF7E
:101C50005D70031A80E3AF037401A807088002C314
:101C600033D8FCF5AC7401A802088002C333D8FC59
:101C7000FFF5AD8FAE53AACF43AA049002561218B7
:101C8000C212188F42AB1218DD90025B1203B11220
:101C90001936120343C31202865006121936120374
:101CA000B1900257120343C00090025712032B78E1
:101CB00003120297D0001201389002571203B1901C
:101CC000025712032B9000651203B143AA3053AAA6
:101CD000FB900256E0F5BA12188FF452AB1218B806
:101CE000227B077A079002571203C90000000012F6
:101CF0002E6FEB601A74017E00A803088005C333C1
:101D0000CE33CED8F9FFADACEF5D70031B80E3EAB4
:101D1000601A74017E00A802088005C333CE33CE5A
:101D2000D8F9FFADAEEF5D70031A80E3AF03740125
:101D3000A807088002C333D8FCF5AC7401A80208D8
:101D40008002C333D8FCFFF5AD8FAE53AACF90020B
:101D5000561218C2122D3C12260B90025B1203B1D0
:101D600012192C120343C3120286500612192C12A8
:101D700003B1900257120343C00090025712032B85
:101D80007803120297D0001201389002571203B163
:101D900090025712032B9000201203B143AA3090F7
:101DA0000256E0F5BA1218B822C0E0C0F0C083C0F5
:101DB00082C0D075D008C2CFD21130CD03021E55DB
:101DC00020CC6030CB2285CE54E554C3948040169D
:101DD00075F003E55490233D1204131204418B5116
:101DE0008A5289538063807385CE35E5547022E52D
:101DF00035B410099002B0E0F452808066E535B445
:101E000020089002B0E04280805985354605548014
:101E100052E554C39405500774462554F8A6350579
:101E2000548040E554B4C0057546C08036E554B4CE
:101E3000C2107858E630E2057546A080267546A1A6
:101E40008021E554C3948040107851E475F001126C
:101E5000041F12005EF5CE800A0554E5502554F8A3
:101E6000E6F5CED210D0D0D082D083D0F0D0E03200
:101E700020CA03021F21E5467003021F21AF46E47A
:101E8000F546EF54F0FEEF540F900256F0AF06EF18
:101E900024A0602424F0602824D0603824E070035B
:101EA000021F1524E07003021F1824906003021F14
:101EB000217858E6440180057858E654FEF68061A2
:101EC000E4FF122EFE785AEFF67856BFFF03760134
:101ED0002276FF22900256E0FD700B7858E630E241
:101EE00050122D9F803BEDB4010B7858E620E24163
:101EF000122DAA802C900256E0FDB402117858E60B
:101F000030E22E122D9F9002427401F08013ED6496
:101F100003701E7858E620E218122DAAE4900242BF
:101F2000F0751C0222022916E4900201F0A3F0D2FF
:101F30001F22900273ECF0A3EDF0E4FD9001EDE0C0
:101F40007034C3EF940AEE940040061210747401CA
:101F5000F0121074E07002C21DE4FF745D2F1210C5
:101F60007AE07004C21D80130DEDB40602D21D0F7D
:101F7000EFB406E78005121074E4F0900226E070DA
:101F800002A3E07057900224E07002A3E0704D902D
:101F900001EDE0701B301D187F11122CE29002241D
:101FA000EEF0A3EFF09001ED7401F0D21BC21D2200
:101FB0009001EDE064017036C3900274E0940A90E1
:101FC0000273E0940050277F12122CE27C007D0CFB
:101FD0001200AB900226EEF0A3EFF022900226E072
:101FE0007004A3E0640170069001EDF0D21C22128F
:101FF0002E6F9002571218C278001203FA000000E8
:10200000009002567405F075ABFF122D3C7800125B
:10201000034F12260B12013878001203BDE4F5AB12
:10202000122D3C7800120337C004C005C006C0075B
:1020300012260BA804A905AA06AB07D007D006D024
:1020400005D00412014578001203BD900256E01439
:10205000F0E070B3780012034F7F007E107D277C84
:10206000001201DE9002581203B190025812032BA5
:102070009002601203B17F967E007D007C00122BDF
:10208000E6E47B32FAF9F8C31202865006785B76F2
:1020900096800A90025812032B785BA6079002578D
:1020A000E0F5BA1219172290026B12043890026EF2
:1020B000EDF0E4F525F52674FFF527F528E4F52E77
:1020C000F52DF52CF52BF52490026EE0FFE524C3E9
:1020D0009F505990026B12042F75F002E524A4F56D
:1020E0008285F0831200D3F52A85F029D39526E561
:1020F0002995254006852925852A26C3E52A952880
:10210000E52995275006852927852A28E4FCFDE541
:102110002E252AFFE52D3529FEED352CFDEC352B3E
:102120008F2E8E2D8D2CF52B0524809CE485263951
:10213000852538F537F53685283D85273CF53BF56F
:102140003A852E41852D40852C3F852B3E90026E91
:10215000AF2EAE2DAD2CAC2B122E522290026E1251
:1021600003B1E47BE87A03F9F890026E121119903A
:10217000027E1203B190027E121058A804A905AA8B
:1021800006AB0790026E1210929002821211CF904D
:10219000027E12105F12110A9002861203B19002A1
:1021A0007212032B90028612105FA804A905AA06DA
:1021B000AB0790027A12109290028A1211CF90020D
:1021C0008212105F90027A1203B190027A120343D6
:1021D000C000C001C002C00390028A121058D00390
:1021E000D002D001D00012013812110A90028E12D2
:1021F00003B1E47FE87E03FDFC90028612105F903D
:10220000028E1210F422122D11123019122FFF1209
:1022100028C8122EAF122C19122FAFD2AF751C0185
:10222000E51C24FE601E14603614605614606024A1
:10223000047067122FE2122F86122F9C122F157F27
:1022400004122DB5D2D8E49001FBF0A3F0900292D5
:10225000F0A3F0122B7CE51D70FC122F2C8036D2DF
:10226000D8E51D70FC1213708F1C1219409002AF3C
:10227000E0900078F09002AF04F0122B46122F2C61
:10228000801B122E018F1C12229F120E2A800E120A
:1022900009B4122D65751C038003751C0112301FD3
:1022A000E51C64047003022210121E600222107FDB
:1022B00085902FFBE493FC740193FD122FD27F874E
:1022C000902FFB740193249CFDE49334FFFC122FA8
:1022D000D27F897D647C00122FD27F8F3018187DC9
:1022E000397C30122FD27F8D7D397C30122FD27FF6
:1022F000917D397C30801F7812E2FC08E2FD122FBC
:10230000D27F8D7816E2FC08E2FD122FD27F917801
:1023100014E2FC08E2FD122FD27F9FC00790024812
:10232000122D97D007122FD27F9DC00790024C121A
:102330002D97D007122FD27FA1C007900250122DE7
:1023400097D007122FD20226D2F0A3F0A3F0A3F069
:10235000A3F0A3F0227816E2FC08E2FD9001F3E07E
:10236000FEA3E0FF22D3900202E09400900201E07D
:10237000940022900204E09400900203E094002272
:1023800090004A7808E2FF08E2CFF0A3EFF022E2E3
:10239000FE08E2FFE0FCA3E0FD22E29DFF18E29CC4
:1023A000FE900256F0A3EFF022D390023BE094009F
:1023B00090023AE0940022900234FFEEF0A3EFF096
:1023C00022C3902FFB7401939FE4939E2290020BF3
:1023D000E07002A3E0705830002078149001A11240
:1023E000237FC39FEC9E5010C312238A1223B15047
:1023F0003512242040398029802C7814E2FE08E22E
:10240000FF7812E2FC08E2FDC39FEC9E501AC378ED
:102410001512238AD39432EE9400400A12242040ED
:102420000E12291680028000E4900216F0A3F0221A
:102430007F05122CE2EEC313FEEF13FF900216E4A9
:1024400075F0011200BDFCD3E5F09FEC9E22780EE2
:1024500012033790025B1203B17804120337122A79
:102460002C9001961203B190006A12032B900196F2
:10247000120343C312028650037F02229001961278
:10248000032B1228289001A1EEF0A3EFF09001B8E1
:10249000E0FFA3E09001CCCFF0A3EFF09001A1E02A
:1024A000FEA3E0FF1212009001B8EEF0FCA3EFF0E3
:1024B000FD7808E2FE08E2FF120BF79001CEEEF085
:1024C000A3EFF07812EEF208EFF27F052201007917
:1024D000FE000E0100BE0100C601019A01015F016C
:1024E00001960101A10101B20101B80101CEFE0076
:1024F00012FE0014FE0016FE0018FE0000FE00048E
:1025000001003E010042010046FE000801024C01AC
:10251000025401025C0102640102220100DE010199
:102520006101024801025001019E0100CE010161DA
:102530000101ED01022401022601020190022DE0B9
:1025400030E10912257B20180312258B90022DE023
:1025500054FDF09001F8E0540FFF602790022DE049
:10256000FE30E2067864A6078010EE30E31C90018E
:10257000F8E0540FC454F07864F620180612257B56
:1025800012258B90022DE054F3F022C2107F081226
:102590002CE2900209EEF0A3EFF022C2927F217E9E
:1025A000007D007C00122EE6D2922290027312036C
:1025B000B1E47F607EEAFDFC90027312103E40049D
:1025C000D2078002C207E47FFF7EFFFDFC9002730A
:1025D00012103E400C9002731203C90000FFFF80EE
:1025E00030E4FF90027312103B5026122916301E61
:1025F000167F15122CE27C007D031200AB90023690
:10260000EEF0A3EFF0C21E9002731203C900002780
:102610001090027312032B2212034390001AE0FF62
:10262000EFC39404500553B9EF800343B910EF6032
:1026300003B4040B85B71985B61A85B51B803AEF2C
:1026400064016004EFB4050B85EB1985EA1A85E98E
:102650001B8026EF64026004EFB4060B85F3198536
:10266000F21A85F11B8012EF64036004EFB40709CE
:1026700085FB1985FA1A85F91BAF1BAE1AAD19AC8B
:102680001822C0E0C0F0C083C082C0D075D0105303
:10269000B9FDE51D6401702212260B78001203BDFE
:1026A0001218E87F01122E269002AFE0FF1229EEE9
:1026B00043B901D2D8751D05801DE51D640570174D
:1026C0001218E0780A1203BD12188FF452AB53AA05
:1026D000FB1218FF751D00D0D0D082D083D0F0D06F
:1026E000E032E47F557E06FDFC780012034F12189D
:1026F0004540031218987FFF12186A400678C57685
:10270000FF800A90025612032B78C5A607E47FD6F5
:102710007E0BFDFC9000811203431218454003120A
:102720001898E47FFF12186B4005789376FF22908B
:10273000025612032B7893A607229002611203B16E
:1027400090025E12043890026112032B7806120286
:10275000AA9002611203B19002651211C58005C3EF
:1027600033CE33CED8F91211389002611210F490A2
:102770000265E0F9F812119D90025E12042F120218
:10278000EDAF27AE26AD25AC24780612119D229020
:10279000026E1203B190026B12043890026E1203A3
:1027A0002B780A1202AA90026E1203B190027212E2
:1027B00011C58005C333CE33CED8F912113890023B
:1027C0006E1210F4900272E0F9F81211A990026BE7
:1027D00012042F1202EDAF27AE26AD25AC24780AE5
:1027E0001211A9229002301203C900000000E4FF78
:1027F00012000E75ABFF122D3C900230122608120B
:1028000001389002301203B1E4F5AB122D3C900276
:102810003012032BC004C005C006C00712260BA847
:1028200004A905AA06AB07D007D006D005D004122C
:1028300001459002300203B190006A120343120175
:102840004512259B900257EEF0A3EFF07A0179AD87
:102850001210DF7405F0A3EEF0A3EFF07A0179A374
:10286000122A66A215301401B350157B017A017942
:10287000A37D051220979001AEE544F0A3E545F055
:10288000900257E0FEA3E0FF22C0E0C0F0C083C08A
:1028900082C0D075D000C000C28D758C32758AEBB5
:1028A000900292E475F0011200BDC3900293E0948F
:1028B00014900292E0940040129001FBA3E0785F34
:1028C000F69001FBE4F0A3F0120004D000D0D0D0C9
:1028D00082D083D0F0D0E032E4FF122EFE785AEF9F
:1028E000F67856BFFF047601800276FFE47864F63E
:1028F0007857763A08F6902FFB93FE740193FF7891
:1029000085A60608A607EF249C7888F6EE34FF1803
:10291000F678897600087664E4122D8DF6122D8DF6
:10292000765075505522E51D70FCE4FF121A35E40F
:10293000FF12073FE49001F6F09001F8F0900215C5
:10294000F090020B122339900213F0A3F0900218BA
:1029500012233912233C900063F0A3F0A208300048
:1029600001B3500D7F04122CE2900203EEF0A3EFAE
:10297000F022A907E4FEFD90022DE0FC703FEF5429
:1029800001FB9001F7E054016B600D30020A201842
:1029900007EC440290022DF09001F7E030E006EEE3
:1029A0004410FE8004EE4401FEE930E006ED4401EF
:1029B000FD8004ED4410FDEE5D9001F8F022E4FF8F
:1029C0009001F6E07016902FFB93FC740193FDC309
:1029D0007819E29D18E29C401F0F801C902FFB7419
:1029E0000193249CFDE49334FFFCC37819E29D1805
:1029F000E29C4004EF4401FF9002AEEFF022121877
:102A0000E89002AFE0D394034002E4F0EF146012C8
:102A100014601714601D2403702112188FF452AB38
:102A2000800D12188FF452AB800E12188F42AB53E8
:102A3000AAFB2212188F42AB43AA0422900257121B
:102A400003B1900078E090025FF090025B12032BDC
:102A50009002641203B190025FE0900268F090026D
:102A60005712032B1214AD90025FE0FF12049290F4
:102A7000018A12032B22900272E0FEA3E0FFC00342
:102A8000C002C00112111F75F00212117CD001D0DA
:102A900002D003EE8FF012010B90026E1211711230
:102AA000111FFF900271E0B50704E4120099227E25
:102AB00005EF5401FD9001F6E054016D6007EFF061
:102AC000E4900215F07858E630E0089001F6E070E6
:102AD000027E0A900215E004F0C39E50037F00229C
:102AE000900215EEF07F012290026412032BC003C6
:102AF000C002C001900260121122121179D001D0DF
:102B000002D003120307900260121171900260124A
:102B10001122FF900263E0B50704E41200992290AD
:102B2000026512032BC003C002C0019002611211A2
:102B300022121179D001D002D00312030790026152
:102B4000121171900261121122FF900264E0B50728
:102B500004E4120099221218E8E4FF12000E121881
:102B6000C575BB01900069E0FF900024E04FF5B40B
:102B7000E4F5B3F5B275B11012192253BAFE43B998
:102B800001D2D8E5B930E1FBE4F5BF227858E6F58B
:102B900020A208300001B350147F04122CE29002EE
:102BA00003EEF0A3EFF0122916A2009208A20A3059
:102BB0000201B35004A202920A301305122916C270
:102BC00013220005010802020301040105010606A3
:102BD0000701080109070A010B010C030D050E0A84
:102BE0000F011001110A123C13011401153C1601CA
:102BF000173C1802190290025C1203B19002601295
:102C0000032B90025C120343D3120286400B900206
:102C10006012034390025C800990025C12034390AF
:102C2000026012032B1201452243F80875CD405370
:102C3000CC7F43CC4043CC2043CC1043CC0453CC7A
:102C4000FD43CB0243CB0153CBBFD2EB53E5FC4357
:102C5000E30243F50343900343ED03229000251262
:102C6000032BAB07AA067804120337C3EF9BFFEED2
:102C70009AFE7B017A00794CE4FCFD9002657408B1
:102C8000F012272A7808EEF208EFF27F0522781476
:102C9000E2FE08E2FF7812E2FC08E2FDD39FEC9E20
:102CA000400BED9F7817F2EC9E18F28006E4781640
:102CB000F208F27816E2FF08E208CFF208EFF222FB
:102CC000E4F51D53B9FD53B9DF43CC02C2D9539F7C
:102CD000FD438760C28DEF700675BD0D75BC011296
:102CE0002FC175BE0CD28C20C9034387030000009E
:102CF00000227D017C00EFC3941A5020EF25E024D0
:102D0000B3F582E4342BF583E493FF7E009001FD5C
:102D1000E0FCA3E0FD1200ABAC06AD07AE04AF05CE
:102D200022E4F5E3439F107F03FEFDFC122EE643F1
:102D30009F027F037E007D007C00122EE6539FEFF2
:102D400075BE0EE4F5BFF5B9759276221218E875D6
:102D5000BF0F0000000000000000000000000000A5
:102D600000000000D2D853B9FD43B901E5B930E104
:102D7000FBE4F5BF229001F9E0FF9001F8E0FE6F5F
:102D800060143002047864A606E4FF122CE290027C
:102D900011EEF0A3EFF09001F8E0A3F02208F6089E
:102DA000F608F608F6082212032BAD07AC062254EB
:102DB000FBF690022DE04408F0224404F690022D28
:102DC000E04404F022EF6003D38001C3920A920230
:102DD0007858A6079001FDE4F0A3745AF07F091219
:102DE0002CE2900201EEF0A3EFF02290001AE090A6
:102DF0002FF293FF900024F090001BE0902FF293AD
:102E0000FE900069F0EF4E42D442F442E4F452DC0A
:102E1000229002567405F0122C4C12243E90025659
:102E2000EFF0BF0205D213E0FF22122C7E122ECD4E
:102E3000900256E0FF2253BA0F43BA2075BBE61248
:102E400018B5900069E0F5B4EF7009F5B375B2AF4D
:102E500075B1C82290006612190B2274FFF5F002BA
:102E600000BDE0FBE4FAF9F81201DE8F458E448DD7
:102E7000438C4222AB34AA33A932A83102028653D2
:102E8000BAFEE5B920E004E51D6005E5B930E1FBD7
:102E9000E4F5BF53B9FD53B9FE1218FFE4F51D2246
:102EA000E4900256F075BE0E439F027F03FEFDFCC8
:102EB000122EE675BC02E4F5BFD2D953CCFD2243F5
:102EC0008901C28DD2A953B8FD1200039001FBF015
:102ED000A3F0758C32758AEBD28CD2AF227F767ECE
:102EE000107D017C00780412034FD3120286400348
:102EF000C21822D218229002571203B190025774BE
:102F0000FF12037EEC4D4E4F60030080EF22E4FF82
:102F1000F582F5837440FEE493F42FFFA3EEB583AE
:102F2000F6227F0022E4900209F0A3F07F0A122C1F
:102F3000E2900207EEF0A3EFF0D210221218E87F21
:102F40000112000E751D0112192243BA0143B90185
:102F5000D2D82243D50453F5FB53E5FB43E30443A6
:102F6000ED04E490022DF0D2922241001A054100B6
:102F70001B0644001CFFFFFFFF04180000000000B8
:102F8000D3EF9DEE9C4007EF9DFFEE9CFE22C3ED2C
:102F90009FFFEC9EFE22E4FF12000E121FDF121CA8
:102FA000D17F0112000E121A350227D4E4FF122E2F
:102FB00026123013121BFB7F01122E2602073F90B0
:102FC0002FFDE493FF74019390006ECFF0A3EFF018
:102FD00022438901C28CC28F120003758CFB758A53
:102FE000ED2220C90CC2AFA807A60408A605D2AFDF
:102FF000222275AA3B53BAF343BA0C43B92053B902
:10300000BF2201020408102040803203E80064C29D
:10301000DA53D80F43D8D0D2D8D2D9229001FDE4C8
:10302000F0A322785BE608F622122DDB022F430282
:02303000252C4D
:00000001FF
