:100000000110060034000000E0340000FF00000092
:10001000021A26E49002A5F0A3F022022DC6E4F510
:10002000E3439F107F03FEFDFC123390439F027F4A
:10003000037E007D007C00123390539FEF75BE0E4F
:10004000E4F5BFF5B975927622FFFF022B6E7F763D
:100050007E107D017C00780412034FD3120286408B
:1000600003C21822D21822022A27FF0222AABB01A9
:100070000689828A83E0225002E722BBFE02E32245
:1000800089828A83E49322BB010989828A83F8E00A
:1000900028F022500327F722BBFE05F8E328F322BD
:1000A0008A838982F8E4932822BB010689828A83A5
:1000B000F0225002F722BBFE01F322EF8DF0A4A83C
:1000C000F0CF8CF0A428CE8DF0A42EFE22C5F0F83F
:1000D000A3E028F0C5F0F8E582158270021583E0F0
:1000E00038F022BB0110E58229F582E5833AF583D9
:1000F000E0F5F0A3E0225009E92582F886F008E651
:1001000022BBFE0AE92582F8E2F5F008E222E58347
:100110002AF583E993F5F0A3E99322F8BB0111E5F1
:100120008229F582E5833AF583E8F0E5F0A3F02231
:100130005009E92582C8F608A6F022BBFE09E92588
:1001400082C8F2E5F008F222EF2BFFEE3AFEED391D
:10015000FDEC38FC22C3EF9BFFEE9AFEED99FDEC1F
:1001600098FC22E88FF0A4CC8BF0A42CFCE98EF054
:10017000A42CFC8AF0EDA42CFCEA8EF0A4CDA8F00F
:100180008BF0A42DCC3825F0FDE98FF0A42CCD35D3
:10019000F0FCEB8EF0A4FEA9F0EB8FF0A4CFC5F03D
:1001A0002ECD39FEE43CFCEAA42DCE35F0FDE43C36
:1001B000FC2275F008758200EF2FFFEE33FECD3381
:1001C000CDCC33CCC58233C5829BED9AEC99E582C8
:1001D00098400CF582EE9BFEED9AFDEC99FC0FD554
:1001E000F0D6E4CEFBE4CDFAE4CCF9A88222B80044
:1001F000C1B90059BA002DEC8BF084CFCECDFCE50F
:10020000F0CBF97818EF2FFFEE33FEED33FDEC3332
:10021000FCEB33FB10D703994004EB99FB0FD8E5B7
:10022000E4F9FA227818EF2FFFEE33FEED33FDEC00
:1002300033FCC933C910D7059BE99A4007EC9BFCF6
:10024000E99AF90FD8E0E4C9FAE4CCFB2275F01082
:10025000EF2FFFEE33FEED33FDCC33CCC833C810A7
:10026000D7079BEC9AE899400AED9BFDEC9AFCE8D5
:1002700099F80FD5F0DAE4CDFBE4CCFAE4C8F92222
:10028000EB9FF5F0EA9E42F0E99D42F0EC6480C8F5
:1002900064809845F022EB9FF5F0EA9E42F0E99DDC
:1002A00042F0E89C45F022E8600FECC313FCED132C
:1002B000FDEE13FEEF13FFD8F122E8600FEFC3331A
:1002C000FFEE33FEED33FDEC33FCD8F122BB010D24
:1002D000E58229F582E5833AF58302032B5007E98D
:1002E0002582F802044DBBFE07E92582F802033798
:1002F000E58229F582E5833AF583020459BB0107BB
:1003000089828A830203B15005E9F8020486BBFEA4
:1003100005E9F80203BD22BB010DE58229F582E55E
:10032000833AF5830203B15007E92582F802048677
:10033000BBFE07E92582F80203BD22E0FCA3E0FD35
:10034000A3E0FEA3E0FF22E2FC08E2FD08E2FE08D3
:10035000E2FF22E0F8A3E0F9A3E0FAA3E0FB22E247
:10036000FB08E2F908E2FA08E2CBF822BB010789B0
:10037000828A830203435005E9F8020469BBFE0543
:10038000E9F802034F89828A830204767401FF33FD
:1003900095E0FEFDFCA3A3A3E0CF2FF0E58215823C
:1003A00070021583E0CE3EF0E5821582700215835F
:1003B000E0CD3DF0E582158270021583E0CC3CF083
:1003C00022ECF0A3EDF0A3EEF0A3EFF022ECF208A4
:1003D000EDF208EEF208EFF222A8828583F0D083D6
:1003E000D0821203E01203E01203E01203E0E47390
:1003F000E493A3C583C5F0C583C8C582C8F0A3C56F
:1004000083C5F0C583C8C582C822D083D082E49357
:10041000F208740193F208740293F208740393F2E1
:10042000740473A42582F582E5F03583F58322FAFE
:10043000E6FB0808E6F925F0F618E6CA3AF622E0E7
:10044000FBA3E0FAA3E0F922EBF0A3EAF0A3E9F0C2
:1004500022E493FB740193FA740293F922E6FC08F8
:10046000E6FD08E6FE08E6FF22E493FC740193FD36
:10047000740293FE740393FF22E6FB08E6F908E694
:10048000FA08E6CBF822E493F8740193F974029326
:10049000FA740393FB22ECF608EDF608EEF608EF8B
:1004A000F62290026AEEF0A3EFF0A3ECF0ED121446
:1004B000AC400D90026CE0FFA3E090027002073B9D
:1004C00090005CE090026E12074990027412147062
:1004D000120749900272EEF0A3EFF09001DDE09078
:1004E000026EF075F0029001D1121430120788905C
:1004F0000278121470F075F0029001D112143012CB
:100500000788900276EEF0A3EFF0900200E09002F0
:100510006E1214479002821203B11214751214471E
:1005200090027E1203B190026C1213FCC006C00749
:100530009001DE121527D007D00612014590027AED
:100540001203B190026C1213FCC004C005C006C0B7
:10055000079001DEE0FEA3E0FFE490028A1203B1FF
:10056000D007D006D005D0041230E19001CC1203A0
:10057000B1200026D37817E294AC18E2940D501AFB
:1005800090020CE0601490025AE09400900259E04E
:10059000940050063002030206FA900236E0700220
:1005A000A3E0700A90022BE07002A3E0600812152D
:1005B0004B50030206FA3000121214E4400D900270
:1005C000567402F090026F04F08063D390024EE004
:1005D000940090024DE09400400790025674088009
:1005E0002E12154B400E9002567419F090026F7443
:1005F00014F0803A300007900256740C80112002EB
:100600001190020CE0700B301D08900256740AF035
:100610008018900201E0900256B4010A7403F09031
:10062000026F14F080087401F0E490026FF0300063
:10063000191214E440149002821203C90000000051
:1006400090027E1203C90000000075F0A01214BCD5
:100650009E400B12141240031215E10206BD9002D7
:1006600056E0FD75F064A4FF1214C495F05010ED2F
:1006700075F0AFA4FF1215A595F050030206F19096
:10068000026FE02408FFE433FEC3900275E09F9000
:100690000274E09E401412149D9001E41203B17F95
:1006A0000E1231AB9002380206EAD3900239E09480
:1006B00000900238E0940040030206F175F06412E5
:1006C00014BC9E401312141240031215E11215DBE4
:1006D00090027E1207668022900256E075F0AFA469
:1006E000FFAEF01215A59E40211214124003121500
:1006F000E11215DB900282120766EEF0A3EFF080A4
:100700000912149D9001E41203B190021DE07004DF
:10071000A3E06401700312282490026C1213FC9071
:1007200001E4120343120145122A96900270EEF082
:10073000A3EFF0A3E0FEA3E0FFA3E0FCA3E0FD1223
:1007400023717812E2FF08E2900209CFF0A3EFF0E4
:10075000900270E0FEA3E0FF22F025E02450F58235
:10076000E43400F583E0FCA3E0FD90026AE0FEA320
:10077000E0FF12341A221203431201459001E412E1
:1007800003B17F0D1231AB900236EEF0A3EFF07F94
:10079000181231AB9002532290026CE0FEA3E0FFEE
:1007A00012341A22900273EFF012150BE0FEA3E050
:1007B000FF75F002ED9000BE12143012341AD3EF20
:1007C00094C8EE940040089002747401F08014D331
:1007D000EF9464EE940090027440057402F080037C
:1007E0007403F0900273E075F004A424D0F974004F
:1007F00035F0FA7B011213F2900274E0900285F05A
:10080000122C7B900273E012150BEEF0A3EFF0EDCB
:1008100075F004A42441F9740135F0FA7B019002CB
:10082000731213F29002857406F0122C7B900273FF
:10083000E090013112150FEEF0A3EFF09002761266
:1008400003C900000000E4900274F09002761203E5
:100850002BC004C005C006C007900273E0FD75F010
:10086000149000E0120413C083C082900274E0D0A0
:1008700082D08312150FE0FEA3E0FFED12142A12BE
:10088000341AAB07AA06E4F9F8D007D006D005D091
:10089000041201389002761203B1900274E004F061
:1008A000E0C3940A40A590027612032B900273E0F5
:1008B0009001631215CC90023CE07002A3E0703A04
:1008C000900130E075F00A84E5F0F0E4FFEF1214D7
:1008D0002A75F014EF9000E0120413C083C08290D8
:1008E0000130E0D082D08312150FECF0A3EDF00FB1
:1008F000EFB404D9900130E004F0301F030209D2B4
:100900003007030209D2900236E07002A3E06003D0
:100910000209D290022BE07002A3E060030209D228
:100920007816E2FE08E2FFC394ACEE940D501890E6
:1009300034A574019324CEFDE49334FFFCD3EF9DE2
:10094000EE9C40030209D2900273E064036003024C
:1009500009D290027A1203C9FFFFFFFFE4900275EB
:10096000F0900274F0900274E0FFC39404502D756F
:10097000F004EF90016312148B90027A120343D3B8
:10098000120286400F900274E0A3F01214859002C8
:100990007A1203B1900274E004F080C99001A8E0DB
:1009A000121485E47B1E12159E5037900275E0905C
:1009B00001A8F0A3E09001391213F69001A41214DB
:1009C000A6C006C0079001A8E075F0029001391298
:1009D0000413121527D007D0061201459001A41266
:1009E00003B1900273E0B403169001A8E075F00221
:1009F0001215D5E0FFA3E09000C6CFF0A3EFF09072
:100A000001A412032B9000C7E02FFF9000C6E03E28
:100A1000900161F0A3EFF09001A8E0A3F0900273C1
:100A2000E0FF90013112142D75F002EF90013912A0
:100A30000413ECF0A3EDF07A017993121491741081
:100A4000F09001611215707A017973122F617B01A8
:100A50007A0179737D101224E6AF41AE40AD3FAC10
:100A60003E9001940203B1900269EEF0A3EFF0E42E
:100A7000A3F0D3900226E09400900225E094004079
:100A800006121BDE020CA2900217E0FEA3E0FFD3C9
:100A90009400EE94005005121B5F401E121BB740DD
:100AA000089001BCEAF0A3EBF09001BCE0FDA3E0EC
:100AB0007814CDF208EDF2020CA8200003020B7BA3
:100AC000D390021AE09400900219E09400500302BF
:100AD0000B7B121BB740089001BCEAF0A3EBF0D3EC
:100AE000EF9400EE94005005121B5F4003020BA32D
:100AF000121B6C5069EDAE047802CEC313CE13D82E
:100B0000F9FFC3EB9FEA9E40069001BFE0604F12E1
:100B10000CFF4015900269E0FEA3E07802CEC313FB
:100B2000CE13D8F9121BED5035A215301401B34085
:100B30002D121C6108121BB09FEC9E5009C3EF944C
:100B400004EE94294018D3EF9404EE942950030244
:100B50000CA8D3ED9404EC94295003020CA8900146
:100B6000BF7401F090026BF0D37813E2940418E2A2
:100B7000942940157815E2940418E29429500A74D7
:100B800029F2087404F2020CA88028200003020C49
:100B90000B9001BCE0FEA3E0121BAED39FEC9E4085
:100BA000089001BCECF0A3EDF0121B925005121B53
:100BB0005F4006121C16020CA8121B6C5051EDAEC1
:100BC000047802CEC313CE13D8F9FFC3EB9FEA9E7D
:100BD00040069001BFE06037120CFF400E900269A2
:100BE000E013FEA3E013121BED5024A215301401F4
:100BF000B3401C121C61FF7815E29F18E29E40036F
:100C0000020CA8C3EF94F8EE942A4003020CA890BB
:100C100001BF7401F0121C16020CA29000701203A6
:100C200043C000121C61FFE4FCFDD00012013890AB
:100C300000701203B1900076E475F0011200BD90CF
:100C40000269E0FEA3E0C3121BEE50387808E2FE12
:100C500008E2FF90004AE0FCA3E0FD12341AD3EF53
:100C60009414EE9400501DA215301401B340159059
:100C70000229E0FEA3E0FFD3900228E09F90022724
:100C8000E09E4034900076E0FEA3E0FFFBAA06E47D
:100C9000F9F890007012032B1201DE121C41400E75
:100CA0007815E22FFF18E23EC313FEEF13FFEE129A
:100CB0001C1E90026B7401F090026BE06050E49097
:100CC0000076F0A3F09000701203C900000000E469
:100CD0009001BAF0A3F09034A593FE7401937802CA
:100CE000CEC313CE13D8F92410FFEE3427FED390D1
:100CF00001BDE09F9001BCE09E40077427F0A37403
:100D000010F0121BDE121C4F900227121BA022783B
:100D100008E2FE08E2FF90004AE0FCA3E0FD123486
:100D20001AD3EF9414EE940022E490028BF0EF704B
:100D300003020ED21233329001A01203C900000048
:100D400000E490028CF09002911203C900000000B0
:100D500090028CE0FF122EAF121D1290028D120332
:100D6000B1E490028AF090028D12032B90028CE085
:100D700075F00C900079120413C083C08290028A2F
:100D8000E0D082D08375F0041204131203B1121D57
:100D900024E0B403D1785790028D121D0190028D8A
:100DA0001203B190028CE0FF9000BE121C6990000B
:100DB000C8121C68900131121C6875F002EF900196
:100DC00039121C6C75F004EF9000D012041312035A
:100DD000C9009C400090028CE0FB75F0049001413A
:100DE0001204131203C9009C4000121CAA75F004DF
:100DF000EB9001511204131203B1E490028AF090B7
:100E0000028AE0FFC3940A501590028CE075F0143A
:100E10009000E0120413121C68121D2480E190025D
:100E200091120343121CAA1201389002911203B1CD
:100E300090028CE004F0C394045003020D40900132
:100E400061121C6F9000C6121C6F900161E0FEA33E
:100E5000E0FF90028BE075F002900173120413EE34
:100E6000F0A3EFF09001A0120343900161E0FEA314
:100E7000E0FFE4FCFD1201389001A01203B19002E2
:100E80008BE004F0C394105003020D31121D2E901C
:100E90000194121D2B900198121D2B78061202AAA4
:100EA00090019C1203B1E49001A8F0A3F0A3F0908C
:100EB00001A41203C900000000E490028AF090022D
:100EC0008AE0FFC39405500F75F002EF9001AD1258
:100ED0001C6C121D2480E79001B8121C6FE4900274
:100EE000C2F0900194121CAD90006A1203B1900000
:100EF000701203C900000000E4900076F0A3F078BF
:100F0000147427F2087410F278127427F20874101F
:100F1000F2E47816F208F2900207F0A3F09001AB29
:100F2000121C6FE49001BAF0A3F09001C0121C6F84
:100F3000A31203C90009C4009001C6121C6FA312BA
:100F400003C90009C4009001D0740AF09001E012B6
:100F50001C6F9002031203C9000000009001DE1212
:100F60001C6F9001E41203C900000000E490028AA3
:100F7000F090028AE0FB75F0049001E8120413126D
:100F800003C90000000075F002EB9001D1121C6C47
:100F9000121D24E0B406DAE490023EF0A3F0A3F0C0
:100FA000A3F0900251F0A3F0A3F0A3F0900201F09F
:100FB000A3F02290020BE0900210F0121B92500559
:100FC000121B5F4007E490020BF0800812293B904F
:100FD000020BEFF0121C4140030211A390020BE040
:100FE000FF122F9AEF700D121B925008121B5F50C8
:100FF000030211A390020CE07044900063F0A3F090
:10100000900251F0A3F0C21EC2121226EE1232C795
:101010007F011231AB121C25401E30140DEF7803F6
:10102000CEC313CE13D8F9FF800EEEC4F854F0C827
:1010300068FEEFC4540F48FF120A570211289000AF
:1010400063E07002A3E07013900063121BE17F174E
:101050001231AB900251EEF0A3EFF0900251E0702C
:1010600004A3E06401702A900063E0FEA3E0FF2483
:1010700096FDE43EFC7808121BC14004D21E80118C
:10108000EF246AFFEE34FFFEC3EB9FEA9E5002D2CC
:1010900012301E36121B4B50030211281211A440AD
:1010A000030211281211BACEC313CE13D8F9121BA2
:1010B000FA7F151231AB7C007D031200AB90024D1C
:1010C000EEF0A3EFF0C21E02112830121B121B4BD0
:1010D00040661211A450611211BACEC313CE13D8B8
:1010E000F9121BFAC212805030164D121B4B4048A9
:1010F00012341AC39034A57401939FE4939E503820
:10110000900207E0FEA3E0FF7816E2FC08E2FD1281
:10111000341AAA06AB07900207E0FEA3E0FF7C00AA
:101120007D031200ABEF7802CEC313CE13D8F9C300
:101130009BEE9A500312282430002E121B4B40299C
:1011400012341AAC06AD07900207E0C313FEA3E009
:1011500013C39DEE9C50127F141231ABEF7802CE78
:10116000C313CE13D8F9121BFA90024BE07004A3FC
:10117000E06401700312282490020CE0FFA3E06FEA
:101180006031122E6390020EE030E421D3121B5F17
:101190005005121B934009E4900225F0A3F0800D46
:1011A0007F071231AB900225EEF0A3EFF090020C16
:1011B000E0A3F02212341AAC06AD07900207E0C398
:1011C00013FEA3E013C39DEE9C227F141231ABEFFC
:1011D000780222900211E475F0011200BDD3900252
:1011E00016E09400900215E0940040031232ECD314
:1011F000900218E09400900217E09400400312322D
:10120000ECD390025AE09400900259E0940040031D
:101210001232ECD390021CE0940090021BE0940088
:1012200040031232ECD390021EE0940090021DE0C5
:10123000940040031232ECD3900224E09400900218
:1012400023E09400400F1232EC900223E07002A3DE
:10125000E07002D210D3900222E09400900221E0CC
:10126000940040031232ECD3900220E094009002EC
:101270001FE0940040031232EC90020BE030E011CA
:10128000E4900225F0A3F0A3F0A3F0A3F0A3F08074
:1012900042D3900226E09400900225E09400401A88
:1012A0001232EC900225E07002A3E0700D7F0B1269
:1012B00031AB900229EEF0A3EFF0D390022AE09434
:1012C00000900229E09400400A900227E475F001A2
:1012D0001200BDD390022EE0940090022DE0940005
:1012E00040031232ECD3900237E09400900236E0D3
:1012F000940040031232ECD3900239E09400900243
:1013000038E0940040031232ECD390023BE09400AA
:1013100090023AE0940040031232ECD390023DE098
:10132000940090023CE0940040051232EC800D7F66
:10133000101231AB90023CEEF0A3EFF0D390023FDD
:10134000E0940090023EE0940040031232ECD3900F
:101350000241E09400900240E0940040031232EC1D
:10136000D3900243E09400900242E09400400312C4
:1013700032ECD390024EE0940090024DE094004095
:10138000031232ECD390024CE0940090024BE094B4
:101390000040031232ECD3900250E0940090024FD0
:1013A000E0940040031232ECD3900252E09400909B
:1013B0000251E0940040031232ECD3900254E094C6
:1013C00000900253E0940040031232ECD390022CC0
:1013D000E0940090022BE0940040031232ECD39092
:1013E000021AE09400900219E0940040031232ECDB
:1013F000227F9C74FFFE90026CFDFC120343D3021B
:101400000270E09000BE75F002120413E0FEA3E04B
:10141000FFE4FCFD22E47FE87E03FDFC12034302AF
:1014200001539001BDE02FFF9001BCE03EFED39040
:10143000026DE09F90026CE09E229000C875F00261
:10144000120413E0FCA3E0FD2290005CE0245DF5B3
:1014500082E43400F58322F075F0049001E8120470
:10146000131203439001E412032B02014590026919
:10147000E075F00CA42479F9740035F0FA7B0122B0
:10148000EEF0A3EFF090026EE02403F0E075F006BA
:1014900084AFF0EF2290016375F00412041302038D
:1014A0002B7B01900281120438900284229001E487
:1014B00012032B90027A120343020138A3F0D39057
:1014C0000218E09400900217E0940022900256E087
:1014D000A4FFAEF0C3900277E09F900276E02290E6
:1014E000028D1203B190028512034390028D120304
:1014F0002B0201DED390021AE09400900219E094CE
:10150000002290028112042F02005EFFE4FCFDFE27
:1015100012034F1201537807020297FD9000C8751D
:10152000F00202041324FFFFEE34FFFE3395E0FDCA
:10153000FC12035C020153E0FEA3E0FBAA06E4F9FF
:10154000F82274FF7FF1FEFDFC90026C120343C38E
:1015500002027012042F7401020077D390021EE081
:10156000940090021DE094002275F004A4F5828599
:10157000F083229002731204389002767403F022F2
:10158000E0FFA3E0900285CFF0A3EFF022120297D4
:101590008F278E268D258C24221202978F278E2648
:1015A0008D258C24227857E6FFE4FCFDFE22FAF913
:1015B000F8C3020286C3900279E09F900278E0228D
:1015C000E0FF74017E00A80708221203B19002898F
:1015D00002032B1203379002770203B175F0041255
:1015E00004130203B19000BE0204139001E402034D
:1015F0002B9001BE7401F0227B017A0179C2E4FCD8
:10160000FD9002787405F0122C269001C0EEF0EFE8
:101610001214AC400280339001AB1213FCC006C020
:10162000079001C0121527D007D00612014590027D
:101630006C1203B1E47FFA1213E5400690027002C7
:101640001687E47FB41213E540099002707405F028
:1016500002168AE47F641213E540028012121532EA
:101660004008900270740AF080301213E140089034
:1016700002707408F080237F4C1213E3400890023C
:10168000707406F0801474FF7F061213E5900270E8
:1016900040057404F080037401F0300066E47F902C
:1016A0007E011213E640099002707404F00216F3F2
:1016B000E47FC81213E540089002707407F080437D
:1016C000E47F641213E54002801D1215324002804F
:1016D000051213E14008900270740AF0802574FF2F
:1016E0007F4C1213E540089002707408F080147467
:1016F000FF7F381213E590027040057406F08003F6
:101700007403F0900270E09001D0F09001AB1213DE
:10171000FC900270E0900278F07B017A0179C812A7
:101720002C2690026AEEF0A3EFF090023AE07002ED
:10173000A3E060030217A87F0F1231ABEEC313FEC4
:10174000EF13FF90023AEEF0A3EFF07B017A0079FD
:101750005C1214937406F07808E2FF08E2A3CFF05D
:10176000A3EFF07A007950122F617B017A0179DDC5
:101770001214937406F090026A1215707A0179D1EE
:10178000122F617B017A0279009002741204389062
:1017900002777406F01215DB9002781203B17A0119
:1017A00079E812300A7816E2FF08E2900207CFF0DB
:1017B000A3EFF0121439E4F090026AE0FEA3E0FF18
:1017C00022E490026AF07B017A00793D1215637879
:1017D000001215C37A007931122FD37B017A007978
:1017E000311218D27B3212159E500690026A740193
:1017F000F09002C2E0900269F0E490026BF01214E3
:101800005DC002C0017A0079A9121563780A121529
:10181000C3D001D002122FD312145D1218D27BF460
:101820007A0112159F500690026B7401F03000454A
:1018300090026AE07004A3E0603BD21A7B017A0058
:1018400079311218A0785612159790026C12140C68
:10185000780712029778041203BD12145D1218A0C3
:1018600012159590026C12140C7807120297780EDC
:101870001203BD8038C21A7856E678001214FB783D
:10188000041203BD7804120337EC4D4E4F70037FF2
:1018900002227857E6780A1214FB780E1203BD78FC
:1018A0000E120337EC4D4E4F70037F02227F04224D
:1018B0007D03122035C3E5419539FFE5409538FE9B
:1018C000E53F9537FDE53E9536FCC3EF953DFFEED0
:1018D000953CFEED953BFDEC953AFC90026C1203B5
:1018E000B1227D03122035C3E539953DFFE53895DA
:1018F0003CFEE537953BFDE536953AFCE422900247
:10190000731203B11214AE405B90027312032B905A
:10191000003E1203B1E47F5AFEFDFC90003E12141B
:101920000C780A1202979000421203B1E490027CF4
:10193000F090027CE0FFC39404502975F00CEF9006
:101940000081120413120343C000121595D0001237
:10195000150390027CE09000AA1215CC90027CE066
:1019600004F080CD90027BE09000AA121488E47B02
:101970000FFAF9F8120153780A1202979000BA127E
:1019800003B190004212034390003E121457C0046A
:10199000C005C006C00790004212034390027312B4
:1019A00014579002851203B19002891203C90001F5
:1019B0000000D007D006D005D00412259B90004629
:1019C0001203B19000BA120343900277121457C069
:1019D00004C005C006C0079002851203C9000100BB
:1019E0000090004612032B9002891203B1D007D059
:1019F00006D005D00412259B90027D1203B1900001
:101A0000BA12032BAB07AA0690027D12032BEF2B11
:101A1000FBEE3AFA90027BE0F975F0049001511266
:101A2000148BC3EB9FFFEA9EFE75F002E91215D5F9
:101A3000EEF0A3EFF022439F04E453C6DFE5C600B7
:101A4000B5C6F375830075820775FD0DE4E5FEF4F8
:101A5000FF75830075820675FD0DE4E5FEB507048C
:101A6000F59E8003759E0078100000D8FC53C6E0F8
:101A700043C60843C6807596077597097583007538
:101A8000820475FD0DE5FD0404F58F7583007582F4
:101A90000375FD0DE4E5FEF4FF75830075820275A4
:101AA000FD0DE4E5FEB50704F59580037595837596
:101AB000BE0E5392FE9001007F007E02E4F0A3DF91
:101AC000FCDEFA78007F00E4F208DFFC78FFE4F641
:101AD000D8FD7581C0021B06020000022645E49372
:101AE000A3F8E493A34003F68001F208DFF4802911
:101AF000E493A3F85407240CC8C333C4540F442000
:101B0000C8834004F456800146F6DFE4800B0102EE
:101B1000040810204080903404E47E019360BCA34C
:101B2000FF543F30E509541FFEE493A360010ECF3C
:101B300054C025E060A840B8E493A3FAE493A3F866
:101B4000E493A3C8C582C8CAC583CAF0A3C8C58226
:101B5000C8CAC583CADFE9DEE780BE7816E2FC08A2
:101B6000E2FD900207E0FEA3E0FFD39DEE9C2290F1
:101B7000021CE0940090021BE0940022900076E4A6
:101B800075F0011200BD900269E0FCA3E0FDECC31A
:101B900013FEED13FF900076E0FAA3E0FBC39FEA8B
:101BA0009E22D3900218E09400900217E094002245
:101BB000F0A3F0A3F0A3F0227814E2FE08E278127A
:101BC000FFE2FC08E2FD229001BCE0FCA3E0FD780E
:101BD00012E2FA08E2FBD39DEA9C229034A5E4933A
:101BE000FE740193FFC37819E29F18E29E229000D1
:101BF0004A7808E2FF08E2CFF0A3EFF022D3FF908B
:101C00000077E09F900076E09E2290024BFFEEF07E
:101C1000A3EFF022900230E475F0011200BDFCD376
:101C2000E5F09FEC9E229001BCE0FFA3E0CF78148A
:101C3000F208EFF222D3900220E0940090021FE01D
:101C40009400227814E2FE08E2FFD394F8EE942A7E
:101C500022D390025AE09400900259E0940022E4CA
:101C6000900230F0A3F022C37815E29DFF18E29CA9
:101C7000227812E2FE08E222EF75F00212041374D9
:101C800027F0A37410F0221201539002691203B1DD
:101C900090024712034390026912032B1201DE786F
:101CA000081202979002691203B17F0FE4FEFDFC57
:101CB000900269120343D302028690028D12032B15
:101CC000EF24F0FFEE34D8FEED34FFFDEC34FFFCE2
:101CD0002290001BE090349C932290026912032B07
:101CE000C3EF940FFFEE9400FEED9400FDEC940022
:101CF000FC9002690203B175BBFF75A9A075AC0326
:101D000075ADC075AEC022E5BAF053BA0F43BA1034
:101D100022E6FFE4FCFDFE120343120153780702A2
:101D200002971231DA90001BE0FF022B0C90006941
:101D3000E042F42290028AE004F0221203B1900102
:101D4000A002032B900069E0FFF452F4EF428022DE
:101D5000E0F5B3A3E0F5B2A3E0F5B12290001AE0FC
:101D600090349C93F5AB2275BF0F43B92053B9FD56
:101D70002290026E12032B90026A2290026E1203CE
:101D80002B90026A223011151234B6745AF07F0A71
:101D90001231AB900221EEF0A3EFF0C211A2149227
:101DA000153002028020D3900218E09400900217B0
:101DB000E094005011900222E09400900221E094FF
:101DC00000500320100A1234B6745AF0C21480086E
:101DD0001234B67403F0D214301418900255E0B4E3
:101DE00001047F018007900255E07004FF123179F1
:101DF000123353A215301401B3502890020CE06046
:101E000012D2167812E2FF08E2900257CFF0A3EF49
:101E1000F080107F021231AB90021FEEF0A3EFF0C2
:101E20001228242014173015147F031231ABEEC38F
:101E300013FEEF13FF900259EEF0A3EFF07812E2D9
:101E4000FE08E2FF900257E0FCA3E0FDD39FEC9E6A
:101E50004012ED9FFFEC9EFED3EF94DCEE94054024
:101E60000312282490020CE0700F3016031228246D
:101E7000C216E4900257F0A3F022E490028BF0EF38
:101E8000607B1233329000291203C9000000001257
:101E900031DA900029122B04120138900029120324
:101EA000B190028BE004F0C3941040E3E0FFFBE448
:101EB000FAF9F890002912032B1201DE90028C121D
:101EC00003B1785690028C121D0178041203BDE410
:101ED00090028AF090028AE0FBC39403501F9002A4
:101EE0008C12032BEB25E025E02431F582E434004D
:101EF000F5831203B190028AE004F080D7780412CF
:101F00000337EF24D0FFEE348A121CB7900025125D
:101F100003B190004A7475F0A37430F0A31203C9A2
:101F2000001D4C00E490028AF090028AE0FFC39406
:101F3000065027EF25E02450F582E43400F5837441
:101F400075F0A37430F0745D2FF582E43400F583EE
:101F5000E4F090028AE004F080CFE490005CF07836
:101F6000087475F2087430F22220CA03022034E5A6
:101F7000467003022034E4FF74462FF8E6FE746ACC
:101F80002FF582E43402F583EEF0E4F60FEFB405AA
:101F9000E790026AE0FF54F0FEEF540F900269F000
:101FA000AF06EF24A0602424F0602824D0603824F9
:101FB000E0700302202824E0700302202B249060AC
:101FC000030220347853E6440180057853E654FE3A
:101FD000F68061E4FF1233A87855EFF67851BFFF21
:101FE0000376062276FF22900269E0FD700B78539B
:101FF000E630E250123266803BEDB4010B7853E6D6
:1020000020E241123271802C900269E0FDB402118D
:102010007853E630E22E1232669002557401F08059
:1020200013ED6403701E7853E620E218123271E457
:10203000900255F0751C0222022824E4900217F049
:10204000A3F0D21F22900270120438900273EDF0B8
:10205000E4F528F527F526F52574FFF52CF52BF585
:102060002AF529E4F530F52FF52EF52DF52490020B
:1020700073E0FFE524C39F507090027012042F7527
:10208000F004E524A4F58285F0831202BD8F348E1E
:10209000338D328C31AF28AE27AD26AC25D3123329
:1020A00005400C853428853327853226853125AFB8
:1020B0002CAE2BAD2AAC29C3123305500C85342C21
:1020C00085332B85322A853129E5302534FFE52FEC
:1020D0003533FEE52E3532FDE52D35318F308E2F2F
:1020E0008D2EF52D052402205E852839852738851B
:1020F0002637852536852C3D852B3C852A3B852931
:102100003A853041852F40852E3F852D3E900273C4
:10211000AF30AE2FAD2EAC2D1232F3227B077A07F3
:1021200090026A1203C900000000123332EB601AF9
:1021300074017E00A803088005C333CE33CED8F9DE
:10214000FFADACEF5D70031B80E3EA601A74017EA3
:1021500000A802088005C333CE33CED8F9FFADAE58
:10216000EF5D70031A80E3AF037401A807088002D3
:10217000C333D8FCF5AC7401A802088002C333D87D
:10218000FCFFF5AD8FAE53AACF43AA0490026912AB
:102190001CF7121CC142AB121D1290026E1203B149
:1021A000121D6B120343C31202865006121D6B12DE
:1021B00003B190026A120343C00090026A12032B1B
:1021C0007803120297D00012013890026A1203B10C
:1021D00090026A12032B9000651203B143AA305398
:1021E000AAFB900269E0F5BA121CC1F452AB121CB2
:1021F000ED227B077A0790026A1203C900000000F3
:10220000123332EB601A74017E00A803088005C304
:1022100033CE33CED8F9FFADACEF5D70031B80E356
:10222000EA601A74017E00A802088005C333CE3329
:10223000CED8F9FFADAEEF5D70031A80E3AF037443
:1022400001A807088002C333D8FCF5AC7401A802CA
:10225000088002C333D8FCFFF5AD8FAE53AACF90F0
:102260000269121CF71231DA122B0790026E120368
:10227000B1121D61120343C31202865006121D6182
:102280001203B190026A120343C00090026A120363
:102290002B7803120297D00012013890026A1203C1
:1022A000B190026A12032B9000201203B143AA30AE
:1022B000900269E0F5BA121CED22C0E0C0F0C083C4
:1022C000C082C0D075D008C2CFD21130CD03022356
:1022D0006620CC6030CB2285CE4FE54FC394804042
:1022E0001675F003E54F9028381204131204418B41
:1022F0004C8A4D894E8063807385CE35E54F7022C0
:10230000E535B410099002C3E0F452808066E535EB
:10231000B420089002C3E042808059853546054FBD
:102320008052E54FC3940550077446254FF8A635F3
:10233000054F8040E54FB4C0057546C08036E54F77
:10234000B4C2107853E630E2057546A08026754683
:10235000A18021E54FC394804010784CE475F001D2
:1023600012041F12005EF5CE800A054FE54B254F83
:10237000F8E6F5CED210D0D0D082D083D0F0D0E025
:1023800032900286ECF0A3EDF0E4FD900201E070E3
:1023900034C3EF940AEE940040061214397401F02D
:1023A000121439E07002C21DE4FF745D2F12143F55
:1023B000E07004C21D80130DEDB40602D21D0FEFB4
:1023C000B406E78005121439E4F0900240E0700290
:1023D000A3E0705790023EE07002A3E0704D9002BF
:1023E00001E0701B301D187F111231AB90023EEEE0
:1023F000F0A3EFF09002017401F0D21BC21D2290F5
:102400000201E064017036C3900287E0940A9002F2
:1024100086E0940050277F121231AB7C007D0C12B5
:1024200000AB900240EEF0A3EFF022900240E0708B
:1024300004A3E064017006900201F0D21C22123362
:102440003290026A121CF778001203FA00000000B2
:102450009002697405F075ABFF1231DA780012034F
:102460004F122B0712013878001203BDE4F5AB12AE
:1024700031DA7800120337C004C005C006C0071265
:102480002B07A804A905AA06AB07D007D006D005DC
:10249000D00412014578001203BD900269E014F0E7
:1024A000E070B3780012034F7F007E817D297C00AD
:1024B0001201DE90026B1203B190026B12032B909B
:1024C000028A1203B17F967E007D007C001230E10B
:1024D000E47B32FAF9F8C3120286500678567696F3
:1024E000800A90026B12032B7856A60790026AE0CE
:1024F000F5BA121D4C2290027E120438900281ED32
:10250000F0E4F525F52674FFF527F528E4F52EF51A
:102510002DF52CF52BF524900281E0FFE524C39FD7
:10252000505990027E12042F75F002E524A4F58222
:1025300085F0831200D3F52A85F029D39526E52965
:1025400095254006852925852A26C3E52A9528E56F
:102550002995275006852927852A28E4FCFDE52EA4
:10256000252AFFE52D3529FEED352CFDEC352B8F89
:102570002E8E2D8D2CF52B0524809CE48526398507
:102580002538F537F53685283D85273CF53BF53A66
:10259000852E41852D40852C3F852B3E900281AFB5
:1025A0002EAE2DAD2CAC2B1232F3229002811203F1
:1025B000B1E47BE87A03F9F89002811214DE90020C
:1025C000911203B1900291121405A804A905AA065C
:1025D000AB079002811214579002951215BA90021F
:1025E0009112140C1214CF9002991203B19002852B
:1025F00012032B90029912140CA804A905AA06AB89
:102600000790028D12145790029D1215BA900295F0
:1026100012140C90028D1203B190028D120343C06C
:1026200000C001C002C00390029D121405D003D067
:1026300002D001D0001201381214CF9002A112036F
:10264000B1E47FE87E03FDFC90029912140C900225
:10265000A11214A62212000E1234C31234A9122E93
:1026600015123372123114123459D2AF751C01E5B0
:102670001C24FE601E14603614605614606024042E
:10268000706712348C1234301234461233BF7F0418
:10269000122F27D2D8E4900211F0A3F09002A5F0F7
:1026A000A3F0123077E51D70FC1233D68036D2D8F5
:1026B000E51D70FC1217B18F1C121D759002C2E04F
:1026C000900078F09002C204F01230411233D680AC
:1026D0001B1232A28F1C12278A1211C3800E120FF6
:1026E000A312322C751C038003751C01120057E5E0
:1026F0001C6404700302265F121F5902265F9002B9
:1027000025E07002A3E06003022789300054121B09
:10271000A8C39FEC9E5049121C57900269F0FCA37D
:10272000EFF0FD9034A5E493C313FE74019313FFFF
:10273000D3ED9FEC9E40297F051231ABEF25E0FFE2
:10274000EE33FE121C044051121C4F900253E070F5
:1027500002A3E070449001BFE06401703C022824B1
:102760008032121BA8C39FEC9E502B121C57FE9068
:102770000269F0A3EFF0D39432EE940040167F0587
:102780001231ABEEC313FEEF13FF121C04400A120A
:10279000282480028000121C4F227F809034A5E400
:1027A00093FC740193FD12347C7F829034A57401F4
:1027B0009324CEFDE49334FFFC12347C7F847D644B
:1027C0007C0012347C7F8A3018187D397C301234BA
:1027D0007C7F887D397C3012347C7F8C7D397C30E5
:1027E000801F7812E2FC08E2FD12347C7F887816A4
:1027F000E2FC08E2FD12347C7F8C7814E2FC08E2F3
:10280000FD12347C7F9AC00790025B12325ED007C3
:1028100012347C7F98C00790025F12325ED007129C
:10282000347C7F9CC00790026312325ED007123462
:102830007C022BCEE51D70FCE4FF121E6AE4FF1241
:102840000D19E490020CF090020EF090022FF0901F
:102850000225121BA0A3F0A3F090022DF0A3F0908C
:102860000232121BA0A3F0A3F090022BF0A3F09071
:102870000238121BA0900063F0A3F09001BEF0A3F9
:10288000F0A208300001B350227F041231AB900255
:102890001BEEF0A3EFF07F041231ABEF7802CEC352
:1028A00013CE13D8F990021D121BFD30001D9002AB
:1028B0001DE07002A3E070137814742AF20874F813
:1028C000F29001BC7427F0A37410F022780E12036A
:1028D0003790026E1203B17804120337122EED9076
:1028E00001A01203B190006A12032B9001A0120301
:1028F00043C312028650037F02229001A012032BD1
:10290000122D249001ABEEF0A3EFF09001C6E0FF92
:10291000A3E09001DECFF0A3EFF09001ABE0FEA3C7
:10292000E0FF1215E89001C6EEF0FCA3EFF0FD7891
:1029300008E2FE08E2FF1204929001E0EEF0A3EF3D
:10294000F07812EEF208EFF27F0522E4900269F0CF
:1029500090020CE07044121C2540389001B8E0FE53
:10296000A3E0FF9001ACE09FFF9001ABE09EFEE48E
:10297000FCFD90026A1203B19034A5E493FE740149
:1029800093FFE4FCFD90026A120343D312027040ED
:102990002D8024121BCB4026801D301607121BCB26
:1029A000401C80139034A574019324CEFFE493342B
:1029B000FFFE121BD54007900269E04401F090022F
:1029C00069E0FF9002C1F022010079FE000E0100D3
:1029D000BE0100C80101A40101610101A00101AB18
:1029E0000101C00101C60101E0FE0012FE0014FE5B
:1029F0000016FE0018FE0000FE000401003E01006B
:102A000042010046FE000801025F01026701026FF9
:102A100001027701023C0100E001016301025B0158
:102A200002630101A80100D001016301020101025A
:102A30003E010240010217900244E030E109122AEF
:102A400076201803122A86900244E054FDF090028A
:102A50000EE0540FFF6027900244E0FE30E206785B
:102A60005FA6078010EE30E31C90020EE0540FC406
:102A700054F0785FF6201806122A76122A86900201
:102A800044E054F3F022C2107F081231AB900223CD
:102A9000EEF0A3EFF022C2927F217E007D007C0049
:102AA000123390D292229002861203B1E47F607EAC
:102AB000EA9002861213E94004D2078002C207E4BA
:102AC0007FFF7EFFFDFC9002861213EB400C90020C
:102AD000861203C90000FFFF8033E4FFFEFDFC9077
:102AE00002861213EB5026122824301E167F151270
:102AF00031AB7C007D031200AB90024DEEF0A3EFF2
:102B0000F0C21E9002861203C900002710900286B0
:102B100012032B2212034390001AE0FFEFC3940428
:102B2000500553B9EF800343B910EF6003B4040BB1
:102B300085B71985B61A85B51B803AEF6401600424
:102B4000EFB4050B85EB1985EA1A85E91B8026EFA2
:102B500064026004EFB4060B85F31985F21A85F15F
:102B60001B8012EF64036004EFB4070985FB19852D
:102B7000FA1A85F91BAF1BAE1AAD19AC1822C0E0CA
:102B8000C0F0C083C082C0D075D01053B9FDE51D20
:102B900064017022122B0778001203BD121D1D7FE5
:102BA000011233109002C2E0FF122EAF43B901D2DE
:102BB000D8751D05801DE51D64057017121D15785B
:102BC0000A1203BD121CC1F452AB53AAFB121D34EE
:102BD000751D00D0D0D082D083D0F0D0E032E47F19
:102BE000557E06FDFC780012034F121C774003123D
:102BF0001CCA7FFF121C9C400678C076FF800A909A
:102C0000026912032B78C0A607E47FF17E09FDFC60
:102C1000900081120343121C774003121CCAE47F08
:102C2000FF121C9D4005788E76FF229002691203E8
:102C30002B788EA607229002741203B190027112B3
:102C4000043890027412032B78061202AA900274C0
:102C50001203B19002781215B08005C333CE33CE83
:102C6000D8F91215159002741214A6900278E0F9A2
:102C7000F812157D90027112042F1202EDAF27AEEB
:102C800026AD25AC24780612157D22900281120310
:102C9000B190027E12043890028112032B780A123E
:102CA00002AA9002811203B19002851215B080052C
:102CB000C333CE33CED8F91215159002811214A663
:102CC000900285E0F9F812158990027E12042F1205
:102CD00002EDAF27AE26AD25AC24780A1215892265
:102CE0009002471203C900000000E4FF123203758E
:102CF000ABFF1231DA900247122B04120138900216
:102D0000471203B1E4F5AB1231DA90024712032BFC
:102D1000C004C005C006C007122B07A804A905AA55
:102D200006AB07D007D006D005D0041201459002AB
:102D3000470203B190006A120343120145122A961A
:102D400090026AEEF0A3EFF07A0179B71214917451
:102D500005F0A3EEF0A3EFF07A0179AD122F61A296
:102D600015301401B350157B017A0179AD7D051240
:102D700024E69001B8E544F0A3E545F090026AE04E
:102D8000FEA3E0FF2230001C1214E440177814E286
:102D9000FE08E2FF900209E0FCA3E0FDD39FEC9E59
:102DA000402180147814E2FE08E2FF7812E2FC0869
:102DB000E2FDD39FEC9E400BED9F7817F2EC9E183E
:102DC000F28006E47816F208F27816E2FF08E208CC
:102DD000CFF208EFF222C0E0C0F0C083C082C0D0C2
:102DE00075D000C000C28D758C32758AEB9002A53B
:102DF000E475F0011200BDC39002A6E094149002A5
:102E0000A5E094004012900211A3E0785AF69002D7
:102E100011E4F0A3F0120004D000D0D0D082D0830F
:102E2000D0F0D0E032E4FF1233A87855EFF67851B5
:102E3000BFFF047606800276FFE4785FF67852766C
:102E40003408F69034A593FE740193FF7880A606AB
:102E500008A607EF24CE7883F6EE34FF18F67884C0
:102E60007600087664E4123254F6123254765A75BB
:102E70004B5022A907E4FEFD900244E0FC703FEFB6
:102E80005401FB90020DE054016B600D30020A20EA
:102E90001807EC4402900244F090020DE030E00686
:102EA000EE4410FE8004EE4401FEE930E006ED44FD
:102EB00001FD8004ED4410FDEE5D90020EF0221243
:102EC0001D1D9002C2E0D394034002E4F0EF1460B1
:102ED0001214601714601D24037021121CC1F452D7
:102EE000AB800D121CC1F452AB800E121CC142AB60
:102EF00053AAFB22121CC142AB43AA042290026ACD
:102F00001203B1900078E0900272F090026E12030A
:102F10002B9002771203B1900272E090027BF09046
:102F2000026A12032B1218EE900272E0FF1207944D
:102F300090019412032B22EF6003D38001C3920A05
:102F400092027853A607900213E4F0A3745AF07F1C
:102F5000091231AB900217EEF0A3EFF07F19123196
:102F6000AB7C007D031200AB900219EEF0A3EFF0F2
:102F700022900285E0FEA3E0FFC003C002C0011260
:102F800014F275F00212155CD001D002D003EE8F5E
:102F9000F012010B9002811215431214F2FF9002FD
:102FA00084E0B50704E4120099227E05EF5401FD88
:102FB00090020CE054016D6007EFF0E490022FF0F6
:102FC0007853E630E00890020CE070027E28900210
:102FD0002FE004F0C39E50037F002290022FEEF0FA
:102FE0007F012290027712032BC003C002C0019020
:102FF00002731214F5121559D001D002D003120336
:10300000079002731215439002731214F5FF900299
:1030100076E0B50704E41200992290027812032B9F
:10302000C003C002C0019002741214F5121559D0E9
:1030300001D002D0031203079002741215439002CC
:10304000741214F5FF900277E0B50704E4120099BA
:1030500022121D1DE4FF123203121CFA75BB0190EF
:103060000069E0FF900024E04FF5B4E4F5B3F5B259
:1030700075B110121D5753BAFE43B901D2D8E5B944
:1030800030E1FBE4F5BF227853E6F520A2083000DA
:1030900001B350147F041231AB90021BEEF0A3EF8A
:1030A000F0122824A2009208A20A300201B35004B0
:1030B000A202920A301305122824C213220005012D
:1030C00008020203010401050106060701080109BF
:1030D0000A0A010B010C030D050E0A0F0110011164
:1030E0000A123C13011401153C1601173C18021971
:1030F0003C9002861203B190028A12032B90028642
:10310000120343D3120286400B90028A12034390AB
:103110000286800990028612034390028A12032BD2
:103120001201452243F80875CD4053CC7F43CC4073
:1031300043CC2043CC1043CC0453CCFD43CB0243BF
:10314000CB0153CBBFD2EB53E5FC43E30243F50382
:1031500043900343ED032290002512032BAB07AAF3
:10316000067804120337C3EF9BFFEE9AFE7B017AC9
:1031700000794CE4FCFD9002787408F0122C26785B
:1031800008EEF208EFF27F0522E4F51D53B9FD5376
:10319000B9DF43CC02C2D9539FFD438760C28DEF94
:1031A000700675BD0D75BC0112346B75BE0CD28CEA
:1031B00020C90343870300000000227D017C00EF4B
:1031C000C3941A5020EF25E024AEF582E43430F5A4
:1031D00083E493FF7E00900213E0FCA3E0FD120065
:1031E000ABAC06AD07AE04AF0522121D1D75BF0FB7
:1031F00000000000000000000000000000000000CF
:103200000000D2D853B9FD43B901E5B930E1FBE480
:10321000F5BF2253BA0F43BA30121CE7900024E0E6
:10322000F5B4EF700AF5B375B27575B130800690DC
:103230000021121D40121D4C53AAFB2290020FE0E8
:10324000FF90020EE0FE6F6014300204785FA60665
:10325000E4FF1231AB90022BEEF0A3EFF090020EE0
:10326000E0A3F02208F608F608F608F60822120392
:103270002BAD07AC062254FBF6900244E04408F064
:10328000224404F6900244E04404F02290001AE044
:1032900090349C93FF900024F090001BE090349CAD
:1032A00093FE900069F0EF4E42D442F442E4F452AF
:1032B000DC229002697405F01231471228BC90029A
:1032C00069EFF0BF0205D213E0FF22122D75120044
:1032D0003E900269E0FF22300010121C335019C3E7
:1032E000EF9428EE94235013800E121C335009C320
:1032F000EF9428EE942350031228242274FFF5F053
:103300000200BDE0FBE4FAF9F81201DE8F458E44BD
:103310008D438C4222AB34AA33A932A831020286F3
:1033200053BA0F43BA20121CE7900069E0F5B4EFDE
:103330007009F5B375B2AF75B1C822900066121D61
:10334000402253BAFEE5B920E004E51D6005E5B969
:1033500030E1FBE4F5BF53B9FD53B9FE121D34E46F
:10336000F51D22E4900269F075BE0E439F027F03B3
:10337000FEFDFC12339075BC02E4F5BFD2D953CCEC
:10338000FD22438901C28DD2A953B8FD12000390DA
:103390000211F0A3F0758C32758AEBD28CD2AF2279
:1033A00090026A1203B190026A74FF12037EEC4D20
:1033B0004E4F60030080EF22E4FFF582F5837440F6
:1033C000FEE493F42FFFA3EEB583F6227F0022E400
:1033D000900223F0A3F07F0A1231AB900221EEF0AD
:1033E000A3EFF0D21022121D1D7F01123203751DB2
:1033F00001121D5743BA0143B901D2D82243D50463
:1034000053F5FB53E5FB43E30443ED04E49002442E
:10341000F0D2922241001A0541001B0644001CFF15
:10342000FFFFFF04180000000000D3EF9DEE9C405A
:1034300007EF9DFFEE9CFE22C3ED9FFFEC9EFE2258
:10344000E4FF12320312242E1221E27F0112320312
:10345000121E6A022CD0E4FF1233101234BD122166
:103460000C7F01123310020D199034A7E493FF74FE
:10347000019390006ECFF0A3EFF022438901C28C3C
:10348000C28F120003758CFB758AED2220C90CC215
:10349000AFA807A60408A605D2AF222275AA3B53FF
:1034A000BAF343BA0C43B92053B9BF22010204084E
:1034B000102040807901C20064C2DA53D80F43D88B
:1034C000D0D2D8D2D922900213E4F0A3227856E6C3
:1034D00008F62212327C0233EDFFFFFFFFFFFFFFF1
:1034E000FFFFFFFFFFFFFFFFFFFFFFFFFFFFFFFFEC
:00000001FF
