:1000000001100A002800000020350000FF00000059
:10001000021567E4900223F0A3F022022D827E05F0
:10002000900190E06F6007EFF0E49001AAF090017A
:1000300090E070027E029001AAE004F0C39E50039B
:100040007F00229001AAEEF07F012202286C53BAB1
:10005000FEE5B920E004E51D6005E5B930E1FBE40B
:10006000F5BF53B9FD53B9FEF51D22021D6EBB014C
:100070000689828A83E0225002E722BBFE02E32245
:1000800089828A83E49322BB010989828A83F8E00A
:1000900028F022500327F722BBFE05F8E328F322BD
:1000A0008A838982F8E4932822BB010689828A83A5
:1000B000F0225002F722BBFE01F322EF8DF0A4A83C
:1000C000F0CF8CF0A428CE8DF0A42EFE22C5F0F83F
:1000D000A3E028F0C5F0F8E582158270021583E0F0
:1000E00038F022BB0110E58229F582E5833AF583D9
:1000F000E0F5F0A3E0225009E92582F886F008E651
:1001000022BBFE0AE92582F8E2F5F008E222E58347
:100110002AF583E993F5F0A3E99322F8BB0111E5F1
:100120008229F582E5833AF583E8F0E5F0A3F02231
:100130005009E92582C8F608A6F022BBFE09E92588
:1001400082C8F2E5F008F222EF2BFFEE3AFEED391D
:10015000FDEC38FC22C3EF9BFFEE9AFEED99FDEC1F
:1001600098FC22E88FF0A4CC8BF0A42CFCE98EF054
:10017000A42CFC8AF0EDA42CFCEA8EF0A4CDA8F00F
:100180008BF0A42DCC3825F0FDE98FF0A42CCD35D3
:10019000F0FCEB8EF0A4FEA9F0EB8FF0A4CFC5F03D
:1001A0002ECD39FEE43CFCEAA42DCE35F0FDE43C36
:1001B000FC2275F008758200EF2FFFEE33FECD3381
:1001C000CDCC33CCC58233C5829BED9AEC99E582C8
:1001D00098400CF582EE9BFEED9AFDEC99FC0FD554
:1001E000F0D6E4CEFBE4CDFAE4CCF9A88222B80044
:1001F000C1B90059BA002DEC8BF084CFCECDFCE50F
:10020000F0CBF97818EF2FFFEE33FEED33FDEC3332
:10021000FCEB33FB10D703994004EB99FB0FD8E5B7
:10022000E4F9FA227818EF2FFFEE33FEED33FDEC00
:1002300033FCC933C910D7059BE99A4007EC9BFCF6
:10024000E99AF90FD8E0E4C9FAE4CCFB2275F01082
:10025000EF2FFFEE33FEED33FDCC33CCC833C810A7
:10026000D7079BEC9AE899400AED9BFDEC9AFCE8D5
:1002700099F80FD5F0DAE4CDFBE4CCFAE4C8F92222
:10028000EB9FF5F0EA9E42F0E99D42F0EC6480C8F5
:1002900064809845F022EB9FF5F0EA9E42F0E99DDC
:1002A00042F0E89C45F022E8600FECC313FCED132C
:1002B000FDEE13FEEF13FFD8F122E86010ECA2E789
:1002C00013FCED13FDEE13FEEF13FFD8F022E860F0
:1002D0000FEFC333FFEE33FEED33FDEC33FCD8F10B
:1002E00022BB010DE58229F582E5833AF5830203FD
:1002F0003F5007E92582F80204B4BBFE07E92582D6
:10030000F802034BE58229F582E5833AF58302047E
:10031000C0BB010789828A830203C55005E9F80240
:1003200004EDBBFE05E9F80203D122BB010DE58215
:1003300029F582E5833AF5830203C55007E9258252
:10034000F80204EDBBFE07E92582F80203D122E0A2
:10035000FCA3E0FDA3E0FEA3E0FF22E2FC08E2FD37
:1003600008E2FE08E2FF22E0F8A3E0F9A3E0FAA326
:10037000E0FB22E2FB08E2F908E2FA08E2CBF8220D
:10038000BB010789828A830203575005E9F80204FA
:10039000D0BBFE05E9F802036389828A830204DD8B
:1003A0007401FF3395E0FEFDFCA3A3A3E0CF2FF083
:1003B000E582158270021583E0CE3EF0E58215825B
:1003C00070021583E0CD3DF0E58215827002158341
:1003D000E0CC3CF022ECF0A3EDF0A3EEF0A3EFF0C4
:1003E00022ECF208EDF208EEF208EFF222A8828584
:1003F00083F0D083D0821203F41203F41203F412B8
:1004000003F4E473E493A3C583C5F0C583C8C58230
:10041000C8F0A3C583C5F0C583C8C582C822D083F0
:10042000D082E493F208740193F208740293F20804
:10043000740393F2740473A42582F582E5F0358386
:10044000F58322FAE6FB0808E6F925F0F618E6CA75
:100450003AF622E0FBA3E0FAA3E0F922EBF0A3EAEC
:10046000F0A3E9F022E493FB740193FA740293F988
:1004700022D083D082F8E4937012740193700DA39C
:10048000A393F8740193F5828883E47374029368EC
:1004900060EFA3A3A380DFEC8EF0A4CCC5F0CCCD9D
:1004A000F8EFA4CEC5F02DFDE43CFCE8A42EC8C5B1
:1004B000F03DFDE43CFCEFA4FFE5F028FEE43DFD4B
:1004C000E43CFC22E6FC08E6FD08E6FE08E6FF2226
:1004D000E493FC740193FD740293FE740393FF2272
:1004E000E6FB08E6F908E6FA08E6CBF822E493F81A
:1004F000740193F9740293FA740393FB22ECF608E7
:10050000EDF608EEF608EFF6221214D44033782404
:1005100012034B9000911203C5900091121528A967
:1005200005A80490305EE493FE740193FFEE3395CA
:10053000E0FDFC120153780A1202AA9000991203FE
:10054000C590009912033F9000911214A3C004C0FB
:1005500005C006C00790009912033F782412036378
:100560001201389002031203C59002071203DD0046
:10057000010000D007D006D005D0041224979000C7
:10058000951203C59002031203DD000100009000E4
:100590009512033F9002071203C5782E12034B12E7
:1005A00024979000EE1203C5201A059000EE8029D2
:1005B0009000F2E0C394045005E02404800690000B
:1005C000F2E024FC9001F1F09001F1E025E025E05B
:1005D00024F3F582E43400F58312033F9001F31213
:1005E00003C57A0079F21214B77408F09001F3127F
:1005F000033F1214F97A0009122EF67B017A007972
:10060000F37D08121E4BAF41AE40AD3FAC3E9001B2
:10061000131203C59000B1121528A80490011312FB
:1006200014AF9001F71203C59001F712033FEC33AA
:1006300050037F02229001F712153CD31202704042
:100640000A9001F71203DD0000FFFF9001F712038B
:100650003F90011712147F7A01792312144E74050A
:10066000F0A3EEF0A3EFF07A017919122F38A2155A
:10067000301401B350157B017A0179197D051220E0
:10068000A6900124E544F0A3E545F07B017A0179C9
:100690002A1214E2E4FCFD9002067404F01229D23E
:1006A00090012812147F1214D440099001F27405AD
:1006B000F002077130000302076B90012EE0FEA3E9
:1006C000E09001FB121530A3F0A3EFF0D39490EE6D
:1006D000648094814006E49001F280261214CCD309
:1006E00094C8EE6480948040079001F274058012F3
:1006F0001214CCD39464EE6480948040159001F27F
:100700007408F07F0E12319A9001B9EEF0A3EFF069
:10071000806F1214CCC394F1EE6480947F401290E9
:1007200001B9E0FEA3E04E70089001F2740AF08077
:10073000501214CCFFD3949CEE6480947F400790B9
:1007400001F274078010D3EF9438EE6480947F40F8
:10075000099001F27406F0E48019D3EF9470EE640E
:1007600080947E40099001F27404F0E48005E490E6
:1007700001F2F09001B9F0A3F080069001F2740349
:10078000F09001F2E0900134F090012EE0FFA3E040
:10079000900187CFF0A3EFF01214E2E4FCFD90018A
:1007A000F2E0900206F07B017A0179301229D290B2
:1007B000012EEEF0A3EFF09001C7E0FEA3E04E7033
:1007C000437F1512319A9001C7EEF0A3EFF07A0142
:1007D000793B12144E7403F090012E1214FF7A012B
:1007E0007935122F387B017A0079A91214507403DD
:1007F000F07828E2FF08E2A3CFF0A3EFF07A0079C7
:10080000A3122F3890018DE0FEA3E090012E121567
:100810003090013C121480900140E0FCA3E0C39FA3
:10082000EC9E502A1214E2900140EEF0A3EFF02467
:10083000E7FFEE34FFA3F0A3EFF09001FBA3E02469
:10084000F4FFEE34FF90013EF0A3EFF0803B900107
:10085000FBE0FAA3E0FB900142E0FEA3E0D39BEEB5
:100860009A40269001FBE0FCA3E0FD2419FEE43C45
:10087000900140F0A3CEF0A3ECF0A3EDF0240CFE29
:10088000E43A90013EF0A3CEF07B017A0179841224
:1008900014507420F090013E1214FF7A0179441232
:1008A0002F387B017A0179447D201220A6900185A2
:1008B000E538F0A3E539F090013EE0FFA3E078329F
:1008C000CFF208EFF27F0522900195E07003020A53
:1008D00068D39001B8E094009001B7E0940040091B
:1008E000121784120A800209EFD39001C2E094002B
:1008F0009001C1E0940040051217848007120A801D
:10090000F0A3EFF0900189E0C313FEA3E013783663
:100910001217964012ED94DCEC9405501E9001BF26
:10092000E07002A3E070147F1112319A7C007D0AFE
:100930001200AB9001BFEEF0A3EFF0D39001C0E046
:1009400094009001BFE0940040031217849000A926
:10095000E025E024A3F582E43400F583E0FCA3E085
:10096000FD7828E2FE08E2FF1234579001F0EEF025
:10097000A3EFF090013BE0FF700CEF25E02439F588
:1009800082E43401800D90013BE025E02433F582C0
:10099000E43401120A989001F21203C590013BE081
:1009A00025E02435F582E43401120A989001F6120C
:1009B00003C59001F612033F9001D01203C59001C8
:1009C000F212033F9001D41203C59001F0E0FEA3A0
:1009D000E0FFE4FCFD9001D81203C59001BFE07078
:1009E00002A3E06003020A7F9001C3E07002A3E06B
:1009F0006003020A7F7F641216EF4008120AAEF00D
:100A0000A3EFF022E47F231216EF500BE47F509007
:100A100001F61216F24057C39001F1E094089001DC
:100A2000F0E09400402112177B1217231200BD7FC3
:100A30001412319A9001C5EEF0A3EFF09001DC1290
:100A400017349001DC8024D39001C6E0940090011B
:100A5000C5E09400400512177B8017120AAEF0A380
:100A6000EFF09001E01217349001E00203C5121775
:100A70007BC31217230200BDE4900189F0A3F0FFAD
:100A800012319A9001B7EEF0A3EFF0E412169A2219
:100A90007F1012319A9001C1EEF0A3EFF07836E2A8
:100AA000FF08E2900189CF22F583E0FCA3E0FD90EE
:100AB000012EE0FEA3E0FF123457E4FCFD227F1379
:100AC00012319A9001C3EE22E49001FDF0EF700321
:100AD000020B9812003E9001131203DD000000008B
:100AE0009001FDE05403FF9001FBF0122FF2120D74
:100AF0001A9001FE1203C5E49001FCF09001FE1271
:100B0000033F9001FBE075F00CA424BDF582E434B2
:100B100000F583C083C0829001FCE0D082D0837551
:100B2000F0041204271203C5120D63E0B403CD785C
:100B30005EE6FFE4FCFDFE9001FE120CC49001FE97
:100B40001203C59001FE12033F9001FDE025E02550
:100B5000E024F3F582E43400F5831203C590011319
:100B600012033F9001FE1203571201389001131235
:100B700003C59001FD120DCC5003020AD0E4900190
:100B8000FCF0120DDA94055014EF25E02419F582DB
:100B9000E43401F583120C8C120D6380E59001247E
:100BA000120C8CE490023FF090011312033F120CE0
:100BB000F69000B11203C59000B51203DD000000ED
:100BC00000E49000BBF0A3F07834120D8578321267
:100BD0000D85E47836F208F2900117120C8CE4903F
:100BE0000126F0A3120C8AA31203DD001D4C009015
:100BF000012E120C8CA31203DD001D4C0090013459
:100C0000740AF0E49001FCF0120DDA94035014EF32
:100C100025E02435F582E43401F583120C8C120DA5
:100C20006380E590013C120C84A3120C8490018532
:100C3000120C8CE49001FCF0120DDA94205014EFA9
:100C400025E02444F582E43401F583120C8C120D66
:100C50006380E5900187120C8CE490018DF0A3F085
:100C6000221201539001F11203C59001CC120357D7
:100C70009001F112033F1201DE78081202979001F1
:100C8000F11203C57F0FE4FEFDFC9001F112035742
:100C9000D30202867475F0A37430F0A37475F0A3C8
:100CA0007430F022120357900067E0FF0229709021
:100CB000006BE090302D932253BA0F43BA4075BBBE
:100CC000FF75A9C075AC0175AD4075AE4022E6FF59
:100CD000E4FCFDFE120357120153780702029790BD
:100CE00001F112033FC3EF940FFFEE9400FEED9469
:100CF00000FDEC9400FC9001F10203C5E5BAF0534D
:100D0000BA0F43BA1022EF24D0FFEE348AFEED343E
:100D1000FFFDEC34FFFC22EB25E025E02400F82267
:100D200025E025E02408F802034B12325690006BB0
:100D3000E0FF0229709001F202033F25E025E02444
:100D40004BF822A804A905AA06AB0722E47B32FAD5
:100D5000F9F8C3020286FFF5AD8FAE53AACF221277
:100D600003D19001F1E004F0221203D19001F2E0EE
:100D700004F0229001FCE004F022E0F5B3A3E0F5DA
:100D8000B2A3E0F5B12274017E00A8030822120389
:100D900057C30202867475F2087430F2229000671D
:100DA000E090302D93F5AB2275AC0375ADC075AEF8
:100DB000C022E4F5AB0232569001F302033F9001EA
:100DC000F612033F9001F2229001F512033F9001C9
:100DD000F1229001F512033F9001F122E004F0C3EB
:100DE0009408229001F2E025E0229001FCE0FFC38C
:100DF000229001F0EEF0A3EFF0E4A3F0D39001B263
:100E0000E094009001B1E09400400612175E020EDB
:100E1000F33000541216FC4008900126ECF0A3EDCC
:100E2000F01216A9500512168D4003020E6F12160D
:100E3000B7502F9001BEE064016027782890009D94
:100E40001216D5120F2C400F9001F0E013FEA3E014
:100E500013D31216C9500BA215301401B34003026C
:100E60000EF91216E0020EF31216A9500512168D95
:100E700040131216FC4008900126ECF0A3EDF0128E
:100E800016E0020EF99001BEE0B40109900185124E
:100E900016E3020EF39000B5120357C0007832E259
:100EA000FE08E2FFE4FCFDD0001201389000B5120C
:100EB00003C51216B750317828E2FE08E2FF900011
:100EC0009DE0FCA3E0FD120F2C501DA21530140173
:100ED000B340159001B5E0FEA3E0FFD39001B4E06C
:100EE0009F9001B3E09E40219000BBE0FEA3E0FF95
:100EF000FBAA06E4F9F89000B512033F1201DEEEFA
:100F00001216E89001F27401F09001F2E0602CE416
:100F10009000BBF0A3F09000B51203DD00000000CC
:100F2000E4900126F0A3F012175EE49001BEF09069
:100F300001BCF0A3F09001B31216A122123457D3D2
:100F4000EF9414EE940022E49001F3F0EF700302AA
:100F50000FDC12003EE49001F2F09001F2E0FFC3DA
:100F600094025010EF120D2B12040E00000000121C
:100F70000D5C80E6123256E49001F2F09001F2E04E
:100F8000FF120D2BC000122961120138D000120D82
:100F900059E0C3940240E59001F3120DCC40D5E432
:100FA0009001F2F09001F3E0FFE4FCFDFEC004C00C
:100FB00005C006C0079001F2E0120D2B12034BD0C2
:100FC00003D002D001D0001201DE9001F41203C55B
:100FD0009001F2E0245BF89001F4120CBE120DD3E4
:100FE00025E02408F8120D59E0B402B8E49001F2AB
:100FF000F09001F2E0FFC394024003021088EF1268
:101000000D10E47B107A27120D409001F2E0FB50A6
:1010100027120D10EF24F0FFEE34D8120CFDEB2553
:10102000E025E0243FF81203D1120DD32410F87408
:1010300027F2087410F2801D25E025E0243FF81205
:10104000040E00000000EB120D10120DD32410F856
:10105000EEF208EFF29001F2E0FB120D2B12040EFB
:1010600000000000EB25E02457F8E4F208F29001BC
:10107000F2E0FF25E02410F8E2FC08E2FDEF25E0B5
:101080002414F8ECF208EDF2E025E02418F8E4F27C
:1010900008F2E004F0020FE1229001F0EEF0A3EF7D
:1010A000F0E49001F3F09001F2F09001F2E0FBC364
:1010B0009402400302116A9001B0E094009001AFE5
:1010C000E0940040109001F212235F12040E000021
:1010D0000000021161EB25E02458F9E3700219E3E6
:1010E00070081223731223E080309001F2E0FD2596
:1010F000E02453122394ED122378123457C3900145
:10110000CBE09F9001CAE09E50101223731223E09F
:1011100012235F12040E000000009001F2E012237F
:101120006BC00012034BC006C0079001F2E025E03F
:1011300024101223D4D007D006120138D000120395
:10114000D19001F2E0FF25E02457F808E22401F2F3
:1011500018E23400F2EF25E02458F99001F0E0FEA7
:10116000A3E0FFC3E39F19E39E40069001F3E00470
:10117000F09001F2E004F002109A9001F3E06402B2
:1011800070649001F2F09001F2E0FFC394025054B9
:10119000EF25E024571223944E6049E4FCFDC0047F
:1011A000C005C006C007E012236B12034BD003D06A
:1011B00002D001D0001201DE9001F2E0FD25E02412
:1011C00014F8EEF208EFF2ED25E02457F8E4F20807
:1011D000F2ED12236B12040E000000009001F2E009
:1011E00004F080A2C2172290019AE475F001120067
:1011F000BDD390019FE0940090019EE094004003D5
:10120000123315D39001A1E094009001A0E0940066
:101210004003123315D39001A3E094009001A2E0A3
:1012200094004003123315D39001B0E09400900174
:10123000AFE094004003123315D39001A9E094006D
:101240009001A8E09400400F1233159001A8E070BF
:1012500002A3E07002D210D39001A7E094009001A5
:10126000A6E094004003123315D39001A5E094004A
:101270009001A4E094004003123315900194E030F3
:10128000E011E49001B1F0A3F0A3F0A3F0A3F0A368
:10129000F08042D39001B2E094009001B1E094005C
:1012A000401A1233159001B1E07002A3E0700D7F77
:1012B0000D12319A9001B5EEF0A3EFF0D39001B684
:1012C000E094009001B5E09400400A9001B3E47509
:1012D000F0011200BDD39001BAE094009001B9E092
:1012E00094004003123315D39001C4E094009001A0
:1012F000C3E094004003123315D39001C6E094007C
:101300009001C5E094004003123315D39001C8E06A
:1013100094009001C7E0940040031233152230017D
:101320003FE49001F0F09001F0E0FB245BF8E6FF71
:10133000E4FCFDFEEB25E025E02400F81214749097
:1013400001F0E0FB1215181203D1EB12151812155B
:101350002070037F02229001F0E004F0E0B402C6A6
:101360009001F21203DD000000007A00799012145F
:10137000B77403F078201214F67A007984122EF6EE
:101380007B017A0079841214257B32FA12155A50A7
:101390000A9001F21203DD0000000190023FE0908C
:1013A00001F1F09001F61203DD0000000012148D2F
:1013B000C002C0017A0079ED1214B97403F0782AE2
:1013C0001214F6D001D002122EF612148D1214252A
:1013D0007BF47A0112155A500A9001F61203DD00CF
:1013E00000000130001C9001F212033FEC4D4E4F03
:1013F000700C9001F612033FEC4D4E4F6004D21A70
:101400008030C21A785DE6782012146F78241203B7
:10141000D1782412152070037F0222785EE6782AA4
:1014200012146F782E1203D1782E12152070037FBC
:1014300002227F04227D03121E4BC3E539953DFF36
:10144000E538953CFEE537953BFDE536953AFCE4FD
:1014500022E47FE87E03FDFC1203570201537B0167
:1014600090020212044C9002052290020B1203C556
:1014700090020312035790020B12033F0201DEFF9A
:10148000E4FCFDFE1203631201537807020297EE9B
:10149000F0A3EFF09001FBEEF0A3EFF0229001F14A
:1014A000E075F00CA424BDF9740035F0FA7B01223C
:1014B0009001F6120357020138A804AA06AB07A947
:1014C0000512033F0201457B0190020212044C9079
:1014D00002052290020212044302005E9001FDE028
:1014E000FEA3E0229001A0E0FEA3E0D39400EE94DE
:1014F00000229001FBE0FEA3E0FF2225E02418F883
:10150000E2FE08E2FF2212034B9002060203C5E04E
:10151000FFA3E0900206CFF0A3EFF0221202978F14
:10152000278E268D258C242225E025E02408F8220C
:1015300012034BEC4D4E4F2212033FAB07AA06227B
:10154000FFE0FCA3E0C39FFFEC9EFE22E47FFF7E52
:10155000FFFDFC02035725E02414F8E2FC08E2FD3D
:10156000221203C590020702033FF9F8C302028664
:10157000F8EEF208EFF222439F04E453C6DFE5C61B
:1015800000B5C6F375830075820775FD0DE4E5FEB1
:10159000F4FF75830075820675FD0DE4E5FEB50761
:1015A00004F59E8003759E0078100000D8FC53C699
:1015B000E043C60843C68075960775970575830096
:1015C00075820475FD0DE5FD0404F58F75830075C6
:1015D000820375FD0DE4E5FEF4FF7583007582025C
:1015E00075FD0DE4E5FEB50704F59580037595835B
:1015F00075BE0E5392FE9001007F007E02E4F0A3C0
:10160000DFFCDEFA78007F00E4F208DFFC78FFE41C
:10161000F6D8FD7581C502164702000002215BE481
:1016200093A3F8E493A34003F68001F208DFF4806B
:1016300029E493A3F85407240CC8C333C4540F44BB
:1016400020C8834004F456800146F6DFE4800B0195
:1016500002040810204080903339E47E019360BC7E
:10166000A3FF543F30E509541FFEE493A360010E2D
:10167000CF54C025E060A840B8E493A3FAE493A354
:10168000F8E493A3C8C582C8CAC583CAF0A3C8C575
:1016900082C8CAC583CADFE9DEE780BED39001A352
:1016A000E094009001A2E09400229001BFF0A3F02A
:1016B000A3F0A3F0A3F0A3F022D39001A1E0940043
:1016C0009001A0E09400229000BBE475F0011200AC
:1016D000BD9001F0E0FEA3E0C3FF9000BCE09F904E
:1016E00000BBE09E22E2FE08E2FFE0FCA3E0FD2258
:1016F000900126E0FFA3E0CF7834F208EFF22290C9
:1017000001F2FEFDFC120357C3020270900126E0B5
:10171000FEA3E0FF900117E0FCA3E0FDD39FEC9E49
:10172000229001BCE475F0011200BDFCD3E5F09FEE
:10173000EC9E2290012FE09FFF90012EE09E9001F1
:101740008D8FF02212033FEF2401FFE43EFEE43DC3
:10175000FDE43CFC22FEC37839E29F18E29E22E2BF
:101760009DFF18E29CFE9001F0F0A3EFF022782894
:10177000E2FF08E290009DCFF0A3EFF022D39001AA
:10178000A5E094009001A4E0940022900187E0FE7F
:10179000A3E0FF2274FFF5F00200BD90303EE49319
:1017A000FE740193FF22FFE2FC08E2FDC39FEC9E62
:1017B0002290303E74019322E49001F0F0123190B7
:1017C000246BFBEE25E025E02408F812034B780497
:1017D000120297AD07AC06AF031234BD123190244C
:1017E00067FFEE25E0241CF81218AC9001F0E0042D
:1017F000F0E0C3940240C67F7B785DE6FD7C00127A
:1018000034BD7F77C007782412034BAD07AC06D0F8
:10181000071234BD7F8390012EE0FCA3E0FD12345B
:10182000BD7F7F90013CE0FCA3E0FD1234BD7F85CD
:101830001231721234BD7F8790303E74019324D8E8
:10184000FDE49334FFFC1234BD7F897D647C00127B
:1018500034BD7F8F3018187D397C301234BD7F8DB8
:101860007D397C301234BD7F917D397C30801A788F
:10187000321218AC7F8D7836E2FC08E2FD1234BDDE
:101880007F917834E2FC08E2FD1234BD7F9FC007EF
:101890009001D012317DD0071234BD7F9DC00790DA
:1018A00001D412317DD0071234BD7FA1C007900151
:1018B000D812317DD0071234BD022D2AE2FC08E295
:1018C000FD1234BD2212003E9001F2120CECE490A5
:1018D00001F0F09001F0E0FFC394025013EF120DFD
:1018E0000812040E000000009001F0E004F080E314
:1018F0009001F07405F0123253E49001F1F0900180
:10190000F1E0FF120D08C000122961120138D00069
:10191000120D4FE0C3940240E5120DA2E49001F1D4
:10192000F09001F1E0FFC39402502FEF120D08C0B8
:101930000012034BC004C005C006C0079001F1E0CF
:101940002463122967120D33D007D006D005D004C6
:10195000120145D000120D4F80C79001F0E014F045
:10196000E07093E49001F1F09001F1E0FBC3940288
:1019700050519001F31203DD00148200120DA812E1
:101980000D071203631201DE9001F31203C5120D5D
:10199000A89001FB1203C57F807E007D007C0012B1
:1019A000309F120D3C500B9001F1E0245BF87680E3
:1019B000800C120DA89001F1E0245BF8A607120D2F
:1019C0005280A59001F2E0F5BA229001F07407F080
:1019D000FB9001F21203DD0000000012003E9001B6
:1019E000F0E0FF601F74017E00A807088005C33384
:1019F000CE33CED8F9FFADACEF5D70089001F0E0CA
:101A000014F080DAEB6016120D768005C333CE3306
:101A1000CED8F9FFADAEEF5D70031B80E79001F00B
:101A2000E0FF7401A807088002C333D8FCF5AC744A
:101A300001A803088002C333D8FC120D469001F1BF
:101A4000120CEC123256E49001F0F09001F0E0FF3D
:101A5000C39402501F1229649001F61203C5120D9F
:101A6000AE120D7E5006120DAE1203C59001F0E0CD
:101A700004F080D79001F2120357C000120D2578B0
:101A800003120297D0001201389001F21203C5121E
:101A90000D25783A1203D1120D2578101202978F76
:101AA000B3120D2578081202978FB2120D258FB14F
:101AB00043AA309001F1E0F5BA120D9822E4FDED51
:101AC00025E0300509244EF582E4343080072436C1
:101AD000F582E43430F583E493FE740193122351CC
:101AE000EEF0A3EFF00DEDB402D5E4FD74017E003D
:101AF000A805088005C333CE33CED8F9FF900192F4
:101B0000E0FBEF5B7003021B80ED25E0245B1223FA
:101B10009412239B402AD3EB942CEA9401ED400EBF
:101B200025E0245BF87401F208742CF2801225E0A1
:101B3000241C122394ED25E0245BF8EEF208EFF26A
:101B4000ED25E02446F582E43430F583E493FE7419
:101B50000193FFED25E0241DF9D3E39F19E39E4097
:101B6000431223BACEC313CE13D8F9122351E0FA8D
:101B7000A3E0D39FEA9E4009122352E0FEA3E08037
:101B80000A1223BACEC313CE13D8F91223AB801492
:101B9000122352E0FEA3E01223ABED25E0245BF814
:101BA000E4F208F20DED64026003021ADC2220CA9E
:101BB00003021C8EE5467003021C8EE4FF74462F60
:101BC000F8E6FE74F12FF582E43401F583EEF0E4DB
:101BD000F60FEFB40AE79001F1E0FF54F0FEEF5486
:101BE0000F9001F0F0AF06EF1204611BF4501BFBE5
:101BF000601C02701C19901C5AA01C39B01C8BC0B0
:101C000000001C8E7858E64401805C7858E654FE4B
:101C10008055E4785AF6FF123412785AEFF6785667
:101C2000BFFF03760A2276FF229001F0E0FF700AE0
:101C30007858E630E16854FD802DEF6401705F78DC
:101C400058E620E1594402801E9001F0E0FF700A3E
:101C50007858E630E54854DF800DEF6401703F7836
:101C600058E620E5394420F6802D9001F0E0FD7023
:101C7000127858E630E22754FBF69001C9E0440898
:101C8000F08014EDB401177858E620E2114404F610
:101C90009001C9E04404F0751C0222122EB022E427
:101CA0009001F1F09001F1E0FF121546EF25E024DC
:101CB000101214EFD39DEE9C4014E0121546C3EFB2
:101CC0009DFFEE9CFEE4FCFDA31203C5800A90017B
:101CD000F21203DD000000009001F212033F7807CA
:101CE0001202BE9001F21203C59001F1E01214EB52
:101CF000E4FCFD78071202BE9001F61203C59001C4
:101D000090E070127F03FEFDFC9001F21214481265
:101D100014A07802800B9001F212033F1214A078F5
:101D2000011202979001F61203C59001F612033FCB
:101D300078071202979001F1E0FD25E024181215B2
:101D400060ED1214EB7C007D64120487C006C007AE
:101D5000E025E02447F8E2FE08E2FBAA06E4F9F8F1
:101D6000D007D0061201DE9001F1E025E0241C121C
:101D70001560E004F0E064026003021C9422C0E0FD
:101D8000C0F0C083C082C0D075D008C2CFD211309D
:101D9000CD03021E4020CC6130CB2385CE54E554C8
:101DA000C39480401675F003E554902A4612042728
:101DB0001204558B518A5289538079021E3685CE82
:101DC00035E5547022E535B41009900240E0F45234
:101DD00080807BE535B42008900240E04280806E30
:101DE00085354605548067E554C3940A5007744608
:101DF0002554F8A63505548055E554B4C0057546FC
:101E0000C0804BE554B4C1107858E630E105754602
:101E100090803B7546918036E554B4C2107858E600
:101E200030E2057546A080267546A18021E554C3A1
:101E3000948040107851E475F00112043312005E72
:101E4000F5CE800A0554E5502554F8E6F5CED210BB
:101E5000D0D0D082D083D0F0D0E0329001FF1204F5
:101E60004C900202EDF0E4F528F527F526F52574EF
:101E7000FFF52CF52BF52AF529E4F530F52FF52E95
:101E8000F52DF524900202E0FFE524C39F507090E9
:101E900001FF12044375F004E524A4F58285F08364
:101EA0001202D18F348E338D328C31AF28AE27ADF4
:101EB00026AC25D312332E400C8534288533278554
:101EC0003226853125AF2CAE2BAD2AAC29C3123377
:101ED0002E500C85342C85332B85322A853129E50B
:101EE000302534FFE52F3533FEE52E3532FDE52D67
:101EF00035318F308E2F8D2EF52D0524021E7485E1
:101F00002839852738852637852536852C3D852B2C
:101F10003C852A3B85293A853041852F40852E3FD7
:101F2000852D3E900202AF30AE2FAD2EAC2D123378
:101F30001C227B077A079001F11203DD00000000EC
:101F400012003EEB6016120D768005C333CE33CE01
:101F5000D8F9FFADACEF5D70031B80E7EA601A743F
:101F6000017E00A802088005C333CE33CED8F9FF26
:101F7000ADAEEF5D70031A80E3AF037401A80708EC
:101F80008002C333D8FCF5AC7401A802088002C3F8
:101F900033D8FC120D4643AA049001F0120CEC1247
:101FA0000C9F42AB120D1A9001F51203C5120DC21F
:101FB000120D7E5006120DC21203C59001F11203DC
:101FC00057C0009001F112033F7803120297D0002E
:101FD0001201389001F11203C59001F112033F90F4
:101FE00000AC1203C543AA3053AAFB9001F0E0F500
:101FF000BA120C9FF452AB120CB4227B077A0790F2
:1020000001F11203DD0000000012003EEB60161229
:102010000D768005C333CE33CED8F9FFADACEF5D7E
:1020200070031B80E7EA601A74017E00A802088032
:1020300005C333CE33CED8F9FFADAEEF5D70031AD2
:1020400080E3AF037401A807088002C333D8FCF50E
:10205000AC7401A802088002C333D8FC120D46906C
:1020600001F0120CEC123256120C979001F512038B
:10207000C5120DB8120D7E5006120DB81203C59090
:1020800001F1120357C0009001F112033F780312CF
:102090000297D0001201389001F11203C59001F1AE
:1020A00012033F9000731203C543AA309001F0E081
:1020B000F5BA120CB4229001FF12044C900202ED0A
:1020C000F0E4F525F52674FFF527F528E4F52EF55F
:1020D0002DF52CF52BF524900202E0FFE524C39F9B
:1020E00050599001FF12044375F002E524A4F582D3
:1020F00085F0831200D3F52A85F029D39526E529AA
:1021000095254006852925852A26C3E52A9528E5B3
:102110002995275006852927852A28E4FCFDE52EE8
:10212000252AFFE52D3529FEED352CFDEC352B8FCD
:102130002E8E2D8D2CF52B0524809CE4852639854B
:102140002538F537F53685283D85273CF53BF53AAA
:10215000852E41852D40852C3F852B3E900202AF78
:102160002EAE2DAD2CAC2B12331C2212327C12342D
:10217000F71234DD1226521233C01230D21232F06E
:10218000D2AF751C01E51C24FE6021146039146077
:102190004F146059240470661234CD12346D123419
:1021A000831234991234297F02122F79D2D8E49005
:1021B000019AF0A3F0900223F0A3F01223F6E51D9C
:1021C00070FC1232CB8032D2D8E51D70FC12130E97
:1021D0008F1C1225C390023FE004F01232CB802105
:1021E000122FB78F1C1217A81211D78014300103B9
:1021F0001226E1122203122AA6751C038003751C05
:1022000001123502E51C64047003022175121B9E45
:10221000022175900194E0900199F01216A95005E1
:1022200012168D4007E4900194F080081227679001
:102230000194EFF0900194E0FF123066EF700A1203
:1022400016A9500512168D4071900195E0702E125E
:1022500028EC7F0212319A12176D401E30140DEFD8
:102260007803CEC313CE13D8F9FF800EEEC4F85412
:10227000F0C868FEEFC4540F48FF120DE11208B811
:10228000900195E0FFA3E06F6030122DD19001978F
:10229000E030E42012168C50051216AA4009E49092
:1022A00001B1F0A3F0800D7F0812319A9001B1EED8
:1022B000F0A3EFF0900195E0A3F02212003E900110
:1022C000F1120CEC782012040E000000009001F0D6
:1022D0007405F01232537820120363120C97120126
:1022E0003878201203D1120DA2782012034BC004BB
:1022F000C005C006C007120C97120D33D007D006D8
:10230000D005D00412014578201203D19001F0E0ED
:1023100014F0E070BE78201203637F007E177D11F9
:102320007C001201DE9001F21203C59001F212034B
:102330003F9001FB1203C57FB47E007D007C00123C
:10234000309F120D3C5006785D76B4800A9001F201
:1023500012033F785DA6079001F1E0F5BA120D8DEA
:1023600022FFED25E024F0F582E43401F58322E03C
:10237000FF25E02457F8E4F208F2EF25E025E024F9
:102380004BF8229001F2E0FF25E02410F8E2FC086F
:10239000E2FD229001F1E025E024ABF582E4340176
:1023A000F583E422F8E2FE08E2FF22ED25E0241C9A
:1023B000F8E2FA08E2FBD39FEA9E22FFED75F008EF
:1023C000A42465F8A60608A60722ED25E0245BF9FB
:1023D000E3FE09E3780222EE25E0241DF9C3E39D24
:1023E00019E39C22F8E2FE08E2FBAA06E4F9F822CF
:1023F000EF25E02453F8ECF208EDF222ED2404FF7F
:102400007401A80708227858E6F520A208300001D8
:10241000B350147F0412319A9001A2EEF0A3EFF0B2
:10242000122EB0A2009208A209300101B35012127C
:102430002C7930010512248D80031234FDA2019203
:102440000930120512248DC212A20A300201B350C3
:1024500004A202920A301305122EB0C213A20D304C
:102460000501B35037E4FFEF25E0300509244EF5B0
:1024700082E4343080072436F582E43430F583E496
:1024800093FC740193FDEF75F008A42465F8A6048D
:1024900008A6050FEFB402CFA205920D22E4FF12A9
:1024A00032250F120F37229001FF1203C5E47BE89B
:1024B0007A03F9F89001FF12146990020F1203C514
:1024C00090020F1214419001FF1214A990021312EE
:1024D000155190020F12144812145A900217120349
:1024E000C590020312033F90021712144890020B8A
:1024F0001214A990021B1215519002131214489045
:10250000020B1203C590020B120357C000C001C09A
:1025100002C00390021B121441D003D002D001D09C
:102520000012013812145A90021F1203C5E47FE80A
:102530007E03FDFC90021712144890021F1214A390
:1025400022E49001FBF0EF606812003E90007C12E4
:1025500003DD0000000012325690007C120C941231
:10256000013890007C1203C59001FB120DCC40E6AF
:10257000E0FFFBE4FAF9F890007C12033F1201DE61
:102580009001FC1203C5785D9001FC120CBE78240A
:102590001203D1E4FB9001FC12033FEB25E025E0A0
:1025A0002484F582E43400F5831203C50BEBB403F5
:1025B000E490009D120C8CA31203DD001D4C0078EA
:1025C0002412034B120CF69000781203C5782812DF
:1025D0000D85223011151234EA7446F07F0C123149
:1025E0009A9001A6EEF0A3EFF0C211A2149215206A
:1025F00001253002028020D39001A1E094009001D7
:10260000A0E0940050119001A7E094009001A6E092
:102610009400500320100A1234EA7446F0C2148069
:10262000081234EA7403F0D214301408E4FF1231B3
:10263000371233A1A215301401B35017900195E061
:102640006004D216800D7F0312319A9001A4EEF03F
:10265000A3EFF0900195E07008301603122EB0C27F
:102660001622E4FF1234127856BFFF04760A800265
:1026700076FFE47855F67857762808F6785AF6FF0C
:10268000EF25E02436F582E43430F583123175EF1E
:1026900075F008A42465F8A60408A605EF75F008EF
:1026A000A424671231852469123185246BF8E4F67D
:1026B00008F60FEFB402C91231727885A60408A695
:1026C00005ED24D87888F6EC34FF18F67889760082
:1026D000087664E412316908F6123169EF25E024C6
:1026E0005EF582E43430F58374019308F675505535
:1026F00022121AAD122CD290018FEFF012000EEFC1
:102700006074900190E0703E1232A4122B0A7F0197
:1027100012319AD390019FE0940090019EE09400C2
:1027200040028011301702800CC37860E2941E18BA
:10273000E29400500EEEC4F854F0C868FEEFC454A2
:102740000F48FF121089900190E0FF122B68900152
:1027500090E0FFA3E06F601E1227EB900192E0541F
:10276000F0600D7F0712319A9001AFEEF0A3EFF009
:10277000900190E0A3F022E49001F0F0900195E048
:10278000704612176D4037900124E0FEA3E0FF90E1
:102790000118E09FFF900117E09EFEE4FCFD900110
:1027A000F11203C512178B7C007D031200ABE4FD10
:1027B0009001F1120357D31202704035802C12178A
:1027C0008B121746402B80223016101217A125E0DD
:1027D000FFE493331217454018800F1217A124D835
:1027E000FFE49334FF12174540079001F0E04401E5
:1027F000F09001F0E0FF90023EF0229001F0EFF047
:10280000E4FAFE9001C9E07072FD7401A805088029
:1028100002C333D8FCF99001F0E059FC900191E03B
:10282000596C60079001C9E04401F0900191E059B2
:10283000600D1223EC8002C333D8FC4AFA800D7479
:1028400001A805088002C333D8FC4AFA9001F0E0E1
:1028500059600F7401A805088002C333D8FC4EFEEE
:10286000800B1223EC8002C333D8FC4EFE0DED64C6
:10287000027097AF06EA5F900192F022C0E0C0F0CC
:10288000C083C082C0D075D01053B9FDE51D64016E
:102890007021FB74632B122967120D071203D10BF1
:1028A000EBB402EF7F0112335C43B901D2D8751D3E
:1028B00002803EE51D6402701F120C9778201203FF
:1028C000D17F011233DE90023FE0FF122FF243B9B5
:1028D00001D2D8751D068019E51DB40614120D1D10
:1028E000782A1203D1120C9FF452AB53AAFB751D28
:1028F00000D0D0D082D083D0F0D0E0329001B1E0CF
:102900007002A3E0706A300031783490011712161B
:10291000D5C39FEC9E5021C312174FC31217A19F1E
:10292000E4939E50427F0512319AEEC313FEEF13DB
:10293000FF121711403A8027802D7834E2FE08E21A
:1029400078321217965022C3783512174FD394322B
:10295000EE940040127F0512319A12171140119027
:1029600001BE7401F080028000E49001BCF0A3F08D
:102970002212036374632FF582E43400F583E0FFD1
:10298000EFC39404500553B9EF800343B910EF60CF
:1029900003B4040B85B71985B61A85B51B803AEFC9
:1029A00064016004EFB4050B85EB1985EA1A85E92B
:1029B0001B8026EF64026004EFB4060B85F31985D3
:1029C000F21A85F11B8012EF64036004EFB407096B
:1029D00085FB1985FA1A85F91BAF1BAE1AAD19AC28
:1029E00018229002021203C59001FF12044C9002BB
:1029F0000212033F78061202BE9002021203C59033
:102A00000206E0FF74017E00A807088005C333CEEC
:102A100033CED8F924FFFFEE34FFFE3395E0FDFC02
:102A20001203701201539002021214A3900206E0E6
:102A3000F9F812150C9001FF120443120301AF279D
:102A4000AE26AD25AC24780612150C229001C9E003
:102A500054036003122A879001C9E054FCF09001EE
:102A600097E0540FFF60289001C9E0FE30E206783D
:102A700064A6078010EE30E31D900197E0540FC468
:102A800054F07864F6E47855F6201803122A8790FB
:102A900001C9E054F3F022C2107F0912319A90016B
:102AA000A8EEF0A3EFF0C2927F217E007D007C00B3
:102AB0001233FAD29222900193E0FF900192E0FE4D
:102AC0006F601D900198E0FD900197E0FC6D601033
:102AD0003001047855A6063002337864A604802DB0
:102AE000900192E0FE6F600D3001227855A606E459
:102AF0007864F68018900198E0FF900197E0FE6FEF
:102B0000600B3002087864A606E47855F6900192CE
:102B1000E0A3F0900197E0A3F022E49001F0F090A0
:102B200001F0E0FF25E0241412237CEF25E02410BF
:102B3000122394C39DEE9C5034E025E02415F8C385
:102B4000E29FFF18E29EFE7C007D64120487C006AF
:102B5000C007E025E024471223D4D007D006120195
:102B6000DED3EF940AEE94004003D217229001F0D6
:102B7000E004F0E0B402A8229001F0EFF0E4A3F04A
:102B80009001F1E0FFC39402504B74017E00A8074E
:102B9000088005C333CE33CED8F9FF9001F0E0FDB5
:102BA000EF5D60237F0612319A12238375F00112C4
:102BB00000BDFCD3E5F09FEC9E4012E490018FF045
:102BC000A3F01234FD8006122383F0A3F09001F1EC
:102BD000E004F080AB22FE0010FE0028FE0032FE72
:102BE0000014FE0034FE0018FE0036FE001CFE003D
:102BF00038FE0000FE0020FE002AFE0008FE002431
:102C0000FE002E0000000101D00101D80101E00109
:102C100001E801009D0100AA0100950100EE0101FB
:102C20001301011701012801012E01013C01013EA0
:102C3000E49001F1F09001F1E0FFC394025047EFFE
:102C400025E025E0243FF8120363C0009001F1E085
:102C500012151812034BD0001201459001F2120315
:102C6000C59001F212153CC312028640037F022276
:102C70009001F212033F9001F1E025E024101215BB
:102C800060E004F080AF7F0522E4FF900190F0A3A4
:102C9000F09001AAF09001AFF0A3F0900192F0A3A0
:102CA000F0C217EF25E0244712237C9001CAEC8D77
:102CB000F01200BDEF122387F0A3F00FEFB402E390
:102CC0009001CAE0C313F0A3E013F09001CAE0FE44
:102CD000A3E07802CEC313CE13D8F9F0EE9001CA68
:102CE000F022E4FFFE900190E07021EE75F008A460
:102CF0002465F8E6FC08E6FD1223C740327401A8FB
:102D000006088002C333D8FC4FFF8023EE75F0081D
:102D1000A42466F8E624FBFD18E634FFFC1223C762
:102D2000400D7401A806088002C333D8FC4FFF0E83
:102D3000EEB402B190023CEFF022E47FB37E06FDD8
:102D4000FC7820120363120C514003120CCF7FFF5A
:102D5000120C76400678C576FF800A9001F11203C6
:102D60003F78C5A607E47FB37E06FDFC9000C51240
:102D70000357120C514003120CCFE47FFF120C7763
:102D80004005789376FF229001F112033F7893A6D5
:102D90000722C0E0C0F0C083C082C0D075D000C0A0
:102DA00000C28D758C32758AEB900223E475F001B8
:102DB0001200BDC3900224E09414900223E094001A
:102DC000401290019AA3E0785FF690019AE4F0A394
:102DD000F0120004D000D0D0D082D083D0F0D0E068
:102DE00032A907E4FEFD9001C9E0FC703FEF5401F9
:102DF000FB900196E054016B600D30020A20180729
:102E0000EC44029001C9F0900196E030E006EE44F7
:102E100010FE8004EE4401FEE930E006ED4401FDC1
:102E20008004ED4410FDEE5D900197F0229001CCFE
:102E30001203DD00000000E4FF12335C75ABFF12EB
:102E400032569001CC120C941201389001CC12032E
:102E5000C5120DA29001CC12033FC004C005C006EC
:102E6000C007120C97120D33D007D006D005D0043E
:102E70001201459001CC0203C5E4FF783EE2FE74E6
:102E8000632FF582E43400F583E090302D93FDEE5E
:102E90004DF20FEFB402E4900067E090302D93FF05
:102EA000900077F090006BE090302D93FE9000B092
:102EB000F0783EE24F4E42D442F442E4F452DC2237
:102EC000E51D70FCE4FF122531E4FF120AB8E4901E
:102ED0000195F0900197F09001BBF09001B11216AE
:102EE0009D9001B9F0A3F012169A9001C7F0A3F0DB
:102EF00020000512168C400D7F0412319A9001A219
:102F0000EEF0A3EFF02290020612033FC003C002CE
:102F1000C0019002021214C675F004A4F58285F077
:102F200083D001D002D00312031B9002021204438B
:102F300074011200779002021214C6FF900205E09D
:102F4000B50704E412009922900206E0FEA3E0FF18
:102F5000C003C002C0011214C375F002A4F582853B
:102F6000F083D001D002D003EE8FF012010B90025B
:102F70000212044374011200771214C3FF90020579
:102F8000E0B50704E412009922EF6003D38001C387
:102F900092099201EF6003D38001C3920A920278F2
:102FA00058A60790019CE4F0A37446F07F0A123102
:102FB0009A90019EEEF0A3EFF07F0B12319A9001F0
:102FC000A0EEF0A3EFF0229001F07405F0300113B1
:102FD000122C209001F0EFF0BF0205D212E0FF2288
:102FE000121C8F1231C91204F99001F0EFF0BF02E8
:102FF00005D213E0FF2212310512337F9001F0E079
:10300000FF2290023FE0D394034002E4F0EF14600B
:103010001214601714601D24037021120C9FF452C7
:10302000AB800D120C9FF452AB800E120C9F42AB82
:1030300053AAFB22120C9F42AB43AA0422010204B2
:1030400008102040809A00320032003C003C019081
:10305000003C003C003C00780078003C003C03E869
:1030600003E8003C003C0082012C00640064FFBFC8
:103070000000000000007E05EF5401FD900195E086
:1030800054016D6007EFF0E49001BBF07858E63032
:10309000E008900195E070027E0A9001BBE004F028
:1030A000C39E50037F00229001BBEEF07F0122906F
:1030B00001F71203C59001FB12033F9001F71203C1
:1030C00057D3120286400B9001FB1203579001F771
:1030D00080099001F71203579001FB12033F120180
:1030E000452243F80875CD4053CC7F43CC4043CCB8
:1030F0002043CC1043CC0453CCFD43CB0243CB0143
:1031000053CBBFD2EB53E5FC43E30243F5034390BB
:103110000343ED03227834E2FE08E2FF7832E2FC5A
:1031200008E2FDD39FEC9E400BED9F7837F2EC9EBA
:1031300018F28006E47836F208F27836E2FF08E208
:1031400008CFF208EFF222E4F51D53B9FD53B9DFC1
:1031500043CC02C2D9539FFD438760C28DEF7006F6
:1031600075BD0D75BC011234AC75BE0CD28C20C976
:1031700003438703000000002208F608F608F6085B
:10318000F62290303EE493FC740193FD2212033F3B
:10319000AD07AC0622F8E4F608F6EF75F008A422B5
:1031A0009001F0E0FE75F008A4227D017C00EFC3E1
:1031B00094175020EF25E024F8F582E43431F583AC
:1031C000E493FF7E0090019CE0FCA3E0FD1200ABC5
:1031D000AC06AD07AE04AF05229000781215287832
:1031E0002412034BC3EF9BFFEE9AFE7B017A00791A
:1031F0009FE4FCFD9002067408F01229D27828EEB4
:10320000F208EFF27F05220007010102080305041E
:1032100001050106060701080109010A030B140C48
:10322000010D010E030F021001113C12B4130A1418
:103230000A1501160A53BA0F43BA2075BBFF75A9C8
:1032400050120D98783EE2F5B4EF7009F5B375B2FF
:103250004E75B12022783BE2F5B308E2F5B208E200
:10326000F5B12275ABFF75BF0F0000000000000034
:103270000000000000000000000000D2D853B9FD9B
:1032800043B901E5B930E1FBE4F5BF22E4F5E343DE
:103290009F107F03FEFDFC1233FA439F027F037EE3
:1032A000007D007C001233FA75BE0EE4F5BFF5B95F
:1032B00075927622781CE2FE08E2FF9001F0EEF0B3
:1032C000A3EFF07D0112239B4004AE02AF030DED8E
:1032D000B402F2785FEEF208EFF2227F01300108CB
:1032E000123225751D01800612335C751D0275BFF3
:1032F0000F43B92053B9FD43BA0143B901D2D822D3
:10330000E4FFEF25E02456F582E43430F583E493BE
:10331000F8740193FDEF25E02447C8F208EDF20FA1
:10332000EFB402DE2274FFF5F00200BDE0FBE4FA28
:10333000F9F81201DE8F458E448D438C4222AB3466
:10334000AA33A932A8310202864400630506FFFFB2
:1033500044006700FFFFFF44006B02FFFFFF4400D3
:103360006FFFFFFFFF04180000000000120CA89080
:103370000077E0F5B4EF700AF5B375B28875B1B8AF
:103380008006900074120D6A120D8D53AAFB2290D4
:1033900001FB1203DD0000CB20782412034B123016
:1033A0009FE47B987A3A12155A5003D21822C21819
:1033B00022E49001F0F075BE0E439F027F03FEFDF4
:1033C000FC1233FA75BC02E4F5BFD2D953CCFD220E
:1033D000438901C28DD2A953B8FD12000390019A0E
:1033E000F0A3F0758C32758AEBD28CD2AF22120C1E
:1033F000A89000B0E0F5B4EF7009F5B375B2AF7501
:10340000B1C8229000AD120D6A229001F11203C5DD
:103410009001F174FF120392EC4D4E4F6003008057
:10342000EF22E4FFF582F5837440FEE493F42FFF6E
:10343000A3EEB583F6227F0022E49001A8F0A3F06A
:103440007F0C12319A9001A6EEF0A3EFF0D2102279
:1034500043D50453F5FB53E5FB43E30443ED04E498
:103460009001C9F0D29222D3EF9DEE9C4007EF9DD0
:10347000FFEE9CFE22C3ED9FFFEC9EFE22E4FF12B6
:1034800032251218B51219BA7F01123225120F37E0
:10349000022C79E4FF12335C1222AB121FEB7F0186
:1034A00012335C122531022E1DE4FF1233DE12347A
:1034B000F1121F227F011233DE020AB8438901C2D2
:1034C0008CC28F120003758CFB758AED2220C90C0B
:1034D000C2AFA807A60408A605D2AF222275AA3B50
:1034E00053BAF343BA0843B92053B9BF22C2DA53DF
:1034F000D80F43D8D0D2D8D2D92290019CE4F0A3DF
:1035000022785DE608F622122E69023440E4FF02BA
:103510000F37022A3CFFFFFFFFFFFFFFFFFFFFFF08
:10352000FFFFFFFFFFFFFFFFFFFFFFFFFFFFFFFFAB
:00000001FF
