:100000000110090030000000C02E0000FF000000B9
:10001000021601E4900293F0A3F022022795E4F582
:10002000E3439F107F03FEFDFC122D6A439F027F76
:10003000037E007D007C00122D6A539FEF75BE0E7B
:10004000E4F5BFF5B975927622FFFF02253D53BA5C
:10005000FEE5B920E004E51D6005E5B930E1FBE40B
:10006000F5BF53B9FD53B9FEF51D22021C51BB016A
:100070000689828A83E0225002E722BBFE02E32245
:1000800089828A83E49322BB010989828A83F8E00A
:1000900028F022500327F722BBFE05F8E328F322BD
:1000A0008A838982F8E4932822BB010689828A83A5
:1000B000F0225002F722BBFE01F322EF8DF0A4A83C
:1000C000F0CF8CF0A428CE8DF0A42EFE22C5F0F83F
:1000D000A3E028F0C5F0F8E582158270021583E0F0
:1000E00038F022BB0110E58229F582E5833AF583D9
:1000F000E0F5F0A3E0225009E92582F886F008E651
:1001000022BBFE0AE92582F8E2F5F008E222E58347
:100110002AF583E993F5F0A3E99322F8BB0111E5F1
:100120008229F582E5833AF583E8F0E5F0A3F02231
:100130005009E92582C8F608A6F022BBFE09E92588
:1001400082C8F2E5F008F222EF2BFFEE3AFEED391D
:10015000FDEC38FC22C3EF9BFFEE9AFEED99FDEC1F
:1001600098FC22E88FF0A4CC8BF0A42CFCE98EF054
:10017000A42CFC8AF0EDA42CFCEA8EF0A4CDA8F00F
:100180008BF0A42DCC3825F0FDE98FF0A42CCD35D3
:10019000F0FCEB8EF0A4FEA9F0EB8FF0A4CFC5F03D
:1001A0002ECD39FEE43CFCEAA42DCE35F0FDE43C36
:1001B000FC2275F008758200EF2FFFEE33FECD3381
:1001C000CDCC33CCC58233C5829BED9AEC99E582C8
:1001D00098400CF582EE9BFEED9AFDEC99FC0FD554
:1001E000F0D6E4CEFBE4CDFAE4CCF9A88222B80044
:1001F000C1B90059BA002DEC8BF084CFCECDFCE50F
:10020000F0CBF97818EF2FFFEE33FEED33FDEC3332
:10021000FCEB33FB10D703994004EB99FB0FD8E5B7
:10022000E4F9FA227818EF2FFFEE33FEED33FDEC00
:1002300033FCC933C910D7059BE99A4007EC9BFCF6
:10024000E99AF90FD8E0E4C9FAE4CCFB2275F01082
:10025000EF2FFFEE33FEED33FDCC33CCC833C810A7
:10026000D7079BEC9AE899400AED9BFDEC9AFCE8D5
:1002700099F80FD5F0DAE4CDFBE4CCFAE4C8F92222
:10028000EB9FF5F0EA9E42F0E99D42F0EC6480C8F5
:1002900064809845F022EB9FF5F0EA9E42F0E99DDC
:1002A00042F0E89C45F022E8600FECC313FCED132C
:1002B000FDEE13FEEF13FFD8F122E8600FEFC3331A
:1002C000FFEE33FEED33FDEC33FCD8F122BB010D24
:1002D000E58229F582E5833AF58302032B5007E98D
:1002E0002582F802044DBBFE07E92582F802033798
:1002F000E58229F582E5833AF583020459BB0107BB
:1003000089828A830203B15005E9F8020486BBFEA4
:1003100005E9F80203BD22BB010DE58229F582E55E
:10032000833AF5830203B15007E92582F802048677
:10033000BBFE07E92582F80203BD22E0FCA3E0FD35
:10034000A3E0FEA3E0FF22E2FC08E2FD08E2FE08D3
:10035000E2FF22E0F8A3E0F9A3E0FAA3E0FB22E247
:10036000FB08E2F908E2FA08E2CBF822BB010789B0
:10037000828A830203435005E9F8020469BBFE0543
:10038000E9F802034F89828A830204767401FF33FD
:1003900095E0FEFDFCA3A3A3E0CF2FF0E58215823C
:1003A00070021583E0CE3EF0E5821582700215835F
:1003B000E0CD3DF0E582158270021583E0CC3CF083
:1003C00022ECF0A3EDF0A3EEF0A3EFF022ECF208A4
:1003D000EDF208EEF208EFF222A8828583F0D083D6
:1003E000D0821203E01203E01203E01203E0E47390
:1003F000E493A3C583C5F0C583C8C582C8F0A3C56F
:1004000083C5F0C583C8C582C822D083D082E49357
:10041000F208740193F208740293F208740393F2E1
:10042000740473A42582F582E5F03583F58322FAFE
:10043000E6FB0808E6F925F0F618E6CA3AF622E0E7
:10044000FBA3E0FAA3E0F922EBF0A3EAF0A3E9F0C2
:1004500022E493FB740193FA740293F922E6FC08F8
:10046000E6FD08E6FE08E6FF22E493FC740193FD36
:10047000740293FE740393FF22E6FB08E6F908E694
:10048000FA08E6CBF822E493F8740193F974029326
:10049000FA740393FB22ECF608EDF608EEF608EF8B
:1004A000F622900261EFF0120EA5120F1F9000BE0F
:1004B000120DACFD122DDDD3EF94C8EE9400400870
:1004C0009002627401F08014D3EF9464EE94009073
:1004D000026240057402F080037403F0900261E050
:1004E00075F004A424CEF9740035F0FA7B01120DE6
:1004F00085900262E0900273F012269B900261E008
:10050000120EA5EEF0A3EFF0ED75F004A4243FF970
:10051000740135F0FA7B01900261120D859002732F
:100520007406F012269B900261E090012F120EA932
:10053000EEF0A3EFF09002641203C900000000E4A3
:10054000900262F090026412032BC004C005C00642
:10055000C007900261E0FD75F0149000DE120413F4
:10056000C083C082900262E0D082D083120EA912B2
:100570000F1F9000C6120DACFD122DDDAB07AA06B1
:10058000E4F9F8D007D006D005D004120138900263
:10059000641203B1900262E004F0E0C3940A40A444
:1005A00090026412032B900261120E2E1203B1907E
:1005B000022AE07002A3E0704190012EE075F00A7B
:1005C00084E5F0F0E4FF75F002EF9000C6120DAC88
:1005D000FD75F014EF9000DE120413C083C082900A
:1005E000012EE0D082D083120EA9ECF0A3EDF00F23
:1005F000EFB404D290012EE004F0301F030206ADE8
:10060000900224E07002A3E060030206AD9002199C
:10061000E07002A3E060030206AD900261E06403B3
:1006200060030206AD9002681203C9FFFFFFFFE4FA
:10063000900263F0900262F0900262E0FFC39404C3
:10064000503375F004EF90016112041312032B90E4
:100650000268120343D31202864012900262E0A3A2
:10066000F0120E2F12032B9002681203B190026257
:10067000E004F080C39001A6120E2E12032BE47B3F
:100680001E120EFC5037900263E09001A6F0A3E02A
:10069000900137120D899001A2120E28C006C007E2
:1006A0009001A6E075F002900137120413120E8833
:1006B000D007D0061201459001A21203B19001A209
:1006C00012032B9001A6E09000BE120DA92FFFECA3
:1006D0003E90015FF0A3EFF09001A6E0A3F090023E
:1006E00061E0FF75F00290012F120DACFDEF90015B
:1006F00037120F29ECF0A3EDF07A017991120E1365
:100700007410F090015F120ECE7A01797112293FB8
:100710007B017A0179717D10121E8DAF41AE40AD23
:100720003FAC3E9001920203B1E490027AF0EF7088
:10073000030208BF12003E90019E1203C900000090
:1007400000E490027BF09002801203C900000000D8
:1007500090027BE0FF1228CA1217C690027C120397
:10076000B1E4900279F090027C12032B90027BE0BE
:1007700075F00C900079120413C083C08290027946
:10078000E0D082D08375F0041204131203B1121763
:10079000DBE0B403D1785790027C1217B590027C4D
:1007A0001203B190027BE0FF9000BE121727900069
:1007B000C612172690012F12172675F002EF90012E
:1007C0003712172A75F004EF9000CE1204131203AB
:1007D000C9009C400090027BE0FB75F00490013F53
:1007E0001204131203C9009C400012176875F0042C
:1007F000EB90014F1204131203B1E4900279F090D0
:100800000279E0FFC3940A501590027BE075F01462
:100810009000DE1204131217261217DB80E19002FB
:10082000801203431217681201389002801203B13C
:1008300090027BE004F0C39404500302074090014F
:100840005F12172D90027AE075F002900171121775
:100850002A90019E12034390015FE0FEA3E0FFE4B3
:10086000FCFD12013890019E1203B190027AE0045F
:10087000F0C3941050030207311217E59001921251
:1008800017E29001961217E278061202AA90019AD6
:100890001203B1E49001A6F0A3F0A3F09001A2121C
:1008A00003C900000000E4900279F0900279E0FFB3
:1008B000C39405500F75F002EF9001AB12172A1286
:1008C00017DB80E79001B612172DE49002AEF0908E
:1008D000019212176B90006A1203B190007012031C
:1008E000C900000000E4900076F0A3F078147427AB
:1008F000F2087410F278127427F2087410F2E47897
:1009000016F208F29001FBF0A3F09001A912172D46
:10091000E49001B8F0A3F0A312172DA31203C900AD
:1009200009C4009001C012172DA31203C90009C405
:10093000009001C6740AF09001D612172D9001F7AD
:100940001203C9000000009001D412172D9001D8A5
:100950001203C900000000E4900279F0900279E0EF
:10096000FB75F0049001DC1204131203C9000000AF
:100970000075F002EB9001C712172A1217DBE0B4E2
:1009800006DAE490022CF0A3F0A3F0A3F090023F6B
:10099000F0A3F0A3F0A3F09001F5F0A3F0229002F1
:1009A00058EEF0A3EFF0A3ECF0ED120E38401290E9
:1009B000025AE0FFA3E090025FCFF0A3EFF0020B3A
:1009C0003990005CE090025C120B42900263120DC1
:1009D000EB120B42900261EEF0A3EFF09001D3E036
:1009E00090025C120DA5120B81900267120DEB12A2
:1009F0000DA5120B81900265EEF0A3EFF09001F4CB
:100A0000E090025C120DC29002711203B1120DF05F
:100A1000120DC290026D1203B190025A120D8FC0D6
:100A200006C0079001D4120E88D007D006120145E7
:100A30009002691203B1D37817E294AC18E2940DD6
:100A400050099001FEE06003020B10900224E07058
:100A500002A3E06003020B10900219E07002A3E011
:100A60006003020B10D390023CE0940090023BE044
:100A70009400400590025D800A9001F5E090025DCF
:100A8000B401077402F0A3F080067401F0E4A3F04F
:100A900075F096120E004003020AE390025DE0FD3D
:100AA00075F064120E045006ED120E934069900228
:100AB0005EE02408FFE433FEC3900264E09F9002EE
:100AC00063E09E4014120E1F9001D81203B17F0DF7
:100AD000122B81900226020B00D3900227E0940093
:100AE000900226E094004003020B0775F064120E9A
:100AF00000400B120F2F90026D120B5F80129002BC
:100B00005DE0120E934019120F2F900271120B5FCD
:100B1000EEF0A3EFF08009120E1F9001D81203B17E
:100B200090025A120D8F9001D81203431201451200
:100B3000259690025FEEF0A3EFF0A3E0FEA3E0FFA6
:100B4000A3E0FCA3E0FD121D1890025FE0FEA3E00D
:100B5000FF22F025E02450F582E43400F583E0FC28
:100B6000A3E0FD900258E0FEA3E0FF122DDD22126B
:100B700003431201459001D81203B17F0C122B815F
:100B8000900224EEF0A3EFF07F17122B8190024128
:100B900022FD90025AE0FEA3E0FF122DDD2290021A
:100BA00003E475F0011200BDD3900208E0940090B8
:100BB0000207E094004003122C98D390020AE094BC
:100BC00000900209E094004003122C98D390020C8C
:100BD000E0940090020BE094004003122C98D39014
:100BE0000212E09400900211E09400400F122C9841
:100BF000900211E07002A3E07002D210D3900210B4
:100C0000E0940090020FE094004003122C98D390DF
:100C1000020EE0940090020DE094004003122C9824
:100C20009001FDE030E011E4900213F0A3F0A3F096
:100C3000A3F0A3F0A3F08042D3900214E0940090BC
:100C40000213E09400401A122C98900213E07002F4
:100C5000A3E0700D7F0A122B81900217EEF0A3EF34
:100C6000F0D3900218E09400900217E09400400A3C
:100C7000900215E475F0011200BDD390021CE094BF
:100C80000090021BE094004003122C98D3900225A0
:100C9000E09400900224E094004003122C98D3903A
:100CA0000227E09400900226E094004003122C9862
:100CB000D3900229E09400900228E09400400312AF
:100CC0002C98D390022BE0940090022AE0940040EC
:100CD00005122C98800D7F0F122B8190022AEEF0C6
:100CE000A3EFF0D390022DE0940090022CE094004A
:100CF0004003122C98D390022FE0940090022EE033
:100D000094004003122C98D3900231E0940090029A
:100D100030E094004003122C98D390023CE0940001
:100D200090023BE094004003122C98D390023AE0EA
:100D30009400900239E094004003122C98D3900262
:100D40003EE0940090023DE094004003122C98D3C2
:100D5000900240E0940090023FE094004003122C87
:100D600098D3900242E09400900241E09400400346
:100D7000122C98D390021AE09400900219E094008B
:100D80004003122C982274FF90025AFEFDFC1203BD
:100D900043D3020270E09000BE75F002120413E02B
:100DA000FEA3E0FFE4FCFD22E47FE87E03FDFC12ED
:100DB0000343020153F09001C775F002120413E0DF
:100DC000FCA3E02290005CE0245DF582E43400F5B1
:100DD0008322F075F0049001DC1204131203439097
:100DE00001D812032B020145900257E075F00CA4C4
:100DF0002479F9740035F0FA7B0122EEF0A3EFF0CC
:100E000090025CE02403F0E075F00684AFF0EF227E
:100E100090025DE0A4FFC3900266E09F900265E04F
:100E200095F0227B0190026F12043890027222909A
:100E300001D812032B900269120343020138E0909B
:100E4000016175F004020413A3F0D390020AE09448
:100E500000900209E094002290027B1203B19002FC
:100E60007312034390027B12032B0201DE90026F88
:100E700012042F02005EFFE4FCFDFE12034F12017C
:100E800053780702029724FFFFEE34FFFE3395E00C
:100E9000FDFC12035C020153E0FEA3E0FBAA06E4A2
:100EA000F9F82275F0AFA4FFC3900268E09F9002AA
:100EB00067E095F022FD9000C675F002020413125F
:100EC000042F740102007775F004A4F58285F08385
:100ED000229002611204389002647403F022E0FF51
:100EE000A3E0900273CFF0A3EFF0221202978F27B6
:100EF0008E268D258C24221202978F278E268D25F3
:100F00008C24227857E6FFE4FCFDFE22FAF9F8C3B0
:100F1000020286E0FF74017E00A80708221203B1D6
:100F200090027702032B1203379002650203B1E0AF
:100F3000FEA3E0FF75F002ED2275F00202041390AB
:100F400001D802032B9001FDE0900202F01219E893
:100F500050051219F64007E49001FDF080081222B6
:100F6000F29001FDEFF09001FDE0FF122978EF70A3
:100F70000D1219E850081219F650030210B690012C
:100F8000FEE07041900063F0A3F090023FF0A3F008
:100F9000C21EC21212226C122D1B7F01122B811253
:100FA0001A89401B30140DEF7803CEC313CE13D82B
:100FB000F9FF800BEF7806CEC313CE13D8F9FF12DA
:100FC00013A002106C900063E07002A3E070139015
:100FD0000063121A2F7F16122B8190023FEEF0A3AE
:100FE000EFF090023FE07004A3E0640170309000E5
:100FF00063E0FEA3E0FF2496FDE43EFC7808E2FAFD
:1010000008E2FBD39DEA9C4004D21E8011EF246AC3
:10101000FFEE34FFFEC3EB9FEA9E5002D212301E59
:1010200037121A509DEE9C40531210B7504E7F134A
:10103000122B81EF7802CEC313CE13D8F9121AA95E
:101040007F14122B817C007D031200AB90023BEEDB
:10105000F0A3EFF0C21E8024301221121A509DEE30
:101060009C40191210B750147F13122B81EF780295
:10107000CEC313CE13D8F9121AA9C212900239E0C6
:101080007004A3E0640170031228329001FEE0FFB7
:10109000A3E06F603112287E900200E030E421D39B
:1010A0001219F650051219E94009E4900213F0A351
:1010B000F0800D7F06122B81900213EEF0A3EFF06B
:1010C0009001FEE0A3F022122DDDAC06AD079001E9
:1010D000FBE0C313FEA3E013C39DEE9C227B017AC9
:1010E0000179BCE4FCFD9002667405F0122646907E
:1010F00001BAEEF0EF120E38400302118230000305
:101100000211829001A9120D8FC006C0079001BA8A
:10111000120E88D007D00612014590025A1203B170
:10112000E47FFA120D78400690025E02117DE47FA2
:10113000B4120D784003021182E47F64120D7840EE
:1011400002802274FF7FF1FEFDFC90025A120343DD
:10115000C3120270400890025E740AF0803A7F9CCD
:10116000120D76400890025E7408F0802B7F4C12BE
:101170000D76400890025E7406F0801C74FF7F06B6
:10118000120D7890025E40057404F0800B7401F03B
:10119000800690025E7405F0D390021AE0940090ED
:1011A0000219E09400400E9001FEE0700890025E8B
:1011B000E02402800490025EE09001C6F09001A954
:1011C000120D8F90025EE0900266F07B017A017949
:1011D000C2122646900258EEF0A3EFF0900228E0EB
:1011E0007002A3E0600302125A7F0E122B81EEC33D
:1011F00013FEEF13FF900228EEF0A3EFF07B017ACD
:1012000000795C120E157406F07808E2FF08E2A37C
:10121000CFF0A3EFF07A00795012293F7B017A01D9
:1012200079D3120E157406F0900258120ECE7A0180
:1012300079C712293F7B017A0179F4900262120486
:10124000389002657406F0120F2F9002661203B1F7
:101250007A0179DC1229E87816E2FF08E29001FBB6
:10126000CFF0A3EFF0120DB4E4F0900258E0FEA32B
:10127000E0FF22E4900258F07B017A00793D120EE3
:10128000C17800120F167A0079311229B17B017AE8
:101290000079311213847B32120EFC5006900258F2
:1012A0007401F09002AEE0900257F0E4900259F021
:1012B000120DD8C002C0017A0079A9120EC1780AB5
:1012C000120F16D001D0021229B1120DD8121384B8
:1012D0007BF47A01120EFD50069002597401F03031
:1012E0000045900258E07004A3E0603BD21A7B01F5
:1012F0007A0079311213527856120EF590025A1272
:101300000D9F780712029778041203BD120DD812B0
:101310001352120EF390025A120D9F780712029781
:10132000780E1203BD8038C21A7856E67800120E85
:101330006678041203BD7804120337EC4D4E4F70EB
:10134000037F02227857E6780A120E66780E12039F
:10135000BD780E120337EC4D4E4F70037F02227F93
:1013600004227D03121905C3E5419539FFE5409537
:1013700038FEE53F9537FDE53E9536FCC3EF953DDC
:10138000FFEE953CFEED953BFDEC953AFC90025A44
:101390001203B1227D03121905C3E539953DFFE51E
:1013A00038953CFEE537953BFDE536953AFCE42261
:1013B000900257EEF0A3EFF0E4A3F0D3900214E014
:1013C0009400900213E094004006121A2C02149725
:1013D00030004C121A3B40089001B8ECF0A3EDF03D
:1013E0001219E850051219F64003021426121A03C6
:1013F0005027780890004A121A211214CC400F90FE
:101400000257E013FEA3E013D3121A15500BA215D6
:10141000301401B3400302149D121A610214971292
:1014200019E850051219F64013121A3B40089001B2
:10143000B8ECF0A3EDF0121A6102149D9000701246
:101440000343C0007812E2FE08E2FFE4FCFDD00096
:101450001201389000701203B1121A03502E78084E
:10146000E2FE08E2FF90004AE0FCA3E0FD1214CC8B
:10147000501AA215301401B34012900217121A5AD2
:10148000900216E09F900215E09E4021900076E0C9
:10149000FEA3E0FFFBAA06E4F9F890007012032B0C
:1014A0001201DEEE121A699002597401F09002598D
:1014B000E06028E4900076F0A3F09000701203C979
:1014C00000000000E49001B8F0A3F0121A2CE490A0
:1014D000021EF0A3F09002151219E022122DDDD3A6
:1014E000EF9414EE9400229002611203B1120E3AAE
:1014F000405E90026112032B90003E1203B1E47F24
:1015000037FEFDFC90003E120D9F780A1202979064
:1015100000421203B1E490026AF090026AE0FFC355
:101520009404502C75F00CEF9000811204131203F8
:1015300043C000120EF3D000120E6E90026AE090CB
:1015400000AA120E321203B190026AE004F080CABF
:101550009000BA1203C90000000090004212034339
:1015600090003E120DD2C004C005C006C007900016
:1015700042120343900261120DD29002731203B122
:101580009002771203C900010000D007D006D005F1
:10159000D004121FF69000461203B19000BA120355
:1015A00043900265120DD2C004C005C006C007906A
:1015B00002731203C90001000090004612032B9031
:1015C00002771203B1D007D006D005D004121FF65F
:1015D00090026B1203B19000BA12032BAB07AA065C
:1015E00090026B12032BEF2BFBEE3AFA900269E0AC
:1015F000F975F00490014F12041312032BC3EB9FF3
:10160000FFEA9EFEE99000BE120F29EEF0A3EFF074
:1016100022439F04E453C6DFE5C600B5C6F37583D5
:101620000075820775FD0DE4E5FEF4FF7583007516
:10163000820675FD0DE4E5FEB50704F59E80037591
:101640009E0078100000D8FC53C6E043C60843C68D
:101650008075960775970975830075820475FD0D71
:10166000E5FD0404F58F75830075820375FD0DE4B7
:10167000E5FEF4FF75830075820275FD0DE4E5FE5D
:10168000B50704F595800375958375BE0E5392FEDC
:101690009001007F007E02E4F0A3DFFCDEFA780018
:1016A0007F00E4F208DFFC78FFE4F6D8FD7581C026
:1016B0000216E10200000220A0E493A3F8E493A341
:1016C0004003F68001F208DFF48029E493A3F85484
:1016D00007240CC8C333C4540F4420C8834004F407
:1016E00056800146F6DFE4800B010204081020401A
:1016F00080902DC7E47E019360BCA3FF543F30E58A
:1017000009541FFEE493A360010ECF54C025E0608E
:10171000A840B8E493A3FAE493A3F8E493A3C8C55C
:1017200082C8CAC583CAF0A3C8C582C8CAC583CA4D
:10173000DFE9DEE780BEEF75F0021204137427F0D4
:10174000A37410F0221201539002571203B19002B9
:101750003512034390025712032B1201DE78081250
:1017600002979002571203B17F0FE4FEFDFC900236
:1017700057120343D302028690027C12032BEF24FC
:10178000F0FFEE34D8FEED34FFFDEC34FFFC229088
:10179000001BE0902E71932290025712032BC3EF8F
:1017A000940FFFEE9400FEED9400FDEC9400FC908D
:1017B00002570203B175BBFF75A9C075AC0375ADC7
:1017C0008075AE8022E6FFE4FCFDFE1203431201A9
:1017D000537807020297122C0190001BE0FF0224AD
:1017E000DBE5BAF053BA0F43BA1022900279E00455
:1017F000F0221203B190019E02032BE0F5B3A3E0A7
:10180000F5B2A3E0F5B12290001AE0902E7193F5A5
:10181000AB2290025C12032B9002582290025C12C1
:10182000032B90025822E490027AF0EF607B1200C2
:101830003E9000291203C900000000122C01900004
:10184000291224D31201389000291203B190027A90
:10185000E004F0C3941040E3E0FFFBE4FAF9F890F1
:10186000002912032B1201DE90027B1203B178567D
:1018700090027B1217B578041203BDE4900279F050
:10188000900279E0FBC39403501F90027B12032B5C
:10189000EB25E025E02431F582E43400F5831203E2
:1018A000B1900279E004F080D77804120337EF2476
:1018B000D0FFEE348A1217759000251203B1900004
:1018C0004A7475F0A37430F0A31203C9001D4C00D4
:1018D000E4900279F0900279E0FFC394065027EF7C
:1018E00025E02450F582E43400F5837475F0A37488
:1018F00030F0745D2FF582E43400F583E4F090025B
:1019000079E004F080CFE490005CF078087475F220
:10191000087430F22290025E120438900261EDF0F9
:10192000E4F528F527F526F52574FFF52CF52BF5BC
:101930002AF529E4F530F52FF52EF52DF524900242
:1019400061E0FFE524C39F507090025E12042F7582
:10195000F004E524A4F58285F0831202BD8F348E55
:10196000338D328C31AF28AE27AD26AC25D3122C67
:10197000B1400C853428853327853226853125AF43
:101980002CAE2BAD2AAC29C3122CB1500C85342CB3
:1019900085332B85322A853129E5302534FFE52F23
:1019A0003533FEE52E3532FDE52D35318F308E2F66
:1019B0008D2EF52D052402192E8528398527388589
:1019C0002637852536852C3D852B3C852A3B852968
:1019D0003A853041852F40852E3F852D3E9002610E
:1019E000AF30AE2FAD2EAC2D122C9F22F0A3F0A362
:1019F000F0A3F0A3F0A3F022D390020AE0940090A9
:101A00000209E094002290020CE0940090020BE0A6
:101A1000940022900076E475F0011200BD90025708
:101A2000E0FEA3E0C3FF900077E09F900076E09E89
:101A300022E2FE08E2FFE0FCA3E0FD2290004A78EB
:101A400008E2FF08E2CFF0A3EFF0229001B8E0FE39
:101A5000A3E0FF9001A9E0FCA3E0FDD39FEC9E2250
:101A60007816E2FC08E2FD9001FBE0FEA3E0FFD364
:101A7000229001B8E0FFA3E0CF7814F208EFF22241
:101A8000FEC37819E29F18E29E22E29DFF18E29CB5
:101A9000FE900257F0A3EFF022D390020EE09400E4
:101AA00090020DE0940022902E7AE493FE7401934C
:101AB000FF22902E7A74019322FF900239EEF0A358
:101AC000EFF0227B077A079002581203C90000004A
:101AD0000012003EEB601A74017E00A80308800526
:101AE000C333CE33CED8F9FFADACEF5D70031B80AE
:101AF000E3EA601A74017E00A802088005C333CEB1
:101B000033CED8F9FFADAEEF5D70031A80E3AF03BB
:101B10007401A807088002C333D8FCF5AC7401A88F
:101B200002088002C333D8FCFFF5AD8FAE53AACFB5
:101B300043AA049002571217D112177F42AB121713
:101B4000C690025C1203B112180C120343C31202B6
:101B500086500612180C1203B1900258120343C0AB
:101B60000090025812032B7803120297D000120142
:101B7000389002581203B190025812032B9000655E
:101B80001203B143AA3053AAFB900257E0F5BA12F0
:101B9000177FF452AB1217AB227B077A07900258DB
:101BA0001203C90000000012003EEB601A74017EAF
:101BB00000A803088005C333CE33CED8F9FFADACFF
:101BC000EF5D70031B80E3EA601A74017E00A802D7
:101BD000088005C333CE33CED8F9FFADAEEF5D70CC
:101BE000031A80E3AF037401A807088002C333D847
:101BF000FCF5AC7401A802088002C333D8FCFFF5E1
:101C0000AD8FAE53AACF9002571217D1122C0112EA
:101C100024D690025C1203B1121802120343C312BD
:101C2000028650061218021203B1900258120343A2
:101C3000C00090025812032B7803120297D00012B2
:101C400001389002581203B190025812032B9000F1
:101C5000201203B143AA30900257E0F5BA1217AB35
:101C600022C0E0C0F0C083C082C0D075D008C2CF0F
:101C7000D21130CD03021D0D20CC6030CB2285CE99
:101C80004FE54FC39480401675F003E54F902275E1
:101C90001204131204418B4C8A4D894E8063807369
:101CA00085CE35E54F7022E535B410099002AFE0DE
:101CB000F452808066E535B420089002AFE042809F
:101CC0008059853546054F8052E54FC3940550072E
:101CD0007446254FF8A635054F8040E54FB4C00542
:101CE0007546C08036E54FB4C2107853E630E20541
:101CF0007546A080267546A18021E54FC39480409B
:101D000010784CE475F00112041F12005EF5CE80CD
:101D10000A054FE54B254FF8E6F5CED210D0D0D0CE
:101D200082D083D0F0D0E032900275ECF0A3EDF0D9
:101D3000E4FD9001F5E07034C3EF940AEE940040A6
:101D400006120DB47401F0120DB4E07002C21DE46D
:101D5000FF745D2F120DBAE07004C21D80130DEDEB
:101D6000B40602D21D0FEFB406E78005120DB4E4ED
:101D7000F090022EE07002A3E0705790022CE07009
:101D800002A3E0704D9001F5E0701B301D187F102C
:101D9000122B8190022CEEF0A3EFF09001F574016C
:101DA000F0D21BC21D229001F5E064017036C39091
:101DB0000276E0940A900275E0940050277F111299
:101DC0002B817C007D0C1200AB90022EEEF0A3EF75
:101DD000F02290022EE07004A3E0640170069001EE
:101DE000F5F0D21C2212003E9002581217D1780052
:101DF0001203FA000000009002577405F075ABFF63
:101E0000122C01780012034F1224D61201387800E8
:101E10001203BDE4F5AB122C017800120337C004A5
:101E2000C005C006C0071224D6A804A905AA06AB9F
:101E300007D007D006D005D0041201457800120360
:101E4000BD900257E014F0E070B3780012034F7FAA
:101E5000007E2E7D227C001201DE9002591203B119
:101E600090025912032B9002611203B17F967E00FB
:101E70007D007C00122A55E47B32FAF9F8C3120285
:101E800086500678567696800A90025912032B786F
:101E900056A607900258E0F5BA1217F72290026C86
:101EA00012043890026FEDF0E4F525F52674FFF585
:101EB00027F528E4F52EF52DF52CF52BF5249002C9
:101EC0006FE0FFE524C39F505990026C12042F75F8
:101ED000F002E524A4F58285F0831200D3F52A856B
:101EE000F029D39526E52995254006852925852ABB
:101EF00026C3E52A9528E5299527500685292785B3
:101F00002A28E4FCFDE52E252AFFE52D3529FEEDE6
:101F1000352CFDEC352B8F2E8E2D8D2CF52B05249D
:101F2000809CE4852639852538F537F53685283DAA
:101F300085273CF53BF53A852E41852D40852C3F84
:101F4000852B3E90026FAF2EAE2DAD2CAC2B122CFC
:101F50009F2220CA03021FF5E5467003021FF5E425
:101F6000FF74462FF8E6FE74582FF582E43402F52C
:101F700083EEF0E4F60FEFB405E7900258E0FF546B
:101F8000F0FEEF540F900257F0AF06EF24A0601B55
:101F900024F0601F24D0602F24E0605D24E0605CAA
:101FA000249070617853E6440180057853E654FE2E
:101FB000F68042E4FF122D827855EFF67851BFFF8C
:101FC0000376092276FF22900257E0FD70127853C3
:101FD000E630E23154FBF6900232E04408F080151E
:101FE000ED640170207853E620E21A4404F6900272
:101FF00032E04404F0751C0222022832E490020907
:10200000F0A3F0D21F2290026F1203B1E47BE87AB2
:1020100003F9F890026F120E5790027F1203B190ED
:10202000027F120D98A804A905AA06AB0790026FBB
:10203000120DD2900283120F0D90027F120D9F128B
:102040000E489002871203B190027312032B900284
:1020500087120D9FA804A905AA06AB0790027B1260
:102060000DD290028B120F0D900283120D9F9002E1
:102070007B1203B190027B120343C000C001C00277
:10208000C00390028B120D98D003D002D001D00073
:10209000120138120E4890028F1203B1E47FE87EDD
:1020A00003FDFC900287120D9F90028F120E2822D2
:1020B00012000E122E98122E7E1227E4122CFD1200
:1020C0002A88122E1CD2AF751C01E51C24FE601E4E
:1020D00014603614605314605D24047064122E6121
:1020E000122DF3122E09122D997F04122C27D2D80B
:1020F000E4900203F0A3F0900293F0A3F0122A1FE1
:10210000E51D70FC122D378033D2D8E51D70FC120E
:1021100012638F1C1221E09002AEE0900078F090E4
:1021200002AE04F0122D37801B122C738F1C12216B
:1021300046120B8E800E120F35122BD9751C0380A0
:1021400003751C01122E9EE51C640470030220BA64
:10215000121F420220BA7F80902E7AE493FC740111
:1021600093FD122E517F82902E7A74019324CEFD1E
:10217000E49334FFFC122E517F847D647C00122E88
:10218000517F8A3018187D397C30122E517F887D1E
:10219000397C30122E517F8C7D397C30801F781233
:1021A000E2FC08E2FD122E517F887816E2FC08E27C
:1021B000FD122E517F8C7814E2FC08E2FD122E51A4
:1021C0007F9AC007900243122E38D007122E517FFB
:1021D00098C007900247122E38D007122E517F9CCC
:1021E000C00790024B122E38D007122E510225EE56
:1021F000301115122E8B745AF07F09122B81900228
:102200000FEEF0A3EFF0C211A2149215300202807B
:1022100020D390020AE09400900209E0940050114B
:10222000900210E0940090020FE094005003201000
:102230000A122E8B745AF0C2148008122E8B74036B
:10224000F0D214301408E4FF122B1F122CDEA2155A
:10225000301401B350179001FEE06004D216800DD7
:102260007F02122B8190020DEEF0A3EFF09001FEA1
:10227000E07008301603122832C21622900213E0D2
:102280007002A3E0705D30002578149001A9121A45
:1022900021C39FEC9E5015C3121A7AC3121AA29F33
:1022A000E4939E50351222D440398029802C781432
:1022B000E2FE08E2FF7812E2FC08E2FDC39FEC9E1A
:1022C000501AC37815121A7AD39432EE9400400A49
:1022D0001222D4400E12283280028000E490021EA6
:1022E000F0A3F0227F04122B81EEC313FEEF13FF45
:1022F00090021EE475F0011200BDFCD3E5F09FECE6
:102300009E22E4900257F09001FEE07046121A8976
:1023100040379001B6E0FEA3E0FF9001AAE09FFFE6
:102320009001A9E09EFEE4FCFD9002581203B11258
:102330001A977C007D031200ABE4FD900258120353
:1023400043D31202704035802C121A97121A714032
:102350002B8022301610121AA225E0FFE4933312CC
:102360001A704018800F121AA224CEFFE49334FF93
:10237000121A704007900257E04401F0900257E0B3
:10238000FF9002ADF022780E12033790025C120328
:10239000B1780412033712290590019E1203B190FF
:1023A000006A12032B90019E120343C3120286504F
:1023B000037F022290019E12032B1227449001A951
:1023C000EEF0A3EFF09001C0E0FFA3E09001D4CFC6
:1023D000F0A3EFF09001A9E0FEA3E0FF1210CD9072
:1023E00001C0EEF0FCA3EFF0FD7808E2FE08E2FF8A
:1023F00012098E9001D6EEF0A3EFF07812EEF208FB
:10240000EFF27F0522010079FE000E0100BE0100FF
:10241000C60101A201015F01019E0101A90101BAEA
:102420000101C00101D6FE0012FE0014FE0016FEDE
:102430000018FE0000FE000401003E010042010001
:1024400046FE000801024701024F01025701025FE8
:1024500001022A0100DE01016101024301024B0178
:1024600001A60100CE0101610101F501022C01026A
:102470002E010209900232E030E1091224B3201843
:10248000031224C3900232E054FDF0900200E054A5
:102490000FFF6027900232E0FE30E206785FA60769
:1024A0008010EE30E31C900200E0540FC454F0782A
:1024B0005FF62018061224B31224C3900232E054AF
:1024C000F3F022C2107F07122B81900211EEF0A3CD
:1024D000EFF022C2927F217E007D007C00122D6AE7
:1024E000D2922212034390001AE0FFEFC3940450EB
:1024F0000553B9EF800343B910EF6003B4040B85B3
:10250000B71985B61A85B51B803AEF64016004EFF0
:10251000B4050B85EB1985EA1A85E91B8026EF6463
:10252000026004EFB4060B85F31985F21A85F11BDE
:102530008012EF64036004EFB4070985FB1985FA84
:102540001A85F91BAF1BAE1AAD19AC1822C0E0C03A
:10255000F0C083C082C0D075D01053B9FDE51D64B2
:1025600001701F1224D678001203BD7F01122CBC0B
:102570009002AEE0FF1228CA43B901D2D8751D05FA
:102580008019E51DB405141217C9780A1203BD128B
:10259000177FF452AB53AAFB751D00D0D0D082D068
:1025A00083D0F0D0E0329002751203B1E47FFF7E59
:1025B000FFFDFC900275120D7E400C900275120317
:1025C000C90000FFFF8030E4FF900275120D7B50C0
:1025D00026122832301E167F14122B817C007D03B8
:1025E0001200AB90023BEEF0A3EFF0C21E9002751A
:1025F0001203C90000271090027512032B22E47FFA
:10260000557E06FDFC780012034F12173540031269
:1026100017887FFF12175A400678C076FF800A900D
:10262000025712032B78C0A607E47F107E0EFDFC34
:102630009000811203431217354003121788E47F7C
:10264000FF12175B4005788E76FF22900257120327
:102650002B788EA607229002621203B190025F12BD
:10266000043890026212032B78061202AA900262CA
:102670001203B1900266120F038005C333CE33CE2E
:10268000D8F9120E76900262120E28900266E0F9D6
:10269000F8120EDB90025F12042F1202EDAF27AE8C
:1026A00026AD25AC247806120EDB2290026F1203B1
:1026B000B190026C12043890026F12032B780A1248
:1026C00002AA90026F1203B1900273120F038005E9
:1026D000C333CE33CED8F9120E7690026F120E2885
:1026E000900273E0F9F8120EE790026C12042F12B8
:1026F00002EDAF27AE26AD25AC24780A120EE722F4
:102700009002351203C900000000E4FF122BB075DF
:10271000ABFF122C019002351224D3120138900223
:10272000351203B1E4F5AB122C0190023512032BE4
:10273000C004C005C006C0071224D6A804A905AA73
:1027400006AB07D007D006D005D004120145900291
:10275000350203B190006A12034312014512259617
:10276000900258EEF0A3EFF07A0179B5120E1374CF
:1027700005F0A3EEF0A3EFF07A0179AB12293FA2A6
:1027800015301401B350157B017A0179AB7D051228
:102790001E8D9001B6E544F0A3E545F0900258E0A7
:1027A000FEA3E0FF22C0E0C0F0C083C082C0D075AD
:1027B000D000C000C28D758C32758AEB900293E414
:1027C00075F0011200BDC3900294E094149002933E
:1027D000E094004012900203A3E0785AF6900203BE
:1027E000E4F0A3F0120004D000D0D0D082D083D087
:1027F000F0D0E032E4FF122D827855EFF67851BF29
:10280000FF047609800276FFE4785FF6785276302E
:1028100008F6902E7A93FE740193FF7880A606083E
:10282000A607EF24CE7883F6EE34FF18F678847688
:1028300000087664E4122E2EF6122E2E7637754B93
:102840005022E51D70FCE4FF121816E4FF12071970
:10285000E49001FEF0900200F090021DF09002134F
:102860001219DC90021BF0A3F09002201219DC1266
:1028700019DF900063F0A3F0A208300001B3500DFF
:102880007F03122B8190020BEEF0A3EFF022A90739
:10289000E4FEFD900232E0FC703FEF5401FB90013A
:1028A000FFE054016B600D30020A201807EC44026F
:1028B000900232F09001FFE030E006EE4410FE801E
:1028C00004EE4401FEE930E006ED4401FD8004ED34
:1028D0004410FDEE5D900200F0229002AEE0D39431
:1028E000034002E4F0EF14601214601714601D241A
:1028F00003702112177FF452AB800D12177FF45230
:10290000AB800E12177F42AB53AAFB2212177F42F5
:10291000AB43AA04229002581203B1900078E090D1
:102920000260F090025C12032B9002651203B190DA
:102930000260E0900269F090025812032B1214D743
:10294000900260E0FF12049290019212032B2290F9
:102950000273E0FEA3E0FFC003C002C001120E5DDF
:1029600075F002120EBAD001D002D003EE8FF01231
:10297000010B90026F120EAF120E5DFF900272E01B
:10298000B50704E4120099227E05EF5401FD900181
:10299000FEE054016D6007EFF0E490021DF0785303
:1029A000E630E0089001FEE070027E0A90021DE031
:1029B00004F0C39E50037F002290021DEEF07F01C1
:1029C0002290026512032BC003C002C00190026175
:1029D000120E60120EB7D001D002D003120307907E
:1029E0000261120EAF900261120E60FF900264E06D
:1029F000B50704E41200992290026612032BC0036B
:102A0000C002C001900262120E60120EB7D001D057
:102A100002D003120307900262120EAF90026212FC
:102A20000E60FF900265E0B50704E4120099227879
:102A300053E6F520A208300001B350147F03122B97
:102A40008190020BEEF0A3EFF0122832A200920860
:102A5000A20A300201B35004A202920A30130512F6
:102A60002832C2132290025D1203B1900261120358
:102A70002B90025D120343D3120286400B90026139
:102A800012034390025D800990025D12034390029D
:102A90006112032B1201452243F80875CD4053CC37
:102AA0007F43CC4043CC2043CC1043CC0453CCFDDB
:102AB00043CB0243CB0153CBBFD2EB53E5FC43E303
:102AC0000243F50343900343ED03229000251203D4
:102AD0002BAB07AA067804120337C3EF9BFFEE9ACD
:102AE000FE7B017A00794CE4FCFD9002667408F0EC
:102AF0001226467808EEF208EFF27F05227814E2FB
:102B0000FE08E2FF7812E2FC08E2FDD39FEC9E4053
:102B10000BED9F7817F2EC9E18F28006E47816F21F
:102B200008F27816E2FF08E208CFF208EFF222E49A
:102B3000F51D53B9FD53B9DF43CC02C2D9539FFDF4
:102B4000438760C28DEF700675BD0D75BC01122EF6
:102B50004075BE0CD28C20C90343870300000000DF
:102B6000220005010802050301040105060601070C
:102B700001080A09010A010B030C050D0A0E010FD9
:102B800001100A113C12011301143C1501163C17E7
:102B9000027D017C00EFC394185020EF25E0245201
:102BA000F582E4342BF583E493FF7E00900205E088
:102BB000FCA3E0FD1200ABAC06AD07AE04AF0522EE
:102BC00053BA0F43BA401217A5900024E0F5B4EFB2
:102BD000700AF5B375B26175B1A880069000211234
:102BE00017EB1217F753AAFB22900201E0FF9002A5
:102BF00000E0FE6F6014300204785FA606E4FF1266
:102C00002B81900219EEF0A3EFF0900200E0A3F008
:102C10002275BF0F0000000000000000000000004F
:102C2000000000000000D2D853B9FD43B901E5B956
:102C300030E1FBE4F5BF22EF6003D38001C3920AC9
:102C400092027853A607900205E4F0A3745AF07F2D
:102C500008122B81900209EEF0A3EFF02290001AE7
:102C6000E0902E7193FF900024F090001BE0902ED6
:102C70007193FE900069F0EF4E42D442F442E4F4C6
:102C800052DC229002577405F0122ABB1223769070
:102C90000257EFF0BF0205D213E0FF22122AED1215
:102CA0002D51900257E0FF2274FFF5F00200BDE0C5
:102CB000FBE4FAF9F81201DE8F458E448D438C4215
:102CC00022AB34AA33A932A83102028653BA0F4389
:102CD000BA201217A5900069E0F5B4EF7009F5B3BA
:102CE00075B2AF75B1C8229000661217EB22E4905E
:102CF0000257F075BE0E439F027F03FEFDFC122DAE
:102D00006A75BC02E4F5BFD2D953CCFD22438901D8
:102D1000C28DD2A953B8FD120003900203F0A3F0B4
:102D2000758C32758AEBD28CD2AF227814E2FE0811
:102D3000E2FFD394F8EE942A5009C3EF9428EE945E
:102D4000235003122832227F01122BB0751D01750A
:102D5000BF0F43B92053B9FD43BA0143B901D2D8DB
:102D6000227F767E107D017C00780412034FD312FF
:102D700002864003C21822D218229002581203B1D0
:102D800090025874FF12037EEC4D4E4F600300809A
:102D9000EF22E4FFF582F5837440FEE493F42FFF05
:102DA000A3EEB583F6227F0022E4900211F0A3F097
:102DB0007F09122B8190020FEEF0A3EFF0D21022C8
:102DC00043D50453F5FB53E5FB43E30443ED04E42F
:102DD000900232F0D2922241001A0541001B0644B3
:102DE000001CFFFFFFFF04180000000000D3EF9D50
:102DF000EE9C4007EF9DFFEE9CFE22C3ED9FFFEC93
:102E00009EFE22E4FF122BB0121DD5121B897F01FA
:102E1000122BB01218160226F0E4FF122CBC122E50
:102E200092121AB37F01122CBC020719902E7CE477
:102E300093FF74019390006ECFF0A3EFF02208F699
:102E400008F608F608F6082212032BAD07AC062296
:102E5000438901C28CC28F120003758CFB758AED09
:102E60002220C90CC2AFA807A60408A605D2AF222B
:102E70002275AA3B53BAF343BA0C43B92053B9BFE6
:102E80002201020408102040809701F40064C2DA95
:102E900053D80F43D8D0D2D8D2D922900205E4F02B
:102EA000A3227856E608F622122C4D022DB00224F9
:102EB00064FFFFFFFFFFFFFFFFFFFFFFFFFFFFFFBD
:102EC000FFFFFFFFFFFFFFFFFFFFFFFFFFFFFFFF12
:00000001FF
