:1000000001100D003B00000020350000FF00000043
:10001000021A88E49002CBF0A3F022022D1853BA02
:100020000F43BA3075BBFF121E5F90001EE0F5B49F
:10003000EF700AF5B375B26175B1A8800690001B28
:10004000121EA2121EAE53AAFB22FF022B6953BA44
:10005000FEE5B920E004E51D6005E5B930E1FBE40B
:10006000F5BF53B9FD53B9FEF51D22022327BB018D
:100070000689828A83E0225002E722BBFE02E32245
:1000800089828A83E49322BB010989828A83F8E00A
:1000900028F022500327F722BBFE05F8E328F322BD
:1000A0008A838982F8E4932822BB010689828A83A5
:1000B000F0225002F722BBFE01F322EF8DF0A4A83C
:1000C000F0CF8CF0A428CE8DF0A42EFE22C5F0F83F
:1000D000A3E028F0C5F0F8E582158270021583E0F0
:1000E00038F022BB0110E58229F582E5833AF583D9
:1000F000E0F5F0A3E0225009E92582F886F008E651
:1001000022BBFE0AE92582F8E2F5F008E222E58347
:100110002AF583E993F5F0A3E99322F8BB0111E5F1
:100120008229F582E5833AF583E8F0E5F0A3F02231
:100130005009E92582C8F608A6F022BBFE09E92588
:1001400082C8F2E5F008F222EF2BFFEE3AFEED391D
:10015000FDEC38FC22C3EF9BFFEE9AFEED99FDEC1F
:1001600098FC22E88FF0A4CC8BF0A42CFCE98EF054
:10017000A42CFC8AF0EDA42CFCEA8EF0A4CDA8F00F
:100180008BF0A42DCC3825F0FDE98FF0A42CCD35D3
:10019000F0FCEB8EF0A4FEA9F0EB8FF0A4CFC5F03D
:1001A0002ECD39FEE43CFCEAA42DCE35F0FDE43C36
:1001B000FC2275F008758200EF2FFFEE33FECD3381
:1001C000CDCC33CCC58233C5829BED9AEC99E582C8
:1001D00098400CF582EE9BFEED9AFDEC99FC0FD554
:1001E000F0D6E4CEFBE4CDFAE4CCF9A88222B80044
:1001F000C1B90059BA002DEC8BF084CFCECDFCE50F
:10020000F0CBF97818EF2FFFEE33FEED33FDEC3332
:10021000FCEB33FB10D703994004EB99FB0FD8E5B7
:10022000E4F9FA227818EF2FFFEE33FEED33FDEC00
:1002300033FCC933C910D7059BE99A4007EC9BFCF6
:10024000E99AF90FD8E0E4C9FAE4CCFB2275F01082
:10025000EF2FFFEE33FEED33FDCC33CCC833C810A7
:10026000D7079BEC9AE899400AED9BFDEC9AFCE8D5
:1002700099F80FD5F0DAE4CDFBE4CCFAE4C8F92222
:10028000EB9FF5F0EA9E42F0E99D42F0EC6480C8F5
:1002900064809845F022EB9FF5F0EA9E42F0E99DDC
:1002A00042F0E89C45F022E8600FECC313FCED132C
:1002B000FDEE13FEEF13FFD8F122E8600FEFC3331A
:1002C000FFEE33FEED33FDEC33FCD8F122BB010D24
:1002D000E58229F582E5833AF58302032B5007E98D
:1002E0002582F802044DBBFE07E92582F802033798
:1002F000E58229F582E5833AF583020459BB0107BB
:1003000089828A830203B15005E9F8020486BBFEA4
:1003100005E9F80203BD22BB010DE58229F582E55E
:10032000833AF5830203B15007E92582F802048677
:10033000BBFE07E92582F80203BD22E0FCA3E0FD35
:10034000A3E0FEA3E0FF22E2FC08E2FD08E2FE08D3
:10035000E2FF22E0F8A3E0F9A3E0FAA3E0FB22E247
:10036000FB08E2F908E2FA08E2CBF822BB010789B0
:10037000828A830203435005E9F8020469BBFE0543
:10038000E9F802034F89828A830204767401FF33FD
:1003900095E0FEFDFCA3A3A3E0CF2FF0E58215823C
:1003A00070021583E0CE3EF0E5821582700215835F
:1003B000E0CD3DF0E582158270021583E0CC3CF083
:1003C00022ECF0A3EDF0A3EEF0A3EFF022ECF208A4
:1003D000EDF208EEF208EFF222A8828583F0D083D6
:1003E000D0821203E01203E01203E01203E0E47390
:1003F000E493A3C583C5F0C583C8C582C8F0A3C56F
:1004000083C5F0C583C8C582C822D083D082E49357
:10041000F208740193F208740293F208740393F2E1
:10042000740473A42582F582E5F03583F58322FAFE
:10043000E6FB0808E6F925F0F618E6CA3AF622E0E7
:10044000FBA3E0FAA3E0F922EBF0A3EAF0A3E9F0C2
:1004500022E493FB740193FA740293F922E6FC08F8
:10046000E6FD08E6FE08E6FF22E493FC740193FD36
:10047000740293FE740393FF22E6FB08E6F908E694
:10048000FA08E6CBF822E493F8740193F974029326
:10049000FA740393FB22ECF608EDF608EEF608EF8B
:1004A000F622900299EFF0121579E0FEA3E0FF75B5
:1004B000F002ED9000B81214AB123447D3EF94C899
:1004C000EE9400400890029A7401F08014D3EF94E7
:1004D00064EE940090029A40057402F08003740365
:1004E000F0900299E075F004A424CAF9740035F084
:1004F000FA7B0112145090029AE09002ABF0122C99
:100500006F900299E0121579EEF0A3EFF0ED75F01F
:1005100004A4243BF9740135F0FA7B01900299128E
:1005200014509002AB7406F0122C6F900299E09078
:10053000012B12157DEEF0A3EFF090029C1203C97F
:1005400000000000E490029AF090029C12032BC07D
:1005500004C005C006C007900299E0FD75F0149034
:1005600000DA120413C083C08290029AE0D082D0D5
:100570008312157DE0FEA3E0FFED1214A5123447AF
:10058000AB07AA06E4F9F8D007D006D005D00412CC
:10059000013890029C1203B190029AE004F0E0C38B
:1005A000940A40A590029C12032B900299E09001BE
:1005B0005D12162F900256E07002A3E0703A90018F
:1005C0002AE075F00A84E5F0F0E4FFEF1214A57557
:1005D000F014EF9000DA120413C083C08290012A55
:1005E000E0D082D08312157DECF0A3EDF00FEFB4D4
:1005F00004D990012AE004F0301F030206D0301322
:10060000030206D0900250E07002A3E060030206ED
:10061000D0900244E07002A3E060030206D0781696
:10062000E2FE08E2FFC394C4EE940950189034F53A
:1006300074019324CEFDE49334FFFCD3EF9DEE9C34
:1006400040030206D0900299E0640360030206D0E2
:100650009002A01203C9FFFFFFFFE490029BF090FD
:10066000029AF090029AE0FFC39404502D75F004B2
:10067000EF90015D1215269002A0120343D31202DF
:1006800086400F90029AE0A3F01215209002A0126B
:1006900003B190029AE004F080C99001BAE012150B
:1006A00020E47B1E12160C503790029BE09001BA9A
:1006B000F0A3E09001331214549001B6121535C026
:1006C00006C0079001BAE075F002900133120413DE
:1006D0001215A1D007D0061201459001B61203B140
:1006E000900299E0B403169001BAE075F002121678
:1006F00038E0FFA3E09000C0CFF0A3EFF09001B688
:1007000012032B9000C1E02FFF9000C0E03E90014B
:100710005BF0A3EFF09001BAE0A3F0900299E0FF44
:1007200090012B1214A875F002EF900133120413FC
:10073000ECF0A3EDF012076490022AE07004A3E04D
:10074000640370171207641214837A01796D1230F2
:100750000C1214837A01796D12300C7B017A0179C5
:100760006D7D1C122563AF41AE40AD3FAC3E9001A4
:10077000A60203B17B017A0179A59002A712043881
:100780009002AA741CF090015BE0FFA3E09002AB22
:10079000CFF0A3EFF07A01796D12300C2290028F26
:1007A000EEF0A3EFF0E4A3F0D390023FE0940090CA
:1007B000023EE094004006121D770209F290022EDC
:1007C000E0FEA3E0FFD39400EE94005005121CCC91
:1007D000401E121D4A40089001CCEAF0A3EBF090B5
:1007E00001CCE0FDA3E07814CDF208EDF20209F8A7
:1007F00090021CE0640160030208B6121D9E5003C3
:100800000208B6121D4A40089001CCEAF0A3EBF0B2
:10081000D3EF9400EE94005005121CCC4003020864
:10082000DE121D5E121DDAC000121D93D000121CD4
:10083000E95067EDAE047802CEC313CE13D8F9FFAA
:10084000C3EB9FEA9E4006900217E0604D120A49F2
:100850004011121DBE7802CEC313CE13D8F9121D5B
:10086000865037A215301401B3402F7812E2FE08EB
:10087000E208121D709FEC9E5009C3EF94ECEE94B9
:100880002C4017D3EF94ECEE942C50030209F8EDB2
:1008900094ECEC942C40030209F89002177401F0D8
:1008A000D37813E294EC18E2942C40147815E29477
:1008B000EC18E2942C5009742CF20874ECF28003CA
:1008C000121D3B0209F22000030209599001CCE0FD
:1008D000FEA3E0121D6ED39FEC9E40089001CCEC6D
:1008E000F0A3EDF0121D255005121CCC4006121D80
:1008F0003B0209F8121D5E121DDAC000121D93D0D2
:1009000000121CE95057EDAE047802CEC313CE138B
:10091000D8F9FFC3EB9FEA9E4006900217E0603DC6
:10092000120A494011121DBE7802CEC313CE13D84D
:10093000F9121D865027A215301401B3401F7812FA
:10094000E2FE08E2FF7815E29F18E29E40030209EA
:10095000F8C3EF94E0EE942E40030209F8900217DA
:100960007401F0121D3B0209F2121DDAC000121DC3
:1009700093D00012013890006A1203B1121D5E126A
:100980001DBEC3121D8750387808E2FE08E2FF90B2
:100990000044E0FCA3E0FD123447D3EF9414EE943E
:1009A00000501DA215301401B34015900242E0FE24
:1009B000A3E0FFD3900241E09F900240E09E4048B8
:1009C00090026DE07002A3E0703E900070E0FEA324
:1009D000E0FFFBAA06E4F9F890006A12032B12016B
:1009E000DED3900276E09400900275E09400400E11
:1009F0007815E22FFF18E23EC313FEEF13FFEE124D
:100A00001D439002917401F0900291E0604AE490DD
:100A10000070F0A3F090006A1203C900000000907B
:100A200034F5E493FE7401937802CEC313CE13D849
:100A3000F92410FFEE3427FED39001CDE09F900102
:100A4000CCE09E40077427F0A37410F0121D7712BB
:100A50001DB6900240121D33227808E2FE08E2FF24
:100A6000900044E0FCA3E0FD123447D3EF9414EE71
:100A7000940022900290EEF0A3EFF0A3ECF0ED12C0
:100A8000153B4012900292E0FFA3E0900296CFF057
:100A9000A3EFF0020CD1900056E0900294120CE209
:100AA00090029A1214F9120CE2900298EEF0A3EF61
:100AB000F09001EDE0900294F075F0029001E112E7
:100AC00014AB120CFF90029E1214F9F075F0029014
:100AD00001E11214AB120CFF90029CEEF0A3EFF0B8
:100AE00090020EE09002941214C29002A81203B178
:100AF0001214FE1214C29002A41203B190029212B8
:100B0000145AC006C0079001EE1215A1D007D006F6
:100B10001201459002A01203B1D37817E294C418D1
:100B2000E29409501A900223E0601490026FE07082
:100B30000E30020B2000081214EC5003020CAE9091
:100B40000250E07002A3E0700A900244E07002A339
:100B5000E0600B3002081214EB5003020CAE90025E
:100B60001CE0B401121215BC400D9002747403F025
:100B7000E4900295F0802B20020A74031215AC1445
:100B8000F0020BFF1214EB402F74021215ACF09020
:100B90000274E0FD12150E5009ED75F08212147406
:100BA000406D9002A81203C9000000009002A41238
:100BB00003C9000000008057D3900268E0940090C1
:100BC0000267E094004002801D30000E90027474B1
:100BD00009F0900295740BF08035200217900223E3
:100BE000E07011301D0E9002747408F0900295743C
:100BF0000AF0801B90020FE0900274B401097404A3
:100C0000F0900295F080087401F090029504F07560
:100C1000F0961214704003020C66900274E0FD75A9
:100C2000F0821214745009ED12150E5003020CA834
:100C3000900295E02406FFE433FEC390029BE09F00
:100C400090029AE09E401612152C1216517F0E1239
:100C50003258900252EEF0A3EFF0020CAED39002A5
:100C600053E09400900252E094004002804A75F0F4
:100C700082121470400812164B9002A4800F90024A
:100C800074E012150E403712164B9002A812163E51
:100C90001216517F0D123258900250EEF0A3EFF071
:100CA0007F1812325890026DEEF0A3EFF0900279A7
:100CB000E4F0A3745AF0800612152C12165190021B
:100CC0009212145A9001F212163E122A9290029633
:100CD000EEF0A3EFF0A3E0FEA3E0A312164412236C
:100CE000EE78129002181215E1900296E0FEA3E051
:100CF000FF22F025E0244AF582E43400F583E0FC8D
:100D0000A3E0FD900290E0FEA3E0FF1234472290A2
:100D10000292E0FEA3E0FF12344722E49002B1F019
:100D2000EF7003020EC412003E9001B21203C9001C
:100D3000000000E49002B2F09002B71203C9000074
:100D400000009002B2E0FF122F5C121E879002B3E7
:100D50001203B1E49002B0F09002B312032B9002A0
:100D6000B2E075F00C900073120413C083C082903F
:100D700002B0E0D082D08375F0041204131203B1E4
:100D8000121E92E0B403D178579002B3121E7690EF
:100D900002B31203B19002B2E0FF9000B8121DE15D
:100DA0009000C2121DE090012B121DE075F002EFC1
:100DB000900133121DE475F004EF9000CA12041381
:100DC0001203C9009C40009002B2E0FB75F0049051
:100DD000013B1204131203C9009C4000121E22752D
:100DE000F004EB90014B1204131203B1E49002B033
:100DF000F09002B0E0FFC3940A50159002B2E07583
:100E0000F0149000DA120413121DE0121E9280E119
:100E10009002B7120343121E221201389002B71239
:100E200003B19002B2E004F0C394045003020D3207
:100E300090015B121DE79000C0121DE790015BE07E
:100E4000FEA3E0FF9002B1E075F00290016D120484
:100E500013EEF0A3EFF09001B212034390015BE0B8
:100E6000FEA3E0FFE4FCFD1201389001B21203B1D1
:100E70009002B1E004F0C3941C5003020D23121E33
:100E80009C9001A6121E999001AA121E9978061232
:100E900002AA9001AE1203B1E49001BAF0A3F0A34C
:100EA000F09001B61203C900000000E49002B0F017
:100EB0009002B0E0FFC39405500F75F002EF90016F
:100EC000BF121DE4121E9280E79001CA121DE7E4D2
:100ED0009002EAF09001A6121E259000641203B160
:100EE00090006A1203C900000000E4900070F0A3B3
:100EF000F078147427F2087410F278127427F2084C
:100F00007410F2E47816F208F2900215F0A3F09053
:100F100001BD121DE79001CE121DE7A31203C90007
:100F200009C4009001D4121DE7A31203C90009C42B
:100F3000009001DA121DE7A31203C90009C4009052
:100F400001E0740AF09001F0121DE7900211120303
:100F5000C9000000009001EE121DE79001F212039B
:100F6000C900000000E49002B0F09002B0E0FB7510
:100F7000F0049001F61204131203C900000000757A
:100F8000F002EB9001E1121DE4121E92E0B406DAC9
:100F9000E4900258F0A3F0A3F0A3F090026BF0A34A
:100FA000F0A3F0A3F090020FF0A3F022900228E447
:100FB00075F0011200BDD390022DE0940090022C38
:100FC000E094004003123370D390022FE09400901D
:100FD000022EE094004003123370D3900237E09465
:100FE00000900236E094004003123370D390023D2B
:100FF000E0940090023CE09400400F1233709002A5
:101000003CE07002A3E07002D210D390023BE09467
:101010000090023AE094004003123370D3900239FA
:10102000E09400900238E094004003123370900284
:1010300022E030E011E490023EF0A3F0A3F0A3F030
:10104000A3F0A3F08042D390023FE0940090023ED0
:10105000E09400401A12337090023EE07002A3E068
:10106000700D7F0B123258900242EEF0A3EFF0D3D6
:10107000900243E09400900242E09400400A900203
:1010800040E475F0011200BDD3900247E094009057
:101090000246E094004003123370D3900251E09472
:1010A00000900250E094004003123370D39002533A
:1010B000E09400900252E094004003123370D39009
:1010C0000255E09400900254E09400400312337003
:1010D000D3900257E09400900256E094004005122D
:1010E0003370800D7F10123258900256EEF0A3EF4D
:1010F000F0D3900259E09400900258E0940040032D
:10110000123370D390025BE0940090025AE0940096
:101110004003123370D390025DE0940090025CE0D3
:1011200094004003123370D3900268E09400900260
:1011300067E094004003123370D3900266E094009D
:10114000900265E094004003123370D390026AE08D
:101150009400900269E094004003123370D390022F
:101160006CE0940090026BE094004003123370D363
:1011700090026EE0940090026DE094004003123300
:1011800070D3900273E09400900272E094004003E8
:10119000123370D3900245E09400900244E0940032
:1011A0004003123370D3900276E09400900275E011
:1011B00094004003123370D3900231E09400900207
:1011C00030E094004003123370D3900233E0940077
:1011D000900232E094004003123370D3900235E065
:1011E0009400900234E094004003123370D39002D4
:1011F0007AE09400900279E0940040031233702268
:10120000900222E0900227F0121D255005121CCCFE
:101210004007E4900222F08008122F20900222EF73
:10122000F0900222E0FF123045EF700D121D2550A4
:1012300008121CCC500302142A900223E0706C9018
:10124000026FF0A3F0A3F090005DF0A3F090026BAA
:10125000F0A3F0C21EC21212276B122E977F01124A
:101260003258D3900239E09400900238E094004064
:101270001E30140DEF7803CEC313CE13D8F9FF80C0
:101280000EEEC4F854F0C868FEEFC4540F48FF12C5
:10129000078DC37815E2941018E2942740030213D7
:1012A000A17427F2087410F20213A190005DE0709F
:1012B00002A3E0701390005D121D7A7F171232585E
:1012C00090026BEEF0A3EFF090026BE07004A3E0ED
:1012D0006401702A90005DE0FEA3E0FF2496FDE427
:1012E0003EFC7808121D544004D21E8011EF246A7F
:1012F000FFEE34FFFEC3EB9FEA9E5002D212301E77
:101300003F121CD9D39DEE9C50030213A112142B43
:1013100040030213A17F14123258EF7802CEC31398
:10132000CE13D8F9121DAC7F151232587C007D0304
:101330001200AB900267EEF0A3EFF0C21E0213A101
:10134000301224121CD9D39DEE9C406512142B50F0
:10135000607F14123258EF7802CEC313CE13D8F93F
:10136000121DACC212804A301647121CD9D39DEE12
:101370009C403E123447C39034F57401939FE4932C
:101380009E502E121CE07816E2FC08E2FD12344753
:10139000AA06AB07121CE07C007D031200ABEF78BD
:1013A00002CEC313CE13D8F9C39BEE9A5003122971
:1013B0003D900265E07004A3E06401700312293DD2
:1013C000900223E0FFA3E06F603E122E037F19120C
:1013D0003258900272EEF0A3EFF0900225E030E474
:1013E00021D3121CCC5005121D264009E490023E68
:1013F000F0A3F0800D7F0712325890023EEEF0A36A
:10140000EFF0900223E0A3F0900223E0602C900222
:1014100072E07004A3E0640170207816E2FE08E236
:10142000900270121DAFC394E2EE94045007900234
:101430006F7401F022E490026FF022123447AC0680
:10144000AD07900215E0C313FEA3E013C39DEE9C0D
:101450002274FF900294FEFDFC120343D30202703B
:10146000E09000B875F002120413E0FEA3E0FFE480
:10147000FCFD22E47FE87E03FDFC120343020153DE
:10148000900274E0A4FFC390029DE09F90029CE054
:1014900095F0227B017A0179A59002A71204389079
:1014A00002AA741CF090015BE0FFA3E09002ABCFB6
:1014B000F0A3EFF0229000C275F002120413E0FCDA
:1014C000A3E0FD22900056E02457F582E43400F5B5
:1014D0008322F075F0049001F61204131203439076
:1014E00001F212032B02014590028FE075F00CA46B
:1014F0002473F9740035F0FA7B0122D3900276E070
:101500009400900275E0940022EEF0A3EFF09002B8
:1015100094E02403F0E075F00684AFF0EF2275F05C
:10152000C8A4FFC390029FE09F90029EE095F02226
:1015300090015D75F00412041302032B9001F21266
:10154000032B9002A0120343020138A3F0D39002B0
:101550002FE0940090022EE09400229002B3120338
:10156000B19002AB1203439002B312032B0201DECF
:101570009002A712042F02005EFFE4FCFDFE12039E
:101580004F1201537807020297FD9000C275F002D6
:101590000204137B019002A71204389002AA2224AD
:1015A000FFFFEE34FFFE3395E0FDFC12035C020109
:1015B00053E0FEA3E0FBAA06E4F9F822900274F0DF
:1015C0009002952212042F7401020077D390023109
:1015D000E09400900230E094002275F004A4F582BB
:1015E00085F0832290029912043890029C7403F0D3
:1015F00022E2FF08E2CFF0A3EFF0221202978F273A
:101600008E268D258C24221202978F278E268D25DB
:101610008C24227857E6FFE4FCFDFE22FAF9F8C399
:10162000020286E0FF74017E00A80708221203B1BF
:101630009002AF02032B12033790029D0203B17593
:10164000F0041204130203B19000B8020413120351
:1016500043020145FFE0FCA3E0FD229001F20203FA
:101660002B9001F20203B1900290EEF0A3EFF07B19
:10167000017A0179D090029012145A9002A0740558
:10168000F0122C1A9001CEEEF0A3EFF07B017A015C
:1016900079D690029012145A9002A07404F0122C81
:1016A0001A9001D4EEF0EF12153B40028033900106
:1016B000BD12145AC006C0079001CE1215A1D00762
:1016C000D0061201459002941203B1E47FFA12147D
:1016D00043400690029802172EE47FB41214434050
:1016E000099002987405F0021731E47F64121443E4
:1016F0004002802274FF7FF1FEFDFC9002941203F1
:1017000043C31202704008900298740AF080327F3E
:101710009C12144140089002987408F080237F4C7A
:1017200012144140089002987406F0801474FF7FF0
:101730000612144390029840057404F0800374026A
:10174000F01214EB40069002987405F0900298E0B5
:101750009001E0F090026DE07002A3E0701E900135
:10176000BDE0FEA3E09001D4121644123447C3EF4B
:101770009496EE940050059001D480039001BD1220
:10178000145A900298E09002A0F07B017A0179DC73
:10179000122C1A900292EEF0A3EFF0900254E07037
:1017A00002A3E070797F0F123258EEC313FEEF13DD
:1017B000FF900254EEF0A3EFF07A007956121583F1
:1017C0007406F07808E2FF08E2A3CFF0A3EFF07A06
:1017D00000794A12300C7B017A0179ED121585747B
:1017E00006F09002921214987A0179E112300C7B83
:1017F000017A02790E90029C12043890029F7406BE
:10180000F012164B9002A01203B17A0179F6123150
:101810002678169002151215E11214B4E4F0900225
:1018200092E0FEA3E0FF22E4900290F07B017A00B8
:1018300079371215D478001216267A00792B1230D7
:10184000EF7B017A00792B1219347B3212160C507F
:10185000069002907401F09002EAE090028FF0E4AA
:10186000900291F01214D8C002C0017A0079A3123C
:1018700015D4780A121626D001D0021230EF1214B5
:10188000D81219347BF47A0112160D500690029189
:101890007401F0300043900290E07004A3E06039DE
:1018A0007B017A00792B12190278561216059002E4
:1018B0009212146A780712029778041203BD121468
:1018C000D812190212160390029212146A780712A3
:1018D0000297780E1203BD80367856E6780012150E
:1018E0006978041203BD7804120337EC4D4E4F7033
:1018F000037F02227857E6780A121569780E1203E0
:10190000BD780E120337EC4D4E4F70037F02227FDD
:1019100004227D031220B2C3E5419539FFE54095CD
:1019200038FEE53F9537FDE53E9536FCC3EF953D26
:10193000FFEE953CFEED953BFDEC953AFC90029256
:101940001203B1227D031220B2C3E539953DFFE5B4
:1019500038953CFEE537953BFDE536953AFCE422AB
:101960009002991203B112153D405B900299120347
:101970002B9000381203B1E47F32FEFDFC9000385A
:1019800012146A780A12029790003C1203B1E49094
:1019900002A2F09002A2E0FFC39404502975F00C5B
:1019A000EF90007B120413120343C000121603D001
:1019B000001215719002A2E09000A412162F90025E
:1019C000A2E004F080CD9002A1E09000A4121523C3
:1019D000E47B23FAF9F8120153780A120297900077
:1019E000B41203B190003C1203439000381214D299
:1019F000C004C005C006C00790003C12034390021B
:101A0000991214D29002AB1203B19002AF1203C923
:101A100000010000D007D006D005D004122618908F
:101A200000401203B19000B412034390029D1214BF
:101A3000D2C004C005C006C0079002AB1203C900A3
:101A400001000090004012032B9002AF1203B1D0AE
:101A500007D006D005D0041226189002A31203B1B5
:101A60009000B412032BAB07AA069002A312032B1B
:101A7000EF2BFBEE3AFA9002A1E0F975F004900129
:101A80004B121526C3EB9FFFEA9EFE75F002E9128A
:101A90001638EEF0A3EFF022439F04E453C6DFE5CF
:101AA000C600B5C6F375830075820775FD0DE4E5C4
:101AB000FEF4FF75830075820675FD0DE4E5FEB545
:101AC0000704F59E8003759E0078100000D8FC5333
:101AD000C6E043C60843C6807596077597097583A7
:101AE0000075820475FD0DE5FD0404F58F75830016
:101AF00075820375FD0DE4E5FEF4FF7583007582C4
:101B00000275FD0DE4E5FEB50704F59580037595B6
:101B10008375BE0E5392FE9001007F007E02E4F0BA
:101B2000A3DFFCDEFA78007F00E4F208DFFC78FF38
:101B3000E4F6D8FD7581C0021B680200000226C2CF
:101B4000E493A3F8E493A34003F68001F208DFF4E2
:101B50008029E493A3F85407240CC8C333C4540F5A
:101B60004420C8834004F456800146F6DFE4800B2D
:101B700001020408102040809034DDE47E0193606F
:101B8000BCA3FF543F30E509541FFEE493A360015A
:101B90000ECF54C025E060A840B8E493A3FAE493C4
:101BA000A3F8E493A3C8C582C8CAC583CAF0A3C872
:101BB000C582C8CAC583CADFE9DEE780BE20CA0382
:101BC000021CBAE5467003021CBAE4FF74462FF803
:101BD000E6FE74902FF582E43402F583EEF0E4F62D
:101BE0000FEFB405E7900290E0FF54F0FEEF540FC2
:101BF00090028FF0AF06EF24A0602424F060282428
:101C0000D0603824E07003021C8324E07003021CBF
:101C1000AE24906003021CBA7853E6440180057834
:101C200053E654FEF6802EE4FF1234027855EFF6A8
:101C30007851BFFF03760D2276FF2290028FE0FDE0
:101C400070177853E620E203021CBA54FBF69002A8
:101C50005EE04408F0751C0222ED6401706C78535C
:101C6000E620E20D4404F690025EE04404F0751CA8
:101C700002123231400D90021CE07007121CBB743E
:101C800002F02212323F403090021CE0B403028086
:101C900023802512293D123231400D90021CE07044
:101CA00007121CBB7403F02212323F400B90021C3F
:101CB000E0B402047401F022E490021CF022E490EB
:101CC000022EF0A3F0D21F12293D227F1B123258A0
:101CD000900234EEF0A3EFF090021C22900237E065
:101CE0009400900236E09400227816E2FC08E2FDAF
:101CF000900215E0FEA3E0FF2212013890006A1264
:101D000003B190028FE0FCA3E0FDECC313FEED13E2
:101D1000FF900070E0FAA3E0FBC39FEA9E2290349C
:101D2000F574019324CEFDE49334FFFCC37817E2ED
:101D30009D18E29C22D390022FE0940090022EE0A6
:101D4000940022F0A3F0A3F0A3F0229001CCE0FFD6
:101D5000A3E0CF7814F208EFF2229001CCE0FCA3CC
:101D6000E0FD7812E2FA08E2FBD39DEA9C229000A3
:101D700070E475F0010200BD7814E2FE08E278120A
:101D8000FFE2FC08E2FD229000447808E2FF08E24E
:101D9000CFF0A3EFF022D3FF900071E09F9000708E
:101DA000E09E227812E2FE08E2FFE4FCFD22D390DE
:101DB0000231E09400900230E0940022900265FF2E
:101DC000EEF0A3EFF022E4900249F0A3F02290029B
:101DD0008FE0FEA3E0229034F593FC740193FD2282
:101DE000C37815E29DFF18E29C2290006A0203432B
:101DF000EF75F0021204137427F0A37410F022128E
:101E0000015390028F1203B19002611203439002BA
:101E10008F12032B1201DE780812029790028F12A4
:101E200003B17F0FE4FEFDFC90028F120343D30247
:101E300002869002B312032BEF24F0FFEE34D8FE9B
:101E4000ED34FFFDEC34FFFC22900019E09034ECFF
:101E5000932290028F12032BC3EF940FFFEE940096
:101E6000FEED9400FDEC9400FC90028F0203B1752E
:101E7000A9A075AC0375ADC075AEC022E5BAF0532C
:101E8000BA0F43BA1022E6FFE4FCFDFE1203431230
:101E9000015378070202971232DA900019E0FF022C
:101EA0002B079002B0E004F0221203B19001B202BD
:101EB000032BE0F5B3A3E0F5B2A3E0F5B122900067
:101EC00018E09034EC93F5AB2275BF0F43B9205363
:101ED000B9FD2290029412032B900290229002945A
:101EE00012032B90029022E49002B1F0EF607B127B
:101EF000003E9000231203C9000000001232DA9065
:101F00000023122AFF1201389000231203B190021D
:101F1000B1E004F0C3941C40E3E0FFFBE4FAF9F8FD
:101F200090002312032B1201DE9002B21203B1784B
:101F3000569002B2121E7678041203BDE49002B0ED
:101F4000F09002B0E0FBC39403501F9002B2120362
:101F50002BEB25E025E0242BF582E43400F58312F9
:101F600003B19002B0E004F080D77804120337EF99
:101F700024D0FFEE348A121E2F90001F1203B1905E
:101F800000447475F0A37430F0A31203C9001D4C13
:101F900000E49002B0F09002B0E0FFC39406502736
:101FA000EF25E0244AF582E43400F5837475F0A34C
:101FB0007430F074572FF582E43400F583E4F09028
:101FC00002B0E004F080CFE4900056F07808747519
:101FD000F2087430F222301115123506745AF07F6F
:101FE0000A12325890023AEEF0A3EFF0C211A21496
:101FF0009215300202802ED390022FE094009002BE
:102000002EE09400501F90023BE0940090023AE0D2
:102010009400501130100E90027AE09400900279F2
:10202000E09400400A123506745AF0C21480081277
:1020300035067403F0D214301408E4FF1231F5129F
:102040003394A215301401B35028900223E060129B
:10205000D2167812E2FF08E2900277CFF0A3EFF0F9
:1020600080107F02123258900238EEF0A3EFF01287
:10207000293D20141030150D7F031232589002753F
:10208000EEF0A3EFF07812E2FE08E2FF900277E0B4
:10209000FCA3E0FDD39FEC9E4012ED9FFFEC9EFE63
:1020A000D3EF94DCEE9405400312293D900223E027
:1020B000700F30160312293DC216E4900277F0A388
:1020C000F022900296120438900299EDF0E4F5287F
:1020D000F527F526F52574FFF52CF52BF52AF529BE
:1020E000E4F530F52FF52EF52DF524900299E0FF5B
:1020F000E524C39F507090029612042F75F004E5FA
:1021000024A4F58285F0831202BD8F348E338D3284
:102110008C31AF28AE27AD26AC25D3123389400CC5
:10212000853428853327853226853125AF2CAE2B83
:10213000AD2AAC29C3123389500C85342C85332B3E
:1021400085322A853129E5302534FFE52F3533FEE8
:10215000E52E3532FDE52D35318F308E2F8D2EF564
:102160002D05240220DB85283985273885263785EB
:102170002536852C3D852B3C852A3B85293A8530A3
:1021800041852F40852E3F852D3E900299AF30AE80
:102190002FAD2EAC2D123377227B077A0790029059
:1021A0001203C90000000012003EEB601A74017EA9
:1021B00000A803088005C333CE33CED8F9FFADACF9
:1021C000EF5D70031B80E3EA601A74017E00A802D1
:1021D000088005C333CE33CED8F9FFADAEEF5D70C6
:1021E000031A80E3AF037401A807088002C333D841
:1021F000FCF5AC7401A802088002C333D8FCFFF5DB
:10220000AD8FAE53AACF43AA0490028F121E6C1258
:102210001E3942AB121E879002941203B1121ECDDA
:10222000120343C31202865006121ECD1203B19050
:102230000290120343C00090029012032B78031205
:102240000297D0001201389002901203B1900290D0
:1022500012032B90005F1203B143AA3053AAFB90E4
:10226000028FE0F5BA121E39F452AB121E62227BC5
:10227000077A079002901203C90000000012003E86
:10228000EB601A74017E00A803088005C333CE33C7
:10229000CED8F9FFADACEF5D70031B80E3EA601AA6
:1022A00074017E00A802088005C333CE33CED8F96E
:1022B000FFADAEEF5D70031A80E3AF037401A807B2
:1022C000088002C333D8FCF5AC7401A80208800270
:1022D000C333D8FCFFF5AD8FAE53AACF90028F1257
:1022E0001E6C1232DA122B029002941203B1121EEB
:1022F000C3120343C31202865006121EC31203B157
:10230000900290120343C00090029012032B7803B6
:10231000120297D0001201389002901203B190027D
:102320009012032B90001A1203B143AA3090028F2F
:10233000E0F5BA121E6222C0E0C0F0C083C082C0C5
:10234000D075D008C2CFD21130CD030223E320CC08
:102350006030CB2285CE4FE54FC39480401675F098
:1023600003E54F9028341204131204418B4C8A4D1C
:10237000894E8063807385CE35E54F7022E535B494
:1023800010099002EBE0F452808066E535B4200835
:102390009002EBE042808059853546054F8052E53A
:1023A0004FC3940550077446254FF8A635054F8056
:1023B00040E54FB4C0057546C08036E54FB4C21045
:1023C0007853E630E2057546A080267546A1802147
:1023D000E54FC394804010784CE475F00112041F5F
:1023E00012005EF5CE800A054FE54B254FF8E6F565
:1023F000CED210D0D0D082D083D0F0D0E0329002B4
:10240000ACECF0A3EDF0E4FD90020FE07034C3EF0C
:10241000940AEE940040061214B47401F01214B43D
:10242000E07002C21DE4FF74572F1214BAE070046A
:10243000C21D80130DEDB40602D21D0FEFB406E7E6
:1024400080051214B4E4F090025AE07002A3E07028
:1024500057900258E07002A3E0704D90020FE070B8
:102460001B301D187F11123258900258EEF0A3EF66
:10247000F090020F7401F0D21BC21D2290020FE0F7
:1024800064017036C39002ADE0940A9002ACE0940F
:102490000050277F121232587C007D0C1200AB9046
:1024A000025AEEF0A3EFF02290025AE07004A3E08B
:1024B0006401700690020FF0D21C2212003E9002BE
:1024C00090121E6C78001203FA0000000090028F38
:1024D0007405F075ABFF1232DA780012034F122B3D
:1024E0000212013878001203BDE4F5AB1232DA783B
:1024F00000120337C004C005C006C007122B02A893
:1025000004A905AA06AB07D007D006D005D004124F
:10251000014578001203BD90028FE014F0E070B323
:10252000780012034F7F007E257D307C001201DE93
:102530009002911203B190029112032B9002991212
:1025400003B17F967E007D007C0012315DE47B321A
:10255000FAF9F8C3120286500678567696800A90E9
:10256000029112032B7856A607900290E0F5BA125A
:102570001EAE229002A41204389002A7EDF0E4F5FA
:1025800025F52674FFF527F528E4F52EF52DF52C15
:10259000F52BF5249002A7E0FFE524C39F50599046
:1025A00002A412042F75F002E524A4F58285F083BD
:1025B0001200D3F52A85F029D39526E529952540E3
:1025C00006852925852A26C3E52A9528E529952704
:1025D0005006852927852A28E4FCFDE52E252AFFBB
:1025E000E52D3529FEED352CFDEC352B8F2E8E2D6E
:1025F0008D2CF52B0524809CE4852639852538F51E
:1026000037F53685283D85273CF53BF53A852E4143
:10261000852D40852C3F852B3E9002A7AF2EAE2DF9
:10262000AD2CAC2B123377229002A71203B1E47BBE
:10263000E87A03F9F89002A712155A9002B712032C
:10264000B19002B7121463A804A905AA06AB0790BB
:1026500002A71214D29002BB12161D9002B71214D8
:102660006A12154B9002BF1203B19002AB12032BFA
:102670009002BF12146AA804A905AA06AB0790022B
:10268000B31214D29002C312161D9002BB12146A28
:102690009002B31203B19002B3120343C000C00111
:1026A000C002C0039002C3121463D003D002D00151
:1026B000D00012013812154B9002C71203B1E47F0B
:1026C000E87E03FDFC9002BF12146A9002C7121547
:1026D00035221232871235131234F9122DB5123306
:1026E000B312319012349AD2AF751C01E51C24FE4E
:1026F000601E146036146056146060240470671203
:1027000034CD12345D1234871234197F04122EDC5A
:10271000D2D8E4900228F0A3F09002CBF0A3F012FC
:102720002F97E51D70FC1234738036D2D8E51D70EA
:10273000FC1218178F1C121FC69002EAE09000725C
:10274000F09002EA04F012307E123473801B1233D0
:10275000268F1C1228AC120F9C800E1211F0123220
:10276000B2751C038003751C01123519E51C640445
:1027700070030226DC121BAD0226DC90023EE070E4
:1027800002A3E0600302280C300057121D68C39FAB
:10279000EC9E504C121DD090028FF0FCA3EFF0FD88
:1027A0009034F5E493C313FE74019313FFD3ED9FAC
:1027B000EC9E402C7F05123258900249121D61FC9C
:1027C000D3E5F09FEC9E4054121DB690026DE07070
:1027D00002A3E07047900217E06401703F02293DB8
:1027E0008035121D68C39FEC9E502E121DD0FE90A6
:1027F000028FF0A3EFF0D39432EE940040197F05DE
:10280000123258900249121D61FCD3E5F09FEC9EF4
:10281000400A12293D80028000121DB622780E1255
:1028200003379002941203B17804120337122FD2A7
:102830009001B21203B190006412032B9001B21206
:102840000343C3120286500990021D7401F07F02F7
:10285000229001B212032B122D679001BDEEF0A35E
:10286000EFF09001DAE0FFA3E09001EECFF0A3EFEC
:10287000F09001BDE0FEA3E0FF1216579001DAEEE2
:10288000F0FCA3EFF0FD7808E2FE08E2FF120A6315
:102890009001F0EEF0A3EFF07812EEF208EFF29074
:1028A000021EEEF0A3EFF0C39410EE9427500A90AE
:1028B000021E7427F0A37410F07F05227F809034ED
:1028C000F5E493FC740193FD1234BD7F829034F5DE
:1028D00074019324CEFDE49334FFFC1234BD7F8455
:1028E0007D647C001234BD7F8A3018187D397C30BD
:1028F0001234BD7F887D397C301234BD7F8C7D39A8
:102900007C30802090021EE0FCA3E0FD1234BD7FED
:10291000887816E2FC08E2FD1234BD7F8C7814E260
:10292000FC08E2FD1234BD7F9A7853E6FD7C00126C
:1029300034BD7F98C00712324DD0071234BD7F9C42
:10294000C00712324DD0071234BD022BC2E51D70F4
:10295000FCE4FF121ED7E4FF120D0BE4900223F0FB
:10296000900225F0900248F090023E121D33A3F031
:10297000A3F0900246F0A3F090024C121D33A3F096
:10298000A3F0900244F0A3F0900252121D33900085
:102990005DF0A3F0900217F0A208300001B3500DD3
:1029A0007F04123258900236EEF0A3EFF03000139D
:1029B0007814742EF20874E0F29001CC7427F0A31E
:1029C0007410F022010073FE000E0100B80100C275
:1029D0000101B601015B0101B20101BD0101CE019E
:1029E00001DA0101F0FE0012FE0014FE00160102E1
:1029F0001AFE0000FE000401003801003C01004006
:102A0000FE000801028301028B01029301029B0177
:102A100002560100DA01015D01027B01028301011E
:102A2000BA0100CA01015D01020F01025801025AF8
:102A300001022E90025EE030E109122A7220180392
:102A4000122A8290025EE054FDF0900225E0540FBD
:102A5000FF602790025EE0FE30E206785FA6078006
:102A600010EE30E31C900225E0540FC454F0785F60
:102A7000F6201806122A72122A8290025EE054F39F
:102A8000F022C2107F0812325890023CEEF0A3EF01
:102A9000F022C2927F217E007D007C001233EAD2B8
:102AA00092229002AC1203B1E47F607EEAFDFC90BA
:102AB00002AC1214494004D2138002C213E47FFF17
:102AC0007EFFFDFC9002AC121449400C9002AC1247
:102AD00003C90000FFFF8030E4FF9002AC121446EF
:102AE000502612293D301E167F151232587C007D6B
:102AF000031200AB900267EEF0A3EFF0C21E90024B
:102B0000AC1203C9000027109002AC12032B221252
:102B10000343900018E0FFEFC39404500553B9EF4E
:102B2000800343B910EF6003B4040B85B71985B671
:102B30001A85B51B803AEF64016004EFB4050B857C
:102B4000EB1985EA1A85E91B8026EF64026004EF21
:102B5000B4060B85F31985F21A85F11B8012EF6418
:102B6000036004EFB4070985FB1985FA1A85F91B80
:102B7000AF1BAE1AAD19AC1822C0E0C0F0C083C0C4
:102B800082C0D075D01053B9FDE51D6401701F12CD
:102B90002B0278001203BD7F0112334B9002EAE052
:102BA000FF122F5C43B901D2D8751D058019E51DB0
:102BB000B40514121E8A780A1203BD121E39F4528B
:102BC000AB53AAFB751D00D0D0D082D083D0F0D0FB
:102BD000E032E47F557E06FDFC780012034F121DA3
:102BE000EF4003121E427FFF121E14400678C0768B
:102BF000FF800A90028F12032B78C0A607E47F5E45
:102C00007E0BFDFC90007B120343121DEF4003126C
:102C10001E42E47FFF121E154005788E76FF22903B
:102C2000028F12032B788EA6072290029C1203B10A
:102C300090029912043890029C12032B780612021B
:102C4000AA90029C1203B19002A01216138005C331
:102C500033CE33CED8F912158F90029C12153590D1
:102C600002A0E0F9F81215EB90029912042F12025B
:102C7000EDAF27AE26AD25AC2478061215EB2290D9
:102C800002A71203B19002A41204389002A7120303
:102C90002B780A1202AA9002A71203B19002AB127B
:102CA00016138005C333CE33CED8F912158F900298
:102CB000A71215359002ABE0F9F81215F79002A4AF
:102CC00012042F1202EDAF27AE26AD25AC24780AF0
:102CD0001215F7229002611203C900000000E4FF00
:102CE00012000E75ABFF1232DA900261122AFF1247
:102CF00001389002611203B1E4F5AB1232DA9002AE
:102D00006112032BC004C005C006C007122B02A825
:102D100004A905AA06AB07D007D006D005D0041237
:102D200001459002610203B1C0E0C0F0C083C082DF
:102D3000C0D075D000C000C28D758C32758AEB9002
:102D400002CBE475F0011200BDC39002CCE09414F4
:102D50009002CBE094004012900228A3E0785AF64B
:102D6000900228E4F0A3F0120004D000D0D0D0826A
:102D7000D083D0F0D0E03290006412163E122A9236
:102D8000900290EEF0A3EFF07A0179C912158374E6
:102D900005F0A3EEF0A3EFF07A0179BF12300CA298
:102DA00015301401B350157B017A0179BF7D0512EE
:102DB00025639001CAE544F0A3E545F0900290E058
:102DC000FEA3E0FF22E4FF1234027855EFF67851BB
:102DD000BFFF04760D800276FFE4785FF6785276C6
:102DE0003B08F69034F593FE740193FF7880A606B5
:102DF00008A607EF24CE7883F6EE34FF18F6788421
:102E00007600087664E4123227F61232277632759D
:102E10004B5022A907E4FEFD90025EE0FC703FEFFC
:102E20005401FB900224E054016B600D30020A2033
:102E30001807EC440290025EF0900224E030E006B5
:102E4000EE4410FE8004EE4401FEE930E006ED445D
:102E500001FD8004ED4410FDEE5D900225F022900E
:102E6000021CE0B4011C1215BC40177814E2FE08E5
:102E7000E2FF900218E0FCA3E0FDD39FEC9E40200F
:102E800080147814E2FE08E2FF7812E2FC08E2FD0A
:102E9000D39FEC9E400AED9F7817F2EC9E18F22229
:102EA000E47816F208F22220000C90021CE0B40133
:102EB0001F121D9E401A7814E2FE08E2FFD394E030
:102EC000EE942E5023C3EF9440EE941F501D8018B3
:102ED0007814E2FE08E2FFD394F8EE942A5009C376
:102EE000EF9428EE9423500312293D22EF6003D380
:102EF0008001C3920A92027853A60790022AE4F056
:102F0000A3745AF07F0912325890022E122F157CAA
:102F1000007D031200AB900230122F15900232EEAA
:102F2000F0A3EFF022EEF0A3EFF07F1A1232582256
:102F3000E4FF300018900223E0700B121DC6121D32
:102F40001C40230F8020121D0E401B801590022371
:102F5000E0700A121DC6121D1C400B8005121D0ECA
:102F60004004EF4401FF9002E9EFF0229002EAE012
:102F7000D394034002E4F0EF14601214601714605D
:102F80001D24037021121E39F452AB800D121E391C
:102F9000F452AB800E121E3942AB53AAFB22121E12
:102FA0003942AB43AA04227853E6F520A208300048
:102FB00001B350147F04123258900236EEF0A3EFA2
:102FC000F012293DA2009208A20A300201B3500477
:102FD000A202920A301A0A12293DE490021DF0C2A0
:102FE0001A229002901203B1900072E0900298F0C1
:102FF00090029412032B90029D1203B1900298E06C
:103000009002A1F090029012032B12195090029896
:10301000E0FF1204929001A612032B229002ABE073
:10302000FEA3E0FFC003C002C00112156075F002EC
:103030001215CDD001D002D003EE8FF012010B900B
:1030400002A71215B4121560FF9002AAE0B507049A
:10305000E4120099227E05EF5401FD900223E05412
:10306000016D6007EFF0E4900248F07853E630E03D
:1030700008900223E070027E28900248E004F0C32A
:103080009E50037F0022900248EEF07F01229000C4
:1030900063E042F4E4FF12000E121E6F75BB019054
:1030A0000063E0FF90001EE04FF5B4E4F5B3F5B225
:1030B00075B110121EB953BAFE43B901D2D8E5B9A1
:1030C00030E1FBE4F5BF220003010802050303041D
:1030D000010501060607010801090A0A010B010C96
:1030E000030D050E0A0F011001110A123C13011401
:1030F00001153C1601173C180219021A3C1B0190DD
:10310000029D12032BC003C002C001900299121548
:10311000631215CAD001D002D0031203079002999E
:103120001215B4900299121563FF90029CE0B50746
:1031300004E4120099229002A012032BC003C002E3
:10314000C00190029C1215631215CAD001D002D0A2
:103150000312030790029C1215B490029C1215638F
:10316000FF90029FE0B50704E412009922900295B7
:103170001203B190029912032B900295120343D3CC
:10318000120286400B900299120343900295800927
:1031900090029512034390029912032B12014522CB
:1031A00043F80875CD4053CC7F43CC4043CC2043FB
:1031B000CC1043CC0453CCFD43CB0243CB0153CBC7
:1031C000BFD2EB53E5FC43E30243F50343900343D3
:1031D000ED032290001F12032BAB07AA06780412FE
:1031E0000337C3EF9BFFEE9AFE7B017A007946E43A
:1031F000FCFD9002A07408F0122C1A7808EEF20878
:10320000EFF27F0522E4F51D53B9FD53B9DF43CC3E
:1032100002C2D9539FFD438760C28DEF700675BD12
:103220000D75BC011234AC75BE0CD28C20C90343A1
:103230008703000000002208F608F608F608F608E2
:1032400022D3900233E09400900232E0940022D323
:10325000900235E09400900234E094002290027BCA
:1032600012032BAD07AC06227D017C00EFC3941C3A
:103270005020EF25E024B8F582E43430F583E49360
:10328000FF7E0090022AE0FCA3E0FD1200ABAC063A
:10329000AD07AE04AF0522E4F5E3439F107F03FEC4
:1032A000FDFC1233EA439F027F037E007D007C0019
:1032B0001233EA539FEF75BE0EE4F5BFF5B9759270
:1032C0007622900226E0FF900225E0FE6F60143027
:1032D0000204785FA606E4FF123258900244EEF032
:1032E000A3EFF0900225E0A3F02275BF0F000000CD
:1032F000000000000000000000000000000000D2FC
:10330000D853B9FD43B901E5B930E1FBE4F5BF227B
:10331000900018E09034EC93FF90001EF09000199C
:10332000E09034EC93FE900063F0EF4E42D442F410
:1033300042E4F452DC2290028F7405F01231C31281
:10334000280D90028FEFF0BF0205D21AE0FF221283
:103350002E4F1233D190028FE0FF2253BA0F43BA9F
:103360002075BBE6121E5F900063E0F5B4EF7009B4
:10337000F5B375B2AF75B1C822900060121EA222DB
:1033800074FFF5F00200BDE0FBE4FAF9F81201DE8B
:103390008F458E448D438C4222AB34AA33A932A888
:1033A00031020286E490028FF075BE0E439F027FC9
:1033B00003FEFDFC1233EA75BC02E4F5BFD2D9531B
:1033C000CCFD22438901C28DD2A953B8FD1200035E
:1033D000900228F0A3F0758C32758AEBD28CD2AFB4
:1033E000227F767E107D017C00780412034FD31279
:1033F00002864003C21822D218229002901203B112
:1034000090029074FF12037EEC4D4E4F60030080DB
:10341000EF22E4FFF582F5837440FEE493F42FFF7E
:10342000A3EEB583F6227F0022E490023CF0A3F0E5
:103430007F0A12325890023AEEF0A3EFF0D2102237
:1034400043D50453F5FB53E5FB43E30443ED04E4A8
:1034500090025EF0D29222D3EF9DEE9C4007EF9D4A
:10346000FFEE9CFE22C3ED9FFFEC9EFE22E4FF12C6
:10347000000E1224AB12225F7F0112000E121ED723
:10348000022CC47F0112000E751D01121EB943BA31
:103490000143B901D2D822E4FF12334B12350D1289
:1034A00021897F0112334B020D0B9034F7E493FF17
:1034B000740193900068CFF0A3EFF022438901C21A
:1034C0008CC28F120003758CFB758AED2220C90C0B
:1034D000C2AFA807A60408A605D2AF222275AA3B50
:1034E00053BAF343BA0C43B92053B9BF2241001871
:1034F000054100190604180000000000010204083C
:1035000010204080F701900064C2DA53D80F43D8EE
:10351000D0D2D8D2D92290022AE4F0A3227856E65B
:1035200008F622123300023430022A23FFFFFFFF85
:00000001FF
