:100000000110010032000000402E0000FF0000003F
:10001000021475E49002ADF0A3F02202272A53BA2D
:100020000F43BA3075BBFF121805900024E0F5B4F9
:10003000EF700AF5B375B26175B1A8800690002122
:1000400012185412186053AAFB22FF02252A53BA31
:10005000FEE5B920E004E51D6005E5B930E1FBE40B
:10006000F5BF53B9FD53B9FEF51D22021AF4BB01C9
:100070000689828A83E0225002E722BBFE02E32245
:1000800089828A83E49322BB010989828A83F8E00A
:1000900028F022500327F722BBFE05F8E328F322BD
:1000A0008A838982F8E4932822BB010689828A83A5
:1000B000F0225002F722BBFE01F322EF8DF0A4A83C
:1000C000F0CF8CF0A428CE8DF0A42EFE22C5F0F83F
:1000D000A3E028F0C5F0F8E582158270021583E0F0
:1000E00038F022BB0110E58229F582E5833AF583D9
:1000F000E0F5F0A3E0225009E92582F886F008E651
:1001000022BBFE0AE92582F8E2F5F008E222E58347
:100110002AF583E993F5F0A3E99322F8BB0111E5F1
:100120008229F582E5833AF583E8F0E5F0A3F02231
:100130005009E92582C8F608A6F022BBFE09E92588
:1001400082C8F2E5F008F222EF2BFFEE3AFEED391D
:10015000FDEC38FC22C3EF9BFFEE9AFEED99FDEC1F
:1001600098FC22E88FF0A4CC8BF0A42CFCE98EF054
:10017000A42CFC8AF0EDA42CFCEA8EF0A4CDA8F00F
:100180008BF0A42DCC3825F0FDE98FF0A42CCD35D3
:10019000F0FCEB8EF0A4FEA9F0EB8FF0A4CFC5F03D
:1001A0002ECD39FEE43CFCEAA42DCE35F0FDE43C36
:1001B000FC2275F008758200EF2FFFEE33FECD3381
:1001C000CDCC33CCC58233C5829BED9AEC99E582C8
:1001D00098400CF582EE9BFEED9AFDEC99FC0FD554
:1001E000F0D6E4CEFBE4CDFAE4CCF9A88222B80044
:1001F000C1B90059BA002DEC8BF084CFCECDFCE50F
:10020000F0CBF97818EF2FFFEE33FEED33FDEC3332
:10021000FCEB33FB10D703994004EB99FB0FD8E5B7
:10022000E4F9FA227818EF2FFFEE33FEED33FDEC00
:1002300033FCC933C910D7059BE99A4007EC9BFCF6
:10024000E99AF90FD8E0E4C9FAE4CCFB2275F01082
:10025000EF2FFFEE33FEED33FDCC33CCC833C810A7
:10026000D7079BEC9AE899400AED9BFDEC9AFCE8D5
:1002700099F80FD5F0DAE4CDFBE4CCFAE4C8F92222
:10028000EB9FF5F0EA9E42F0E99D42F0EC6480C8F5
:1002900064809845F022EB9FF5F0EA9E42F0E99DDC
:1002A00042F0E89C45F022E8600FECC313FCED132C
:1002B000FDEE13FEEF13FFD8F122E8600FEFC3331A
:1002C000FFEE33FEED33FDEC33FCD8F122BB010D24
:1002D000E58229F582E5833AF58302032B5007E98D
:1002E0002582F802044DBBFE07E92582F802033798
:1002F000E58229F582E5833AF583020459BB0107BB
:1003000089828A830203B15005E9F8020486BBFEA4
:1003100005E9F80203BD22BB010DE58229F582E55E
:10032000833AF5830203B15007E92582F802048677
:10033000BBFE07E92582F80203BD22E0FCA3E0FD35
:10034000A3E0FEA3E0FF22E2FC08E2FD08E2FE08D3
:10035000E2FF22E0F8A3E0F9A3E0FAA3E0FB22E247
:10036000FB08E2F908E2FA08E2CBF822BB010789B0
:10037000828A830203435005E9F8020469BBFE0543
:10038000E9F802034F89828A830204767401FF33FD
:1003900095E0FEFDFCA3A3A3E0CF2FF0E58215823C
:1003A00070021583E0CE3EF0E5821582700215835F
:1003B000E0CD3DF0E582158270021583E0CC3CF083
:1003C00022ECF0A3EDF0A3EEF0A3EFF022ECF208A4
:1003D000EDF208EEF208EFF222A8828583F0D083D6
:1003E000D0821203E01203E01203E01203E0E47390
:1003F000E493A3C583C5F0C583C8C582C8F0A3C56F
:1004000083C5F0C583C8C582C822D083D082E49357
:10041000F208740193F208740293F208740393F2E1
:10042000740473A42582F582E5F03583F58322FAFE
:10043000E6FB0808E6F925F0F618E6CA3AF622E0E7
:10044000FBA3E0FAA3E0F922EBF0A3EAF0A3E9F0C2
:1004500022E493FB740193FA740293F922E6FC08F8
:10046000E6FD08E6FE08E6FF22E493FC740193FD36
:10047000740293FE740393FF22E6FB08E6F908E694
:10048000FA08E6CBF822E493F8740193F974029326
:10049000FA740393FB22ECF608EDF608EEF608EF8B
:1004A000F622E4900294F0EF700302063812003E48
:1004B0009001BE1203C900000000E4900295F09084
:1004C000029A1203C900000000900295E0FF122872
:1004D0005C12182F9002961203B1E4900293F090F0
:1004E000029612032B900295E075F00C90007912A1
:1004F0000413C083C082900293E0D082D08375F051
:10050000041204131203B1121844E0B403D1785753
:1005100090029612181E9002961203B1900295E076
:10052000FF9000BE1217A79000C61217A690012FC9
:100530001217A675F002EF9001371217AA75F00492
:10054000EF9000CE1204131203C9009C40009002E9
:1005500095E0FB75F00490013F1204131203C900EB
:100560009C40001217B575F004EB90014F12041374
:100570001203B1E4900293F0900293E0FFC3940A57
:100580005015900295E075F0149000DE12041312DD
:1005900017A612184480E190029A1203431217B56D
:1005A00012013890029A1203B1900295E004F0C350
:1005B000940450030204B990015F1217AD900294A5
:1005C000E075F0029001711217AA9001BE12034368
:1005D00090015FE0FEA3E0FFE4FCFD120138900112
:1005E000BE1203B1900294E004F0C39420500302C1
:1005F00004AA12184E9001B212184B9001B61218AC
:100600004B78061202AA9001BA1203B1E49001C617
:10061000F0A3F0A3F09001C21203C900000000E4AF
:10062000900293F0900293E0FFC39405500F75F091
:1006300002EF9001CB1217AA12184480E79001D65E
:100640001217ADE49002C8F09001B21217B89000F2
:100650006A1203B19000701203C900000000E49018
:100660000076F0A3F078147427F2087410F2781270
:100670007427F2087410F2E47816F208F290021B64
:10068000F0A3F09001C91217ADE49001D8F0A3F0E7
:10069000A31217ADA31203C90009C4009001E01210
:1006A00017ADA31203C90009C4009001E6740AF053
:1006B0009001F61217AD9002171203C90000000056
:1006C0009001F41217AD9001F81203C90000000068
:1006D000E4900293F0900293E0FB75F0049001FC2B
:1006E0001204131203C90000000075F002EB900120
:1006F000E71217AA121844E0B406DAE490024CF0AC
:10070000A3F0A3F0A3F090025FF0A3F0A3F0A3F096
:10071000900215F0A3F02290027BEFF0120E7212FD
:100720000EEC9000BE120D79FD122D66D3EF94C829
:10073000EE9400400890027C7401F08014D3EF9492
:1007400064EE940090027C40057402F08003740310
:10075000F090027BE075F004A424CEF9740035F02B
:10076000FA7B01120D5290027CE090028DF012266D
:100770003090027BE0120E72EEF0A3EFF0ED75F018
:1007800004A4243FF9740135F0FA7B0190027B1236
:100790000D5290028D7406F012263090027BE0908C
:1007A000012F120E76EEF0A3EFF090027E1203C935
:1007B00000000000E490027CF090027E12032BC047
:1007C00004C005C006C00790027BE0FD75F01490E0
:1007D00000DE120413C083C08290027CE0D082D07D
:1007E00083120E76120EEC9000C6120D79FD122DBA
:1007F00066AB07AA06E4F9F8D007D006D005D00406
:1008000012013890027E1203B190027CE004F0E005
:10081000C3940A40A490027E12032B90027B120D17
:10082000ED1203B190024AE07002A3E07041900122
:100830002EE075F00A84E5F0F0E4FF75F002EF9029
:1008400000C6120D79FD75F014EF9000DE1204134E
:10085000C083C08290012EE0D082D083120E76EC4D
:10086000F0A3EDF00FEFB404D290012EE004F030CD
:100870001F0302090890027BE06403600302090879
:100880009002821203C9FFFFFFFFE490027DF09007
:10089000027CF090027CE0FFC39404503375F004B6
:1008A000EF90016112041312032B90028212034392
:1008B000D3120286401290027CE0A3F0120DEE12D9
:1008C000032B9002821203B190027CE004F080C3FB
:1008D0009001C6120DED12032BE47B1E120EC950BF
:1008E0003790027DE09001C6F0A3E0900137120D31
:1008F000569001C2120DE7C006C0079001C6E07510
:10090000F002900137120413120E55D007D00612D0
:1009100001459001C21203B19001C212032B900154
:10092000C6E09000BE120D762FFFEC3E90015FF006
:10093000A3EFF09001C6E0A3F090027BE0FF75F01A
:100940000290012F120D79FDEF900137120EF6EC97
:10095000F0A3EDF07A0179B1120DD27420F090017C
:100960005F120E9B7A0179711228D17B017A01798D
:10097000717D20121D2FAF41AE40AD3FAC3E9001C6
:10098000B20203B1900272EEF0A3EFF0A3ECF0ED2F
:10099000120DF74012900274E0FFA3E0900279CFAD
:1009A000F0A3EFF0020B1890005CE0900276120BBF
:1009B0002190027D120DAA120B2190027BEEF0A372
:1009C000EFF09001F3E0900276120D72120B60903E
:1009D0000281120DAA120D72120B6090027FEEF0CE
:1009E000A3EFF0900214E0900276120D8190028B3A
:1009F0001203B1120DAF120D819002871203B19054
:100A00000274120D5CC006C0079001F4120E55D09E
:100A100007D0061201459002831203B1D37817E282
:100A200094AC18E2940D500990021EE06003020A93
:100A3000EF900244E07002A3E06003020AEFD3905B
:100A4000025CE0940090025BE09400400A90027720
:100A50007408F0A3F08018900215E0900277B401BA
:100A6000087403F0A314F080067401F0E4A3F07599
:100A7000F096120DBF4003020AC2900277E0FD75A6
:100A8000F064120DC35006ED120E604069900278BA
:100A9000E02408FFE433FEC390027EE09F90027DD5
:100AA000E09E4014120DDE9001F81203B17F0D128A
:100AB0002B13900246020ADFD3900247E094009085
:100AC0000246E094004003020AE675F064120DBF8E
:100AD000400B120EFC900287120B3E8012900277A0
:100AE000E0120E604019120EFC90028B120B3EEECB
:100AF000F0A3EFF08009120DDE9001F81203B1901F
:100B00000274120D5C9001F8120343120145122584
:100B100083900279EEF0A3EFF0A3E0FEA3E0FFA341
:100B2000E0FCA3E0FD121E98900279E0FEA3E0FF36
:100B300022F025E02450F582E43400F583E0FCA3A4
:100B4000E0FD900272E0FEA3E0FF122D6622120388
:100B5000431201459001F81203B17F0C122B139040
:100B60000244EEF0A3EFF07F17122B1390026122E4
:100B7000FD900274E0FEA3E0FF122D662290022396
:100B8000E475F0011200BDD3900228E094009002B9
:100B900027E094004003122C29D390022AE094000D
:100BA000900229E094004003122C29D390022CE0FB
:100BB000940090022BE094004003122C29D3900261
:100BC00032E09400900231E09400400F122C299002
:100BD0000231E07002A3E07002D210D3900230E044
:100BE000940090022FE094004003122C29D390022D
:100BF0002EE0940090022DE094004003122C2990E6
:100C0000021DE030E011E4900233F0A3F0A3F0A362
:100C1000F0A3F0A3F08042D3900234E0940090025D
:100C200033E09400401A122C29900233E07002A3A2
:100C3000E0700D7F0A122B13900237EEF0A3EFF055
:100C4000D3900238E09400900237E09400400A907C
:100C50000235E475F0011200BDD390023CE094002F
:100C600090023BE094004003122C29D3900245E00F
:100C70009400900244E094004003122C29D3900287
:100C800047E09400900246E094004003122C29D3E0
:100C9000900249E09400900248E094004003122C36
:100CA00029D390024BE0940090024AE09400400562
:100CB000122C29800D7F0F122B1390024AEEF0A305
:100CC000EFF0D390024DE0940090024CE09400408D
:100CD00003122C29D390024FE0940090024EE0942E
:100CE000004003122C29D3900251E094009002504E
:100CF000E094004003122C29D390025CE094009011
:100D0000025BE094004003122C29D390025AE09435
:100D100000900259E094004003122C29D390025E07
:100D2000E0940090025DE094004003122C29D390DF
:100D30000260E0940090025FE094004003122C29CE
:100D4000D3900262E09400900261E09400400312AC
:100D50002C292274FF900274FEFDFC120343D3027F
:100D60000270E09000BE75F002120413E0FEA3E0F2
:100D7000FFE4FCFD22E47FE87E03FDFC1203430256
:100D80000153F09001E775F002120413E0FCA3E0B8
:100D900022F075F0049001FC120413120343900139
:100DA000F812032B020145900271E075F00CA424A7
:100DB00079F9740035F0FA7B0122EEF0A3EFF090A0
:100DC0000276E02403F0E075F00684AFF0EF2290A5
:100DD0000277E0A4FFC3900280E09F90027FE0953D
:100DE000F0227B0190028912043890028C2290013B
:100DF000F812032B900283120343020138E09001A2
:100E00006175F004020413A3F0D390022AE0940069
:100E1000900229E09400229002951203B190028D75
:100E200012034390029512032B0201DE90028912F5
:100E3000042F02005EFFE4FCFDFE12034F1201537B
:100E4000780702029724FFFFEE34FFFE3395E0FDA2
:100E5000FC12035C02015390005CE0245DF582E427
:100E60003400F58322E0FEA3E0FBAA06E4F9F822B1
:100E700075F0AFA4FFC3900282E09F900281E095DD
:100E8000F022FD9000C675F00202041312042F74C4
:100E90000102007775F004A4F58285F083229002A8
:100EA0007B12043890027E7403F022E0FFA3E090EE
:100EB000028DCFF0A3EFF0221202978F278E268D9E
:100EC000258C24221202978F278E268D258C242292
:100ED0007857E6FFE4FCFDFE22FAF9F8C302028629
:100EE000E0FF74017E00A80708221203B19002916E
:100EF00002032B12033790027F0203B1E0FEA3E04E
:100F0000FF75F002ED2275F0020204139001F80261
:100F1000032B7B017A0179DCE4FCFD9002807405EF
:100F2000F01225DB9001DAEEF0EF120DF74003022C
:100F30000FD1300003020FD19001C9120D5CC00621
:100F4000C0079001DA120E55D007D0061201459065
:100F500002741203B1E47FFA120D45400690027844
:100F6000020FB8E47FB4120D454009900278740571
:100F7000F0020FBBE47F64120D454002802274FF33
:100F80007FF1FEFDFC900274120343C31202704015
:100F900008900278740AF080327F9C120D4340085A
:100FA0009002787408F080237F4C120D4340089023
:100FB00002787406F0801474FF7F06120D459002CB
:100FC0007840057404F080037401F0D3900262E06D
:100FD0009400900261E09400400DE4900278F0806B
:100FE000069002787405F0900278E09001E6F090A7
:100FF00001C9120D5C900278E0900280F07B017ACA
:101000000179E21225DB900272EEF0A3EFF090027C
:1010100048E07002A3E0600302108C7F0E122B13D5
:10102000EEC313FEEF13FF900248EEF0A3EFF07B48
:10103000017A00795C120DD47406F07808E2FF089A
:10104000E2A3CFF0A3EFF07A0079501228D17B0110
:101050007A0179F3120DD47406F0900272120E9B8D
:101060007A0179E71228D17B017A02791490027C07
:1010700012043890027F7406F0120EFC9002801267
:1010800003B17A0179FC12297A7816E2FF08E2901E
:10109000021BCFF0A3EFF0120E47E4F0900272E0D3
:1010A000FEA3E0FF2290021DE0900222F0121BC777
:1010B0005005121BD54007E490021DF08008122253
:1010C000DF90021DEFF090021DE0FF12290AEF7081
:1010D0000D121BC75008121BD550030211FD9002C0
:1010E0001EE0703F900063F0A3F090025FF0A3F069
:1010F000C21E122259122C8A7F01122B13121C5766
:10110000401B30140DEF7803CEC313CE13D8F9FF74
:10111000800BEF7806CEC313CE13D8F9FF12133B22
:1011200002119F900063E07002A3E07013900063CF
:10113000121C0E7F16122B1390025FEEF0A3EFF03D
:1011400090025FE07004A3E06401701A900064E014
:101150002496FF900063E03400FED37809E29F18E4
:10116000E29E4002D21E301E467816E2FC08E2FDE6
:1011700090021BE0FEA3E0FFD39DEE9C4031122DB8
:1011800066AC06AD0790021BE0C313FEA3E013C3D9
:101190009DEE9C501A7F13122B13EF7802CEC313CF
:1011A000CE13D8F9FF900259EEF0A3EFF0C21E90D3
:1011B0000259E07004A3E0640170171227797F14CC
:1011C000122B137C007D031200AB90025BEEF0A3A8
:1011D000EFF090021EE0FFA3E06F60311227C59090
:1011E0000220E030E421D3121BD55005121BC84069
:1011F00009E4900233F0A3F0800D7F06122B1390C8
:101200000233EEF0A3EFF090021EE0A3F022E49090
:101210000272F07B017A00793D120E8E7800120E78
:10122000E37A0079311229437B017A007931121374
:101230001F7B32120EC950069002727401F09002A8
:10124000C8E0900271F0E4900273F0120D97C002B2
:10125000C0017A0079A9120E8E780A120EE3D0012D
:10126000D002122943120D9712131F7BF47A011238
:101270000ECA50069002737401F03000459002725D
:10128000E07004A3E0603BD21A7B017A007931124E
:1012900012ED7856120EC2900274120D6C7807127D
:1012A000029778041203BD120D971212ED120EC0B0
:1012B000900274120D6C7807120297780E1203BD1B
:1012C0008038C21A7856E67800120E257804120388
:1012D000BD7804120337EC4D4E4F70037F02227825
:1012E00057E6780A120E25780E1203BD780E120307
:1012F00037EC4D4E4F70037F02227F04227D031294
:10130000187FC3E5419539FFE5409538FEE53F95E7
:1013100037FDE53E9536FCC3EF953DFFEE953CFE6F
:10132000ED953BFDEC953AFC9002741203B1227DE1
:101330000312187FC3E539953DFFE538953CFEE57E
:1013400037953BFDE536953AFCE422900271EEF0CC
:10135000A3EFF0E4A3F0D3900234E09400900233C2
:10136000E094004006121C0B02143530004C121C95
:101370001A40089001D8ECF0A3EDF0121BC75005FD
:10138000121BD540030213C1121BE25027780890AC
:10139000004A121C0012146A400F900271E013FE02
:1013A000A3E013D3121BF4500BA215301401B34069
:1013B0000302143B121C39021435121BC7500512CC
:1013C0001BD54013121C1A40089001D8ECF0A3ED75
:1013D000F0121C3902143B900070120343C00078D5
:1013E00012E2FE08E2FFE4FCFDD00012013890009A
:1013F000701203B1121BE250317808E2FE08E2FFDE
:1014000090004AE0FCA3E0FD12146A501DA21530C2
:101410001401B34015900237E0FEA3E0FFD3900221
:1014200036E09F900235E09E4021900076E0FEA3DA
:10143000E0FFFBAA06E4F9F890007012032B1201FA
:10144000DEEE121C419002737401F0900273E060B2
:1014500028E4900076F0A3F09000701203C9000019
:101460000000E49001D8F0A3F0121C0BE490023EBF
:10147000F0A3F0900235121BBF22122D66D3EF9419
:1014800014EE940022439F04E453C6DFE5C600B582
:10149000C6F375830075820775FD0DE4E5FEF4FF64
:1014A00075830075820675FD0DE4E5FEB50704F54C
:1014B0009E8003759E0078100000D8FC53C6E04360
:1014C000C60843C6807596077597097583007582AF
:1014D0000475FD0DE5FD0404F58F75830075820329
:1014E00075FD0DE4E5FEF4FF75830075820275FD60
:1014F0000DE4E5FEB50704F595800375958375BE8B
:101500000E5392FE9001007F007E02E4F0A3DFFC08
:10151000DEFA78007F00E4F208DFFC78FFE4F6D81A
:10152000FD7581C0021555020000021FF2E493A36D
:10153000F8E493A34003F68001F208DFF48029E485
:1015400093A3F85407240CC8C333C4540F4420C8D1
:10155000834004F456800146F6DFE4800B01020468
:101560000810204080902D50E47E019360BCA3FFC2
:10157000543F30E509541FFEE493A360010ECF549D
:10158000C025E060A840B8E493A3FAE493A3F8E48C
:1015900093A3C8C582C8CAC583CAF0A3C8C582C8F8
:1015A000CAC583CADFE9DEE780BE90027B1203B1C1
:1015B000120DF9405190027B12032B90003E120352
:1015C000B19000421203C900000000E4900284F0D0
:1015D000900284E0FFC39404502C75F00CEF90004F
:1015E00081120413120343C000120EC0D000120E69
:1015F0002D900284E09000AA120DF11203B1900226
:1016000084E004F080CA9000BA1203C90000000010
:1016100090004212034390003E120D91C004C00599
:10162000C006C00790004212034390027B120D9146
:1016300090028D1203B19002911203C900010000C3
:10164000D007D006D005D004121F489000461203E0
:10165000B19000BA12034390027F120D91C004C0F2
:1016600005C006C00790028D1203C900010000905A
:10167000004612032B9002911203B1D007D006D07E
:1016800005D004121F489002851203B19000BA12CF
:10169000032BAB07AA0690028512032BEF2BFBEE60
:1016A0003AFA900283E0F975F00490014F120413A6
:1016B00012032BC3EB9FFFEA9EFEE99000BE120EC1
:1016C000F6EEF0A3EFF022E4900294F0EF607B12CC
:1016D000003E9000291203C900000000122B6D90FB
:1016E00000291224C01201389000291203B190027F
:1016F00094E004F0C3942040E3E0FFFBE4FAF9F83F
:1017000090002912032B1201DE9002951203B1788A
:101710005690029512181E78041203BDE4900293AD
:10172000F0900293E0FBC39403501F9002951203C4
:101730002BEB25E025E02431F582E43400F583121B
:1017400003B1900293E004F080D77804120337EFDE
:1017500024D0FFEE348A1217C29000251203B190F4
:10176000004A7475F0A37430F0A31203C9001D4C35
:1017700000E4900293F0900293E0FFC39406502798
:10178000EF25E02450F582E43400F5837475F0A36E
:101790007430F0745D2FF582E43400F583E4F0904A
:1017A0000293E004F080CFE490005CF07808747558
:1017B000F2087430F222EF75F0021204137427F06D
:1017C000A37410F02290029612032BEF24F0FFEE88
:1017D00034D8FEED34FFFDEC34FFFC221203B17F60
:1017E0000FE4FEFDFC900271120343D302028690C7
:1017F000027112032BC3EF940FFFEE9400FEED94E1
:1018000000FDEC9400FC9002710203B190001BE01B
:10181000902DFB932275A9A075AC0375ADC075AE74
:10182000C02290025512034390027102032BE6FF7F
:10183000E4FCFDFE120343120153780702029712E3
:101840002B6D90001BE0FF0224C8E5BAF053BA0FDD
:1018500043BA1022900293E004F0221203B19001E7
:10186000BE02032BE0F5B3A3E0F5B2A3E0F5B1228D
:1018700090001AE0902DFB93F5AB229002761203B4
:101880002B9002722290027612032B900272229009
:10189000027812043890027BEDF0E4F528F527F584
:1018A00026F52574FFF52CF52BF52AF529E4F530FE
:1018B000F52FF52EF52DF52490027BE0FFE524C3EE
:1018C0009F507090027812042F75F004E524A4F55F
:1018D0008285F0831202BD8F348E338D328C31AF0E
:1018E00028AE27AD26AC25D3122C42400C853428D7
:1018F000853327853226853125AF2CAE2BAD2AAC1A
:1019000029C3122C42500C85342C85332B85322A66
:10191000853129E5302534FFE52F3533FEE52E35B9
:1019200032FDE52D35318F308E2F8D2EF52D05248E
:101930000218A885283985273885263785253685D4
:101940002C3D852B3C852A3B85293A853041852FC6
:1019500040852E3F852D3E90027BAF30AE2FAD2EC1
:10196000AC2D122C30227B077A079002721203C929
:101970000000000012003EEB601A74017E00A80314
:10198000088005C333CE33CED8F9FFADACEF5D7020
:10199000031B80E3EA601A74017E00A80208800538
:1019A000C333CE33CED8F9FFADAEEF5D70031A80EE
:1019B000E3AF037401A807088002C333D8FCF5AC79
:1019C0007401A802088002C333D8FCFFF5AD8FAEC6
:1019D00053AACF43AA0490027112183A1217FC427C
:1019E000AB12182F9002761203B11218751203432E
:1019F000C312028650061218751203B190027212B9
:101A00000343C00090027212032B7803120297D096
:101A1000001201389002721203B190027212032B6D
:101A20009000651203B143AA3053AAFB900271E003
:101A3000F5BA1217FCF452AB121808227B077A078A
:101A40009002721203C90000000012003EEB601AFF
:101A500074017E00A803088005C333CE33CED8F9C5
:101A6000FFADACEF5D70031B80E3EA601A74017E8A
:101A700000A802088005C333CE33CED8F9FFADAE3F
:101A8000EF5D70031A80E3AF037401A807088002BA
:101A9000C333D8FCF5AC7401A802088002C333D864
:101AA000FCFFF5AD8FAE53AACF90027112183A1217
:101AB0002B6D1224C39002761203B112186B12031D
:101AC00043C3120286500612186B1203B1900272C1
:101AD000120343C00090027212032B780312029784
:101AE000D0001201389002721203B19002721203F8
:101AF0002B9000201203B143AA30900271E0F5BA96
:101B000012180822C0E0C0F0C083C082C0D075D0D7
:101B100008C2CFD21130CD03021BB020CC6030CB35
:101B20002285CE4FE54FC39480401675F003E54FF4
:101B30009022621204131204418B4C8A4D894E800C
:101B400063807385CE35E54F7022E535B41009907A
:101B500002C9E0F452808066E535B420089002C9DD
:101B6000E042808059853546054F8052E54FC39449
:101B70000550077446254FF8A635054F8040E54FC0
:101B8000B4C0057546C08036E54FB4C2107853E640
:101B900030E2057546A080267546A18021E54FC339
:101BA00094804010784CE475F00112041F12005E1E
:101BB000F5CE800A054FE54B254FF8E6F5CED2105D
:101BC000D0D0D082D083D0F0D0E032F0A3F0A3F018
:101BD000A3F0A3F0A3F022D390022AE09400900295
:101BE00029E094002290022CE0940090022BE094D3
:101BF0000022900076E475F0011200BD900271E0C1
:101C0000FEA3E0C3FF900077E09F900076E09E2265
:101C1000E2FE08E2FFE0FCA3E0FD2290004A780823
:101C2000E2FF08E2CFF0A3EFF0229001D8E0FEA39C
:101C3000E0FF9001C9E0FCA3E0FDD39FEC9E22FEF3
:101C4000C37819E29F18E29E229001D8E0FFA3E03A
:101C5000CF7814F208EFF222E29DFF18E29CFE908A
:101C60000271F0A3EFF022D390022EE094009002D4
:101C70002DE0940022902E04E493FE740193FF2241
:101C8000902E047401932212003E90027212183AB0
:101C900078001203FA000000009002717405F075DC
:101CA000ABFF122B6D780012034F1224C3120138C0
:101CB00078001203BDE4F5AB122B6D7800120337E8
:101CC000C004C005C006C0071224C3A804A905AA01
:101CD00006AB07D007D006D005D004120145780026
:101CE0001203BD900271E014F0E070B378001203AB
:101CF0004F7F007EC07D127C001201DE90027312C5
:101D000003B190027312032B90027B1203B17F96F2
:101D10007E007D007C001229E7E47B32FAF9F8C3EB
:101D2000120286500678567696800A900273120345
:101D30002B7856A607900272E0F5BA12186022902E
:101D40000286120438900289EDF0E4F525F5267438
:101D5000FFF527F528E4F52EF52DF52CF52BF524C8
:101D6000900289E0FFE524C39F5059900286120437
:101D70002F75F002E524A4F58285F0831200D3F5D7
:101D80002A85F029D39526E529952540068529251C
:101D9000852A26C3E52A9528E52995275006852911
:101DA00027852A28E4FCFDE52E252AFFE52D352987
:101DB000FEED352CFDEC352B8F2E8E2D8D2CF52B3D
:101DC0000524809CE4852639852538F537F5368548
:101DD000283D85273CF53BF53A852E41852D4085EC
:101DE0002C3F852B3E900289AF2EAE2DAD2CAC2B17
:101DF000122C302220CA03021E97E5467003021EF1
:101E000097E4FF74462FF8E6FE74722FF582E434EF
:101E100002F583EEF0E4F60FEFB405E7900272E00E
:101E2000FF54F0FEEF540F900271F0AF06EF24A0C4
:101E3000601B24F0601F24D0602F24E0605D24E04C
:101E4000605C249070617853E6440180057853E625
:101E500054FEF68042E4FF122D0B7855EFF67851D0
:101E6000BFFF0376012276FF22900271E0FD70121F
:101E70007853E630E23154FBF6900252E04408F029
:101E80008015ED640170207853E620E21A4404F6D0
:101E9000900252E04404F0751C0222022779E4907B
:101EA0000229F0A3F0D21F2290028FECF0A3EDF0F4
:101EB000E4FD900215E0702CC3EF940AEE9400400C
:101EC00023120E477401F0E4FF745D2F120E4DE0F3
:101ED000600D0DEDB40604D21D8004C21D80050FF7
:101EE000EFB406E590024EE07002A3E07057900256
:101EF0004CE07002A3E0704D900215E0701B301DA5
:101F0000187F10122B1390024CEEF0A3EFF090020A
:101F1000157401F0D21BC21D22900215E0640170FD
:101F200036C3900290E0940A90028FE0940050270C
:101F30007F11122B137C007D0F1200AB90024EEE2E
:101F4000F0A3EFF02290024EE07004A3E064017071
:101F500006900215F0D21C229002891203B1E47B94
:101F6000E87A03F9F8900289120E1690029912038A
:101F7000B1900299120D65A804A905AA06AB0790B5
:101F80000289120D9190029D120EDA900299120DA3
:101F90006C120E079002A11203B190028D12032B56
:101FA0009002A1120D6CA804A905AA06AB07900225
:101FB00095120D919002A5120EDA90029D120D6CF1
:101FC0009002951203B1900295120343C000C00124
:101FD000C002C0039002A5120D65D003D002D0014B
:101FE000D000120138120E079002A91203B1E47F4B
:101FF000E87E03FDFC9002A1120D6C9002A9120D67
:10200000E722122B42122E22122E08122811122C15
:102010006C122A1A122DB8D2AF751C01E51C24FED1
:10202000601E14603614605314605D2404706412E2
:102030002DEB122D7C122D92122D227F04122B9348
:10204000D2D8E4900223F0A3F09002ADF0A3F012F6
:1020500029B1E51D70FC122CA68033D2D8E51D7085
:10206000FC1211FE8F1C1221CD9002C8E090007866
:10207000F09002C804F0122CA6801B122BDF8F1CDC
:10208000122133120B6D800E121095122CC0751C8C
:10209000038003751C01122E28E51C6404700302E2
:1020A000200C121DE402200CE47F557E06FDFC7816
:1020B0000012034F1201531217F6780012033790E3
:1020C0000267EEF0A3EFF090025512032B90026B23
:1020D000EEF0A3EFF01218121201DE780812029748
:1020E0001217F61218189002631217CC4003121739
:1020F000DF7FFF1217D1400678C076FF80071218E5
:102100001878C0A607E47F227E0BFDFC90008112A8
:1021100003431201531217F61218121201DE780847
:102120001202979002711217CC40031217DFE47F5E
:10213000FF1217D24005788E76FF22121818788E7B
:10214000A607227F80902E04E493FC740193FD1275
:102150002DDB7F82902E0474019324CEFDE4933412
:10216000FFFC122DDB7F847D647C00122DDB7F8AD7
:102170003018187D397C30122DDB7F887D397C301A
:10218000122DDB7F8C7D397C30801F7812E2FC08B9
:10219000E2FD122DDB7F887816E2FC08E2FD122DAD
:1021A000DB7F8C7814E2FC08E2FD122DDB7F9AC005
:1021B00007900263122DB0D007122DDB7F98C00765
:1021C000900267122DB0D007122DDB7F9CC00790C4
:1021D000026B122DB0D007122DDB022098301115A2
:1021E000122E15745AF07F09122B1390022FEEF065
:1021F000A3EFF0C211A21492153002028020D390F6
:10220000022AE09400900229E094005011900230DC
:10221000E0940090022FE09400500320100A122E48
:1022200015745AF0C2148008122E157403F0D214DB
:10223000301408E4FF122AB1122C4DA215301401FB
:10224000B3501790021EE06004D216800D7F021278
:102250002B1390022DEEF0A3EFF090021EE0700819
:10226000301603122779C21622900233E07002A3BF
:10227000E0705D30002578149001C9121C00C39FE6
:10228000EC9E5015C3121C48C3121C709FE4939E11
:1022900050351222C140398029802C7814E2FE0882
:1022A000E2FF7812E2FC08E2FDC39FEC9E501AC3E5
:1022B0007815121C48D39432EE9400400A1222C1C1
:1022C000400E12277980028000E490023EF0A3F0D5
:1022D000227F04122B13EEC313FEEF13FF90023E76
:1022E000E475F0011200BDFCD3E5F09FEC9E22E402
:1022F000900271F090021EE07046121C5740379019
:1023000001D6E0FEA3E0FF9001CAE09FFF9001C963
:10231000E09EFEE4FCFD9002721203B1121C657C8B
:10232000007D031200ABE4FD900272120343D3124E
:1023300002704035802C121C65121C30402B80220C
:10234000301610121C7025E0FFE49333121C2F404E
:1023500018800F121C7024CEFFE49334FF121C2F40
:102360004007900271E04401F0900271E0FF90029A
:10237000C7F022780E1203379002761203B1780468
:102380001203371228979001BE1203B190006A120F
:10239000032B9001BE120343C312028650037F0237
:1023A000229001BE12032B1226D99001C9EEF0A390
:1023B000EFF09001E0E0FFA3E09001F4CFF0A3EF95
:1023C000F09001C9E0FEA3E0FF120F029001E0EEE1
:1023D000F0FCA3EFF0FD7808E2FE08E2FF120974BA
:1023E0009001F6EEF0A3EFF07812EEF208EFF27F34
:1023F0000522010079FE000E0100BE0100C60101A8
:10240000C201015F0101BE0101C90101DA0101E060
:102410000101F6FE0012FE0014FE0016FE0018FE7A
:102420000000FE000401003E010042010046FE00E3
:102430000801026701026F01027701027F01024A6F
:102440000100DE01016101026301026B0101C601AD
:1024500000CE01016101021501024C01024E010290
:1024600029900252E030E1091224A020180312241E
:10247000B0900252E054FDF0900220E0540FFF6053
:1024800027900252E0FE30E206785FA6078010EE49
:1024900030E31C900220E0540FC454F0785FF62023
:1024A00018061224A01224B0900252E054F3F02235
:1024B000C2107F07122B13900231EEF0A3EFF0222F
:1024C000C2927F217E007D007C00122CF3D29222EA
:1024D00012034390001AE0FFEFC39404500553B970
:1024E000EF800343B910EF6003B4040B85B719857F
:1024F000B61A85B51B803AEF64016004EFB4050B92
:1025000085EB1985EA1A85E91B8026EF64026004D1
:10251000EFB4060B85F31985F21A85F11B8012EFD3
:1025200064036004EFB4070985FB1985FA1A85F97D
:102530001BAF1BAE1AAD19AC1822C0E0C0F0C083AF
:10254000C082C0D075D01053B9FDE51D6401701F65
:102550001224C378001203BD7F01122C049002C81C
:10256000E0FF12285C43B901D2D8751D058019E53A
:102570001DB40514121832780A1203BD1217FCF4A8
:1025800052AB53AAFB751D00D0D0D082D083D0F0BF
:10259000D0E03290028F1203B1E47FFF7EFFFDFC9A
:1025A00090028F120D4B400C90028F1203C9000055
:1025B000FFFF8030E4FF90028F120D485026122753
:1025C00079301E167F14122B137C007D031200AB92
:1025D00090025BEEF0A3EFF0C21E90028F1203C9CF
:1025E0000000271090028F12032B2290027C12030E
:1025F000B190027912043890027C12032B780612F3
:1026000002AA90027C1203B1900280120ED08005C3
:10261000C333CE33CED8F9120E3590027C120DE7BB
:10262000900280E0F9F8120EA890027912042F129D
:1026300002EDAF27AE26AD25AC247806120EA822F7
:102640009002891203B19002861204389002891216
:10265000032B780A1202AA9002891203B190028D0C
:10266000120ED08005C333CE33CED8F9120E35907A
:102670000289120DE790028DE0F9F8120EB4900273
:102680008612042F1202EDAF27AE26AD25AC2478BA
:102690000A120EB4229002551203C900000000E491
:1026A000FF12000E75ABFF122B6D9002551224C065
:1026B0001201389002551203B1E4F5AB122B6D9064
:1026C000025512032BC004C005C006C0071224C364
:1026D000A804A905AA06AB07D007D006D005D004E8
:1026E0001201459002550203B190006A1203431291
:1026F0000145122583900272EEF0A3EFF07A017982
:10270000D5120DD27405F0A3EEF0A3EFF07A0179A3
:10271000CB1228D1A215301401B350157B017A01D8
:1027200079CB7D05121D2F9001D6E544F0A3E54538
:10273000F0900272E0FEA3E0FF22C0E0C0F0C08390
:10274000C082C0D075D000C000C28D758C32758A31
:10275000EB9002ADE475F0011200BDC39002AEE053
:1027600094149002ADE094004012900223A3E0780C
:102770005AF6900223E4F0A3F0120004D000D0D067
:10278000D082D083D0F0D0E032E51D70FCE4FF129F
:1027900016B7E4FF120492E490021EF0900220F0BB
:1027A00090023DF0900233121BBB90023BF0A3F06D
:1027B000900240121BBB121BBE900063F0A3F0A25C
:1027C00008300001B3500D7F03122B1390022BEE43
:1027D000F0A3EFF022A907E4FEFD900252E0FC70A6
:1027E0003FEF5401FB90021FE054016B600D30027B
:1027F0000A201807EC4402900252F090021FE030C9
:10280000E006EE4410FE8004EE4401FEE930E006EE
:10281000ED4401FD8004ED4410FDEE5D900220F0DA
:1028200022E4FF122D0B7855EFF67851BFFF0476A6
:1028300001800276FFE4785FF67852763208F690EF
:102840002E0493FE740193FF7880A60608A607EF76
:1028500024CE7883F6EE34FF18F678847600087676
:1028600064E4122DA5122DA5754B50229002C8E0EC
:10287000D394034002E4F0EF146012146017146064
:102880001D240370211217FCF452AB800D1217FCAB
:10289000F452AB800E1217FC42AB53AAFB22121764
:1028A000FC42AB43AA04229002721203B19000785A
:1028B000E090027AF090027612032B90027F1203CE
:1028C000B190027AE0900283F090027212032B1210
:1028D000159A90027AE0FF1207079001B212032BBB
:1028E0002290028DE0FEA3E0FFC003C002C00112EF
:1028F0000E1C75F002120E87D001D002D003EE8FAD
:10290000F012010B900289120E7C120E1CFF900235
:102910008CE0B50704E4120099227E05EF5401FD16
:1029200090021EE054016D6007EFF0E490023DF06C
:102930007853E630E00890021EE070027E0A9002B2
:102940003DE004F0C39E50037F002290023DEEF074
:102950007F012290027F12032BC003C002C00190AE
:10296000027B120E1F120E84D001D002D00312037C
:102970000790027B120E7C90027B120E1FFF9002CA
:102980007EE0B50704E41200992290028012032B26
:10299000C003C002C00190027C120E1F120E84D030
:1029A00001D002D00312030790027C120E7C900229
:1029B0007C120E1FFF90027FE0B50704E41200991D
:1029C000227853E6F520A208300001B350147F03AB
:1029D000122B1390022BEEF0A3EFF0122779A20036
:1029E0009208A20A300201B35004A202920A3013E4
:1029F00005122779C213229002771203B190027B4D
:102A000012032B900277120343D3120286400B90DD
:102A1000027B1203439002778009900277120343EE
:102A200090027B12032B1201452243F80875CD401A
:102A300053CC7F43CC4043CC2043CC1043CC0453F5
:102A4000CCFD43CB0243CB0153CBBFD2EB53E5FCD0
:102A500043E30243F50343900343ED032290002533
:102A600012032BAB07AA067804120337C3EF9BFFB0
:102A7000EE9AFE7B017A00794CE4FCFD90028074B2
:102A800008F01225DB7808EEF208EFF27F052278D5
:102A900014E2FE08E2FF7812E2FC08E2FDD39FECAC
:102AA0009E400BED9F7817F2EC9E18F28006E478BA
:102AB00016F208F27816E2FF08E208CFF208EFF209
:102AC00022E4F51D53B9FD53B9DF43CC02C2D953FB
:102AD0009FFD438760C28DEF700675BD0D75BC010B
:102AE000122DCA75BE0CD28C20C903438703000087
:102AF0000000220007010802050301040105060683
:102B0000010701080A09010A010B030C050D0A0E51
:102B1000010F01100A113C12011301143C1501169A
:102B20003C17027D017C00EFC394185020EF25E094
:102B300024E4F582E4342AF583E493FF7E009002D6
:102B400025E0FCA3E0FD1200ABAC06AD07AE04AF80
:102B50000522E4F5E3439F107F03FEFDFC122CF3F6
:102B6000439F027F037E007D007C00122CF3539F65
:102B7000EF75BE0EE4F5BFF5B97592762275BF0FFD
:102B80000000000000000000000000000000000045
:102B90000000D2D853B9FD43B901E5B930E1FBE4F7
:102BA000F5BF22EF6003D38001C3920A92027853EB
:102BB000A607900225E4F0A3745AF07F08122B13A5
:102BC000900229EEF0A3EFF02290001AE0902DFB86
:102BD00093FF900024F090001BE0902DFB93FE905B
:102BE0000069F0EF4E42D442F442E4F452DC229009
:102BF00002717405F0122A4D122363900271EFF0F6
:102C0000BF0205D213E0FF22122A7F122CDA9002B3
:102C100071E0FF2253BA0F43BA2075BBE6121805C4
:102C2000900069E0F5B4EF7009F5B375B2AF75B116
:102C3000C8229000661218542274FFF5F00200BDFD
:102C4000E0FBE4FAF9F81201DE8F458E448D438CE7
:102C50004222AB34AA33A932A831020286E49002A0
:102C600071F075BE0E439F027F03FEFDFC122CF334
:102C700075BC02E4F5BFD2D953CCFD22438901C211
:102C80008DD2A953B8FD120003900223F0A3F07572
:102C90008C32758AEBD28CD2AF227814E2FE08E235
:102CA000FFD394F8EE942A5009C3EF9428EE9423AE
:102CB0005003122779227F0112000E751D0175BF86
:102CC0000F43B92053B9FD43BA0143B901D2D82209
:102CD000900221E0FF900220E0FE6F6007300204C6
:102CE000785FA606900221EEF0227F767E107D01AD
:102CF0007C00780412034FD31202864003C21822CC
:102D0000D218229002721203B190027274FF120361
:102D10007EEC4D4E4F60030080EF22E4FFF582F51C
:102D2000837440FEE493F42FFFA3EEB583F6227F75
:102D30000022E4900231F0A3F07F09122B139002DD
:102D40002FEEF0A3EFF0D2102243D50453F5FB533E
:102D5000E5FB43E30443ED04E4900252F0D29222F7
:102D600041001A0541001B0644001CFFFFFFFF0441
:102D7000180000000000D3EF9DEE9C4007EF9DFF80
:102D8000EE9CFE22C3ED9FFFEC9EFE22E4FF1200AC
:102D90000E121C77121A2C7F0112000E1216B702A7
:102DA0002685E4FF122C04122E1C1219567F0112E4
:102DB0002C0402049208F608F608F608F608F62233
:102DC00012032BAD07AC0622902E06E493FF74018C
:102DD0009390006ECFF0A3EFF022438901C28CC222
:102DE0008F120003758CFB758AED2220C90CC2AFCF
:102DF000A807A60408A605D2AF222275AA3B53BA9B
:102E0000F343BA0C43B92053B9BF2201020408109E
:102E1000204080B603840064C2DA53D80F43D8D070
:102E2000D2D8D2D922900225E4F0A3227856E6081F
:102E3000F622122BB9022D39022451FFFFFFFFFFAA
:102E4000FFFFFFFFFFFFFFFFFFFFFFFFFFFFFFFF92
:00000001FF
