:10000000011007003300000010310000FF00000065
:10001000021797E490029CF0A3F0220229AAE4F5CB
:10002000E3439F107F03FEFDFC122FCA439F027F14
:10003000037E007D007C00122FCA539FEF75BE0E19
:10004000E4F5BFF5B975927622FFFF0227A3781475
:10005000E2FE08E2FFD394F8EE942A5009C3EF942D
:1000600028EE9423500312274222FF021F2BBB01CC
:100070000689828A83E0225002E722BBFE02E32245
:1000800089828A83E49322BB010989828A83F8E00A
:1000900028F022500327F722BBFE05F8E328F322BD
:1000A0008A838982F8E4932822BB010689828A83A5
:1000B000F0225002F722BBFE01F322EF8DF0A4A83C
:1000C000F0CF8CF0A428CE8DF0A42EFE22C5F0F83F
:1000D000A3E028F0C5F0F8E582158270021583E0F0
:1000E00038F022BB0110E58229F582E5833AF583D9
:1000F000E0F5F0A3E0225009E92582F886F008E651
:1001000022BBFE0AE92582F8E2F5F008E222E58347
:100110002AF583E993F5F0A3E99322F8BB0111E5F1
:100120008229F582E5833AF583E8F0E5F0A3F02231
:100130005009E92582C8F608A6F022BBFE09E92588
:1001400082C8F2E5F008F222EF2BFFEE3AFEED391D
:10015000FDEC38FC22C3EF9BFFEE9AFEED99FDEC1F
:1001600098FC22E88FF0A4CC8BF0A42CFCE98EF054
:10017000A42CFC8AF0EDA42CFCEA8EF0A4CDA8F00F
:100180008BF0A42DCC3825F0FDE98FF0A42CCD35D3
:10019000F0FCEB8EF0A4FEA9F0EB8FF0A4CFC5F03D
:1001A0002ECD39FEE43CFCEAA42DCE35F0FDE43C36
:1001B000FC2275F008758200EF2FFFEE33FECD3381
:1001C000CDCC33CCC58233C5829BED9AEC99E582C8
:1001D00098400CF582EE9BFEED9AFDEC99FC0FD554
:1001E000F0D6E4CEFBE4CDFAE4CCF9A88222B80044
:1001F000C1B90059BA002DEC8BF084CFCECDFCE50F
:10020000F0CBF97818EF2FFFEE33FEED33FDEC3332
:10021000FCEB33FB10D703994004EB99FB0FD8E5B7
:10022000E4F9FA227818EF2FFFEE33FEED33FDEC00
:1002300033FCC933C910D7059BE99A4007EC9BFCF6
:10024000E99AF90FD8E0E4C9FAE4CCFB2275F01082
:10025000EF2FFFEE33FEED33FDCC33CCC833C810A7
:10026000D7079BEC9AE899400AED9BFDEC9AFCE8D5
:1002700099F80FD5F0DAE4CDFBE4CCFAE4C8F92222
:10028000EB9FF5F0EA9E42F0E99D42F0EC6480C8F5
:1002900064809845F022EB9FF5F0EA9E42F0E99DDC
:1002A00042F0E89C45F022E8600FECC313FCED132C
:1002B000FDEE13FEEF13FFD8F122E8600FEFC3331A
:1002C000FFEE33FEED33FDEC33FCD8F122BB010D24
:1002D000E58229F582E5833AF58302032B5007E98D
:1002E0002582F802044DBBFE07E92582F802033798
:1002F000E58229F582E5833AF583020459BB0107BB
:1003000089828A830203B15005E9F8020486BBFEA4
:1003100005E9F80203BD22BB010DE58229F582E55E
:10032000833AF5830203B15007E92582F802048677
:10033000BBFE07E92582F80203BD22E0FCA3E0FD35
:10034000A3E0FEA3E0FF22E2FC08E2FD08E2FE08D3
:10035000E2FF22E0F8A3E0F9A3E0FAA3E0FB22E247
:10036000FB08E2F908E2FA08E2CBF822BB010789B0
:10037000828A830203435005E9F8020469BBFE0543
:10038000E9F802034F89828A830204767401FF33FD
:1003900095E0FEFDFCA3A3A3E0CF2FF0E58215823C
:1003A00070021583E0CE3EF0E5821582700215835F
:1003B000E0CD3DF0E582158270021583E0CC3CF083
:1003C00022ECF0A3EDF0A3EEF0A3EFF022ECF208A4
:1003D000EDF208EEF208EFF222A8828583F0D083D6
:1003E000D0821203E01203E01203E01203E0E47390
:1003F000E493A3C583C5F0C583C8C582C8F0A3C56F
:1004000083C5F0C583C8C582C822D083D082E49357
:10041000F208740193F208740293F208740393F2E1
:10042000740473A42582F582E5F03583F58322FAFE
:10043000E6FB0808E6F925F0F618E6CA3AF622E0E7
:10044000FBA3E0FAA3E0F922EBF0A3EAF0A3E9F0C2
:1004500022E493FB740193FA740293F922E6FC08F8
:10046000E6FD08E6FE08E6FF22E493FC740193FD36
:10047000740293FE740393FF22E6FB08E6F908E694
:10048000FA08E6CBF822E493F8740193F974029326
:10049000FA740393FB22ECF608EDF608EEF608EF8B
:1004A000F62290026AEFF01211BBE0FEA3E0FF75A6
:1004B000F002ED9000BE1210F0123054D3EF94C849
:1004C000EE9400400890026B7401F08014D3EF9416
:1004D00064EE940090026B40057402F08003740394
:1004E000F090026AE075F004A424D0F9740035F0AD
:1004F000FA7B011210CA90026BE090027CF0122885
:10050000B090026AE01211BBEEF0A3EFF0ED75F0CF
:1005100004A42441F9740135F0FA7B0190026A12B7
:1005200010CA90027C7406F01228B090026AE09023
:1005300001311211BFEEF0A3EFF090026D1203C96A
:1005400000000000E490026BF090026D12032BC0DB
:1005500004C005C006C00790026AE0FD75F0149063
:1005600000E0120413C083C08290026BE0D082D0FE
:10057000831211BFE0FEA3E0FFED1210EA12305427
:10058000AB07AA06E4F9F8D007D006D005D00412CC
:10059000013890026D1203B190026BE004F0E0C3E9
:1005A000940A40A590026D12032B90026A121173F7
:1005B0001203B190022CE07002A3E0703A90013077
:1005C000E075F00A84E5F0F0E4FFEF1210EA75F050
:1005D00014EF9000E0120413C083C082900130E059
:1005E000D082D0831211BFECF0A3EDF00FEFB40472
:1005F000D9900130E004F0301F030206D730130316
:100600000206D7900226E07002A3E060030206D73C
:1006100090021BE07002A3E060030206D77816E2A6
:10062000FE08E2FFC394A0EE940F50189030DF74E0
:10063000019324CEFDE49334FFFCD3EF9DEE9C4068
:10064000030206D790026AE0640360030206D790B3
:1006500002711203C9FFFFFFFFE490026CF09002E9
:100660006BF090026BE0FFC39404503375F004EF1D
:1006700090016312041312032B900271120343D3EF
:10068000120286401290026BE0A3F0121174120362
:100690002B9002711203B190026BE004F080C390C2
:1006A00001A012117312032BE47B1E121249503762
:1006B00090026CE09001A0F0A3E09001391210CEFE
:1006C00090019C12116DC006C0079001A0E075F06A
:1006D000029001391204131211D7D007D00612016B
:1006E0004590019C1203B190026AE0B40316900198
:1006F000A0E075F00212126CE0FFA3E09000C6CFFC
:10070000F0A3EFF090019C12032B9000C7E02FFFA5
:100710009000C6E03E900161F0A3EFF09001A0E0F0
:10072000A3F090026AE0FF9001311210ED75F00223
:10073000EF900139120413ECF0A3EDF07A01798BFC
:10074000121158740CF09001611212137A0179732E
:10075000122B4B7B017A0179737D0C122167AF411B
:10076000AE40AD3FAC3E90018C0203B1E4900282FA
:10077000F0EF7003020915122F339001981203C98C
:1007800000000000E4900283F09002881203C90088
:10079000000000900283E0FF122AD3121956900243
:1007A000841203B1E4900281F090028412032B9032
:1007B0000283E075F00C900079120413C083C082AC
:1007C000900281E0D082D08375F0041204131203EA
:1007D000B1121968E0B403D1785C90028412194513
:1007E0009002841203B1900283E0FF9000BE1218C1
:1007F000BD9000C81218BC9001311218BC75F002EF
:10080000EF9001391218C075F004EF9000D0120477
:10081000131203C9009C4000900283E0FB75F004B2
:100820009001411204131203C9009C40001218FEEB
:1008300075F004EB9001511204131203B1E490021D
:1008400081F0900281E0FFC3940A5015900283E08A
:1008500075F0149000E01204131218BC121968808D
:10086000E19002881203431218FE120138900288A8
:100870001203B1900283E004F0C394045003020712
:10088000839001611218C39000C61218C3900161D1
:10089000E0FEA3E0FF900282E075F0029001731287
:1008A0000413EEF0A3EFF09001981203439001615E
:1008B000E0FEA3E0FFE4FCFD120138900198120372
:1008C000B1900282E004F0C3940C5003020774124A
:1008D000197290018C12196F90019012196F78069D
:1008E0001202AA9001941203B1E49001A0F0A3F0C7
:1008F000A3F090019C1203C900000000E490028163
:10090000F0900281E0FFC39405500F75F002EF9064
:1009100001A51218C012196880E79001B01218C31F
:10092000E49002B9F090018C12190190006A120350
:10093000B19000701203C900000000E4900076F04E
:10094000A3F078147427F2087410F278127427F266
:10095000087410F2E47816F208F29001FBF0A3F0AC
:100960009001A31218C3E49001B2F0A3F0A31218EF
:10097000C3A31203C90009C4009001BA1218C3A38B
:100980001203C90009C4009001C01218C3A31203C6
:10099000C90009C4009001C6740AF09001D612186B
:1009A000C39001F71203C9000000009001D412188F
:1009B000C39001D81203C900000000E4900281F046
:1009C000900281E0FB75F0049001DC120413120325
:1009D000C90000000075F002EB9001C71218C012A8
:1009E0001968E0B406DAE490022EF0A3F0A3F0A3B5
:1009F000F0900248F0A3F0A3F0A3F09001F5F0A36B
:100A0000F022900261EEF0A3EFF0A3ECF0ED1211F2
:100A10007D4012900263E0FFA3E0900267CFF0A355
:100A2000EFF0020C0390005CE0900265120C0C9059
:100A3000026B121130120C0C900269EEF0A3EFF071
:100A40009001D3E0900265F075F0029001C712109A
:100A5000F0120C4B90026F121130F075F002900101
:100A6000C71210F0120C4B90026DEEF0A3EFF09055
:100A700001F4E09002651211079002791203B1129D
:100A800011351211079002751203B1900263121012
:100A9000D4C006C0079001D41211D7D007D00612D7
:100AA00001459002711203B120002CD37817E29413
:100AB000A018E2940F50209001FEE0601A900245C9
:100AC000E09400900244E09400500C30020990023F
:100AD00051E07003020BCB900226E07002A3E060AD
:100AE00003020BCB90021BE07002A3E06003020B39
:100AF000CBD3900241E09400900240E09400400289
:100B00008019D390020EE0940090020DE094004012
:100B100007900234740F8008300008900234740883
:100B2000F080243016099002347402F0E4801890AA
:100B300001F5E0900234B4010A7403F090026614E7
:100B4000F080087401F0E4900266F075F0961211DE
:100B5000454003020B9E900234E0FD75F0821211B5
:100B6000495006ED1211E24069900266E02408FF48
:100B7000E433FEC390026CE09F90026BE09E401451
:100B80001211649001D81203B17F0E122DC790028A
:100B900028020BBBD3900229E09400900228E09435
:100BA000004003020BC275F082121145400B121275
:100BB00072900275120C298012900234E01211E238
:100BC0004019121272900279120C29EEF0A3EFF084
:100BD00080091211649001D81203B190020DE070E7
:100BE00004A3E0640170031227429002631210D440
:100BF0009001D812034312014512266B900267EE52
:100C0000F0A3EFF0A3E0FEA3E0FFA3E0FCA3E0FD70
:100C1000121FF2900267E0FEA3E0FF22F025E0241D
:100C200050F582E43400F583E0FCA3E0FD9002611E
:100C3000E0FEA3E0FF12305422120343120145905C
:100C400001D81203B17F0D122DC7900226EEF0A33A
:100C5000EFF07F18122DC790024A22900263E0FE47
:100C6000A3E0FF123054229001FDE0900202F01246
:100C7000242550051224334007E49001FDF080083C
:100C8000122A939001FDEFF01224734003020E86A6
:100C90009001FDE0FF122B84EF700D122425500807
:100CA0001224335003020E869001FEE07058900229
:100CB00051F090024DF0A3F0900063F0A3F0900289
:100CC00048F0A3F0C21EC21212248D12003E7F0112
:100CD000122DC7D3900210E0940090020FE0940010
:100CE000401E30140DEF7803CEC313CE13D8F9FF96
:100CF000800EEEC4F854F0C868FEEFC4540F48FFED
:100D0000121541020DFA900063E07002A3E0701327
:100D10009000631224437F17122DC7900248EEF013
:100D2000A3EFF0900248E07004A3E06401703090FB
:100D30000063E0FEA3E0FF2496FDE43EFC7808E2B9
:100D4000FA08E2FBD39DEA9C4004D21E8011EF24F6
:100D50006AFFEE34FFFEC3EB9FEA9E5002D21230D0
:100D60001E3F122415D39DEE9C5003020DFA120E65
:100D7000874003020DFA7F14122DC7EF7802CEC30D
:100D800013CE13D8F912245A7F15122DC77C007D7B
:100D9000031200AB900240EEF0A3EFF0C21E020D72
:100DA000FA301224122415D39DEE9C405D120E875A
:100DB00050587F14122DC7EF7802CEC313CE13D82C
:100DC000F912245AC212804230163F122415D39DC4
:100DD000EE9C4036123054122481502E12241C787E
:100DE00016E2FC08E2FD123054AA06AB0712241CDE
:100DF0007C007D031200ABEF7802CEC313CE13D874
:100E0000F9C39BEE9A500312274290023EE0700411
:100E1000A3E0640170031227429001FEE0FFA3E00B
:100E20006F603E122A477F19122DC790024FEEF0D5
:100E3000A3EFF0900200E030E421D31224335005F8
:100E40001224264009E4900215F0A3F0800D7F07DC
:100E5000122DC7900215EEF0A3EFF09001FEE0A373
:100E6000F09001FEE0602F90024FE07004A3E06478
:100E70000170237816E2FE08E2FF90024DEEF0A327
:100E8000EFF0C394D0EE940750079002517401F034
:100E900022E4900251F022123054AC06AD079001CA
:100EA000FBE0C313FEA3E013C39DEE9C229002035C
:100EB000E475F0011200BDD3900208E094009002A6
:100EC00007E094004003122F0FD390020AE0940031
:100ED000900209E094004003122F0FD3900245E0E6
:100EE0009400900244E094004003122F0FD390022C
:100EF0000CE0940090020BE094004003122F0FD3FB
:100F000090020EE0940090020DE094004003122F36
:100F10000FD3900214E09400900213E09400400F6D
:100F2000122F0F900213E07002A3E07002D210D3D0
:100F3000900212E09400900211E094004003122FFE
:100F40000FD3900210E0940090020FE09400400351
:100F5000122F0F9001FDE030E011E4900215F0A394
:100F6000F0A3F0A3F0A3F0A3F08042D3900216E028
:100F70009400900215E09400401A122F0F90021571
:100F8000E07002A3E0700D7F0B122DC7900219EEE6
:100F9000F0A3EFF0D390021AE09400900219E094CD
:100FA00000400A900217E475F0011200BDD39002D0
:100FB0001EE0940090021DE094004003122F0FD316
:100FC000900227E09400900226E094004003122F44
:100FD0000FD3900229E09400900228E0940040038F
:100FE000122F0FD390022BE0940090022AE094007D
:100FF0004003122F0FD390022DE0940090022CE0BA
:1010000094004005122F0F800D7F10122DC7900203
:101010002CEEF0A3EFF0D390022FE0940090022E7C
:10102000E094004003122F0FD3900231E09400901F
:101030000230E094004003122F0FD3900233E0946B
:1010400000900232E094004003122F0FD39002412F
:10105000E09400900240E094004003122F0FD390E0
:10106000023FE0940090023EE094004003122F0FF4
:10107000D3900243E09400900242E09400400312B7
:101080002F0FD3900249E09400900248E094004072
:1010900003122F0FD390024BE0940090024AE09489
:1010A000004003122F0FD390021CE0940090021B0B
:1010B000E094004003122F0FD3900250E094009070
:1010C000024FE094004003122F0F2274FF9002653C
:1010D000FEFDFC120343D3020270E09000BE75F0E7
:1010E00002120413E0FEA3E0FFE4FCFD22E47FE82B
:1010F0007E03FDFC1203430201539000C875F00209
:10110000120413E0FCA3E0FD2290005CE0245DF5F6
:1011100082E43400F58322F075F0049001DC1204BF
:10112000131203439001D812032B02014590026071
:10113000E075F00CA42479F9740035F0FA7B0122F3
:10114000EEF0A3EFF0900265E02403F0E075F00606
:1011500084AFF0EF22900234E0A4FFC390026EE06F
:101160009F90026DE095F0227B0190027812043886
:1011700090027B229001D812032B9002711203433C
:10118000020138E090016375F004020413A3F0D368
:1011900090020AE09400900209E0940022900284F8
:1011A0001203B190027C12034390028412032B02BB
:1011B00001DE90027812042F02005EFFE4FCFDFEC7
:1011C00012034F1201537807020297FD9000C87571
:1011D000F00202041324FFFFEE34FFFE3395E0FD1E
:1011E000FC12035C020153E0FEA3E0FBAA06E4F953
:1011F000F82275F0C8A4FFC3900270E09F90026FC0
:10120000E095F02212042F740102007775F004A417
:10121000F58285F0832290026A12043890026D7480
:1012200003F022E0FFA3E090027CCFF0A3EFF022D6
:101230001202978F278E268D258C24221202978FDB
:10124000278E268D258C2422785CE6FFE4FCFDFEAB
:1012500022EEF0A3EFF07B0122FAF9F8C302028636
:10126000E0FF74017E00A80708221203B1900280FB
:1012700002032B12033790026E0203B19000BE02EC
:1012800004139001D802032B9002611212417A01DB
:1012900079B69002611210D49002717405F0122890
:1012A0005B9001B41212417A0179BC900261121074
:1012B000D49002717404F012285B9001BAEEF0EF42
:1012C00012117D400280339001A31210D4C006C0D9
:1012D000079001B41211D7D007D006120145900231
:1012E000651203B1E47FFA1210BD40069002690254
:1012F0001347E47FB41210BD40099002697405F0F1
:1013000002134AE47F641210BD4002802274FF7F02
:10131000F1FEFDFC900265120343C3120270400807
:10132000900269740AF080327F9C1210BB400890D2
:1013300002697408F080237F4C1210BB40089002B1
:10134000697406F0801474FF7F061210BD90026964
:1013500040057404F080037402F0900269E090018B
:10136000C6F09001BA1210D4900269E0900271F0B8
:101370007B017A0179C212285B900263EEF0A3EF41
:10138000F090022AE07002A3E060030213FB7F0FDB
:10139000122DC7EEC313FEEF13FF90022A12124163
:1013A0007A00795C12115A7406F07808E2FF08E2BC
:1013B000A3CFF0A3EFF07A007950122B4B7B017A88
:1013C0000179D312115A7406F09002631212137A43
:1013D0000179C7122B4B7B017A0179F490026D12CF
:1013E00004389002707406F01212729002711203A7
:1013F000B17A0179DC122BF47816E2FF08E2900151
:10140000FBCFF0A3EFF01210F9E4F0900263E0FEDE
:10141000A3E0FF22E4900261F07B017A00793D12A3
:10142000120678001212637A007931122BBD7B010B
:101430007A0079311215257B32121249500690023A
:10144000617401F09002B9E0900260F0E4900262F1
:10145000F012111DC002C0017A0079A9121206789B
:101460000A121263D001D002122BBD12111D1215E7
:10147000257BF47A0112124A50069002627401F040
:10148000300045900261E07004A3E0603BD21A7B1B
:10149000017A0079311214F3785B12123A900263E8
:1014A0001210E4780712029778041203BD12111D7E
:1014B0001214F31212389002631210E47807120229
:1014C00097780E1203BD8038C21A785BE678001256
:1014D00011AB78041203BD7804120337EC4D4E4F64
:1014E00070037F0222785CE6780A1211AB780E1244
:1014F00003BD780E120337EC4D4E4F70037F02226E
:101500007F04227D03121CB6C3E5419539FFE540F7
:101510009538FEE53F9537FDE53E9536FCC3EF95E2
:101520003DFFEE953CFEED953BFDEC953AFC9002BF
:10153000631203B1227D03121CB6C3E539953DFF4A
:10154000E538953CFEE537953BFDE536953AFCE4FC
:1015500022900260EEF0A3EFF0E4A3F0D390021625
:10156000E09400900215E094004006122440021618
:10157000381224255005122433402F9001B2E0FE8A
:10158000A3E0FF9001A3E0FCA3E0FDD39FEC9E400D
:10159000089001B2ECF0A3EDF09001B2E0FFA3E0FF
:1015A0007814CFF208EFF202163E90007012034357
:1015B000C0007812E2FE08E2FFE4FCFDD000120158
:1015C000389000701203B1900076E475F0011200BB
:1015D000BD900260E0FEA3E0FFC3900077E09F9023
:1015E0000076E09E5031780890004A12244F123065
:1015F00054D3EF9414EE9400501DA215301401B38F
:101600004015900219E0FEA3E0FFD3900218E09F7E
:10161000900217E09E4037900076E0FEA3E0FFFBCB
:10162000AA06E4F9F890007012032B1201DE1224CE
:1016300073400E7815E22FFF18E23EC313FEEF133E
:10164000FF7814EEF208EFF29002627401F090025B
:1016500062E06028E4900076F0A3F090007012033E
:10166000C900000000E49001B2F0A3F0122440E4AD
:10167000900220F0A3F090021712240D2290026A2B
:101680001203B112117F405E90026A12032B900088
:101690003E1203B1E47F96FEFDFC90003E1210E482
:1016A000780A1202979000421203B1E4900273F09C
:1016B000900273E0FFC39404502C75F00CEF90007F
:1016C00081120413120343C000121238D000121109
:1016D000B3900273E09000AA1211771203B1900246
:1016E00073E004F080CA9000BA1203C90000000041
:1016F00090004212034390003E121117C004C0052F
:10170000C006C00790004212034390026A121117EC
:1017100090027C1203B19002801203C90001000004
:10172000D007D006D005D00412221C900046120328
:10173000B19000BA12034390026E121117C004C098
:1017400005C006C00790027C1203C900010000908A
:10175000004612032B9002801203B1D007D006D0AE
:1017600005D00412221C9002741203B19000BA1228
:10177000032BAB07AA0690027412032BEF2BFBEE90
:101780003AFA900272E0F975F004900151120413D4
:1017900012032BC3EB9FFFEA9EFE75F002E91212C3
:1017A0006CEEF0A3EFF022439F04E453C6DFE5C6DE
:1017B00000B5C6F375830075820775FD0DE4E5FE7F
:1017C000F4FF75830075820675FD0DE4E5FEB5072F
:1017D00004F59E8003759E0078100000D8FC53C667
:1017E000E043C60843C68075960775970975830060
:1017F00075820475FD0DE5FD0404F58F7583007594
:10180000820375FD0DE4E5FEF4FF75830075820229
:1018100075FD0DE4E5FEB50704F595800375958328
:1018200075BE0E5392FE9001007F007E02E4F0A38D
:10183000DFFCDEFA78007F00E4F208DFFC78FFE4EA
:10184000F6D8FD7581C50218770200000222C6E4B1
:1018500093A3F8E493A34003F68001F208DFF48039
:1018600029E493A3F85407240CC8C333C4540F4489
:1018700020C8834004F456800146F6DFE4800B0163
:101880000204081020408090303EE47E019360BC4A
:10189000A3FF543F30E509541FFEE493A360010EFB
:1018A000CF54C025E060A840B8E493A3FAE493A322
:1018B000F8E493A3C8C582C8CAC583CAF0A3C8C543
:1018C00082C8CAC583CADFE9DEE780BEEF75F002D1
:1018D0001204137427F0A37410F022120153900223
:1018E000601203B190023A12034390026012032B7C
:1018F0001201DE78081202979002601203B17F0F86
:10190000E4FEFDFC900260120343D30202869002C3
:101910008412032BEF24F0FFEE34D8FEED34FFFDEC
:10192000EC34FFFC2290001BE09030D69322900212
:101930006012032BC3EF940FFFEE9400FEED9400B2
:10194000FDEC9400FC9002600203B1E5BAF053BADA
:101950000F43BA1022E6FFE4FCFDFE12034312011E
:10196000537807020297122E2590001BE0FF0226F3
:10197000E0900069E042F422900281E004F022123B
:1019800003B190019802032B900069E0FFF452F438
:10199000EF428022E0F5B3A3E0F5B2A3E0F5B12277
:1019A00090001AE09030D693F5AB2275BF0F43B983
:1019B0002053B9FD2275AC0375ADC075AEC022755C
:1019C000AC0375AD4075AE402290026512032B90BA
:1019D00002612290026512032B9002612220CA0349
:1019E000021AD1E5467003021AD1E4FF74462FF8BB
:1019F000E6FE744B2FF8A60674462FF8E4F60FEFB8
:101A0000B405E9E4900260F0900260E0FFC3940541
:101A10004003021AD1744B2FF8E6FF7003021AD16B
:101A2000EF54F0FEEF540F900261F0E4F6AF06EFD2
:101A300024A0602424F0602924D0603C24E07003BA
:101A4000021ABA24E07003021ABF24906003021A3B
:101A5000C87858E6440180057858E654FEF6021A24
:101A6000B5E4FF122FE2785AEFF67856BFFF0576FD
:101A700007021AC876FF8060900261E0FD700B7863
:101A800058E630E253122F5E803BEDB4010B7858DC
:101A9000E620E244122F69802C900261E0FDB4023E
:101AA000117858E630E231122F5E90024C7401F04A
:101AB0008013ED640370217858E620E21B122F6931
:101AC000E490024CF0751C02800E1227428009E45B
:101AD000900209F0A3F0D21F900260E004F0021916
:101AE000F8223011151230F0745AF07F0A122DC707
:101AF000900211EEF0A3EFF0C211A2149215300281
:101B0000028020D390020AE09400900209E0940041
:101B10005011900212E09400900211E094005003E2
:101B200020100A1230F0745AF0C21480081230F0FB
:101B30007403F0D21430141890024CE0B401047F06
:101B400001800790024CE07004FF122D95122F7453
:101B5000A215301401B350289001FEE06012D21695
:101B60007812E2FF08E2900235CFF0A3EFF0801088
:101B70007F02122DC790020FEEF0A3EFF012274262
:101B80002014173015147F03122DC7EEC313FEEF78
:101B900013FF900244EEF0A3EFF07812E2FE08E2A9
:101BA000FF900235E0FCA3E0FDD39FEC9E4012EDD8
:101BB0009FFFEC9EFED3EF94DCEE940540031227CA
:101BC000429001FEE0700F301603122742C216E465
:101BD000900235F0A3F022E4900282F0EF607B12D5
:101BE0002F339000291203C900000000122E259007
:101BF00000291226D81201389000291203B1900250
:101C000082E004F0C3940C40E3E0FFFBE4FAF9F84F
:101C100090002912032B1201DE9002831203B17887
:101C20005B90028312194578041203BDE49002818F
:101C3000F0900281E0FBC39403501F9002831203D3
:101C40002BEB25E025E02431F582E43400F5831206
:101C500003B1900281E004F080D77804120337EFDB
:101C600024D0FFEE348A12190B9000251203B19094
:101C7000004A7475F0A37430F0A31203C9001D4C20
:101C800000E4900281F0900281E0FFC394065027A7
:101C9000EF25E02450F582E43400F5837475F0A359
:101CA0007430F0745D2FF582E43400F583E4F09035
:101CB0000281E004F080CFE490005CF07808747555
:101CC000F2087430F22290026712043890026AED32
:101CD000F0E4F528F527F526F52574FFF52CF52B0E
:101CE000F52AF529E4F530F52FF52EF52DF524909C
:101CF000026AE0FFE524C39F507090026712042F30
:101D000075F004E524A4F58285F0831202BD8F34BA
:101D10008E338D328C31AF28AE27AD26AC25D31251
:101D20002F28400C85342885332785322685312598
:101D3000AF2CAE2BAD2AAC29C3122F28500C853402
:101D40002C85332B85322A853129E5302534FFE572
:101D50002F3533FEE52E3532FDE52D35318F308EB2
:101D60002F8D2EF52D0524021CDF85283985273877
:101D7000852637852536852C3D852B3C852A3B8558
:101D8000293A853041852F40852E3F852D3E900292
:101D90006AAF30AE2FAD2EAC2D122F16227B077AF4
:101DA000079002611203C900000000122F33EB609C
:101DB0001A74017E00A803088005C333CE33CED841
:101DC000F9FFADACEF5D70031B80E3EA601A7401AC
:101DD0007E00A802088005C333CE33CED8F9FFAD0C
:101DE000AEEF5D70031A80E3AF037401A8070880AB
:101DF00002C333D8FCF5AC7401A802088002C333D7
:101E0000D8FCFFF5AD8FAE53AACF43AA0490026071
:101E100012193B12191542AB1219569002651203A2
:101E2000B11219C3120343C312028650061219C31A
:101E30001203B1900261120343C0009002611203C9
:101E40002B7803120297D00012013890026112031E
:101E5000B190026112032B9000651203B143AA30C6
:101E600053AAFB900260E0F5BA121915F452AB12B6
:101E700019AF227B077A079002611203C9000000A4
:101E800000122F33EB601A74017E00A8030880054E
:101E9000C333CE33CED8F9FFADACEF5D70031B80FA
:101EA000E3EA601A74017E00A802088005C333CEFD
:101EB00033CED8F9FFADAEEF5D70031A80E3AF0308
:101EC0007401A807088002C333D8FCF5AC7401A8DC
:101ED00002088002C333D8FCFFF5AD8FAE53AACF02
:101EE00090026012193B122E251226DB9002651219
:101EF00003B11219B9120343C31202865006121914
:101F0000B91203B1900261120343C0009002611242
:101F1000032B7803120297D000120138900261124D
:101F200003B190026112032B9000201203B143AA67
:101F300030900260E0F5BA1219A522C0E0C0F0C0EE
:101F400083C082C0D075D008C2CFD21130CD030279
:101F50001FE720CC6030CB2285CE54E554C394805B
:101F6000401675F003E55490240D12041312044139
:101F70008B518A5289538063807385CE35E55470C6
:101F800022E535B410099002BAE0F452808066E58B
:101F900035B420089002BAE0428080598535460564
:101FA000548052E554C39405500774462554F8A64E
:101FB0003505548040E554B4C0057546C08036E50B
:101FC00054B4C2107858E630E2057546A0802675F4
:101FD00046A18021E554C3948040107851E475F007
:101FE0000112041F12005EF5CE800A0554E550254B
:101FF00054F8E6F5CED210D0D0D082D083D0F0D035
:10200000E03290027DECF0A3EDF0E4FD9001F5E00C
:102010007034C3EF940AEE940040061210F9740174
:10202000F01210F9E07002C21DE4FF745D2F12106F
:10203000FFE07004C21D80130DEDB40602D21D0F27
:10204000EFB406E780051210F9E4F0900230E0707A
:1020500002A3E0705790022EE07002A3E0704D9052
:1020600001F5E0701B301D187F11122DC790022E54
:10207000EEF0A3EFF09001F57401F0D21BC21D2227
:102080009001F5E064017036C390027EE0940A90FE
:10209000027DE0940050277F12122DC77C007D0C3A
:1020A0001200AB900230EEF0A3EFF022900230E08D
:1020B0007004A3E0640170069001F5F0D21C2212B6
:1020C0002F3390026112193B78001203FA000000CE
:1020D000009002607405F075ABFF122E2578001297
:1020E000034F1226DB12013878001203BDE4F5AB72
:1020F000122E257800120337C004C005C006C007A1
:102100001226DBA804A905AA06AB07D007D006D083
:1021100005D00412014578001203BD900260E0145E
:10212000F0E070B3780012034F7F007EC07D127C18
:10213000001201DE9002621203B190026212032BC0
:1021400090026A1203B17F967E007D007C00122C03
:10215000CBE47B32FAF9F8C31202865006785B763C
:1021600096800A90026212032B785BA607900261A8
:10217000E0F5BA1219902290027512043890027894
:10218000EDF0E4F525F52674FFF527F528E4F52EA6
:10219000F52DF52CF52BF524900278E0FFE524C30E
:1021A0009F505990027512042F75F002E524A4F592
:1021B0008285F0831200D3F52A85F029D39526E590
:1021C0002995254006852925852A26C3E52A9528AF
:1021D000E52995275006852927852A28E4FCFDE571
:1021E0002E252AFFE52D3529FEED352CFDEC352B6E
:1021F0008F2E8E2D8D2CF52B0524809CE485263981
:10220000852538F537F53685283D85273CF53BF59E
:102210003A852E41852D40852C3F852B3E900278B6
:10222000AF2EAE2DAD2CAC2B122F162290027812B1
:1022300003B1E47BE87A03F9F890027812119C90DC
:1022400002881203B19002881210DDA804A905AA21
:1022500006AB0790027812111790028C12125A9056
:1022600002881210E412118D9002901203B19002B4
:102270007C12032B9002901210E4A804A905AA0670
:10228000AB0790028412111790029412125A900216
:102290008C1210E49002841203B190028412034362
:1022A000C000C001C002C0039002941210DDD00330
:1022B000D002D001D00012013812118D9002981274
:1022C00003B1E47FE87E03FDFC9002901210E490DD
:1022D000029812116D2212000E1230FD1230E3121C
:1022E00029F9122F93122CFE123093D2AF751C01D4
:1022F000E51C24FE601E14603614605614606024D1
:102300000470671230C612306A123080122FF97FC3
:1023100004122E9ED2D8E4900203F0A3F090029C07
:10232000F0A3F0122C61E51D70FC1230108036D243
:10233000D8E51D70FC1214048F1C121AD29002B939
:10234000E0900078F09002B904F0122C2B123010BB
:10235000801B122EEA8F1C12236F120E9D800E120C
:102360000C57122E76751C038003751C0112310365
:10237000E51C640470030222E01219CD0222E07F02
:10238000859030DFE493FC740193FD1230B67F87B3
:102390009030DF74019324CEFDE49334FFFC1230BF
:1023A000B67F897D647C001230B67F8F3018187D2F
:1023B000397C301230B67F8D7D397C301230B67F5B
:1023C000917D397C30801F7812E2FC08E2FD1230EA
:1023D000B67F8D7816E2FC08E2FD1230B67F917868
:1023E00014E2FC08E2FD1230B67F9F900256E0FC3A
:1023F000A3E0FD1230B67F9D900258E0FCA3E0FD03
:102400001230B67FA1C00790025A12032BAD07AC61
:1024100006D0071230B6022803F0A3F0A3F0A3F011
:10242000A3F0A3F0227816E2FC08E2FD9001FBE0A5
:10243000FEA3E0FF22D390020AE09400900209E09C
:1024400094002290020CE0940090020BE094002291
:1024500090004A7808E2FF08E2CFF0A3EFF022E212
:10246000FE08E2FFE0FCA3E0FD2290023EFFEEF05A
:10247000A3EFF022E29DFF18E29CFE900260F0A321
:10248000EFF022D3900245E09400900244E09400E3
:1024900022C39030DF7401939FE4939E2290021533
:1024A000E07002A3E0705830002078149001A3126D
:1024B000244FC39FEC9E5010C312246412248150F9
:1024C000351224F040398029802C7814E2FE08E28D
:1024D000FF7812E2FC08E2FDC39FEC9E501AC3781D
:1024E00015122464D39432EE9400400A1224F04072
:1024F0000E12274280028000E4900220F0A3F02216
:102500007F05122DC7EEC313FEEF13FF900220E4E8
:1025100075F0011200BDFCD3E5F09FEC9E22780E11
:102520001203379002651203B17804120337122B9D
:10253000119001981203B190006A12032B90019838
:10254000120343C312028650037F022290019812A5
:10255000032B1229599001A3EEF0A3EFF09001C0D4
:10256000E0FFA3E09001D4CFF0A3EFF09001A3E04F
:10257000FEA3E0FF1212789001C0EEF0FCA3EFF092
:10258000FD7808E2FE08E2FF1209F29001D6EEF0B3
:10259000A3EFF07812EEF208EFF27F052201007946
:1025A000FE000E0100BE0100C801019C0101610195
:1025B00001980101A30101B40101C00101D6FE008F
:1025C00012FE0014FE0016FE0018FE0000FE0004BD
:1025D00001003E010042010046FE000801025601D2
:1025E000025E01026601026E01022C0100E001019F
:1025F0006301025201025A0101A00100D0010163EE
:102600000101F501022E010230010209900237E0BA
:1026100030E10912264B20180312265B900237E0A6
:1026200054FDF0900200E0540FFF6027900237E065
:10263000FE30E2067864A6078010EE30E31C9002BC
:1026400000E0540FC454F07864F620180612264BAC
:1026500012265B900237E054F3F022C2107F08127A
:102660002DC7900213EEF0A3EFF022C2927F217EDD
:10267000007D007C00122FCAD2922290027D1203AC
:10268000B1E47F607EEAFDFC90027D1210C340043D
:10269000D2138002C213E47FFF7EFFFDFC90027D17
:1026A0001210C3400C90027D1203C90000FFFF808E
:1026B00030E4FF90027D1210C05026122742301ED7
:1026C000167F15122DC77C007D031200AB900240CF
:1026D000EEF0A3EFF0C21E90027D1203C9000027A6
:1026E0001090027D12032B2212034390001AE0FF88
:1026F000EFC39404500553B9EF800343B910EF6062
:1027000003B4040B85B71985B61A85B51B803AEF5B
:1027100064016004EFB4050B85EB1985EA1A85E9BD
:102720001B8026EF64026004EFB4060B85F3198565
:10273000F21A85F11B8012EF64036004EFB40709FD
:1027400085FB1985FA1A85F91BAF1BAE1AAD19ACBA
:102750001822E51D70FCE4FF121BC7E4FF12075CA2
:10276000E49001FEF0900200F090021FF09002153C
:1027700012240990021DF0A3F090022212240912E3
:10278000240C900063F0A3F0A208300001B35022A3
:102790007F04122DC790020BEEF0A3EFF07F04121E
:1027A0002DC7EF7802C333CE33CED8F990020D1285
:1027B000245D22C0E0C0F0C083C082C0D075D010BC
:1027C00053B9FDE51D640170221226DB7800120367
:1027D000BD1219617F01122E4E9002B9E0FF122A3C
:1027E000D343B901D2D8751D05801DE51D64057060
:1027F00017121959780A1203BD121915F452AB5366
:10280000AAFB121978751D00D0D0D082D083D0F0E9
:10281000D0E032E47F557E06FDFC780012034F12B3
:1028200018CB400312191E7FFF1218F0400678C51E
:1028300076FF800A90026012032B78C5A607E47F1A
:102840000F7E0DFDFC9000811203431218CB400354
:1028500012191EE47FFF1218F14005789376FF22CB
:1028600090026012032B7893A6072290026D120348
:10287000B190026A12043890026D12032B7806128E
:1028800002AA90026D1203B19002711212508005DB
:10289000C333CE33CED8F91211C590026D12116D2B
:1028A000900271E0F9F812122090026A12042F12BD
:1028B00002EDAF27AE26AD25AC24780612122022F9
:1028C0009002781203B190027512043890027812C7
:1028D000032B780A1202AA9002781203B190027CAC
:1028E0001212508005C333CE33CED8F91211C590E1
:1028F000027812116D90027CE0F9F812122C90020D
:102900007512042F1202EDAF27AE26AD25AC247848
:102910000A12122C2290023A1203C900000000E4AD
:10292000FF122DF675ABFF122E2590023A1226D813
:1029300012013890023A1203B1E4F5AB122E259041
:10294000023A12032BC004C005C006C0071226DBE2
:10295000A804A905AA06AB07D007D006D005D00465
:1029600012014590023A0203B190006A1203431229
:10297000014512266B900261EEF0A3EFF07A017927
:10298000AF1211587405F0A3EEF0A3EFF07A0179BD
:10299000A5122B4BA215301401B350157B017A01FF
:1029A00079A57D051221679001B0E544F0A3E545C6
:1029B000F0900261E0FEA3E0FF22C0E0C0F0C0831F
:1029C000C082C0D075D000C000C28D758C32758AAF
:1029D000EB90029CE475F0011200BDC390029DE0F3
:1029E000941490029CE094004012900203A3E078BB
:1029F0005FF6900203E4F0A3F0120004D000D0D000
:102A0000D082D083D0F0D0E032E4FF122FE2785AA7
:102A1000EFF67856BFFF047607800276FFE478640D
:102A2000F67857763308F69030DF93FE740193FF03
:102A30007885A60608A607EF24CE7888F6EE34FF40
:102A400018F678897600087664E4122F54F6122F6F
:102A500054769675505522A907E4FEFD900237E0A2
:102A6000FC703FEF5401FB9001FFE054016B600DDF
:102A700030020A201807EC4402900237F09001FF60
:102A8000E030E006EE4410FE8004EE4401FEE93042
:102A9000E006ED4401FD8004ED4410FDEE5D900282
:102AA00000F022E4FF9001FEE070169030DF93FC0E
:102AB000740193FDC37819E29D18E29C401F0F80BA
:102AC0001C9030DF74019324CEFDE49334FFFCC3EB
:102AD0007819E29D18E29C4004EF4401FF9002B88F
:102AE000EFF0221219619002B9E0D394034002E49E
:102AF000F0EF14601214601714601D24037021128B
:102B00001915F452AB800D121915F452AB800E1248
:102B1000191542AB53AAFB2212191542AB43AA0462
:102B2000229002611203B1900078E0900269F09067
:102B3000026512032B90026E1203B1900269E090BD
:102B40000272F090026112032B12166D900269E07E
:102B5000FF12049290018C12032B2290027CE0FE63
:102B6000A3E0FFC003C002C0011211A275F002125F
:102B700011FFD001D002D003EE8FF012010B9002B2
:102B8000781211F41211A2FF90027BE0B50704E461
:102B9000120099227E05EF5401FD9001FEE05401E0
:102BA0006D6007EFF0E490021FF07858E630E0081F
:102BB0009001FEE070027E0A90021FE004F0C39EC6
:102BC00050037F002290021FEEF07F012290026EE0
:102BD00012032BC003C002C00190026A1211A51299
:102BE00011FCD001D002D00312030790026A121127
:102BF000F490026A1211A5FF90026DE0B50704E49B
:102C00001200992290027112032BC003C002C0016E
:102C100090026D1211A51211FCD001D002D0031246
:102C2000030790026D1211F490026D1211A5FF902E
:102C30000270E0B50704E412009922121961E4FF62
:102C4000122DF612193E75BB01900069E0FF90004D
:102C500024E04FF5B4E4F5B3F5B275B11012199B49
:102C600053BAFE43B901D2D8E5B930E1FBE4F5BF70
:102C7000227858E6F520A208300001B350147F04F2
:102C8000122DC790020BEEF0A3EFF0122742A20024
:102C90009208A20A300201B35004A202920A300440
:102CA00005122742C20422000501080202030104A2
:102CB00001050106060701080109070A010B010CBD
:102CC000030D050E0A0F011001110A123C13011425
:102CD00001153C1601173C180219029002661203F6
:102CE000B190026A12032B900266120343D31202C0
:102CF00086400B90026A120343900266800990029C
:102D00006612034390026A12032B1201452243F814
:102D10000875CD4053CC7F43CC4043CC2043CC10EE
:102D200043CC0453CCFD43CB0243CB0153CBBFD2A6
:102D3000EB53E5FC43E30243F50343900343ED0308
:102D40002290002512032BAB07AA06780412033742
:102D5000C3EF9BFFEE9AFE7B017A00794CE4FCFD09
:102D60009002717408F012285B7808EEF208EFF216
:102D70007F05227814E2FE08E2FF7812E2FC08E206
:102D8000FDD39FEC9E400BED9F7817F2EC9E18F25E
:102D90008006E47816F208F27816E2FF08E208CF1F
:102DA000F208EFF222E4F51D53B9FD53B9DF43CC2D
:102DB00002C2D9539FFD438760C28DEF700675BD77
:102DC0000D75BC011230A575BE0CD28C20C9034311
:102DD000870300000000227D017C00EFC3941A509D
:102DE00020EF25E02498F582E4342CF583E493FF6A
:102DF0007E00900205E0FCA3E0FD1200ABAC06AD46
:102E000007AE04AF052253BA0F43BA3075BBFF7546
:102E1000A9201219A5900024E0F5B4EF700AF5B3CB
:102E200075B26175B1A8800690002112198412193B
:102E30009053AAFB2212196175BF0F000000000019
:102E400000000000000000000000000000D2D85385
:102E5000B9FD43B901E5B930E1FBE4F5BF2253BA4E
:102E60000F43BA4075BBB475A9C01219AF90006981
:102E7000E0F5B4EF7009F5B375B2AF75B1C8229043
:102E8000006612198422900201E0FF900200E0FE29
:102E90006F60143002047864A606E4FF122DC79018
:102EA000021BEEF0A3EFF0900200E0A3F022EF602F
:102EB00003D38001C3920A92027858A607900205B4
:102EC000E4F0A3745AF07F09122DC7900209EEF0C6
:102ED000A3EFF02290001AE09030D693FF900024E8
:102EE000F090001BE09030D693FE900069F0EF4E1A
:102EF00042D442F442E4F452DC229002607405F0C1
:102F0000122D3112250E900260EFF0BF0205D2049F
:102F1000E0FF22122D63122FB1900260E0FF2274B5
:102F2000FFF5F00200BDE0FBE4FAF9F81201DE8FD4
:102F3000458E448D438C4222AB34AA33A932A8314A
:102F400002028653BAFEE5B920E004E51D6005E5FE
:102F5000B930E1FBE4F5BF53B9FD53B9FE1219785E
:102F6000E4F51D2208F608F608F608F6082254FBD8
:102F7000F6900237E04408F0224404F6900237E06D
:102F80004404F022E4900260F075BE0E439F027F7D
:102F900003FEFDFC122FCA75BC02E4F5BFD2D95363
:102FA000CCFD22438901C28DD2A953B8FD12000382
:102FB000900203F0A3F0758C32758AEBD28CD2AFFD
:102FC000227F767E107D017C00780412034FD3129D
:102FD00002864003C21822D218229002611203B165
:102FE00090026174FF12037EEC4D4E4F600300802F
:102FF000EF22E4FFF582F5837440FEE493F42FFFA3
:10300000A3EEB583F6227F0022E4900213F0A3F032
:103010007F0A122DC7900211EEF0A3EFF0D210221A
:103020001219617F01122DF6751D0112199B43BA09
:103030000143B901D2D82243D50453F5FB53E5FB34
:1030400043E30443ED04E4900237F0D292224100BE
:103050001A0441001B0644001CFFFFFFFF04180078
:1030600000000000D3EF9DEE9C4007EF9DFFEE9C1B
:10307000FE22C3ED9FFFEC9EFE22E4FF122DF6120E
:1030800020AF121E637F01122DF6121BC702290505
:10309000E4FF122E4E1230F7121D8D7F01122E4EBC
:1030A00002075C9030E1E493FF74019390006ECFCF
:1030B000F0A3EFF022438901C28CC28F1200037586
:1030C0008CFB758AED2220C90CC2AFA807A60408A4
:1030D000A605D2AF222275AA3B53BAF343BA0C43DA
:1030E000B92053B9BF2201020408102040801E03FA
:1030F000200064C2DA53D80F43D8D0D2D8D2D92214
:10310000900205E4F0A322785BE608F622122EC4B2
:103110000230270225FCFFFFFFFFFFFFFFFFFFFF3D
:00000001FF
