:100000000110030025000000601C0000FF0000003C
:10001000020C5A751AFF22FFFFFFFF0215ED7E0644
:10002000900074E06F6007EFF0E4900077F09000CC
:1000300074E07001FE900077E004F0C39E50037FEF
:1000400000229000777406F07F0122021713E4FB70
:10005000EB25E025E02474F8120232EB25E025E0E0
:10006000247CF812024B0BBB02E6220210A1BB015A
:100070000689828A83E0225002E722BBFE02E32245
:1000800089828A83E49322EF8DF0A4A8F0CF8CF0CC
:10009000A428CE8DF0A42EFE22BC000BBE0029EFBA
:1000A0008DF084FFADF022E4CCF875F008EF2FFF5F
:1000B000EE33FEEC33FCEE9DEC984005FCEE9DFE2D
:1000C0000FD5F0E9E4CEFD22EDF8F5F0EE8420D274
:1000D0001CFEADF075F008EF2FFFED33FD400798E3
:1000E0005006D5F0F222C398FD0FD5F0EA22E88F32
:1000F000F0A4CC8BF0A42CFCE98EF0A42CFC8AF0AC
:10010000EDA42CFCEA8EF0A4CDA8F08BF0A42DCCAD
:100110003825F0FDE98FF0A42CCD35F0FCEB8EF006
:10012000A4FEA9F0EB8FF0A4CFC5F02ECD39FEE4EC
:100130003CFCEAA42DCE35F0FDE43CFC2275F00831
:10014000758200EF2FFFEE33FECD33CDCC33CCC51F
:100150008233C5829BED9AEC99E58298400CF5823A
:10016000EE9BFEED9AFDEC99FC0FD5F0D6E4CEFBAC
:10017000E4CDFAE4CCF9A88222B800C1B90059BA9A
:10018000002DEC8BF084CFCECDFCE5F0CBF97818C8
:10019000EF2FFFEE33FEED33FDEC33FCEB33FB10C2
:1001A000D703994004EB99FB0FD8E5E4F9FA2278DC
:1001B00018EF2FFFEE33FEED33FDEC33FCC933C9EE
:1001C00010D7059BE99A4007EC9BFCE99AF90FD8F8
:1001D000E0E4C9FAE4CCFB2275F010EF2FFFEE3318
:1001E000FEED33FDCC33CCC833C810D7079BEC9A57
:1001F000E899400AED9BFDEC9AFCE899F80FD5F0E0
:10020000DAE4CDFBE4CCFAE4C8F922EB9FF5F0EA9E
:100210009E42F0E99D42F0E89C45F022E8600FEC38
:10022000C313FCED13FDEE13FEEF13FFD8F122E82C
:10023000600FEFC333FFEE33FEED33FDEC33FCD83C
:10024000F122E6FC08E6FD08E6FE08E6FF22E6FBF2
:1002500008E6F908E6FA08E6CBF822ECF608EDF62F
:1002600008EEF608EFF622ECF208EDF208EEF208DE
:10027000EFF222D083D082E493F608740193F6085B
:10028000740293F608740393F6740473D083D082D7
:10029000E493F208740193F208740293F208740371
:1002A00093F27404738A838982E473EC8EF0A4CC95
:1002B000C5F0CCCDF8EFA4CEC5F02DFDE43CFCE8B4
:1002C000A42EC8C5F03DFDE43CFCEFA4FFE5F028FA
:1002D000FEE43DFDE43CFC22E4F530E53025E0257C
:1002E000E0247CF8C000120232C00774522530F8B6
:1002F000E6FFFBE4FAF9F8D0071200DED0001202A4
:100300004BE53025E025E0247CF8C000120232786D
:100310000712020CD00012024BE53025E025E02444
:100320007CF8120232EC4D4E4F6076E53025E02528
:10033000E0246CF8120232E53025E025E0247CF858
:1003400012023EC31201FB50037F0322E53025E079
:1003500025E0246CF812023EC000E53025E025E0DF
:10036000247CF8120232D000C3EF9BF534EE9AF5EC
:1003700033ED99F532EC98F531E47FFF7EFFFDFC1B
:10038000AB34AA33A932A831C31201FB40037F0367
:1003900022E53025E02400F8E533F208E534F28068
:1003A00015E530C39402500BE53025E02408F8E44D
:1003B000F208F27F03220530E53064026003020296
:1003C000CBE4F530E53025E02404F8E2FE08E2FF56
:1003D000E53025E02400F8E2FC08E2FDD39FEC9E26
:1003E000401EE53025E02404F8E2FE08E2FFC3EDFC
:1003F0009FFFEC9EFEE48F388E37F536F535800989
:10040000E4F538F537F536F535AF38AE37AD36ACFF
:1004100035780712021F8F388E378D368C35900055
:1004200074E070447F03FEFDFCAB38AA37A936A800
:10043000351200DEE53025E025E02414F8E2FB0863
:10044000E2F908E2FA08E2CBF8EB2FFFEA3EFEE918
:100450003DFDE83CFC780212020CE53025E025E089
:100460002414F81202578033E53025E025E02414E7
:10047000F8E2FC08E2FD08E2FE08E22538FFEE356E
:1004800037FEED3536FDEC3535FC780112020CE512
:100490003025E025E02414F8120257E53025E02548
:1004A000E02414F8E2FC08E2FD08E2FE08E2FF782E
:1004B0000712020CE53025E02408F8EEF208EFF20E
:1004C0000530E530640260030203B47F07228E32F8
:1004D0008F33E4F535F536F537900087E0F536A330
:1004E000E0F537E4F534E5187016900077E0B406CF
:1004F0000FD3900091E09400900090E09400401E93
:10050000E53425E02448F8E4F208F2E53425E02556
:10051000E0243CF812027C000000000205D5E5341E
:1005200025E02449F9E3700219E3701AE53425E067
:100530002400F8E2FE08E2FFE53425E02444F8EE6A
:10054000F208EFF28057E53425E02444F8E2FE0893
:10055000E2FFE53425E02400F8E2FC08E2FD121B8E
:1005600023D3EF9537EE95364033E53425E024006C
:10057000F8E2FE08E2FFE53425E02444F8EEF20854
:10058000EFF2E53425E02448F8E4F208F2E53425FA
:10059000E025E0243CF812027C00000000E5342550
:1005A000E02400F8E2FE08E2FFE53425E025E0243F
:1005B0003CF8C000E2FB08E2F908E2FA08E2CBF8F6
:1005C000E4FCFDEB2FFFEA3EFEED39FDEC38FCD0FC
:1005D00000120257E53425E02448F808E22401F22D
:1005E00018E23400F20534E534C3940250030204E7
:1005F000D6E4F534E53425E02449F9C3E39533190D
:10060000E39532400205350534E534B402E6E535BC
:10061000640260030206B274FF900089F0A3F0E464
:10062000A3F0A3F0F534E53425E02448F8E2FE0811
:10063000E2FF4E70030206B2E4FCFDC004A905AA65
:1006400006AB07E53425E025E0243CF8E2FC08E2AF
:10065000FD08E2FE08E2FFD0001201698E388F39F2
:10066000D390008AE09539900089E095384007E5FD
:1006700038F0A3E539F0C390008CE0953990008BF9
:10068000E095385007E538F0A3E539F0E53425E08A
:100690002404F8E538F208E539F2E53425E0244889
:1006A000F8E4F208F2E53425E025E0243CF81202F3
:1006B0007C00000000C2080534E5346402600302D7
:1006C000061622E4F534F533E53325E025E0243C35
:1006D000F812027C000000000533E533B402E91291
:1006E0001895E4F533E53325E025E0243CF8C00017
:1006F000E2FC08E2FD08E2FE08E2FFE53325E02522
:10070000E02474F812023EEF2BFFEE3AFEED39FDC5
:10071000EC38FCD0001202570533E533B402C605AD
:1007200034E534C3940540B7E4F533AF34E4FCFD5D
:10073000FEC004A905AA06AB07E53325E025E024A1
:100740003CF8E2FC08E2FD08E2FE08E2FFD00012FD
:1007500001698F388E378D368C35AB38AA37A9367C
:10076000A835C00074522533F8E6FFE4FCFDFED046
:10077000001200DE8F388E378D368C3578071202E6
:100780000C8F388E378D368C35E47FB87E0BFDFCB0
:10079000AB38AA37A936A835D31201FB4030E5386B
:1007A0002448FFE53734F4FEE53634FFFDE5353403
:1007B000FFFCE53325E025E0246CF812024BE5331D
:1007C00025E02400F8740BF20874B8F2801EE533BB
:1007D00025E025E0246CF812026300000000E533F8
:1007E00025E02400F8E537F208E538F2E53325E0A6
:1007F00025E0243CF812027C00000000E53325E0EF
:100800002448F8E4F208F2E533C394025033E533A8
:1008100025E02400F8E2FE08E2FFE53325E02404A9
:10082000F8EEF208EFF2E53325E02408F8E4F208E8
:10083000F2E53325E025E02414F812027C000000E4
:10084000000533E5336402600302071B2274FFF5E1
:1008500037F538E4FFFE0208C9E532C39409501C9D
:10086000E53225E0242AF8E2FC08E2FDE53225E045
:100870002428F8ECF208EDF2053280DD7804E2FD80
:1008800008E2783ACDF208EDF2E4F532E53225E0FF
:100890002428F8E2FC08E2FDC39538EC95375004B3
:1008A0008C378D38D3ED9FEC9E4004AE04AF050528
:1008B00032E532B40AD6E538244BFDE43537FCD3B3
:1008C000EF9DEE9C4011D2097F0412197A9000929C
:1008D000EEF0A3EFF08002C209E4F535F536F5320B
:1008E000E53225E02408F8E2F53308E2F534AE33CA
:1008F000FF7C007D6412029BC006C007E53225E044
:10090000244CF582E43400F583E0FEA3E0FFFBAA6B
:1009100006E4F9F8D007D006120169E5186021C392
:10092000EF941EEE94005018E53225E02410F8E410
:10093000F208F2E53225E0240CF8E4F208F2807BBC
:10094000C3E5349536FFE5339535FE7C007D6412B2
:10095000029BC006C007E53225E0244CF582E43452
:1009600000F583E0FEA3E0FFFBAA06E4F9F8D00758
:10097000D006120169E53225E02410F8EEF208EF06
:10098000F2AE33AF347C007D6412029BC006C00718
:10099000E53225E0244CF582E43400F583E0FEA343
:1009A000E0FFFBAA06E4F9F8D007D006120169E5DA
:1009B0003225E0240CF8EEF208EFF20532E532645D
:1009C0000260030208D022E4FD300520ED25E0247A
:1009D00038F582E43418F583E493FE740193FFED57
:1009E00025E02433F8A60608A6078041300420ED50
:1009F00025E02418F582E43418F583E493FE7401AD
:100A000093FFED25E02433F8A60608A607801EED27
:100A100025E02408F582E43418F583E493FE74019C
:100A200093FFED25E02433F8A60608A6070DBD02C6
:100A300098E4FDED25E0241CF8E2FE08E2FFED2538
:100A4000E0240DF9D3E39F19E39E4016ED25E02441
:100A50000CF8E2FE08E2FFED25E0241CF8EEF208B7
:100A6000EFF2ED25E02433F8E6FE08E6FFEEC313CF
:100A7000FEEF13FFED25E0240DF9D3E39F19E39E6C
:100A80005034ED25E02433F8E6FE08E6FFED75F07E
:100A900008A4245CF8A60608A607ED25E02433F890
:100AA000E6FE08E625E0FFEE33F8ED25E0241CC85D
:100AB000F208EFF2803CED25E02428F582E43418BA
:100AC000F583E493FE740193FFED25E0240DF9D343
:100AD000E39F19E39E401BED25E0241CF9E3C313BB
:100AE000FE09E313FFED75F008A4245CF8A60608E0
:100AF000A6070DED64026003020A23E4FDED75F024
:100B000008A4245CF8E6FE08E6FFED25E02420F8C2
:100B1000EEF208EFF20DBD02E42285BA3953BA0FA6
:100B200043BA10E4F533E53325E025E02474F812E8
:100B30000263000000000533E533B402E9753305B4
:100B400075ABFF121A3EE4F534E53425E025E024C8
:100B500074F8C000120232C004C005C006C0077499
:100B6000842534F8E675F003A42456F582E4341B9A
:100B7000F583E493FB740193FA740293F9120295DE
:100B8000A804A905AA06AB07D007D006D005D00453
:100B9000EF2BFFEE3AFEED39FDEC38FCD0001202EF
:100BA0004B0534E534C39402409FE4F5AB121A3E82
:100BB000E4F534E53425E025E02474F8C0001202A1
:100BC00032C004C005C006C00774842534F8E67539
:100BD000F003A42456F582E4341BF583E493FB74FC
:100BE0000193FA740293F9120295A804A905AA06C2
:100BF000AB07D007D006D005D004C3EF9BFFEE9A19
:100C0000FEED99FDEC98FCD00012024B0534E53462
:100C1000C39402409E1533E5336003020B30E4F5C4
:100C200034E4753810753727F536F535AF38AE37FB
:100C3000AD36AC35780712021F8F388E378D368C63
:100C400035E53425E025E02474F812023E120169EE
:100C50008F388E378D368C3574522534F8A60705BB
:100C600034E534B402BB8539BA22439F04E453C649
:100C7000DFE5C600B5C6F375830075820775FD0D07
:100C8000E4E5FEF4FF75830075820675FD0DE4E56D
:100C9000FEB50704F59E8003759E0078100000D80D
:100CA000FC53C6E043C60843C68075960775970394
:100CB00075830075820475FD0D85FE8F7583007543
:100CC000820375FD0DE4E5FEF4FF75830075820275
:100CD00075FD0DE4E5FEB50704F595800375958374
:100CE00075BE0E5392FE9001007F007E02E4F0A3D9
:100CF000DFFCDEFA78007F00E4F208DFFC78FFE436
:100D0000F6D8FD75818F020D37020000020E94E4C3
:100D100093A3F8E493A34003F68001F208DFF48084
:100D200029E493A3F85407240CC8C333C4540F44D4
:100D300020C8834004F456800146F6DFE4800B01AE
:100D400002040810204080901658E47E019360BC95
:100D5000A3FF543F30E509541FFEE493A360010E46
:100D6000CF54C025E060A840B8E493A3FAE493A36D
:100D7000F8E493A3C8C582C8CAC583CAF0A3C8C58E
:100D800082C8CAC583CADFE9DEE780BE7533077D46
:100D90000774017E00A833088005C333CE33CED854
:100DA000F9FFACACECFBE4EF5B7003D533E3ED6033
:100DB0001D74017E00A805088005C333CE33CED84C
:100DC000F9FFACAEECFBE4EF5B70031D80E0AF33EA
:100DD0007401A807088002C333D8FCF5AC7401A8DD
:100DE00005088002C333D8FCFFF5AD8FAE53AACF00
:100DF00085BA3C53BA0F43BA10E4F537F536F535EA
:100E0000F534121A3EE4F53374842533F8E675F0B0
:100E100003A42456F582E4341BF583E49374019310
:100E2000FA740293F91202958F3B8E3A8D398C3801
:100E3000AB37AA36A935A834C31201FB500C853B49
:100E400037853A368539358538340533E533C394EB
:100E50000240B5AF37AE36AD35AC34780212020C75
:100E6000E5372FF537E5363EF536E5353DF535E521
:100E7000343CF534AF37AE36AD35FC781012020C89
:100E80008FB3AF37AE36AD35AC34780812020C8F65
:100E9000B28537B143AA30853CBA75AC0375ADC095
:100EA00075AEC022121AEB7D01E4FF1218D17F014A
:100EB000121A8A7F01121ACE121C3C121C2F121A0F
:100EC0006412150C12190C1219AED2AF753E01E561
:100ED0003E24FD601714602024FE602D1460311440
:100EE0007003020F7324076003020F761217BD12FE
:100EF00012F1753E04020F76D2D8E53F70FC120065
:100F00003E121B6E753E06807D1202C88F3E8076B3
:100F1000D390007DE0940090007CE09400400CA30E
:100F2000E024FFF090007CE034FFF0D3900091E0EB
:100F30009400900090E09400400CA3E024FFF09017
:100F40000090E034FFF0D3900093E0940090009282
:100F5000E094004016A3E024FFF0900092E034FFFC
:100F6000F0E07002A3E0700312157F900079E004B6
:100F7000F07006900078E004F0121413120FA88F9E
:100F80003E8003753E0490008DE0B40124E4784B6C
:100F9000F6FF121C3CE4F0F51CF51D00051DE51DD7
:100FA0007002051CB42CF4E51CB401EF7F01121C87
:100FB0003C12117F020EBF22E4F530753108120891
:100FC0003D12185112138F121A13900075EFF01280
:100FD000000EEF605F7F0112197AAD07AC06D39067
:100FE000007DE0940090007CE094004010ECC4F898
:100FF00054F0C868FCEDC4540F48FD802E30081131
:10100000EDAE047803CEC313CE13D8F9FDAC068041
:101010001AC37825E2941E18E29400500EECC4F82E
:1010200054F0C868FCEDC4540F48FDAF05AE04127F
:1010300004BE8003AF3122900074E06034E490007D
:1010400080F0A3F090007FE004F0700690007EE056
:1010500004F07F0512197AD390007FE09F90007E04
:10106000E09E4014E4FF1216B7E4900076F07F0390
:1010700022E490007EF0A3F0900074E0FF900076F0
:10108000E06F602A1216B7900074E0900076F07856
:101090004CE654F060187F0C12197A900090EEF034
:1010A000A3EFF0900090E0C313F0A3E013F0AF3192
:1010B00022C0E0C0F0C083C082C0D075D008C2CFCB
:1010C00030CD0302117430CB4720CC447840A6CEFB
:1010D000E6FFC39480403075F003EFA424E9F58265
:1010E000E5F03415F583E493FB740193FA740293ED
:1010F0008B238A24F5250525E5257002052414F99E
:1011000012005EF5CE80097840E62522F8E6F5CE9D
:1011100030CC297840E6C394804015AB230525E503
:1011200025AA247002052414F912005EF5CE805021
:10113000784006E62522F8E6F5CE804420CB41AF84
:10114000CE7840E6FE7028BF10028034BF200280B7
:101150002FBF5008784FE64401F68024BF6008781E
:101160004FE654FEF680197841A60F18068011EE5E
:10117000C3940A50087840E62441F8A60F78400648
:10118000784B7601D0D0D082D083D0F0D0E032201E
:10119000CA0302123F7841E6700302123FE4784B23
:1011A000F6F53074412530F8E6FF74262530F8A6B0
:1011B0000774412530F8E4F60530E530B40AE478E8
:1011C0004BE6700320CA12E4F53074262530F8E4AB
:1011D000F60530E530B40AF222E52624E0600F245B
:1011E000B0601224607017E4FF121A8A80107F0129
:1011F000121A8A8009E4FF121B3D7851A607E526E2
:1012000054F064807049E52745286043E527FE7C5B
:1012100000E42528FFEC3EFEC3EF940AEE94004064
:101220002EE526540FFDBD0F19E4F530E53075F0BD
:1012300008A4245CF8A60608A6070530E530B40229
:10124000EB22ED75F008A4245CF8A60608A6072298
:10125000E4FFFEEE75F008A4245CF8E6FC08E6FD69
:10126000EE25E02411F9C3E39D19E39C400D7401C0
:10127000A806088002C333D8FC42070EBE02D48001
:101280007DEEC394025077EE75F008A4245CF8E676
:10129000FC08E6FDEE25E02411F9C3E39D19E39C6B
:1012A000401DEE25E02415F9C3E3940A19E39400E8
:1012B000400D7401A806088002C333D8FC4207EE33
:1012C00075F008A4246CF8E6FC08E6FDEE25E024A1
:1012D00015F9C3E39D19E39C4021EE25E02411F9A3
:1012E000C3E3940A19E394004011EE2402FD740153
:1012F000A805088002C333D8FC42070E80838F18EC
:1013000022E4F531F532121B08E4900074F09000ED
:1013100076F0A3F090007EF0A3F0A3F0A3F090008D
:1013200094F0A3F0900090F0A3F0F521F530E530B3
:1013300025E0244CF582E43400F583E0FEA3E0FFD1
:10134000900088E02FF0900087E03EF00530E53017
:10135000B402DB900087E0FEA3E0FF7C007D0A1270
:101360000089900087EEF0A3EFF0120D7C120B0ABB
:101370001206B38019E530C3940A5012E53025E017
:101380002428F8740BF20874B8F2053080E77F0A5D
:1013900012197A90007CEEF0A3EFF0121B6E22E49B
:1013A000F532E53225E02404F8E2FE08E2FFE532FA
:1013B00025E02400F8E2FC08E2FDC39FEC9E5044C7
:1013C000E53225E02405F8C3E29DF53418E29CF5EA
:1013D00033FEAF347C007D6412029BC006C007E57B
:1013E0003225E0244CF582E43400F583E0FEA3E0EE
:1013F000FFFBAA06E4F9F8D007D0061201698E3582
:101400008F368009E4F533F534F535F536D3E53616
:10141000940AE53594004002D2080532E5326402B0
:10142000708022E4F530E53075F008A4245EFFE515
:101430003025E0240CF8E2FC08E2FD121B83E530C5
:1014400075F008A42460FFE53025E02408F8E2FCEC
:1014500008E2FD121B83E53075F008A42462FBC08E
:1014600003E53025E02400F8E2FE08E2FFE4FCFD9D
:10147000E53025E025E0246CF812023EEF2BFFEE6C
:101480003AFEED39FDEC38FC780412020CAD07ACE5
:1014900006D007121B830530E530C39402408778DD
:1014A0004FE6F520227DFF80707864E6FE08E6FFB7
:1014B000C37813E29F18E29E40107874E6FE08E6B7
:1014C000FF7817E29F18E29E504F780CE2FE08E288
:1014D000FF7809E22FF53418E23EF533780EE2FE8C
:1014E00008E2FF780BE22FFF18E23EAB07FAEB258C
:1014F000E0FFEA33FEC3E5349FE5339E5003530516
:10150000FAE53425E0FFE53333FEC3EB9FEA9E5056
:10151000085305F580035305F08D1922E4F5307862
:101520004CF6FF121B3D8F30E530BFFF06784D763D
:10153000038004784D76FF784E7625E408F67851DE
:1015400076FFFFEF25E02408F582E43418F583E404
:1015500093FC740193FDEF75F008A4245CF8A604D5
:1015600008A605EF75F008A4245EF8E4F608F6EF87
:1015700075F008A42460F8E4F608F6EF75F008A406
:101580002462F8E4F608F60FBF02B875224C22E494
:10159000FBEB25E025E0247CF8120232EF2448FF23
:1015A000EE34F4FEED34FFFDEC34FFFCEB25E025DA
:1015B000E0246CF812024BEB25E02400F8740BF2E7
:1015C0000874B8F2EBC394025017EB25E02408F836
:1015D000E4F208F2EB25E02404F8740BF20874B886
:1015E000F20BBB02AC22EBC3940A5010EB25E024B3
:1015F00028F8740BF20874B8F20B80EA22C0E0C03D
:10160000F0C083C082C0D075D000C000C004C00547
:10161000C006C007C28D758CD8758AF0051FE51FFE
:101620007002051EAE1EFF7C007D64120089ED4C29
:101630007021900078E0FEA3E0FFD3940AEE9400BE
:101640004006A3EEF0A3EFF0900078E4F0A3F0F5ED
:101650001EF51FD007D006D005D004D000D0D0D0C2
:1016600082D083D0F0D0E03208840102FFFFFFFF78
:10167000FFFF048C00000000604A004C017202442D
:1016800000640064006400640064006401020408F3
:101690000506070800000000000000000000000030
:1016A000000000000000000000000000000000003A
:1016B000000000000000000000000000000000002A
:1016C0000000000000000090008DE0705504F0E480
:1016D000FEFDFC7401A804088002C333D8FCF9FBAA
:1016E000900076E05BB50313EC2404FA7401A802C1
:1016F000088002C333D8FC42068003E94206EF5B50
:10170000B50305E942058011EC2404FB7401A8032C
:10171000088002C333D8FC42050CBC02B6EE5D78EB
:101720004CF622C0E0C0F0C083C082C0D075D0109B
:1017300053B9FD753D007484253DF8E675F003A4AA
:101740002456F582E4341BF583E493740193FA7410
:101750000293F9120295E53D25E025E02474F81284
:10176000024B053DE53DC3940240CB753F00D0D010
:10177000D082D083D0F0D0E032FE0000FE0008FE20
:101780000004FE000CFE0008FE0010FE000CFE002F
:1017900014FE0010FE001800007400007C0000849D
:1017A00000008C000018010075010074010076FE35
:1017B0000014FE001C01007801009201008D010060
:1017C0009001006401006CFE0020FE0048E4FFFE72
:1017D00074842EF8E69018489342070EBE02F1EF8B
:1017E00042D4EF42F4EF42E4EFF452DC75AA3B75C9
:1017F000BA0C43BA4043B92053B9BF8FB4E4F5B330
:1018000075B24E75B12075BBFF75A950F5AB75ACBF
:101810000375ADC075AEC022003200320032003216
:101820000032003200320032003200320032003228
:10183000003200320032003200780078003200328C
:10184000003200320032003203E803E80032003296
:1018500000320032003200320102040810204080C1
:101860004A7810E2FE08E2FF8E32F5337D01ED2565
:10187000E02410F8E2FA08E2FBC39533EA9532500F
:10188000048A328B33D3EB9FEA9E4004AE02AF034F
:101890000DBD02DA7826E532F208E533F27824EE5F
:1018A000F208EFF222121A3EE4F53974842539F871
:1018B000E675F003A42456F582E4341BF583E49323
:1018C000740193FA740293F9120295E53925E02523
:1018D000E02474F812024B0539E539C3940240CB79
:1018E00022E4FE7C02ECC39402500E74842CF8E6D1
:1018F0009018489342060C80ECEF6005EE42D480CD
:1019000004EEF452D4EEF4FF52F4EE42E4ED60053E
:10191000EE42EC8003EF52ECEF52DC227E007F645B
:10192000E4FDED25E024AEF582E4341AF583E4937A
:10193000B4FF03228019ED25E024AFF582E4341AC8
:10194000F583E493FCEF2DF582E43EF583ECF00D96
:10195000BD10CF22E4FFFEEE75F008A4245DF8E68A
:1019600024FBFD18E634FFFCEE25E0240DF9C3E36B
:101970009D19E39C400D7401A806088002C333D86A
:10198000FC42070EBE02D08F1B22753900753A64E7
:101990007B017A00BFFF057F017E0022E53A2FF52B
:1019A00082E43539F583E07A00FB90007AE0FCA30D
:1019B000E0FDAF037E00120077AA06AB072243F8D2
:1019C0000875CD4053CC7F43CC4043CC2043CC1052
:1019D00043CC0453CCFD43CB0243CB0153CBBF4399
:1019E000E80853E5FC43E30243F50343900343ED6A
:1019F0000322A907E4FDFC74017E00A80408800509
:101A0000C333CE33CED8F9FFE9FBE4EF5B600D744E
:101A100001A804088002C333D8FC42050CBC02D7DD
:101A2000AF05221209B712124012149512000312C8
:101A30001944900074E0700D851832E5195232E5B2
:101A40001A52328003851B32AF321219E22275BF5F
:101A50000F00000000000000000000000000000077
:101A6000000000D2D853B9FD43B901E5B930E1FB1C
:101A7000E4F5BF22438901C28DD2A953B8FDE4F534
:101A80001EF51F900078F0A3F0A3F0A37464F07526
:101A90008CD8758AF0D28CD2AF22E4FE7D02EDC3E1
:101AA0009402500E74842DF8E69018489342060D67
:101AB00080ECEF6004EE428022EEF45280220002BD
:101AC0000101020103010402050606060702080AD5
:101AD00009020A020B280C010D030E01FF01EF6041
:101AE0000543D504800353D5FB53F5FB53E5FB4376
:101AF000E30443ED04E490008DF022E4F5E3439F1A
:101B000010439F02FF0FBFFFFC539FEF75BE0EE413
:101B1000F5BFF5B97592762253BAFEE5B920E00417
:101B2000E53F6005E5B930E1FBE4F5BF53B9FE538D
:101B3000B9FD22AB07AA06D3EB9DEA9C4007EB9DBB
:101B4000FFEA9CFE22C3ED9BFFEC9AFE228F32E45B
:101B5000FFF582F5837420FEE493F42FFFA3EEB526
:101B600083F622AF3222FF1B97FF1BAAFF1BBDFF8C
:101B70001BD0FF1BE3FF1BF6FF1C09FF1C1C75BFDE
:101B80000F43B92053B9FD43BA01753F0143B90171
:101B9000D2D822AB07AF04AE05C2AFA803A607E8B0
:101BA00004F8A606D2AF2253B9EF788DA6B708A6DF
:101BB000B608A6B5788C1202322253B9EF788DA6FA
:101BC000EB08A6EA08A6E9788C1202322253B9EF94
:101BD000788DA6F308A6F208A6F1788C12023222BC
:101BE00053B9EF788DA6FB08A6FA08A6F9788C12EF
:101BF00002322243B910788DA6B708A6B608A6B55A
:101C0000788C1202322243B910788DA6EB08A6EA2E
:101C100008A6E9788C1202322243B910788DA6F317
:101C200008A6F208A6F1788C1202322243B9107885
:101C30008DA6FB08A6FA08A6F9788C12023222C2F9
:101C4000DA53D80F43D8D0D2D8D2D922EF6003D2FA
:101C50009222C29222FFFFFFFFFFFFFFFFFFFFFF65
:101C6000FFFFFFFFFFFFFFFFFFFFFFFFFFFFFFFF84
:00000001FF
