:1000000001229C2108B5064B5242C360054B186083
:10001000054B06485A501A61002100F023F808BD2C
:10002000DC7D0000287F0000F07D0000D07D000016
:100030000B7830B5002B04D00A1C01321478002C48
:10004000FBD1041C021C083400E00B7813705D1E09
:10005000AB410132C918A242F7D130BD0020704730
:1000600000207047031C10B584B00C1C6846191C96
:10007000FFF7DEFF01230393044B02941B686946DC
:100080009A6818689368984704B010BD287F0000EC
:10009000031C10B584B00C1C6846191CFFF7C8FF80
:1000A0000F230393044B02941B6869469A681868EF
:1000B0009368984704B010BD287F0000002210B557
:1000C00086B003900592012817D902380E4B8000A4
:1000D000C35804930D4B05AA186802218368009247
:1000E0009C6903AA04ABA047041E03D00848211C46
:1000F000FFF7CEFF201C06B010BD8C235843054BE4
:10010000C3580493E6E7C046087F0000287F00003C
:10011000987D0000F07D0000F8B52B4B0C1C1B688F
:10012000002B08D0294DAE686B689E4203D9042A83
:100130001CD0002903D0201CFFF7C0FFF8BD012808
:10014000F9D1002A12D1224B1B689C46002BF2DD0C
:100150006B699E420CD2291C002303E004314F69D5
:10016000B74206D901336345F8D1E4E72E68EAE7E0
:100170000023002A07D113339B002330EB188000A3
:100180005B682A1853609423EA58043BEB58934267
:1001900000D2131C9822AA58934200D2131C8C221E
:1001A000A9589942C7D0AB500A4B1B68002B03D10A
:1001B0000120FFF783FFBEE70020FFF77FFF01204C
:1001C000FFF77CFFBAE7C046347F0000F07D0000F7
:1001D000387F00002C7F0000F0B5474680B40368EC
:1001E00088B01C685E689F68DB680D1E9846082D05
:1001F00041D0211CCE48FFF735FFCE48311CFFF718
:1002000031FF391CCC48FFF72DFF2104090C240CC9
:100210000491059606972404052F00D9DDE0C74B0D
:10022000BF00DB599F46C64F06AA38680221836883
:1002300000929E6904AA05ABB04703041B0C061C80
:1002400098463B68281C9B6803A9DB68984743468F
:100250001C430460059B4360BA48211CFFF702FF62
:100260003B68281C9B6803991B699847301C08B0A1
:1002700004BC9046F0BDA30E022B6CD1211CAC48EF
:10028000FFF7F0FEAB48311CFFF7ECFE391CAA4823
:10029000FFF7E8FE00232104090C240C04910596C5
:1002A00006932404012900D807E101200239A64B56
:1002B0008900CA58964200D19AE0CE500499069A15
:1002C000FFF72AFF03041B0C061C98469C4F281CB2
:1002D0003B6803A99B68DB689847082DB7D1434664
:1002E0001B0604604360049B002BB5D143462343A7
:1002F00098463B6807A99B680520DB6898474346FA
:100300000360924B9B6843603B6805209B6807999C
:100310001B699847A0E7012D00D188E00023002643
:100320009846874F8DE74346012B65D04346022B05
:100330006CD04346032B70D0844A0B1D9B00D3180E
:100340005E6043461331890051184B60002300263C
:1003500098467B4F75E77E48211CFFF799FE7D4844
:10036000311CFFF795FE002081E7002001299DD870
:10037000764B8F007918CA00521A121892009A18F8
:1003800056608C2204994A439A18171C9668526842
:100390000837B24200D2321C7E68964200D2161C48
:1003A0006D4A1660002904D11A68B2427DD26B4AA8
:1003B00011608C224A439F58B7426BD09E509A18C6
:1003C0001269964200D87AE7654E3668002E00D151
:1003D00075E78C264E439A5171E7594F281C3B68AC
:1003E00003A99B68DB689847002398461E1C2EE7EC
:1003F00000230026984669E742465A4B00261960BA
:10040000594B4F4F1A60002398461AE7544B4C4FF4
:100410001E6000230026984613E7893359434B4B4F
:10042000474F591800234E609846002609E78C2252
:100430004A434B4F454B3F6898180661002F00D147
:100440006CE7D758BE4214D387684268BA4200D2DC
:100450003A1C8C2048431818C068824200D2021C03
:10046000002A00D15AE7964225D800D356E78C22BD
:100470004A439E5000200422FFF74EFE304F0304F3
:100480001B0C98463B68061C9B6803A9DB6801208F
:100490009847DCE69A1812699642A9D9304E366818
:1004A000002E96D10023984610E7B24281D9012749
:1004B0002A4A17607DE7161CD9E72A4B1B689C4621
:1004C000012B53DD214B9A6996421ED8181C01223C
:1004D00003E004308769BE4218D801326245F8D182
:1004E00067468A005118CA00511A013FCF193A1DB8
:1004F00092009A18526801209A603A1C13329200B6
:100500009A185168942299503BE701228F007E1877
:10051000F000801B013A8218101D133280009200F7
:1005200018189A184668506894229850012021E7BC
:10053000B87D0000C07D0000C87D0000807D000007
:10054000287F0000B07D0000087F0000F07D0000E3
:10055000A07D0000A87D0000307F00002C7F0000FF
:10056000EC7D0000387F0000347F000063460120EE
:10057000012B00D0FCE6014BB2E7C046F07D000045
:100580006A7B0000267A0000267A0000267A0000A6
:10059000167B0000267B0000456476667300000031
:1005A0006570726F746F000065667265710000009F
:1005B0006676705F61636B006676706172673000AB
:1005C00066767061726731006676706172673200BC
:1005D0006676705F696E697400000000D97900006A
:1005E000617800005D78000000000000010000005C
:1005F00000000000000000000000000000000000FB
:1006000000000000000000000000000000000000EA
:1006100000000000000000000000000000000000DA
:1006200000000000000000000000000000000000CA
:00000001FF
