:1000000001229C2108B5064B5242C360054B186083
:10001000054B06485A501A61002100F023F808BD2C
:10002000A87C0000EC7D0000BC7C00009C7C0000F3
:100030000B7830B5002B04D00A1C01321478002C48
:10004000FBD1041C021C083400E00B7813705D1E09
:10005000AB410132C918A242F7D130BD0020704730
:1000600000207047031C10B584B00C1C6846191C96
:10007000FFF7DEFF01230393044B02941B686946DC
:100080009A6818689368984704B010BDEC7D00002A
:10009000031C10B584B00C1C6846191CFFF7C8FF80
:1000A0000F230393044B02941B6869469A681868EF
:1000B0009368984704B010BDEC7D0000002210B595
:1000C00086B003900592012817D902380E4B8000A4
:1000D000C35804930D4B05AA186802218368009247
:1000E0009C6903AA04ABA047041E03D00848211C46
:1000F000FFF7CEFF201C06B010BD8C235843054BE4
:10010000C3580493E6E7C046D47D0000EC7D0000B0
:10011000687C0000BC7C0000F8B52B4B0C1C1B68F5
:10012000002B08D0294DAE686B689E4203D9042A83
:100130001CD0002903D0201CFFF7C0FFF8BD012808
:10014000F9D1002A12D1224B1B689C46002BF2DD0C
:100150006B699E420CD2291C002303E004314F69D5
:10016000B74206D901336345F8D1E4E72E68EAE7E0
:100170000023002A07D113339B002330EB188000A3
:100180005B682A1853609423EA58043BEB58934267
:1001900000D2131C9822AA58934200D2131C8C221E
:1001A000A9589942C7D0AB500A4B1B68002B03D10A
:1001B0000120FFF783FFBEE70020FFF77FFF01204C
:1001C000FFF77CFFBAE7C046F87D0000BC7C00006A
:1001D000FC7D0000F07D0000F0B546464F46C0B4FF
:1001E000036887B01C685E689D68DB680F1E9846D0
:1001F000082F00D17BE0211C8548FFF733FF85489D
:10020000311CFFF72FFF291C8348FFF72BFF210428
:10021000090C240CB1460391049605952404062D7F
:1002200000D9EAE07D4AAB00D3589F46072959D14F
:1002300000237B48311C0593FFF714FF794B05AA77
:1002400018689846836800929D69022103AA04AB4E
:10025000A847061C05042D0C43461B68381C9B68E8
:1002600002A9DB689847291C21430160049B436075
:100270006D48FFF7F7FE43461B68381C9B680299E0
:100280001B699847301C07B00CBC90469946F0BDDE
:1002900001295FD98B1E654A9B009858864221D060
:1002A0009E5000200022FFF737FF5E4B0504061C1E
:1002B0002D0C9846D0E74346012B2CD04346022B09
:1002C00035D05B4A0B1D9B00D3185E60434613314B
:1002D000890051184B60534B002500269846BBE718
:1002E000012F27D04F4B002500269846B4E74D4DEF
:1002F00002A92B6808209B68240CDB689847002320
:100300002404046043602B6808209B6802991B69E1
:1003100098470020B7E74246454B00255E60454BB5
:1003200000261960444B1A603E4B984694E7434BB5
:100330001E60D7E78C224A43404D3D4B2D689818EC
:100340000661002DCED0D558AE422FD2D650002017
:100350000422A8E78C224A43354B9A1856609268CB
:10036000964200D2161C8C224A439A18D2689642B2
:1003700000D2161C324A1660002904D11A68B24213
:1003800033D2304A11608C224A439858B04223D06D
:10039000D6509A181269B24283D2284800680028C1
:1003A00000D17EE78C2048431A507AE7856842687E
:1003B000AA4200D22A1C8C2048431818C0688242E6
:1003C00000D2021C002A8DD0964214D88AD28C22E8
:1003D00048464A439850BAE79A181269B24281D205
:1003E000164800680028DDD17CE7B242CBD9012055
:1003F000144A1060C7E79146E9E70025094B381C0D
:1004000098461B6802A99B682E1CDB6898472AE760
:10041000707C0000787C0000807C00004C7C000038
:10042000887C0000EC7D0000947C0000D47D0000FE
:10043000BC7C0000FC7D0000F87D0000B87C000062
:10044000F47D0000F07D000000207047907A0000ED
:100450003C7A00003C7A00003C7A0000E07A000020
:10046000B67A00002C7A00004564766673000000BE
:10047000667670617267300066767061726731000F
:1004800066767061726732007365745F666C61676F
:10049000000000006676705F61636B006676705FD7
:1004A000696E697400000000D9790000617800006D
:1004B0005D78000000000000010000000000000066
:1004C000000000000000000000000000000000002C
:1004D000000000000000000000000000000000001C
:1004E000000000000000000000000000000000000C
:1004F00000000000000000000000000000000000FC
:00000001FF
